{
  "_format": "hh-sol-artifact-1",
  "contractName": "LootBox",
  "sourceName": "contracts/LootBox.sol",
  "abi": [
    {
      "inputs": [],
      "stateMutability": "nonpayable",
      "type": "constructor"
    },
    {
      "inputs": [],
      "name": "InvalidInitialization",
      "type": "error"
    },
    {
      "inputs": [],
      "name": "InvalidSignature",
      "type": "error"
    },
    {
      "inputs": [],
      "name": "NotInitializing",
      "type": "error"
    },
    {
      "inputs": [
        {
          "internalType": "address",
          "name": "owner",
          "type": "address"
        }
      ],
      "name": "OwnableInvalidOwner",
      "type": "error"
    },
    {
      "inputs": [
        {
          "internalType": "address",
          "name": "account",
          "type": "address"
        }
      ],
      "name": "OwnableUnauthorizedAccount",
      "type": "error"
    },
    {
      "inputs": [],
      "name": "ReentrancyGuardReentrantCall",
      "type": "error"
    },
    {
      "inputs": [],
      "name": "RequestNotFound",
      "type": "error"
    },
    {
      "inputs": [],
      "name": "Unauthorized",
      "type": "error"
    },
    {
      "anonymous": false,
      "inputs": [
        {
          "indexed": true,
          "internalType": "bytes32",
          "name": "boxId",
          "type": "bytes32"
        },
        {
          "indexed": false,
          "internalType": "enum LootBox.BoxType",
          "name": "boxType",
          "type": "uint8"
        },
        {
          "indexed": false,
          "internalType": "enum LootBox.BoxStatus",
          "name": "status",
          "type": "uint8"
        },
        {
          "indexed": false,
          "internalType": "enum LootBox.BoxTier",
          "name": "boxTier",
          "type": "uint8"
        },
        {
          "indexed": true,
          "internalType": "address",
          "name": "owner",
          "type": "address"
        },
        {
          "indexed": false,
          "internalType": "address",
          "name": "prizeToken",
          "type": "address"
        },
        {
          "indexed": false,
          "internalType": "uint256",
          "name": "prizeAmount",
          "type": "uint256"
        }
      ],
      "name": "BoxCreated",
      "type": "event"
    },
    {
      "anonymous": false,
      "inputs": [
        {
          "indexed": true,
          "internalType": "bytes32",
          "name": "boxId",
          "type": "bytes32"
        }
      ],
      "name": "BoxDeleted",
      "type": "event"
    },
    {
      "anonymous": false,
      "inputs": [
        {
          "indexed": true,
          "internalType": "bytes32",
          "name": "boxId",
          "type": "bytes32"
        },
        {
          "indexed": true,
          "internalType": "address",
          "name": "owner",
          "type": "address"
        }
      ],
      "name": "BoxOpened",
      "type": "event"
    },
    {
      "anonymous": false,
      "inputs": [
        {
          "indexed": true,
          "internalType": "bytes32",
          "name": "boxId",
          "type": "bytes32"
        },
        {
          "indexed": false,
          "internalType": "enum LootBox.BoxType",
          "name": "boxType",
          "type": "uint8"
        },
        {
          "indexed": false,
          "internalType": "enum LootBox.BoxTier",
          "name": "boxTier",
          "type": "uint8"
        },
        {
          "indexed": false,
          "internalType": "address",
          "name": "prizeToken",
          "type": "address"
        },
        {
          "indexed": false,
          "internalType": "uint256",
          "name": "prizeAmount",
          "type": "uint256"
        }
      ],
      "name": "BoxUpdated",
      "type": "event"
    },
    {
      "anonymous": false,
      "inputs": [
        {
          "indexed": false,
          "internalType": "uint64",
          "name": "version",
          "type": "uint64"
        }
      ],
      "name": "Initialized",
      "type": "event"
    },
    {
      "anonymous": false,
      "inputs": [
        {
          "indexed": true,
          "internalType": "address",
          "name": "previousOwner",
          "type": "address"
        },
        {
          "indexed": true,
          "internalType": "address",
          "name": "newOwner",
          "type": "address"
        }
      ],
      "name": "OwnershipTransferred",
      "type": "event"
    },
    {
      "anonymous": false,
      "inputs": [
        {
          "indexed": true,
          "internalType": "bytes32",
          "name": "requestId",
          "type": "bytes32"
        },
        {
          "indexed": false,
          "internalType": "uint256[]",
          "name": "randomWords",
          "type": "uint256[]"
        },
        {
          "indexed": true,
          "internalType": "bytes32",
          "name": "boxId",
          "type": "bytes32"
        }
      ],
      "name": "RandomWordsFulfilled",
      "type": "event"
    },
    {
      "anonymous": false,
      "inputs": [
        {
          "indexed": true,
          "internalType": "bytes32",
          "name": "requestId",
          "type": "bytes32"
        },
        {
          "indexed": true,
          "internalType": "address",
          "name": "requester",
          "type": "address"
        },
        {
          "indexed": false,
          "internalType": "uint256",
          "name": "numberOfWords",
          "type": "uint256"
        },
        {
          "indexed": true,
          "internalType": "bytes32",
          "name": "boxId",
          "type": "bytes32"
        },
        {
          "indexed": false,
          "internalType": "uint256",
          "name": "timestamp",
          "type": "uint256"
        }
      ],
      "name": "RandomWordsRequested",
      "type": "event"
    },
    {
      "anonymous": false,
      "inputs": [
        {
          "indexed": true,
          "internalType": "bytes32",
          "name": "boxId",
          "type": "bytes32"
        },
        {
          "indexed": false,
          "internalType": "address",
          "name": "prizeToken",
          "type": "address"
        },
        {
          "indexed": false,
          "internalType": "uint256",
          "name": "prizeAmount",
          "type": "uint256"
        }
      ],
      "name": "Refunded",
      "type": "event"
    },
    {
      "anonymous": false,
      "inputs": [
        {
          "indexed": true,
          "internalType": "address",
          "name": "oracle",
          "type": "address"
        },
        {
          "indexed": false,
          "internalType": "bool",
          "name": "enabled",
          "type": "bool"
        }
      ],
      "name": "UpdateOracle",
      "type": "event"
    },
    {
      "anonymous": false,
      "inputs": [
        {
          "indexed": true,
          "internalType": "uint256",
          "name": "newRate",
          "type": "uint256"
        },
        {
          "indexed": true,
          "internalType": "uint256",
          "name": "oldRate",
          "type": "uint256"
        },
        {
          "indexed": false,
          "internalType": "enum LootBox.BoxType",
          "name": "boxType",
          "type": "uint8"
        }
      ],
      "name": "UpdateWinRate",
      "type": "event"
    },
    {
      "anonymous": false,
      "inputs": [
        {
          "indexed": true,
          "internalType": "bytes32",
          "name": "boxId",
          "type": "bytes32"
        },
        {
          "indexed": true,
          "internalType": "address",
          "name": "loser",
          "type": "address"
        }
      ],
      "name": "UserLost",
      "type": "event"
    },
    {
      "anonymous": false,
      "inputs": [
        {
          "indexed": true,
          "internalType": "bytes32",
          "name": "boxId",
          "type": "bytes32"
        },
        {
          "indexed": true,
          "internalType": "address",
          "name": "winner",
          "type": "address"
        },
        {
          "indexed": false,
          "internalType": "address",
          "name": "prizeToken",
          "type": "address"
        },
        {
          "indexed": false,
          "internalType": "uint256",
          "name": "prizeAmount",
          "type": "uint256"
        }
      ],
      "name": "UserWon",
      "type": "event"
    },
    {
      "inputs": [],
      "name": "SIGNATURE_EXPIRY",
      "outputs": [
        {
          "internalType": "uint256",
          "name": "",
          "type": "uint256"
        }
      ],
      "stateMutability": "view",
      "type": "function"
    },
    {
      "inputs": [
        {
          "internalType": "bytes32",
          "name": "",
          "type": "bytes32"
        }
      ],
      "name": "boxes",
      "outputs": [
        {
          "internalType": "bytes32",
          "name": "id",
          "type": "bytes32"
        },
        {
          "internalType": "enum LootBox.BoxType",
          "name": "boxType",
          "type": "uint8"
        },
        {
          "internalType": "enum LootBox.BoxStatus",
          "name": "status",
          "type": "uint8"
        },
        {
          "internalType": "enum LootBox.BoxTier",
          "name": "boxTier",
          "type": "uint8"
        },
        {
          "internalType": "address",
          "name": "owner",
          "type": "address"
        },
        {
          "internalType": "address",
          "name": "prizeToken",
          "type": "address"
        },
        {
          "internalType": "uint256",
          "name": "prizeAmount",
          "type": "uint256"
        },
        {
          "internalType": "bool",
          "name": "won",
          "type": "bool"
        },
        {
          "internalType": "uint256",
          "name": "payout",
          "type": "uint256"
        }
      ],
      "stateMutability": "view",
      "type": "function"
    },
    {
      "inputs": [
        {
          "internalType": "bytes32",
          "name": "boxId",
          "type": "bytes32"
        }
      ],
      "name": "claimPrize",
      "outputs": [],
      "stateMutability": "nonpayable",
      "type": "function"
    },
    {
      "inputs": [
        {
          "internalType": "enum LootBox.BoxType",
          "name": "boxType",
          "type": "uint8"
        },
        {
          "internalType": "enum LootBox.BoxTier",
          "name": "boxTier",
          "type": "uint8"
        },
        {
          "internalType": "address",
          "name": "prizeToken",
          "type": "address"
        },
        {
          "internalType": "uint256",
          "name": "prizeAmount",
          "type": "uint256"
        }
      ],
      "name": "createBox",
      "outputs": [],
      "stateMutability": "payable",
      "type": "function"
    },
    {
      "inputs": [
        {
          "internalType": "bytes32",
          "name": "boxId",
          "type": "bytes32"
        }
      ],
      "name": "deleteBox",
      "outputs": [],
      "stateMutability": "nonpayable",
      "type": "function"
    },
    {
      "inputs": [],
      "name": "freeBoxWinRate",
      "outputs": [
        {
          "internalType": "uint256",
          "name": "",
          "type": "uint256"
        }
      ],
      "stateMutability": "view",
      "type": "function"
    },
    {
      "inputs": [
        {
          "internalType": "bytes32",
          "name": "requestId",
          "type": "bytes32"
        },
        {
          "internalType": "uint256[]",
          "name": "_randomWords",
          "type": "uint256[]"
        },
        {
          "internalType": "bytes32",
          "name": "boxId",
          "type": "bytes32"
        },
        {
          "internalType": "address",
          "name": "requester",
          "type": "address"
        },
        {
          "internalType": "uint256",
          "name": "timestamp",
          "type": "uint256"
        },
        {
          "internalType": "bytes",
          "name": "signature",
          "type": "bytes"
        }
      ],
      "name": "fulfillRandomWords",
      "outputs": [],
      "stateMutability": "nonpayable",
      "type": "function"
    },
    {
      "inputs": [
        {
          "internalType": "bytes32",
          "name": "boxId",
          "type": "bytes32"
        }
      ],
      "name": "getBox",
      "outputs": [
        {
          "components": [
            {
              "internalType": "bytes32",
              "name": "id",
              "type": "bytes32"
            },
            {
              "internalType": "enum LootBox.BoxType",
              "name": "boxType",
              "type": "uint8"
            },
            {
              "internalType": "enum LootBox.BoxStatus",
              "name": "status",
              "type": "uint8"
            },
            {
              "internalType": "enum LootBox.BoxTier",
              "name": "boxTier",
              "type": "uint8"
            },
            {
              "internalType": "address",
              "name": "owner",
              "type": "address"
            },
            {
              "internalType": "address",
              "name": "prizeToken",
              "type": "address"
            },
            {
              "internalType": "uint256",
              "name": "prizeAmount",
              "type": "uint256"
            },
            {
              "internalType": "bool",
              "name": "won",
              "type": "bool"
            },
            {
              "internalType": "uint256",
              "name": "payout",
              "type": "uint256"
            }
          ],
          "internalType": "struct LootBox.Box",
          "name": "",
          "type": "tuple"
        }
      ],
      "stateMutability": "view",
      "type": "function"
    },
    {
      "inputs": [
        {
          "internalType": "uint256",
          "name": "index",
          "type": "uint256"
        }
      ],
      "name": "getBoxIdAt",
      "outputs": [
        {
          "internalType": "bytes32",
          "name": "",
          "type": "bytes32"
        }
      ],
      "stateMutability": "view",
      "type": "function"
    },
    {
      "inputs": [],
      "name": "initialize",
      "outputs": [],
      "stateMutability": "nonpayable",
      "type": "function"
    },
    {
      "inputs": [
        {
          "internalType": "address",
          "name": "",
          "type": "address"
        }
      ],
      "name": "oracles",
      "outputs": [
        {
          "internalType": "bool",
          "name": "",
          "type": "bool"
        }
      ],
      "stateMutability": "view",
      "type": "function"
    },
    {
      "inputs": [],
      "name": "owner",
      "outputs": [
        {
          "internalType": "address",
          "name": "",
          "type": "address"
        }
      ],
      "stateMutability": "view",
      "type": "function"
    },
    {
      "inputs": [],
      "name": "paidBoxWinRate",
      "outputs": [
        {
          "internalType": "uint256",
          "name": "",
          "type": "uint256"
        }
      ],
      "stateMutability": "view",
      "type": "function"
    },
    {
      "inputs": [
        {
          "internalType": "bytes32",
          "name": "",
          "type": "bytes32"
        }
      ],
      "name": "pendingRequests",
      "outputs": [
        {
          "internalType": "bool",
          "name": "",
          "type": "bool"
        }
      ],
      "stateMutability": "view",
      "type": "function"
    },
    {
      "inputs": [
        {
          "internalType": "address",
          "name": "token",
          "type": "address"
        },
        {
          "internalType": "address",
          "name": "to",
          "type": "address"
        },
        {
          "internalType": "uint256",
          "name": "amount",
          "type": "uint256"
        }
      ],
      "name": "recoverERC20",
      "outputs": [],
      "stateMutability": "nonpayable",
      "type": "function"
    },
    {
      "inputs": [
        {
          "internalType": "address",
          "name": "to",
          "type": "address"
        },
        {
          "internalType": "uint256",
          "name": "amount",
          "type": "uint256"
        }
      ],
      "name": "recoverEth",
      "outputs": [],
      "stateMutability": "nonpayable",
      "type": "function"
    },
    {
      "inputs": [],
      "name": "renounceOwnership",
      "outputs": [],
      "stateMutability": "nonpayable",
      "type": "function"
    },
    {
      "inputs": [
        {
          "internalType": "uint256",
          "name": "numberOfWords",
          "type": "uint256"
        },
        {
          "internalType": "bytes32",
          "name": "boxId",
          "type": "bytes32"
        }
      ],
      "name": "requestRandomWords",
      "outputs": [
        {
          "internalType": "bytes32",
          "name": "requestId",
          "type": "bytes32"
        }
      ],
      "stateMutability": "nonpayable",
      "type": "function"
    },
    {
      "inputs": [
        {
          "internalType": "address",
          "name": "oracle",
          "type": "address"
        },
        {
          "internalType": "bool",
          "name": "enabled",
          "type": "bool"
        }
      ],
      "name": "setOracle",
      "outputs": [],
      "stateMutability": "nonpayable",
      "type": "function"
    },
    {
      "inputs": [
        {
          "internalType": "uint256",
          "name": "_newRate",
          "type": "uint256"
        },
        {
          "internalType": "enum LootBox.BoxType",
          "name": "boxType",
          "type": "uint8"
        }
      ],
      "name": "setWinRate",
      "outputs": [],
      "stateMutability": "nonpayable",
      "type": "function"
    },
    {
      "inputs": [],
      "name": "totalBoxes",
      "outputs": [
        {
          "internalType": "uint256",
          "name": "",
          "type": "uint256"
        }
      ],
      "stateMutability": "view",
      "type": "function"
    },
    {
      "inputs": [
        {
          "internalType": "address",
          "name": "newOwner",
          "type": "address"
        }
      ],
      "name": "transferOwnership",
      "outputs": [],
      "stateMutability": "nonpayable",
      "type": "function"
    },
    {
      "inputs": [
        {
          "internalType": "bytes32",
          "name": "boxId",
          "type": "bytes32"
        },
        {
          "internalType": "enum LootBox.BoxType",
          "name": "boxType",
          "type": "uint8"
        },
        {
          "internalType": "enum LootBox.BoxTier",
          "name": "boxTier",
          "type": "uint8"
        },
        {
          "internalType": "address",
          "name": "prizeToken",
          "type": "address"
        },
        {
          "internalType": "uint256",
          "name": "prizeAmount",
          "type": "uint256"
        }
      ],
      "name": "updateBox",
      "outputs": [],
      "stateMutability": "nonpayable",
      "type": "function"
    },
    {
      "inputs": [
        {
          "internalType": "address",
          "name": "",
          "type": "address"
        }
      ],
      "name": "userNonces",
      "outputs": [
        {
          "internalType": "uint256",
          "name": "",
          "type": "uint256"
        }
      ],
      "stateMutability": "view",
      "type": "function"
    },
    {
      "stateMutability": "payable",
      "type": "receive"
    }
  ],
  "bytecode": "0x60806040523480156200001157600080fd5b506200001c62000022565b620000d6565b7ff0c57e16840df040f15088dc2f81fe391c3923bec73e23a9662efc9c229c6a00805468010000000000000000900460ff1615620000735760405163f92ee8a960e01b815260040160405180910390fd5b80546001600160401b0390811614620000d35780546001600160401b0319166001600160401b0390811782556040519081527fc7f505b2f371ae2175ee4913f4499e1f2633a7b5936321eed1cdaeb6115181d29060200160405180910390a15b50565b61380780620000e66000396000f3fe60806040526004361061011f5760003560e01c8063041368ed1461012b5780630589c9701461014d5780631171bda9146101e85780632795ad20146102085780632f7801f41461024857806357e78adc146102835780636536084314610298578063715018a6146102b85780638129fc1c146102cd57806384393706146102e25780638da5cb5b1461030257806391a85dde14610324578063a46e717e14610344578063a55f056514610364578063addd509914610391578063b0fc9440146103c1578063c0416606146103e1578063c4018427146103f7578063e1e1005414610417578063e30459bc1461042d578063e72c571714610443578063ebc5a82914610463578063ef31d20e14610476578063f2fde38b1461049657600080fd5b3661012657005b600080fd5b34801561013757600080fd5b5061014b610146366004612dc2565b6104b6565b005b34801561015957600080fd5b506101ca610168366004612e17565b6005602081905260009182526040909120805460018201546002830154600384015460048501549490950154929460ff808416956101008504821695620100008604831695630100000090046001600160a01b03908116951693929091169089565b6040516101df99989796959493929190612e77565b60405180910390f35b3480156101f457600080fd5b5061014b610203366004612ee4565b61077a565b34801561021457600080fd5b50610238610223366004612e17565b60046020526000908152604090205460ff1681565b60405190151581526020016101df565b34801561025457600080fd5b50610275610263366004612f20565b60096020526000908152604090205481565b6040519081526020016101df565b34801561028f57600080fd5b506102756108b9565b3480156102a457600080fd5b5061014b6102b3366004612f49565b6108ca565b3480156102c457600080fd5b5061014b610991565b3480156102d957600080fd5b5061014b6109a5565b3480156102ee57600080fd5b5061014b6102fd366004612fd7565b610aee565b34801561030e57600080fd5b50610317611166565b6040516101df91906130ea565b34801561033057600080fd5b5061014b61033f3660046130fe565b611181565b34801561035057600080fd5b5061014b61035f366004612e17565b6112eb565b34801561037057600080fd5b5061038461037f366004612e17565b611326565b6040516101df919061312a565b34801561039d57600080fd5b506102386103ac366004612f20565b60086020526000908152604090205460ff1681565b3480156103cd57600080fd5b5061014b6103dc366004612e17565b6114b2565b3480156103ed57600080fd5b5061027561012c81565b34801561040357600080fd5b50610275610412366004612e17565b611630565b34801561042357600080fd5b5061027560025481565b34801561043957600080fd5b5061027560035481565b34801561044f57600080fd5b5061014b61045e3660046131c2565b611691565b61014b6104713660046131ec565b611797565b34801561048257600080fd5b50610275610491366004613237565b611cae565b3480156104a257600080fd5b5061014b6104b1366004612f20565b611f46565b6104be611f81565b816001600160a01b038116156105b257803b63ffffffff166104fb5760405162461bcd60e51b81526004016104f290613259565b60405180910390fd5b6000816001600160a01b03163060405160240161051891906130ea565b60408051601f198184030181529181526020820180516001600160e01b03166370a0823160e01b1790525161054d91906132a5565b6000604051808303816000865af19150503d806000811461058a576040519150601f19603f3d011682016040523d82523d6000602084013e61058f565b606091505b50509050806105b05760405162461bcd60e51b81526004016104f2906132c1565b505b6105bd600687611fb3565b6105d95760405162461bcd60e51b81526004016104f2906132ee565b600082116105f95760405162461bcd60e51b81526004016104f290613318565b600085600181111561060d5761060d612e30565b148061062a5750600185600181111561062857610628612e30565b145b6106465760405162461bcd60e51b81526004016104f29061335e565b600084600281111561065a5761065a612e30565b14806106775750600184600281111561067557610675612e30565b145b806106935750600284600281111561069157610691612e30565b145b6106af5760405162461bcd60e51b81526004016104f290613388565b600086815260056020526040902060018082018054889260ff199091169083818111156106de576106de612e30565b021790555060018101805486919062ff000019166201000083600281111561070857610708612e30565b02179055506002810180546001600160a01b0319166001600160a01b0386161790556003810183905560405187907fc02b41847a14cdd8174ef635596ee9edf41c26174db1c1dc05c098129f4cd35d906107699089908990899089906133b2565b60405180910390a250505050505050565b610782611f81565b61078a611fc6565b6001600160a01b0382166107d25760405162461bcd60e51b815260206004820152600f60248201526e496e76616c6964206164647265737360881b60448201526064016104f2565b6040516370a0823160e01b81526000906001600160a01b038516906370a08231906108019030906004016130ea565b602060405180830381865afa15801561081e573d6000803e3d6000fd5b505050506040513d601f19601f8201168201806040525081019061084291906133ea565b9050600081116108805760405162461bcd60e51b81526020600482015260096024820152684e6f20746f6b656e7360b81b60448201526064016104f2565b808211156108a05760405162461bcd60e51b81526004016104f290613403565b6108ab848484611ffc565b506108b4612052565b505050565b60006108c56006612063565b905090565b6108d2611f81565b6001600160a01b0382166109215760405162461bcd60e51b8152602060048201526016602482015275496e76616c6964206f7261636c65206164647265737360501b60448201526064016104f2565b816001600160a01b03167fa035e0992cbeda3214dc4bcec01fe216ab2be4a7cf8c826e4fdc886b853846ac8260405161095e911515815260200190565b60405180910390a26001600160a01b03919091166000908152600860205260409020805460ff1916911515919091179055565b610999611f81565b6109a3600061206d565b565b60006109af6120c9565b805490915060ff600160401b82041615906001600160401b03166000811580156109d65750825b90506000826001600160401b031660011480156109f25750303b155b905081158015610a00575080155b15610a1e5760405163f92ee8a960e01b815260040160405180910390fd5b84546001600160401b03191660011785558315610a4757845460ff60401b1916600160401b1785555b610a50336120f2565b610a58612103565b6040516001600160601b03193360601b16602082015242603482015260540160408051601f1981840301815291905280516020909101206000908155601e60025560326003556001558315610ae757845460ff60401b19168555604051600181527fc7f505b2f371ae2175ee4913f4499e1f2633a7b5936321eed1cdaeb6115181d29060200160405180910390a15b5050505050565b3360009081526008602052604090205460ff16610b1d576040516282b42960e81b815260040160405180910390fd5b610b25611fc6565b60008781526004602052604090205460ff16610b5457604051632589d98f60e11b815260040160405180910390fd5b610b648787878733888888612113565b610b8157604051638baa579f60e01b815260040160405180910390fd5b610b8c600686611fb3565b610ba85760405162461bcd60e51b81526004016104f2906132ee565b600085815260056020526040902060018082810154610100900460ff1690811115610bd557610bd5612e30565b14610c135760405162461bcd60e51b815260206004820152600e60248201526d105b1c9958591e481bdc195b995960921b60448201526064016104f2565b6001810154630100000090046001600160a01b031615610c655760405162461bcd60e51b815260206004820152600d60248201526c2137bc103430b99037bbb732b960991b60448201526064016104f2565b6001810180546301000000600160b81b03191663010000006001600160a01b0388160217905560008060018084015460ff1690811115610ca757610ca7612e30565b03610cde57600254606489600081518110610cc457610cc4613433565b6020026020010151610cd6919061345f565b109050610d0c565b600354606489600081518110610cf657610cf6613433565b6020026020010151610d08919061345f565b1090505b610d576040518060400160405280600f81526020016e02930b73237b690373ab6b132b91d1608d1b81525089600081518110610d4a57610d4a613433565b60200260200101516122ca565b610d846040518060400160405280600b81526020016a02932b8bab2b9ba32b91d160ad1b8152508761230f565b60408051808201909152600a81526902137bc102a3cb8329d160b51b6020820152600180840154610dca929160ff90911690811115610dc557610dc5612e30565b6122ca565b610dfe6040518060400160405280600e81526020016d0283934bd329020b6b7bab73a1d160951b81525083600301546122ca565b610e256040518060400160405280600581526020016402bb7b71d160dd1b81525082612354565b60408051808201909152600d81526c0283934bd32902a37b5b2b71d1609d1b60208201526002830154610e6191906001600160a01b031661230f565b801561106a5760006001808085015460ff1690811115610e8357610e83612e30565b14610e8f576064610ec1565b606489600081518110610ea457610ea4613433565b6020026020010151610eb6919061345f565b610ec1906001613489565b905060006001808086015460ff1690811115610edf57610edf612e30565b14610eee578360030154610f0a565b6064828560030154610f00919061349c565b610f0a91906134b3565b9050610f376040518060400160405280600981526020016802832b931b2b73a1d160bd1b815250836122ca565b6000818560030154610f4991906134c7565b9050610fa16040518060400160405280600881526020016702830bcb7baba1d160c51b81525083604051806040016040528060128152602001710102932b6b0b4b734b73390283934bd329d160751b81525084612399565b60048501805460ff19166001179055600585018290558015611015576002850154610fdd906001600160a01b0316610fd7611166565b836123e8565b60028501546040518b916000805160206137b28339815191529161100c916001600160a01b03169085906134da565b60405180910390a25b60028501546040516001600160a01b03808c16928d927f6ca0da92c4797a558f7e777695e71010ca0bbf7b7007b7e0402c5921a25fb4d89261105a92169087906134da565b60405180910390a3505050611101565b600282015461108e906001600160a01b0316611084611166565b84600301546123e8565b6040516001600160a01b0387169088907f059c544c2595303434d37bd8ee8af000818be6066beb8c37844d43f7ee80a44490600090a36002820154600383015460405189926000805160206137b2833981519152926110f8926001600160a01b03909216916134da565b60405180910390a25b60008981526004602052604090819020805460ff191690555187908a907fc9245471e1eda01df96ac978bd431512e8e4f71c9541c7d946973b851391d8ad9061114b908c906134f3565b60405180910390a3505061115d612052565b50505050505050565b60008061117161240b565b546001600160a01b031692915050565b611189611f81565b600081600181111561119d5761119d612e30565b14806111ba575060018160018111156111b8576111b8612e30565b145b6111d65760405162461bcd60e51b81526004016104f29061335e565b600182101580156111e8575060648211155b61123f5760405162461bcd60e51b815260206004820152602260248201527f57696e2072617465206d757374206265206265747765656e203120616e642031604482015261030360f41b60648201526084016104f2565b600081600181111561125357611253612e30565b036112875760025482600080516020613792833981519152836040516112799190613537565b60405180910390a350600255565b600181600181111561129b5761129b612e30565b036112cf5760035482600080516020613792833981519152836040516112c19190613537565b60405180910390a350600355565b60405162461bcd60e51b81526004016104f29061335e565b5050565b6112f3611f81565b6112fe600682611fb3565b61131a5760405162461bcd60e51b81526004016104f2906132ee565b6113238161242f565b50565b611376604080516101208101909152600080825260208201908152602001600081526020016000815260006020820181905260408201819052606082018190526080820181905260a09091015290565b611381600683611fb3565b61139d5760405162461bcd60e51b81526004016104f2906132ee565b6000828152600560209081526040918290208251610120810190935280548352600180820154919284019160ff16908111156113db576113db612e30565b60018111156113ec576113ec612e30565b81526020016001820160019054906101000a900460ff16600181111561141457611414612e30565b600181111561142557611425612e30565b81526020016001820160029054906101000a900460ff16600281111561144d5761144d612e30565b600281111561145e5761145e612e30565b815260018201546001600160a01b03630100000090910481166020830152600283015416604082015260038201546060820152600482015460ff161515608082015260059091015460a09091015292915050565b6114ba611fc6565b6114c5600682611fb3565b6114e15760405162461bcd60e51b81526004016104f2906132ee565b60008181526005602052604090206001810154630100000090046001600160a01b031633146115425760405162461bcd60e51b815260206004820152600d60248201526c2737ba103a34329037bbb732b960991b60448201526064016104f2565b60018082810154610100900460ff169081111561156157611561612e30565b1461157e5760405162461bcd60e51b81526004016104f29061354a565b600481015460ff166115ce5760405162461bcd60e51b81526020600482015260196024820152780eae6cae440c8d2c840dcdee840eed2dc40e8d0d2e640c4def603b1b60448201526064016104f2565b60018101805461ff0019169055600281015460058201546115fa916001600160a01b03169033906123e8565b604051339083907f73c4d210015330a38433845484805da09d022359c35fb7fc8bd04381a5a9200390600090a350611323612052565b600061163c6006612063565b82106116805760405162461bcd60e51b8152602060048201526013602482015272496e646578206f7574206f6620626f756e647360681b60448201526064016104f2565b61168b6006836124b5565b92915050565b611699611f81565b6116a1611fc6565b47806116d85760405162461bcd60e51b815260206004820152600660248201526509cde408aa8960d31b60448201526064016104f2565b808211156116f85760405162461bcd60e51b81526004016104f290613403565b6000836001600160a01b03168360405160006040518083038185875af1925050503d8060008114611745576040519150601f19603f3d011682016040523d82523d6000602084013e61174a565b606091505b505090508061178d5760405162461bcd60e51b815260206004820152600f60248201526e151c985b9cd9995c8819985a5b1959608a1b60448201526064016104f2565b50506112e7612052565b61179f611f81565b816001600160a01b0381161561188a57803b63ffffffff166117d35760405162461bcd60e51b81526004016104f290613259565b6000816001600160a01b0316306040516024016117f091906130ea565b60408051601f198184030181529181526020820180516001600160e01b03166370a0823160e01b1790525161182591906132a5565b6000604051808303816000865af19150503d8060008114611862576040519150601f19603f3d011682016040523d82523d6000602084013e611867565b606091505b50509050806118885760405162461bcd60e51b81526004016104f2906132c1565b505b600082116118aa5760405162461bcd60e51b81526004016104f290613318565b60005b6118b56124c1565b90506118c2600682611fb3565b6118ad5760008660018111156118da576118da612e30565b14806118f7575060018660018111156118f5576118f5612e30565b145b6119135760405162461bcd60e51b81526004016104f29061335e565b600085600281111561192757611927612e30565b14806119445750600185600281111561194257611942612e30565b145b806119605750600285600281111561195e5761195e612e30565b145b61197c5760405162461bcd60e51b81526004016104f290613388565b6000831161199c5760405162461bcd60e51b81526004016104f290613318565b6001600160a01b03841615611a6257604051636eb1769f60e11b815233600482015230602482015283906001600160a01b0386169063dd62ed3e90604401602060405180830381865afa1580156119f7573d6000803e3d6000fd5b505050506040513d601f19601f82011682018060405250810190611a1b91906133ea565b1015611a625760405162461bcd60e51b8152602060048201526016602482015275496e73756666696369656e7420616c6c6f77616e636560501b60448201526064016104f2565b604051806101200160405280828152602001876001811115611a8657611a86612e30565b815260200160018152602001866002811115611aa457611aa4612e30565b8152600060208083018290526001600160a01b038816604080850191909152606084018890526080840183905260a090930182905284825260058152919020825181559082015160018281018054909160ff19909116908381811115611b0c57611b0c612e30565b021790555060408201518160010160016101000a81548160ff02191690836001811115611b3b57611b3b612e30565b0217905550606082015160018201805462ff0000191662010000836002811115611b6757611b67612e30565b021790555060808201516001820180546301000000600160b81b03191663010000006001600160a01b039384160217905560a08301516002830180546001600160a01b0319169190921617905560c0820151600382015560e082015160048201805460ff191691151591909117905561010090910151600590910155611bee600682612568565b506001600160a01b038416611c4e57823414611c495760405162461bcd60e51b815260206004820152601a602482015279125b98dbdc9c9958dd08195d1a195c881d985b1d59481cd95b9d60321b60448201526064016104f2565b611c5a565b611c5a84333086612574565b60006001600160a01b0316817fb3b535e190efdd2da85c3b882e6c17533a6ffcbeb2ac4b3b42013e095e11d8bc886001898989604051611c9e959493929190613576565b60405180910390a3505050505050565b6000611cbb600683611fb3565b611cd75760405162461bcd60e51b81526004016104f2906132ee565b60016000838152600560205260409020600190810154610100900460ff1690811115611d0557611d05612e30565b14611d225760405162461bcd60e51b81526004016104f29061354a565b600082815260056020526040902060010154630100000090046001600160a01b031615611d895760405162461bcd60e51b81526020600482015260156024820152742137bc1030b63932b0b23c903430b99037bbb732b960591b60448201526064016104f2565b82600114611dd15760405162461bcd60e51b815260206004820152601560248201527413db9b1e481bdb99481ddbdc9908185b1b1bddd959605a1b60448201526064016104f2565b3342600054604051602001611de8939291906135be565b60408051601f19818403018152919052805160209091012060008181556001805442924492339230928a928a9291611e1f836135e3565b9091555060408051602081019990995288019690965260608088019590955292841b6001600160601b031990811660808801529190931b16609485015260a884019190915260c883015260e88201526101080160408051601f1981840301815291815281516020928301206000818152600490935291205490915060ff1615611ede5760405162461bcd60e51b8152602060048201526011602482015270526571756573742049442065786973747360781b60448201526064016104f2565b60008181526004602052604090819020805460ff19166001179055518290339083907f82d16af03b973f65f2891a082a63207d4a1d14bdc8e3cb5995b0b5aa05a06bf490611f389088904290918252602082015260400190565b60405180910390a492915050565b611f4e611f81565b6001600160a01b038116611f78576000604051631e4fbdf760e01b81526004016104f291906130ea565b6113238161206d565b33611f8a611166565b6001600160a01b0316146109a3573360405163118cdaa760e01b81526004016104f291906130ea565b6000611fbf83836125ac565b9392505050565b6000611fd06125c4565b805490915060011901611ff657604051633ee5aeb560e01b815260040160405180910390fd5b60029055565b6108b48363a9059cbb60e01b848460405160240161201b9291906134da565b60408051601f198184030181529190526020810180516001600160e01b03166001600160e01b0319909316929092179091526125e8565b600061205c6125c4565b6001905550565b600061168b825490565b600061207761240b565b80546001600160a01b038481166001600160a01b031983168117845560405193945091169182907f8be0079c531659141344cd1fd0a4f28419497f9722a3daafe3b4186f6b6457e090600090a3505050565b6000807ff0c57e16840df040f15088dc2f81fe391c3923bec73e23a9662efc9c229c6a0061168b565b6120fa6126bd565b611323816126e2565b61210b6126bd565b6109a36126ea565b6001600160a01b03851660009081526009602052604081205461213861012c86613489565b42111561217b5760405162461bcd60e51b815260206004820152601160248201527014da59db985d1d5c9948195e1c1a5c9959607a1b60448201526064016104f2565b428511156121bf5760405162461bcd60e51b81526020600482015260116024820152700496e76616c69642074696d657374616d7607c1b60448201526064016104f2565b60008a8a8a8a8a868b306040516020016121e09897969594939291906135fc565b6040516020818303038152906040528051906020012090506000612230827b0ca2ba3432b932bab69029b4b3b732b21026b2b9b9b0b3b29d05199960211b6000908152601c91909152603c902090565b905061223d836001613489565b600960008b6001600160a01b03166001600160a01b0316815260200190815260200160002081905550876001600160a01b03166122b08288888080601f0160208091040260200160405190810160405280939291908181526020018383808284376000920191909152506126f292505050565b6001600160a01b0316149c9b505050505050505050505050565b6112e782826040516024016122e092919061369e565b60408051601f198184030181529190526020810180516001600160e01b0316632d839cb360e21b179052612716565b6112e782826040516024016123259291906136c0565b60408051601f198184030181529190526020810180516001600160e01b031663319af33360e01b179052612716565b6112e7828260405160240161236a9291906136ea565b60408051601f198184030181529190526020810180516001600160e01b031663c3b5563560e01b179052612716565b6123e2848484846040516024016123b3949392919061370e565b60408051601f198184030181529190526020810180516001600160e01b031663c67ea9d160e01b179052612716565b50505050565b6001600160a01b038316612400576108b4828261271f565b6108b48383836127fb565b7f9016d09d72d40fdae2fd8ceac6b6234c7706214fd39c1cd1e609a0528c19930090565b600081815260056020819052604082208281556001810180546001600160b81b03191690556002810180546001600160a01b03191690556003810183905560048101805460ff191690550155612486600682612806565b5060405181907f606ce84a58beebdd8abdd4bb24672fc015a5eb5a7be08a9d2f4023a920c8e7dd90600090a250565b6000611fbf8383612812565b600033426000546040516020016124da939291906135be565b60408051601f1981840301815291905280516020909101206000556001805461250291613489565b60018190556000546040805142602082015244918101919091526001600160601b031933606090811b82168184015230901b166074820152608881019190915260a881019190915260c80160405160208183030381529060405280519060200120905090565b6000611fbf838361283c565b6040516001600160a01b03808516602483015283166044820152606481018290526123e29085906323b872dd60e01b9060840161201b565b60009081526001919091016020526040902054151590565b7f9b779b17422d0df92223018b32b4d1fa46e071723d6817e2486d003becc55f0090565b600061263d826040518060400160405280602081526020017f5361666545524332303a206c6f772d6c6576656c2063616c6c206661696c6564815250856001600160a01b03166128869092919063ffffffff16565b905080516000148061265e57508080602001905181019061265e919061374b565b6108b45760405162461bcd60e51b815260206004820152602a60248201527f5361666545524332303a204552433230206f7065726174696f6e20646964206e6044820152691bdd081cdd58d8d9595960b21b60648201526084016104f2565b6126c561289d565b6109a357604051631afcd79f60e31b815260040160405180910390fd5b611f4e6126bd565b6120526126bd565b600080600061270185856128b7565b9150915061270e816128fc565b509392505050565b61132381612a41565b804710156127625760405162461bcd60e51b815260206004820152601060248201526f092dce6eaccccd2c6d2cadce8408aa8960831b60448201526064016104f2565b6000826001600160a01b03168260405160006040518083038185875af1925050503d80600081146127af576040519150601f19603f3d011682016040523d82523d6000602084013e6127b4565b606091505b50509050806108b45760405162461bcd60e51b8152602060048201526013602482015272115512081d1c985b9cd9995c8819985a5b1959606a1b60448201526064016104f2565b6108b4838383611ffc565b6000611fbf8383612a62565b600082600001828154811061282957612829613433565b9060005260206000200154905092915050565b600061284883836125ac565b61287e5750815460018181018455600084815260208082209093018490558454848252828601909352604090209190915561168b565b50600061168b565b60606128958484600085612b55565b949350505050565b60006128a76120c9565b54600160401b900460ff16919050565b60008082516041036128ed5760208301516040840151606085015160001a6128e187828585612c30565b945094505050506128f5565b506000905060025b9250929050565b600081600481111561291057612910612e30565b036129185750565b600181600481111561292c5761292c612e30565b036129745760405162461bcd60e51b815260206004820152601860248201527745434453413a20696e76616c6964207369676e617475726560401b60448201526064016104f2565b600281600481111561298857612988612e30565b036129d55760405162461bcd60e51b815260206004820152601f60248201527f45434453413a20696e76616c6964207369676e6174757265206c656e6774680060448201526064016104f2565b60038160048111156129e9576129e9612e30565b036113235760405162461bcd60e51b815260206004820152602260248201527f45434453413a20696e76616c6964207369676e6174757265202773272076616c604482015261756560f01b60648201526084016104f2565b60006a636f6e736f6c652e6c6f679050600080835160208501845afa505050565b60008181526001830160205260408120548015612b4b576000612a866001836134c7565b8554909150600090612a9a906001906134c7565b9050818114612aff576000866000018281548110612aba57612aba613433565b9060005260206000200154905080876000018481548110612add57612add613433565b6000918252602080832090910192909255918252600188019052604090208390555b8554869080612b1057612b10613768565b60019003818190600052602060002001600090559055856001016000868152602001908152602001600020600090556001935050505061168b565b600091505061168b565b606082471015612bb65760405162461bcd60e51b815260206004820152602660248201527f416464726573733a20696e73756666696369656e742062616c616e636520666f6044820152651c8818d85b1b60d21b60648201526084016104f2565b600080866001600160a01b03168587604051612bd291906132a5565b60006040518083038185875af1925050503d8060008114612c0f576040519150601f19603f3d011682016040523d82523d6000602084013e612c14565b606091505b5091509150612c2587838387612cea565b979650505050505050565b6000806fa2a8918ca85bafe22016d0b997e4df60600160ff1b03831115612c5d5750600090506003612ce1565b6040805160008082526020820180845289905260ff881692820192909252606081018690526080810185905260019060a0016020604051602081039080840390855afa158015612cb1573d6000803e3d6000fd5b5050604051601f1901519150506001600160a01b038116612cda57600060019250925050612ce1565b9150600090505b94509492505050565b60608315612d59578251600003612d52576001600160a01b0385163b612d525760405162461bcd60e51b815260206004820152601d60248201527f416464726573733a2063616c6c20746f206e6f6e2d636f6e747261637400000060448201526064016104f2565b5081612895565b6128958383815115612d6e5781518083602001fd5b8060405162461bcd60e51b81526004016104f2919061377e565b803560028110612d9757600080fd5b919050565b803560038110612d9757600080fd5b80356001600160a01b0381168114612d9757600080fd5b600080600080600060a08688031215612dda57600080fd5b85359450612dea60208701612d88565b9350612df860408701612d9c565b9250612e0660608701612dab565b949793965091946080013592915050565b600060208284031215612e2957600080fd5b5035919050565b634e487b7160e01b600052602160045260246000fd5b6002811061132357611323612e30565b60038110612e6657612e66612e30565b9052565b6001600160a01b03169052565b8981526101208101612e888a612e46565b896020830152612e9789612e46565b886040830152612eaa6060830189612e56565b6001600160a01b0396871660808301529490951660a086015260c0850192909252151560e084015261010090920191909152949350505050565b600080600060608486031215612ef957600080fd5b612f0284612dab565b9250612f1060208501612dab565b9150604084013590509250925092565b600060208284031215612f3257600080fd5b611fbf82612dab565b801515811461132357600080fd5b60008060408385031215612f5c57600080fd5b612f6583612dab565b91506020830135612f7581612f3b565b809150509250929050565b634e487b7160e01b600052604160045260246000fd5b60008083601f840112612fa857600080fd5b5081356001600160401b03811115612fbf57600080fd5b6020830191508360208285010111156128f557600080fd5b600080600080600080600060c0888a031215612ff257600080fd5b873596506020808901356001600160401b038082111561301157600080fd5b818b0191508b601f83011261302557600080fd5b81358181111561303757613037612f80565b8060051b604051601f19603f8301168101818110858211171561305c5761305c612f80565b6040529182528381018501918581018f84111561307857600080fd5b948601945b83861015613094578535815294860194860161307d565b509a50505060408b013597506130ac60608c01612dab565b965060808b0135955060a08b01359250808311156130c957600080fd5b50506130d78a828b01612f96565b989b979a50959850939692959293505050565b6001600160a01b0391909116815260200190565b6000806040838503121561311157600080fd5b8235915061312160208401612d88565b90509250929050565b81518152602082015161012082019061314281612e46565b6020830152604083015161315581612e46565b80604084015250606083015161316e6060840182612e56565b5060808301516131816080840182612e6a565b5060a083015161319460a0840182612e6a565b5060c083015160c083015260e08301516131b260e084018215159052565b5061010092830151919092015290565b600080604083850312156131d557600080fd5b6131de83612dab565b946020939093013593505050565b6000806000806080858703121561320257600080fd5b61320b85612d88565b935061321960208601612d9c565b925061322760408601612dab565b9396929550929360600135925050565b6000806040838503121561324a57600080fd5b50508035926020909101359150565b6020808252600e908201526d139bdd08184818dbdb9d1c9858dd60921b604082015260600190565b60005b8381101561329c578181015183820152602001613284565b50506000910152565b600082516132b7818460208701613281565b9190910192915050565b602080825260139082015272139bdd08115490cc8c0818dbdb5c1b1a585b9d606a1b604082015260600190565b60208082526010908201526f109bde081251081b9bdd08199bdd5b9960821b604082015260600190565b60208082526026908201527f5072697a6520616d6f756e74206d7573742062652067726561746572207468616040820152656e207a65726f60d01b606082015260800190565b60208082526010908201526f496e76616c696420626f78207479706560801b604082015260600190565b60208082526010908201526f24b73b30b634b2103137bc103a34b2b960811b604082015260600190565b608081016133bf86612e46565b8582526133cf6020830186612e56565b6001600160a01b039390931660408201526060015292915050565b6000602082840312156133fc57600080fd5b5051919050565b602080825260169082015275416d6f756e7420657863656564732062616c616e636560501b604082015260600190565b634e487b7160e01b600052603260045260246000fd5b634e487b7160e01b600052601260045260246000fd5b60008261346e5761346e613449565b500690565b634e487b7160e01b600052601160045260246000fd5b8082018082111561168b5761168b613473565b808202811582820484141761168b5761168b613473565b6000826134c2576134c2613449565b500490565b8181038181111561168b5761168b613473565b6001600160a01b03929092168252602082015260400190565b6020808252825182820181905260009190848201906040850190845b8181101561352b5783518352928401929184019160010161350f565b50909695505050505050565b6020810161354483612e46565b91905290565b602080825260129082015271109bde08185b1c9958591e481bdc195b995960721b604082015260600190565b60a0810161358387612e46565b86825261358f86612e46565b8560208301526135a26040830186612e56565b6001600160a01b03939093166060820152608001529392505050565b60609390931b6001600160601b03191683526014830191909152603482015260540190565b6000600182016135f5576135f5613473565b5060010190565b888152600060208083018a51828c0160005b8281101561362a5781518452928401929084019060010161360e565b5050509889526001600160601b0319606098891b8116918a019190915295871b8616603489015250506048860192909252606885015290911b166088820152609c0192915050565b6000815180845261368a816020860160208601613281565b601f01601f19169290920160200192915050565b6040815260006136b16040830185613672565b90508260208301529392505050565b6040815260006136d36040830185613672565b905060018060a01b03831660208301529392505050565b6040815260006136fd6040830185613672565b905082151560208301529392505050565b6080815260006137216080830187613672565b85602084015282810360408401526137398186613672565b91505082606083015295945050505050565b60006020828403121561375d57600080fd5b8151611fbf81612f3b565b634e487b7160e01b600052603160045260246000fd5b602081526000611fbf602083018461367256fedb34b94cdf595409619536f514e415c5db325a2e10bd6b01162168a8a2e2e889f552ca82e113ac3c539c3d617f29fcd19c172a0c75dad017555c9e109f7fe183a2646970667358221220336f8548cff950ab5095315c7f338759837c9a710cd2d889c0190af3ce34829c64736f6c63430008140033",
  "linkReferences": {},
  "deployedLinkReferences": {}
}