{"contracts/LootBox.sol":{"LootBox":{"abi":[{"inputs":[],"stateMutability":"nonpayable","type":"constructor"},{"inputs":[],"name":"InvalidInitialization","type":"error"},{"inputs":[],"name":"InvalidSignature","type":"error"},{"inputs":[],"name":"NotInitializing","type":"error"},{"inputs":[{"internalType":"address","name":"owner","type":"address"}],"name":"OwnableInvalidOwner","type":"error"},{"inputs":[{"internalType":"address","name":"account","type":"address"}],"name":"OwnableUnauthorizedAccount","type":"error"},{"inputs":[],"name":"ReentrancyGuardReentrantCall","type":"error"},{"inputs":[],"name":"RequestNotFound","type":"error"},{"inputs":[],"name":"Unauthorized","type":"error"},{"anonymous":false,"inputs":[{"indexed":true,"internalType":"bytes32","name":"boxId","type":"bytes32"},{"indexed":false,"internalType":"enum LootBox.BoxType","name":"boxType","type":"uint8"},{"indexed":false,"internalType":"enum LootBox.BoxStatus","name":"status","type":"uint8"},{"indexed":false,"internalType":"enum LootBox.BoxTier","name":"boxTier","type":"uint8"},{"indexed":true,"internalType":"address","name":"owner","type":"address"},{"indexed":false,"internalType":"address","name":"prizeToken","type":"address"},{"indexed":false,"internalType":"uint256","name":"prizeAmount","type":"uint256"}],"name":"BoxCreated","type":"event"},{"anonymous":false,"inputs":[{"indexed":true,"internalType":"bytes32","name":"boxId","type":"bytes32"}],"name":"BoxDeleted","type":"event"},{"anonymous":false,"inputs":[{"indexed":true,"internalType":"bytes32","name":"boxId","type":"bytes32"},{"indexed":true,"internalType":"address","name":"owner","type":"address"}],"name":"BoxOpened","type":"event"},{"anonymous":false,"inputs":[{"indexed":true,"internalType":"bytes32","name":"boxId","type":"bytes32"},{"indexed":false,"internalType":"enum LootBox.BoxType","name":"boxType","type":"uint8"},{"indexed":false,"internalType":"enum LootBox.BoxTier","name":"boxTier","type":"uint8"},{"indexed":false,"internalType":"address","name":"prizeToken","type":"address"},{"indexed":false,"internalType":"uint256","name":"prizeAmount","type":"uint256"}],"name":"BoxUpdated","type":"event"},{"anonymous":false,"inputs":[{"indexed":false,"internalType":"uint64","name":"version","type":"uint64"}],"name":"Initialized","type":"event"},{"anonymous":false,"inputs":[{"indexed":true,"internalType":"address","name":"previousOwner","type":"address"},{"indexed":true,"internalType":"address","name":"newOwner","type":"address"}],"name":"OwnershipTransferred","type":"event"},{"anonymous":false,"inputs":[{"indexed":true,"internalType":"bytes32","name":"requestId","type":"bytes32"},{"indexed":false,"internalType":"uint256[]","name":"randomWords","type":"uint256[]"},{"indexed":true,"internalType":"bytes32","name":"boxId","type":"bytes32"}],"name":"RandomWordsFulfilled","type":"event"},{"anonymous":false,"inputs":[{"indexed":true,"internalType":"bytes32","name":"requestId","type":"bytes32"},{"indexed":true,"internalType":"address","name":"requester","type":"address"},{"indexed":false,"internalType":"uint256","name":"numberOfWords","type":"uint256"},{"indexed":true,"internalType":"bytes32","name":"boxId","type":"bytes32"}],"name":"RandomWordsRequested","type":"event"},{"anonymous":false,"inputs":[{"indexed":true,"internalType":"bytes32","name":"boxId","type":"bytes32"},{"indexed":false,"internalType":"address","name":"prizeToken","type":"address"},{"indexed":false,"internalType":"uint256","name":"prizeAmount","type":"uint256"}],"name":"Refunded","type":"event"},{"anonymous":false,"inputs":[{"indexed":true,"internalType":"address","name":"oldOracle","type":"address"},{"indexed":true,"internalType":"address","name":"newOracle","type":"address"}],"name":"UpdateOracle","type":"event"},{"anonymous":false,"inputs":[{"indexed":true,"internalType":"uint256","name":"newRate","type":"uint256"},{"indexed":true,"internalType":"uint256","name":"oldRate","type":"uint256"},{"indexed":false,"internalType":"enum LootBox.BoxType","name":"boxType","type":"uint8"}],"name":"UpdateWinRate","type":"event"},{"anonymous":false,"inputs":[{"indexed":true,"internalType":"bytes32","name":"boxId","type":"bytes32"},{"indexed":true,"internalType":"address","name":"loser","type":"address"}],"name":"UserLost","type":"event"},{"anonymous":false,"inputs":[{"indexed":true,"internalType":"bytes32","name":"boxId","type":"bytes32"},{"indexed":true,"internalType":"address","name":"winner","type":"address"},{"indexed":false,"internalType":"address","name":"prizeToken","type":"address"},{"indexed":false,"internalType":"uint256","name":"prizeAmount","type":"uint256"}],"name":"UserWon","type":"event"},{"inputs":[{"internalType":"bytes32","name":"","type":"bytes32"}],"name":"boxes","outputs":[{"internalType":"bytes32","name":"id","type":"bytes32"},{"internalType":"enum LootBox.BoxType","name":"boxType","type":"uint8"},{"internalType":"enum LootBox.BoxStatus","name":"status","type":"uint8"},{"internalType":"enum LootBox.BoxTier","name":"boxTier","type":"uint8"},{"internalType":"address","name":"owner","type":"address"},{"internalType":"address","name":"prizeToken","type":"address"},{"internalType":"uint256","name":"prizeAmount","type":"uint256"}],"stateMutability":"view","type":"function"},{"inputs":[{"internalType":"enum LootBox.BoxType","name":"boxType","type":"uint8"},{"internalType":"enum LootBox.BoxTier","name":"boxTier","type":"uint8"},{"internalType":"address","name":"prizeToken","type":"address"},{"internalType":"uint256","name":"prizeAmount","type":"uint256"}],"name":"createBox","outputs":[],"stateMutability":"payable","type":"function"},{"inputs":[{"internalType":"bytes32","name":"boxId","type":"bytes32"}],"name":"deleteBox","outputs":[],"stateMutability":"nonpayable","type":"function"},{"inputs":[],"name":"freeBoxWinRate","outputs":[{"internalType":"uint256","name":"","type":"uint256"}],"stateMutability":"view","type":"function"},{"inputs":[{"internalType":"bytes32","name":"requestId","type":"bytes32"},{"internalType":"uint256[]","name":"_randomWords","type":"uint256[]"},{"internalType":"bytes32","name":"boxId","type":"bytes32"},{"internalType":"address","name":"requester","type":"address"},{"internalType":"bytes","name":"signature","type":"bytes"}],"name":"fulfillRandomWords","outputs":[],"stateMutability":"nonpayable","type":"function"},{"inputs":[{"internalType":"bytes32","name":"boxId","type":"bytes32"}],"name":"getBox","outputs":[{"components":[{"internalType":"bytes32","name":"id","type":"bytes32"},{"internalType":"enum LootBox.BoxType","name":"boxType","type":"uint8"},{"internalType":"enum LootBox.BoxStatus","name":"status","type":"uint8"},{"internalType":"enum LootBox.BoxTier","name":"boxTier","type":"uint8"},{"internalType":"address","name":"owner","type":"address"},{"internalType":"address","name":"prizeToken","type":"address"},{"internalType":"uint256","name":"prizeAmount","type":"uint256"}],"internalType":"struct LootBox.Box","name":"","type":"tuple"}],"stateMutability":"view","type":"function"},{"inputs":[{"internalType":"uint256","name":"index","type":"uint256"}],"name":"getBoxIdAt","outputs":[{"internalType":"bytes32","name":"","type":"bytes32"}],"stateMutability":"view","type":"function"},{"inputs":[],"name":"initialize","outputs":[],"stateMutability":"nonpayable","type":"function"},{"inputs":[{"internalType":"address","name":"","type":"address"}],"name":"oracles","outputs":[{"internalType":"bool","name":"","type":"bool"}],"stateMutability":"view","type":"function"},{"inputs":[],"name":"owner","outputs":[{"internalType":"address","name":"","type":"address"}],"stateMutability":"view","type":"function"},{"inputs":[],"name":"paidBoxWinRate","outputs":[{"internalType":"uint256","name":"","type":"uint256"}],"stateMutability":"view","type":"function"},{"inputs":[{"internalType":"bytes32","name":"","type":"bytes32"}],"name":"pendingRequests","outputs":[{"internalType":"bool","name":"","type":"bool"}],"stateMutability":"view","type":"function"},{"inputs":[{"internalType":"address","name":"token","type":"address"},{"internalType":"address","name":"to","type":"address"},{"internalType":"uint256","name":"amount","type":"uint256"}],"name":"recoverERC20","outputs":[],"stateMutability":"nonpayable","type":"function"},{"inputs":[{"internalType":"address","name":"to","type":"address"},{"internalType":"uint256","name":"amount","type":"uint256"}],"name":"recoverEth","outputs":[],"stateMutability":"nonpayable","type":"function"},{"inputs":[],"name":"renounceOwnership","outputs":[],"stateMutability":"nonpayable","type":"function"},{"inputs":[{"internalType":"uint256","name":"numberOfWords","type":"uint256"},{"internalType":"bytes32","name":"boxId","type":"bytes32"}],"name":"requestRandomWords","outputs":[{"internalType":"bytes32","name":"requestId","type":"bytes32"}],"stateMutability":"nonpayable","type":"function"},{"inputs":[{"internalType":"address","name":"newOracle","type":"address"},{"internalType":"bool","name":"enabled","type":"bool"}],"name":"setOracle","outputs":[],"stateMutability":"nonpayable","type":"function"},{"inputs":[{"internalType":"uint256","name":"_newRate","type":"uint256"},{"internalType":"enum LootBox.BoxType","name":"boxType","type":"uint8"}],"name":"setWinRate","outputs":[],"stateMutability":"nonpayable","type":"function"},{"inputs":[],"name":"totalBoxes","outputs":[{"internalType":"uint256","name":"","type":"uint256"}],"stateMutability":"view","type":"function"},{"inputs":[{"internalType":"address","name":"newOwner","type":"address"}],"name":"transferOwnership","outputs":[],"stateMutability":"nonpayable","type":"function"},{"inputs":[{"internalType":"bytes32","name":"boxId","type":"bytes32"},{"internalType":"enum LootBox.BoxType","name":"boxType","type":"uint8"},{"internalType":"enum LootBox.BoxTier","name":"boxTier","type":"uint8"},{"internalType":"address","name":"prizeToken","type":"address"},{"internalType":"uint256","name":"prizeAmount","type":"uint256"}],"name":"updateBox","outputs":[],"stateMutability":"nonpayable","type":"function"},{"stateMutability":"payable","type":"receive"}],"evm":{"bytecode":{"linkReferences":{},"object":"60806040523480156200001157600080fd5b506200001c62000022565b620000d6565b7ff0c57e16840df040f15088dc2f81fe391c3923bec73e23a9662efc9c229c6a00805468010000000000000000900460ff1615620000735760405163f92ee8a960e01b815260040160405180910390fd5b80546001600160401b0390811614620000d35780546001600160401b0319166001600160401b0390811782556040519081527fc7f505b2f371ae2175ee4913f4499e1f2633a7b5936321eed1cdaeb6115181d29060200160405180910390a15b50565b61326a80620000e66000396000f3fe6080604052600436106100fe5760003560e01c8063041368ed1461010a5780630589c9701461012c5780631171bda9146101b55780632795ad20146101d557806357e78adc146102155780636536084314610238578063715018a6146102585780638129fc1c1461026d5780638da5cb5b1461028257806391a85dde146102a4578063a46e717e146102c4578063a55f0565146102e4578063addd509914610311578063c401842714610341578063cf611c4514610361578063e1e1005414610381578063e30459bc14610397578063e72c5717146103ad578063ebc5a829146103cd578063ef31d20e146103e0578063f2fde38b1461040057600080fd5b3661010557005b600080fd5b34801561011657600080fd5b5061012a610125366004612924565b610420565b005b34801561013857600080fd5b50610199610147366004612979565b6005602052600090815260409020805460018201546002830154600390930154919260ff808316936101008404821693620100008104909216926001600160a01b036301000000909304831692169087565b6040516101ac97969594939291906129cc565b60405180910390f35b3480156101c157600080fd5b5061012a6101d0366004612a28565b6105f8565b3480156101e157600080fd5b506102056101f0366004612979565b60046020526000908152604090205460ff1681565b60405190151581526020016101ac565b34801561022157600080fd5b5061022a610727565b6040519081526020016101ac565b34801561024457600080fd5b5061012a610253366004612a72565b610738565b34801561026457600080fd5b5061012a6107f0565b34801561027957600080fd5b5061012a610804565b34801561028e57600080fd5b50610297610948565b6040516101ac9190612aa9565b3480156102b057600080fd5b5061012a6102bf366004612abd565b610963565b3480156102d057600080fd5b5061012a6102df366004612979565b610acd565b3480156102f057600080fd5b506103046102ff366004612979565b610b08565b6040516101ac9190612ae9565b34801561031d57600080fd5b5061020561032c366004612b5f565b60086020526000908152604090205460ff1681565b34801561034d57600080fd5b5061022a61035c366004612979565b610c6b565b34801561036d57600080fd5b5061012a61037c366004612bd1565b610ccc565b34801561038d57600080fd5b5061022a60025481565b3480156103a357600080fd5b5061022a60035481565b3480156103b957600080fd5b5061012a6103c8366004612cda565b6113a1565b61012a6103db366004612d04565b611495565b3480156103ec57600080fd5b5061022a6103fb366004612d4f565b6118ce565b34801561040c57600080fd5b5061012a61041b366004612b5f565b611b82565b610428611bbd565b610433600686611bef565b6104585760405162461bcd60e51b815260040161044f90612d71565b60405180910390fd5b600081116104785760405162461bcd60e51b815260040161044f90612d9b565b600084600181111561048c5761048c612992565b14806104a9575060018460018111156104a7576104a7612992565b145b6104c55760405162461bcd60e51b815260040161044f90612de1565b60008360028111156104d9576104d9612992565b14806104f6575060018360028111156104f4576104f4612992565b145b806105125750600283600281111561051057610510612992565b145b61052e5760405162461bcd60e51b815260040161044f90612e0b565b600085815260056020526040902060018082018054879260ff1990911690838181111561055d5761055d612992565b021790555060018101805485919062ff000019166201000083600281111561058757610587612992565b02179055506002810180546001600160a01b0319166001600160a01b0385161790556003810182905560405186907fc02b41847a14cdd8174ef635596ee9edf41c26174db1c1dc05c098129f4cd35d906105e8908890889088908890612e35565b60405180910390a2505050505050565b610600611bbd565b6001600160a01b0382166106485760405162461bcd60e51b815260206004820152600f60248201526e496e76616c6964206164647265737360881b604482015260640161044f565b6040516370a0823160e01b81526000906001600160a01b038516906370a0823190610677903090600401612aa9565b602060405180830381865afa158015610694573d6000803e3d6000fd5b505050506040513d601f19601f820116820180604052508101906106b89190612e6d565b9050600081116106f65760405162461bcd60e51b81526020600482015260096024820152684e6f20746f6b656e7360b81b604482015260640161044f565b808211156107165760405162461bcd60e51b815260040161044f90612e86565b610721848484611c02565b50505050565b60006107336006611c5d565b905090565b610740611bbd565b6001600160a01b03821661078f5760405162461bcd60e51b8152602060048201526016602482015275496e76616c6964206f7261636c65206164647265737360501b604482015260640161044f565b6040516001600160a01b0383169081907fb1d1442dba579887e297ac433e5716c847abf2dc052ee9de4869b7b1b8f6206d90600090a36001600160a01b03919091166000908152600860205260409020805460ff1916911515919091179055565b6107f8611bbd565b6108026000611c67565b565b600061080e611cc3565b805490915060ff600160401b82041615906001600160401b03166000811580156108355750825b90506000826001600160401b031660011480156108515750303b155b90508115801561085f575080155b1561087d5760405163f92ee8a960e01b815260040160405180910390fd5b84546001600160401b031916600117855583156108a657845460ff60401b1916600160401b1785555b6108af33611cec565b6108b7611cfd565b6040516001600160601b03193360601b16602082015242603482015260540160408051601f198184030181529190528051602090910120600055601e6002556032600355831561094157845460ff60401b19168555604051600181527fc7f505b2f371ae2175ee4913f4499e1f2633a7b5936321eed1cdaeb6115181d29060200160405180910390a15b5050505050565b600080610953611d0d565b546001600160a01b031692915050565b61096b611bbd565b600081600181111561097f5761097f612992565b148061099c5750600181600181111561099a5761099a612992565b145b6109b85760405162461bcd60e51b815260040161044f90612de1565b600182101580156109ca575060648211155b610a215760405162461bcd60e51b815260206004820152602260248201527f57696e2072617465206d757374206265206265747765656e203120616e642031604482015261030360f41b606482015260840161044f565b6000816001811115610a3557610a35612992565b03610a69578160025460008051602061321583398151915283604051610a5b9190612eb6565b60405180910390a350600255565b6001816001811115610a7d57610a7d612992565b03610ab1578160035460008051602061321583398151915283604051610aa39190612eb6565b60405180910390a350600355565b60405162461bcd60e51b815260040161044f90612de1565b5050565b610ad5611bbd565b610ae0600682611bef565b610afc5760405162461bcd60e51b815260040161044f90612d71565b610b0581611d31565b50565b610b496040805160e0810190915260008082526020820190815260200160008152602001600081526000602082018190526040820181905260609091015290565b610b54600683611bef565b610b705760405162461bcd60e51b815260040161044f90612d71565b600082815260056020908152604091829020825160e0810190935280548352600180820154919284019160ff1690811115610bad57610bad612992565b6001811115610bbe57610bbe612992565b81526020016001820160019054906101000a900460ff166001811115610be657610be6612992565b6001811115610bf757610bf7612992565b81526020016001820160029054906101000a900460ff166002811115610c1f57610c1f612992565b6002811115610c3057610c30612992565b815260018201546001600160a01b03630100000090910481166020830152600283015416604082015260039091015460609091015292915050565b6000610c776006611c5d565b8210610cbb5760405162461bcd60e51b8152602060048201526013602482015272496e646578206f7574206f6620626f756e647360681b604482015260640161044f565b610cc6600683611da4565b92915050565b3360009081526008602052604090205460ff16610cfb576040516282b42960e81b815260040160405180910390fd5b610d03611db0565b60008681526004602052604090205460ff16610d3257604051632589d98f60e11b815260040160405180910390fd5b610d4186868686338787611de6565b610d5e57604051638baa579f60e01b815260040160405180910390fd5b610d69600685611bef565b610d855760405162461bcd60e51b815260040161044f90612d71565b600084815260056020526040902060018082810154610100900460ff1690811115610db257610db2612992565b14610df05760405162461bcd60e51b815260206004820152600e60248201526d105b1c9958591e481bdc195b995960921b604482015260640161044f565b6001810154630100000090046001600160a01b031615610e425760405162461bcd60e51b815260206004820152600d60248201526c2137bc103430b99037bbb732b960991b604482015260640161044f565b600181810180546001600160a01b03871663010000000262ff0100600160b81b031982168117909255600092839260ff90811692169190911790811115610e8b57610e8b612992565b03610ec257600254606488600081518110610ea857610ea8612ec9565b6020026020010151610eba9190612ef5565b109050610ef0565b600354606488600081518110610eda57610eda612ec9565b6020026020010151610eec9190612ef5565b1090505b610f3b6040518060400160405280600f81526020016e02930b73237b690373ab6b132b91d1608d1b81525088600081518110610f2e57610f2e612ec9565b6020026020010151611eb6565b610f686040518060400160405280600b81526020016a02932b8bab2b9ba32b91d160ad1b81525086611efb565b60408051808201909152600a81526902137bc102a3cb8329d160b51b6020820152600180840154610fae929160ff90911690811115610fa957610fa9612992565b611eb6565b610fe26040518060400160405280600e81526020016d0283934bd329020b6b7bab73a1d160951b8152508360030154611eb6565b6110096040518060400160405280600581526020016402bb7b71d160dd1b81525082611f40565b60408051808201909152600d81526c0283934bd32902a37b5b2b71d1609d1b6020820152600283015461104591906001600160a01b0316611efb565b80156113065760006001808085015460ff169081111561106757611067612992565b146110735760646110a5565b60648860008151811061108857611088612ec9565b602002602001015161109a9190612ef5565b6110a5906001612f1f565b905060006001808086015460ff16908111156110c3576110c3612992565b146110d25783600301546110ee565b60648285600301546110e49190612f32565b6110ee9190612f49565b905061111b6040518060400160405280600981526020016802832b931b2b73a1d160bd1b81525083611eb6565b600081856003015461112d9190612f5d565b90506111856040518060400160405280600881526020016702830bcb7baba1d160c51b81525083604051806040016040528060128152602001710102932b6b0b4b734b73390283934bd329d160751b81525084611f85565b60028501546001600160a01b03166111ef576111a18883611fce565b80156111b8576111b86111b2610948565b82611fce565b6111ea604051806040016040528060118152602001702a3930b739b332b93932b21032ba3432b960791b8152506120aa565b611261565b6002850154611208906001600160a01b031689846120ed565b801561122e57600285015461122e906001600160a01b0316611228610948565b836120ed565b611261604051806040016040528060128152602001715472616e7366657272656420746f6b656e7360701b8152506120aa565b60028501546040516001600160a01b03808b16928c927f6ca0da92c4797a558f7e777695e71010ca0bbf7b7007b7e0402c5921a25fb4d8926112a69216908790612f70565b60405180910390a380156112fe5760028501546040518a917ff552ca82e113ac3c539c3d617f29fcd19c172a0c75dad017555c9e109f7fe183916112f5916001600160a01b0316908590612f70565b60405180910390a25b50505061133d565b6040516001600160a01b0386169087907f059c544c2595303434d37bd8ee8af000818be6066beb8c37844d43f7ee80a44490600090a35b60008881526004602052604090819020805460ff1916905551869089907fc9245471e1eda01df96ac978bd431512e8e4f71c9541c7d946973b851391d8ad90611387908b90612f89565b60405180910390a350506113996120f8565b505050505050565b6113a9611bbd565b47806113e05760405162461bcd60e51b815260206004820152600660248201526509cde408aa8960d31b604482015260640161044f565b808211156114005760405162461bcd60e51b815260040161044f90612e86565b6000836001600160a01b03168260405160006040518083038185875af1925050503d806000811461144d576040519150601f19603f3d011682016040523d82523d6000602084013e611452565b606091505b50509050806107215760405162461bcd60e51b815260206004820152600f60248201526e151c985b9cd9995c8819985a5b1959608a1b604482015260640161044f565b61149d611bbd565b600081116114bd5760405162461bcd60e51b815260040161044f90612d9b565b60006114c7612109565b90506114d4600682611bef565b156115195760405162461bcd60e51b8152602060048201526015602482015274426f7820494420616c72656164792065786973747360581b604482015260640161044f565b600085600181111561152d5761152d612992565b148061154a5750600185600181111561154857611548612992565b145b6115665760405162461bcd60e51b815260040161044f90612de1565b600084600281111561157a5761157a612992565b14806115975750600184600281111561159557611595612992565b145b806115b3575060028460028111156115b1576115b1612992565b145b6115cf5760405162461bcd60e51b815260040161044f90612e0b565b600082116115ef5760405162461bcd60e51b815260040161044f90612d9b565b6001600160a01b038316156116b557604051636eb1769f60e11b815233600482015230602482015282906001600160a01b0385169063dd62ed3e90604401602060405180830381865afa15801561164a573d6000803e3d6000fd5b505050506040513d601f19601f8201168201806040525081019061166e9190612e6d565b10156116b55760405162461bcd60e51b8152602060048201526016602482015275496e73756666696369656e7420616c6c6f77616e636560501b604482015260640161044f565b6040518060e001604052808281526020018660018111156116d8576116d8612992565b8152602001600181526020018560028111156116f6576116f6612992565b8152600060208083018290526001600160a01b038716604080850191909152606090930186905284825260058152919020825181559082015160018083018054909160ff1990911690838181111561175057611750612992565b021790555060408201518160010160016101000a81548160ff0219169083600181111561177f5761177f612992565b0217905550606082015160018201805462ff00001916620100008360028111156117ab576117ab612992565b021790555060808201516001820180546301000000600160b81b03191663010000006001600160a01b039384160217905560a08301516002830180546001600160a01b0319169190921617905560c09091015160039091015561180f6006826121b1565b506001600160a01b03831661186f5781341461186a5760405162461bcd60e51b815260206004820152601a602482015279125b98dbdc9c9958dd08195d1a195c881d985b1d59481cd95b9d60321b604482015260640161044f565b61187b565b61187b833330856121bd565b60006001600160a01b0316817fb3b535e190efdd2da85c3b882e6c17533a6ffcbeb2ac4b3b42013e095e11d8bc8760018888886040516118bf959493929190612fcd565b60405180910390a35050505050565b60006118db600683611bef565b6118f75760405162461bcd60e51b815260040161044f90612d71565b60016000838152600560205260409020600190810154610100900460ff169081111561192557611925612992565b146119675760405162461bcd60e51b8152602060048201526012602482015271109bde08185b1c9958591e481bdc195b995960721b604482015260640161044f565b600082815260056020526040902060010154630100000090046001600160a01b0316156119ce5760405162461bcd60e51b81526020600482015260156024820152742137bc1030b63932b0b23c903430b99037bbb732b960591b604482015260640161044f565b82600114611a165760405162461bcd60e51b815260206004820152601560248201527413db9b1e481bdb99481ddbdc9908185b1b1bddd959605a1b604482015260640161044f565b3342600054604051602001611a2d93929190613015565b60408051601f19818403018152919052805160209091012060008181556001805442924492339230928a928a9291611a648361303a565b9091555060408051602081019990995288019690965260608088019590955292841b6001600160601b031990811660808801529190931b16609485015260a884019190915260c883015260e88201526101080160408051601f1981840301815291815281516020928301206000818152600490935291205490915060ff1615611b235760405162461bcd60e51b8152602060048201526011602482015270526571756573742049442065786973747360781b604482015260640161044f565b60008181526004602052604090819020805460ff19166001179055518290339083907fe597616bcc7ad3b09b316c7123410af4695ed18f3ffcaebb95cfd266755412fb90611b749088815260200190565b60405180910390a492915050565b611b8a611bbd565b6001600160a01b038116611bb4576000604051631e4fbdf760e01b815260040161044f9190612aa9565b610b0581611c67565b33611bc6610948565b6001600160a01b031614610802573360405163118cdaa760e01b815260040161044f9190612aa9565b6000611bfb83836121f5565b9392505050565b611c588363a9059cbb60e01b8484604051602401611c21929190612f70565b60408051601f198184030181529190526020810180516001600160e01b03166001600160e01b03199093169290921790915261220d565b505050565b6000610cc6825490565b6000611c71611d0d565b80546001600160a01b038481166001600160a01b031983168117845560405193945091169182907f8be0079c531659141344cd1fd0a4f28419497f9722a3daafe3b4186f6b6457e090600090a3505050565b6000807ff0c57e16840df040f15088dc2f81fe391c3923bec73e23a9662efc9c229c6a00610cc6565b611cf46122e2565b610b0581612307565b611d056122e2565b61080261230f565b7f9016d09d72d40fdae2fd8ceac6b6234c7706214fd39c1cd1e609a0528c19930090565b60008181526005602052604081208181556001810180546001600160b81b03191690556002810180546001600160a01b031916905560030155611d75600682612317565b5060405181907f606ce84a58beebdd8abdd4bb24672fc015a5eb5a7be08a9d2f4023a920c8e7dd90600090a250565b6000611bfb8383612323565b6000611dba61234d565b805490915060011901611de057604051633ee5aeb560e01b815260040160405180910390fd5b60029055565b6000808888888888604051602001611e02959493929190613053565b6040516020818303038152906040528051906020012090506000611e52827b0ca2ba3432b932bab69029b4b3b732b21026b2b9b9b0b3b29d05199960211b6000908152601c91909152603c902090565b9050856001600160a01b0316611e9e8287878080601f01602080910402602001604051908101604052809392919081815260200183838082843760009201919091525061237192505050565b6001600160a01b0316149a9950505050505050505050565b610ac98282604051602401611ecc929190613105565b60408051601f198184030181529190526020810180516001600160e01b0316632d839cb360e21b179052612395565b610ac98282604051602401611f11929190613127565b60408051601f198184030181529190526020810180516001600160e01b031663319af33360e01b179052612395565b610ac98282604051602401611f56929190613151565b60408051601f198184030181529190526020810180516001600160e01b031663c3b5563560e01b179052612395565b61072184848484604051602401611f9f9493929190613175565b60408051601f198184030181529190526020810180516001600160e01b031663c67ea9d160e01b179052612395565b804710156120115760405162461bcd60e51b815260206004820152601060248201526f092dce6eaccccd2c6d2cadce8408aa8960831b604482015260640161044f565b6000826001600160a01b03168260405160006040518083038185875af1925050503d806000811461205e576040519150601f19603f3d011682016040523d82523d6000602084013e612063565b606091505b5050905080611c585760405162461bcd60e51b8152602060048201526013602482015272115512081d1c985b9cd9995c8819985a5b1959606a1b604482015260640161044f565b610b05816040516024016120be91906131b2565b60408051601f198184030181529190526020810180516001600160e01b031663104c13eb60e21b179052612395565b611c58838383611c02565b600061210261234d565b6001905550565b6000334260005460405160200161212293929190613015565b60408051601f1981840301815291905280516020909101206000818155600180544293449333933093916121558361303a565b909155506040805160208101979097528601949094526001600160601b0319606093841b8116848701529190921b166074840152608883015260a882015260c80160405160208183030381529060405280519060200120905090565b6000611bfb838361239e565b6040516001600160a01b03808516602483015283166044820152606481018290526107219085906323b872dd60e01b90608401611c21565b60009081526001919091016020526040902054151590565b6000612262826040518060400160405280602081526020017f5361666545524332303a206c6f772d6c6576656c2063616c6c206661696c6564815250856001600160a01b03166123e89092919063ffffffff16565b905080516000148061228357508080602001905181019061228391906131c5565b611c585760405162461bcd60e51b815260206004820152602a60248201527f5361666545524332303a204552433230206f7065726174696f6e20646964206e6044820152691bdd081cdd58d8d9595960b21b606482015260840161044f565b6122ea6123ff565b61080257604051631afcd79f60e31b815260040160405180910390fd5b611b8a6122e2565b6120f86122e2565b6000611bfb8383612419565b600082600001828154811061233a5761233a612ec9565b9060005260206000200154905092915050565b7f9b779b17422d0df92223018b32b4d1fa46e071723d6817e2486d003becc55f0090565b6000806000612380858561250c565b9150915061238d81612551565b509392505050565b610b0581612696565b60006123aa83836121f5565b6123e057508154600181810184556000848152602080822090930184905584548482528286019093526040902091909155610cc6565b506000610cc6565b60606123f784846000856126b7565b949350505050565b6000612409611cc3565b54600160401b900460ff16919050565b6000818152600183016020526040812054801561250257600061243d600183612f5d565b855490915060009061245190600190612f5d565b90508181146124b657600086600001828154811061247157612471612ec9565b906000526020600020015490508087600001848154811061249457612494612ec9565b6000918252602080832090910192909255918252600188019052604090208390555b85548690806124c7576124c76131e2565b600190038181906000526020600020016000905590558560010160008681526020019081526020016000206000905560019350505050610cc6565b6000915050610cc6565b60008082516041036125425760208301516040840151606085015160001a61253687828585612792565b9450945050505061254a565b506000905060025b9250929050565b600081600481111561256557612565612992565b0361256d5750565b600181600481111561258157612581612992565b036125c95760405162461bcd60e51b815260206004820152601860248201527745434453413a20696e76616c6964207369676e617475726560401b604482015260640161044f565b60028160048111156125dd576125dd612992565b0361262a5760405162461bcd60e51b815260206004820152601f60248201527f45434453413a20696e76616c6964207369676e6174757265206c656e67746800604482015260640161044f565b600381600481111561263e5761263e612992565b03610b055760405162461bcd60e51b815260206004820152602260248201527f45434453413a20696e76616c6964207369676e6174757265202773272076616c604482015261756560f01b606482015260840161044f565b60006a636f6e736f6c652e6c6f679050600080835160208501845afa505050565b6060824710156127185760405162461bcd60e51b815260206004820152602660248201527f416464726573733a20696e73756666696369656e742062616c616e636520666f6044820152651c8818d85b1b60d21b606482015260840161044f565b600080866001600160a01b0316858760405161273491906131f8565b60006040518083038185875af1925050503d8060008114612771576040519150601f19603f3d011682016040523d82523d6000602084013e612776565b606091505b50915091506127878783838761284c565b979650505050505050565b6000806fa2a8918ca85bafe22016d0b997e4df60600160ff1b038311156127bf5750600090506003612843565b6040805160008082526020820180845289905260ff881692820192909252606081018690526080810185905260019060a0016020604051602081039080840390855afa158015612813573d6000803e3d6000fd5b5050604051601f1901519150506001600160a01b03811661283c57600060019250925050612843565b9150600090505b94509492505050565b606083156128bb5782516000036128b4576001600160a01b0385163b6128b45760405162461bcd60e51b815260206004820152601d60248201527f416464726573733a2063616c6c20746f206e6f6e2d636f6e7472616374000000604482015260640161044f565b50816123f7565b6123f783838151156128d05781518083602001fd5b8060405162461bcd60e51b815260040161044f91906131b2565b8035600281106128f957600080fd5b919050565b8035600381106128f957600080fd5b80356001600160a01b03811681146128f957600080fd5b600080600080600060a0868803121561293c57600080fd5b8535945061294c602087016128ea565b935061295a604087016128fe565b92506129686060870161290d565b949793965091946080013592915050565b60006020828403121561298b57600080fd5b5035919050565b634e487b7160e01b600052602160045260246000fd5b60028110610b0557610b05612992565b600381106129c8576129c8612992565b9052565b87815260e081016129dc886129a8565b8760208301526129eb876129a8565b8660408301526129fe60608301876129b8565b6001600160a01b0394851660808301529290931660a084015260c090920191909152949350505050565b600080600060608486031215612a3d57600080fd5b612a468461290d565b9250612a546020850161290d565b9150604084013590509250925092565b8015158114610b0557600080fd5b60008060408385031215612a8557600080fd5b612a8e8361290d565b91506020830135612a9e81612a64565b809150509250929050565b6001600160a01b0391909116815260200190565b60008060408385031215612ad057600080fd5b82359150612ae0602084016128ea565b90509250929050565b81518152602082015160e0820190612b00816129a8565b60208301526040830151612b13816129a8565b806040840152506060830151612b2c60608401826129b8565b50608083015160018060a01b0380821660808501528060a08601511660a0850152505060c083015160c083015292915050565b600060208284031215612b7157600080fd5b611bfb8261290d565b634e487b7160e01b600052604160045260246000fd5b60008083601f840112612ba257600080fd5b5081356001600160401b03811115612bb957600080fd5b60208301915083602082850101111561254a57600080fd5b60008060008060008060a08789031215612bea57600080fd5b863595506020808801356001600160401b0380821115612c0957600080fd5b818a0191508a601f830112612c1d57600080fd5b813581811115612c2f57612c2f612b7a565b8060051b604051601f19603f83011681018181108582111715612c5457612c54612b7a565b6040529182528381018501918581018e841115612c7057600080fd5b948601945b83861015612c8c5785358152948601948601612c75565b509950505060408a01359650612ca460608b0161290d565b955060808a0135925080831115612cba57600080fd5b5050612cc889828a01612b90565b979a9699509497509295939492505050565b60008060408385031215612ced57600080fd5b612cf68361290d565b946020939093013593505050565b60008060008060808587031215612d1a57600080fd5b612d23856128ea565b9350612d31602086016128fe565b9250612d3f6040860161290d565b9396929550929360600135925050565b60008060408385031215612d6257600080fd5b50508035926020909101359150565b60208082526010908201526f109bde081251081b9bdd08199bdd5b9960821b604082015260600190565b60208082526026908201527f5072697a6520616d6f756e74206d7573742062652067726561746572207468616040820152656e207a65726f60d01b606082015260800190565b60208082526010908201526f496e76616c696420626f78207479706560801b604082015260600190565b60208082526010908201526f24b73b30b634b2103137bc103a34b2b960811b604082015260600190565b60808101612e42866129a8565b858252612e5260208301866129b8565b6001600160a01b039390931660408201526060015292915050565b600060208284031215612e7f57600080fd5b5051919050565b602080825260169082015275416d6f756e7420657863656564732062616c616e636560501b604082015260600190565b60208101612ec3836129a8565b91905290565b634e487b7160e01b600052603260045260246000fd5b634e487b7160e01b600052601260045260246000fd5b600082612f0457612f04612edf565b500690565b634e487b7160e01b600052601160045260246000fd5b80820180821115610cc657610cc6612f09565b8082028115828204841417610cc657610cc6612f09565b600082612f5857612f58612edf565b500490565b81810381811115610cc657610cc6612f09565b6001600160a01b03929092168252602082015260400190565b6020808252825182820181905260009190848201906040850190845b81811015612fc157835183529284019291840191600101612fa5565b50909695505050505050565b60a08101612fda876129a8565b868252612fe6866129a8565b856020830152612ff960408301866129b8565b6001600160a01b03939093166060820152608001529392505050565b60609390931b6001600160601b03191683526014830191909152603482015260540190565b60006001820161304c5761304c612f09565b5060010190565b85815260006020808301875182890160005b8281101561308157815184529284019290840190600101613065565b5050509586526001600160601b0319606095861b8116918701919091529290931b9091166034840152505060480192915050565b60005b838110156130d05781810151838201526020016130b8565b50506000910152565b600081518084526130f18160208601602086016130b5565b601f01601f19169290920160200192915050565b60408152600061311860408301856130d9565b90508260208301529392505050565b60408152600061313a60408301856130d9565b905060018060a01b03831660208301529392505050565b60408152600061316460408301856130d9565b905082151560208301529392505050565b60808152600061318860808301876130d9565b85602084015282810360408401526131a081866130d9565b91505082606083015295945050505050565b602081526000611bfb60208301846130d9565b6000602082840312156131d757600080fd5b8151611bfb81612a64565b634e487b7160e01b600052603160045260246000fd5b6000825161320a8184602087016130b5565b919091019291505056fedb34b94cdf595409619536f514e415c5db325a2e10bd6b01162168a8a2e2e889a26469706673582212206aff8c883a9e9c4558bb9129c5ff8752e60a00cc79a15de4a3beedb1b140448864736f6c63430008140033","opcodes":"PUSH1 0x80 PUSH1 0x40 MSTORE CALLVALUE DUP1 ISZERO PUSH3 0x11 JUMPI PUSH1 0x0 DUP1 REVERT JUMPDEST POP PUSH3 0x1C PUSH3 0x22 JUMP JUMPDEST PUSH3 0xD6 JUMP JUMPDEST PUSH32 0xF0C57E16840DF040F15088DC2F81FE391C3923BEC73E23A9662EFC9C229C6A00 DUP1 SLOAD PUSH9 0x10000000000000000 SWAP1 DIV PUSH1 0xFF AND ISZERO PUSH3 0x73 JUMPI PUSH1 0x40 MLOAD PUSH4 0xF92EE8A9 PUSH1 0xE0 SHL DUP2 MSTORE PUSH1 0x4 ADD PUSH1 0x40 MLOAD DUP1 SWAP2 SUB SWAP1 REVERT JUMPDEST DUP1 SLOAD PUSH1 0x1 PUSH1 0x1 PUSH1 0x40 SHL SUB SWAP1 DUP2 AND EQ PUSH3 0xD3 JUMPI DUP1 SLOAD PUSH1 0x1 PUSH1 0x1 PUSH1 0x40 SHL SUB NOT AND PUSH1 0x1 PUSH1 0x1 PUSH1 0x40 SHL SUB SWAP1 DUP2 OR DUP3 SSTORE PUSH1 0x40 MLOAD SWAP1 DUP2 MSTORE PUSH32 0xC7F505B2F371AE2175EE4913F4499E1F2633A7B5936321EED1CDAEB6115181D2 SWAP1 PUSH1 0x20 ADD PUSH1 0x40 MLOAD DUP1 SWAP2 SUB SWAP1 LOG1 JUMPDEST POP JUMP JUMPDEST PUSH2 0x326A DUP1 PUSH3 0xE6 PUSH1 0x0 CODECOPY PUSH1 0x0 RETURN INVALID PUSH1 0x80 PUSH1 0x40 MSTORE PUSH1 0x4 CALLDATASIZE LT PUSH2 0xFE JUMPI PUSH1 0x0 CALLDATALOAD PUSH1 0xE0 SHR DUP1 PUSH4 0x41368ED EQ PUSH2 0x10A JUMPI DUP1 PUSH4 0x589C970 EQ PUSH2 0x12C JUMPI DUP1 PUSH4 0x1171BDA9 EQ PUSH2 0x1B5 JUMPI DUP1 PUSH4 0x2795AD20 EQ PUSH2 0x1D5 JUMPI DUP1 PUSH4 0x57E78ADC EQ PUSH2 0x215 JUMPI DUP1 PUSH4 0x65360843 EQ PUSH2 0x238 JUMPI DUP1 PUSH4 0x715018A6 EQ PUSH2 0x258 JUMPI DUP1 PUSH4 0x8129FC1C EQ PUSH2 0x26D JUMPI DUP1 PUSH4 0x8DA5CB5B EQ PUSH2 0x282 JUMPI DUP1 PUSH4 0x91A85DDE EQ PUSH2 0x2A4 JUMPI DUP1 PUSH4 0xA46E717E EQ PUSH2 0x2C4 JUMPI DUP1 PUSH4 0xA55F0565 EQ PUSH2 0x2E4 JUMPI DUP1 PUSH4 0xADDD5099 EQ PUSH2 0x311 JUMPI DUP1 PUSH4 0xC4018427 EQ PUSH2 0x341 JUMPI DUP1 PUSH4 0xCF611C45 EQ PUSH2 0x361 JUMPI DUP1 PUSH4 0xE1E10054 EQ PUSH2 0x381 JUMPI DUP1 PUSH4 0xE30459BC EQ PUSH2 0x397 JUMPI DUP1 PUSH4 0xE72C5717 EQ PUSH2 0x3AD JUMPI DUP1 PUSH4 0xEBC5A829 EQ PUSH2 0x3CD JUMPI DUP1 PUSH4 0xEF31D20E EQ PUSH2 0x3E0 JUMPI DUP1 PUSH4 0xF2FDE38B EQ PUSH2 0x400 JUMPI PUSH1 0x0 DUP1 REVERT JUMPDEST CALLDATASIZE PUSH2 0x105 JUMPI STOP JUMPDEST PUSH1 0x0 DUP1 REVERT JUMPDEST CALLVALUE DUP1 ISZERO PUSH2 0x116 JUMPI PUSH1 0x0 DUP1 REVERT JUMPDEST POP PUSH2 0x12A PUSH2 0x125 CALLDATASIZE PUSH1 0x4 PUSH2 0x2924 JUMP JUMPDEST PUSH2 0x420 JUMP JUMPDEST STOP JUMPDEST CALLVALUE DUP1 ISZERO PUSH2 0x138 JUMPI PUSH1 0x0 DUP1 REVERT JUMPDEST POP PUSH2 0x199 PUSH2 0x147 CALLDATASIZE PUSH1 0x4 PUSH2 0x2979 JUMP JUMPDEST PUSH1 0x5 PUSH1 0x20 MSTORE PUSH1 0x0 SWAP1 DUP2 MSTORE PUSH1 0x40 SWAP1 KECCAK256 DUP1 SLOAD PUSH1 0x1 DUP3 ADD SLOAD PUSH1 0x2 DUP4 ADD SLOAD PUSH1 0x3 SWAP1 SWAP4 ADD SLOAD SWAP2 SWAP3 PUSH1 0xFF DUP1 DUP4 AND SWAP4 PUSH2 0x100 DUP5 DIV DUP3 AND SWAP4 PUSH3 0x10000 DUP2 DIV SWAP1 SWAP3 AND SWAP3 PUSH1 0x1 PUSH1 0x1 PUSH1 0xA0 SHL SUB PUSH4 0x1000000 SWAP1 SWAP4 DIV DUP4 AND SWAP3 AND SWAP1 DUP8 JUMP JUMPDEST PUSH1 0x40 MLOAD PUSH2 0x1AC SWAP8 SWAP7 SWAP6 SWAP5 SWAP4 SWAP3 SWAP2 SWAP1 PUSH2 0x29CC JUMP JUMPDEST PUSH1 0x40 MLOAD DUP1 SWAP2 SUB SWAP1 RETURN JUMPDEST CALLVALUE DUP1 ISZERO PUSH2 0x1C1 JUMPI PUSH1 0x0 DUP1 REVERT JUMPDEST POP PUSH2 0x12A PUSH2 0x1D0 CALLDATASIZE PUSH1 0x4 PUSH2 0x2A28 JUMP JUMPDEST PUSH2 0x5F8 JUMP JUMPDEST CALLVALUE DUP1 ISZERO PUSH2 0x1E1 JUMPI PUSH1 0x0 DUP1 REVERT JUMPDEST POP PUSH2 0x205 PUSH2 0x1F0 CALLDATASIZE PUSH1 0x4 PUSH2 0x2979 JUMP JUMPDEST PUSH1 0x4 PUSH1 0x20 MSTORE PUSH1 0x0 SWAP1 DUP2 MSTORE PUSH1 0x40 SWAP1 KECCAK256 SLOAD PUSH1 0xFF AND DUP2 JUMP JUMPDEST PUSH1 0x40 MLOAD SWAP1 ISZERO ISZERO DUP2 MSTORE PUSH1 0x20 ADD PUSH2 0x1AC JUMP JUMPDEST CALLVALUE DUP1 ISZERO PUSH2 0x221 JUMPI PUSH1 0x0 DUP1 REVERT JUMPDEST POP PUSH2 0x22A PUSH2 0x727 JUMP JUMPDEST PUSH1 0x40 MLOAD SWAP1 DUP2 MSTORE PUSH1 0x20 ADD PUSH2 0x1AC JUMP JUMPDEST CALLVALUE DUP1 ISZERO PUSH2 0x244 JUMPI PUSH1 0x0 DUP1 REVERT JUMPDEST POP PUSH2 0x12A PUSH2 0x253 CALLDATASIZE PUSH1 0x4 PUSH2 0x2A72 JUMP JUMPDEST PUSH2 0x738 JUMP JUMPDEST CALLVALUE DUP1 ISZERO PUSH2 0x264 JUMPI PUSH1 0x0 DUP1 REVERT JUMPDEST POP PUSH2 0x12A PUSH2 0x7F0 JUMP JUMPDEST CALLVALUE DUP1 ISZERO PUSH2 0x279 JUMPI PUSH1 0x0 DUP1 REVERT JUMPDEST POP PUSH2 0x12A PUSH2 0x804 JUMP JUMPDEST CALLVALUE DUP1 ISZERO PUSH2 0x28E JUMPI PUSH1 0x0 DUP1 REVERT JUMPDEST POP PUSH2 0x297 PUSH2 0x948 JUMP JUMPDEST PUSH1 0x40 MLOAD PUSH2 0x1AC SWAP2 SWAP1 PUSH2 0x2AA9 JUMP JUMPDEST CALLVALUE DUP1 ISZERO PUSH2 0x2B0 JUMPI PUSH1 0x0 DUP1 REVERT JUMPDEST POP PUSH2 0x12A PUSH2 0x2BF CALLDATASIZE PUSH1 0x4 PUSH2 0x2ABD JUMP JUMPDEST PUSH2 0x963 JUMP JUMPDEST CALLVALUE DUP1 ISZERO PUSH2 0x2D0 JUMPI PUSH1 0x0 DUP1 REVERT JUMPDEST POP PUSH2 0x12A PUSH2 0x2DF CALLDATASIZE PUSH1 0x4 PUSH2 0x2979 JUMP JUMPDEST PUSH2 0xACD JUMP JUMPDEST CALLVALUE DUP1 ISZERO PUSH2 0x2F0 JUMPI PUSH1 0x0 DUP1 REVERT JUMPDEST POP PUSH2 0x304 PUSH2 0x2FF CALLDATASIZE PUSH1 0x4 PUSH2 0x2979 JUMP JUMPDEST PUSH2 0xB08 JUMP JUMPDEST PUSH1 0x40 MLOAD PUSH2 0x1AC SWAP2 SWAP1 PUSH2 0x2AE9 JUMP JUMPDEST CALLVALUE DUP1 ISZERO PUSH2 0x31D JUMPI PUSH1 0x0 DUP1 REVERT JUMPDEST POP PUSH2 0x205 PUSH2 0x32C CALLDATASIZE PUSH1 0x4 PUSH2 0x2B5F JUMP JUMPDEST PUSH1 0x8 PUSH1 0x20 MSTORE PUSH1 0x0 SWAP1 DUP2 MSTORE PUSH1 0x40 SWAP1 KECCAK256 SLOAD PUSH1 0xFF AND DUP2 JUMP JUMPDEST CALLVALUE DUP1 ISZERO PUSH2 0x34D JUMPI PUSH1 0x0 DUP1 REVERT JUMPDEST POP PUSH2 0x22A PUSH2 0x35C CALLDATASIZE PUSH1 0x4 PUSH2 0x2979 JUMP JUMPDEST PUSH2 0xC6B JUMP JUMPDEST CALLVALUE DUP1 ISZERO PUSH2 0x36D JUMPI PUSH1 0x0 DUP1 REVERT JUMPDEST POP PUSH2 0x12A PUSH2 0x37C CALLDATASIZE PUSH1 0x4 PUSH2 0x2BD1 JUMP JUMPDEST PUSH2 0xCCC JUMP JUMPDEST CALLVALUE DUP1 ISZERO PUSH2 0x38D JUMPI PUSH1 0x0 DUP1 REVERT JUMPDEST POP PUSH2 0x22A PUSH1 0x2 SLOAD DUP2 JUMP JUMPDEST CALLVALUE DUP1 ISZERO PUSH2 0x3A3 JUMPI PUSH1 0x0 DUP1 REVERT JUMPDEST POP PUSH2 0x22A PUSH1 0x3 SLOAD DUP2 JUMP JUMPDEST CALLVALUE DUP1 ISZERO PUSH2 0x3B9 JUMPI PUSH1 0x0 DUP1 REVERT JUMPDEST POP PUSH2 0x12A PUSH2 0x3C8 CALLDATASIZE PUSH1 0x4 PUSH2 0x2CDA JUMP JUMPDEST PUSH2 0x13A1 JUMP JUMPDEST PUSH2 0x12A PUSH2 0x3DB CALLDATASIZE PUSH1 0x4 PUSH2 0x2D04 JUMP JUMPDEST PUSH2 0x1495 JUMP JUMPDEST CALLVALUE DUP1 ISZERO PUSH2 0x3EC JUMPI PUSH1 0x0 DUP1 REVERT JUMPDEST POP PUSH2 0x22A PUSH2 0x3FB CALLDATASIZE PUSH1 0x4 PUSH2 0x2D4F JUMP JUMPDEST PUSH2 0x18CE JUMP JUMPDEST CALLVALUE DUP1 ISZERO PUSH2 0x40C JUMPI PUSH1 0x0 DUP1 REVERT JUMPDEST POP PUSH2 0x12A PUSH2 0x41B CALLDATASIZE PUSH1 0x4 PUSH2 0x2B5F JUMP JUMPDEST PUSH2 0x1B82 JUMP JUMPDEST PUSH2 0x428 PUSH2 0x1BBD JUMP JUMPDEST PUSH2 0x433 PUSH1 0x6 DUP7 PUSH2 0x1BEF JUMP JUMPDEST PUSH2 0x458 JUMPI PUSH1 0x40 MLOAD PUSH3 0x461BCD PUSH1 0xE5 SHL DUP2 MSTORE PUSH1 0x4 ADD PUSH2 0x44F SWAP1 PUSH2 0x2D71 JUMP JUMPDEST PUSH1 0x40 MLOAD DUP1 SWAP2 SUB SWAP1 REVERT JUMPDEST PUSH1 0x0 DUP2 GT PUSH2 0x478 JUMPI PUSH1 0x40 MLOAD PUSH3 0x461BCD PUSH1 0xE5 SHL DUP2 MSTORE PUSH1 0x4 ADD PUSH2 0x44F SWAP1 PUSH2 0x2D9B JUMP JUMPDEST PUSH1 0x0 DUP5 PUSH1 0x1 DUP2 GT ISZERO PUSH2 0x48C JUMPI PUSH2 0x48C PUSH2 0x2992 JUMP JUMPDEST EQ DUP1 PUSH2 0x4A9 JUMPI POP PUSH1 0x1 DUP5 PUSH1 0x1 DUP2 GT ISZERO PUSH2 0x4A7 JUMPI PUSH2 0x4A7 PUSH2 0x2992 JUMP JUMPDEST EQ JUMPDEST PUSH2 0x4C5 JUMPI PUSH1 0x40 MLOAD PUSH3 0x461BCD PUSH1 0xE5 SHL DUP2 MSTORE PUSH1 0x4 ADD PUSH2 0x44F SWAP1 PUSH2 0x2DE1 JUMP JUMPDEST PUSH1 0x0 DUP4 PUSH1 0x2 DUP2 GT ISZERO PUSH2 0x4D9 JUMPI PUSH2 0x4D9 PUSH2 0x2992 JUMP JUMPDEST EQ DUP1 PUSH2 0x4F6 JUMPI POP PUSH1 0x1 DUP4 PUSH1 0x2 DUP2 GT ISZERO PUSH2 0x4F4 JUMPI PUSH2 0x4F4 PUSH2 0x2992 JUMP JUMPDEST EQ JUMPDEST DUP1 PUSH2 0x512 JUMPI POP PUSH1 0x2 DUP4 PUSH1 0x2 DUP2 GT ISZERO PUSH2 0x510 JUMPI PUSH2 0x510 PUSH2 0x2992 JUMP JUMPDEST EQ JUMPDEST PUSH2 0x52E JUMPI PUSH1 0x40 MLOAD PUSH3 0x461BCD PUSH1 0xE5 SHL DUP2 MSTORE PUSH1 0x4 ADD PUSH2 0x44F SWAP1 PUSH2 0x2E0B JUMP JUMPDEST PUSH1 0x0 DUP6 DUP2 MSTORE PUSH1 0x5 PUSH1 0x20 MSTORE PUSH1 0x40 SWAP1 KECCAK256 PUSH1 0x1 DUP1 DUP3 ADD DUP1 SLOAD DUP8 SWAP3 PUSH1 0xFF NOT SWAP1 SWAP2 AND SWAP1 DUP4 DUP2 DUP2 GT ISZERO PUSH2 0x55D JUMPI PUSH2 0x55D PUSH2 0x2992 JUMP JUMPDEST MUL OR SWAP1 SSTORE POP PUSH1 0x1 DUP2 ADD DUP1 SLOAD DUP6 SWAP2 SWAP1 PUSH3 0xFF0000 NOT AND PUSH3 0x10000 DUP4 PUSH1 0x2 DUP2 GT ISZERO PUSH2 0x587 JUMPI PUSH2 0x587 PUSH2 0x2992 JUMP JUMPDEST MUL OR SWAP1 SSTORE POP PUSH1 0x2 DUP2 ADD DUP1 SLOAD PUSH1 0x1 PUSH1 0x1 PUSH1 0xA0 SHL SUB NOT AND PUSH1 0x1 PUSH1 0x1 PUSH1 0xA0 SHL SUB DUP6 AND OR SWAP1 SSTORE PUSH1 0x3 DUP2 ADD DUP3 SWAP1 SSTORE PUSH1 0x40 MLOAD DUP7 SWAP1 PUSH32 0xC02B41847A14CDD8174EF635596EE9EDF41C26174DB1C1DC05C098129F4CD35D SWAP1 PUSH2 0x5E8 SWAP1 DUP9 SWAP1 DUP9 SWAP1 DUP9 SWAP1 DUP9 SWAP1 PUSH2 0x2E35 JUMP JUMPDEST PUSH1 0x40 MLOAD DUP1 SWAP2 SUB SWAP1 LOG2 POP POP POP POP POP POP JUMP JUMPDEST PUSH2 0x600 PUSH2 0x1BBD JUMP JUMPDEST PUSH1 0x1 PUSH1 0x1 PUSH1 0xA0 SHL SUB DUP3 AND PUSH2 0x648 JUMPI PUSH1 0x40 MLOAD PUSH3 0x461BCD PUSH1 0xE5 SHL DUP2 MSTORE PUSH1 0x20 PUSH1 0x4 DUP3 ADD MSTORE PUSH1 0xF PUSH1 0x24 DUP3 ADD MSTORE PUSH15 0x496E76616C69642061646472657373 PUSH1 0x88 SHL PUSH1 0x44 DUP3 ADD MSTORE PUSH1 0x64 ADD PUSH2 0x44F JUMP JUMPDEST PUSH1 0x40 MLOAD PUSH4 0x70A08231 PUSH1 0xE0 SHL DUP2 MSTORE PUSH1 0x0 SWAP1 PUSH1 0x1 PUSH1 0x1 PUSH1 0xA0 SHL SUB DUP6 AND SWAP1 PUSH4 0x70A08231 SWAP1 PUSH2 0x677 SWAP1 ADDRESS SWAP1 PUSH1 0x4 ADD PUSH2 0x2AA9 JUMP JUMPDEST PUSH1 0x20 PUSH1 0x40 MLOAD DUP1 DUP4 SUB DUP2 DUP7 GAS STATICCALL ISZERO DUP1 ISZERO PUSH2 0x694 JUMPI RETURNDATASIZE PUSH1 0x0 DUP1 RETURNDATACOPY RETURNDATASIZE PUSH1 0x0 REVERT JUMPDEST POP POP POP POP PUSH1 0x40 MLOAD RETURNDATASIZE PUSH1 0x1F NOT PUSH1 0x1F DUP3 ADD AND DUP3 ADD DUP1 PUSH1 0x40 MSTORE POP DUP2 ADD SWAP1 PUSH2 0x6B8 SWAP2 SWAP1 PUSH2 0x2E6D JUMP JUMPDEST SWAP1 POP PUSH1 0x0 DUP2 GT PUSH2 0x6F6 JUMPI PUSH1 0x40 MLOAD PUSH3 0x461BCD PUSH1 0xE5 SHL DUP2 MSTORE PUSH1 0x20 PUSH1 0x4 DUP3 ADD MSTORE PUSH1 0x9 PUSH1 0x24 DUP3 ADD MSTORE PUSH9 0x4E6F20746F6B656E73 PUSH1 0xB8 SHL PUSH1 0x44 DUP3 ADD MSTORE PUSH1 0x64 ADD PUSH2 0x44F JUMP JUMPDEST DUP1 DUP3 GT ISZERO PUSH2 0x716 JUMPI PUSH1 0x40 MLOAD PUSH3 0x461BCD PUSH1 0xE5 SHL DUP2 MSTORE PUSH1 0x4 ADD PUSH2 0x44F SWAP1 PUSH2 0x2E86 JUMP JUMPDEST PUSH2 0x721 DUP5 DUP5 DUP5 PUSH2 0x1C02 JUMP JUMPDEST POP POP POP POP JUMP JUMPDEST PUSH1 0x0 PUSH2 0x733 PUSH1 0x6 PUSH2 0x1C5D JUMP JUMPDEST SWAP1 POP SWAP1 JUMP JUMPDEST PUSH2 0x740 PUSH2 0x1BBD JUMP JUMPDEST PUSH1 0x1 PUSH1 0x1 PUSH1 0xA0 SHL SUB DUP3 AND PUSH2 0x78F JUMPI PUSH1 0x40 MLOAD PUSH3 0x461BCD PUSH1 0xE5 SHL DUP2 MSTORE PUSH1 0x20 PUSH1 0x4 DUP3 ADD MSTORE PUSH1 0x16 PUSH1 0x24 DUP3 ADD MSTORE PUSH22 0x496E76616C6964206F7261636C652061646472657373 PUSH1 0x50 SHL PUSH1 0x44 DUP3 ADD MSTORE PUSH1 0x64 ADD PUSH2 0x44F JUMP JUMPDEST PUSH1 0x40 MLOAD PUSH1 0x1 PUSH1 0x1 PUSH1 0xA0 SHL SUB DUP4 AND SWAP1 DUP2 SWAP1 PUSH32 0xB1D1442DBA579887E297AC433E5716C847ABF2DC052EE9DE4869B7B1B8F6206D SWAP1 PUSH1 0x0 SWAP1 LOG3 PUSH1 0x1 PUSH1 0x1 PUSH1 0xA0 SHL SUB SWAP2 SWAP1 SWAP2 AND PUSH1 0x0 SWAP1 DUP2 MSTORE PUSH1 0x8 PUSH1 0x20 MSTORE PUSH1 0x40 SWAP1 KECCAK256 DUP1 SLOAD PUSH1 0xFF NOT AND SWAP2 ISZERO ISZERO SWAP2 SWAP1 SWAP2 OR SWAP1 SSTORE JUMP JUMPDEST PUSH2 0x7F8 PUSH2 0x1BBD JUMP JUMPDEST PUSH2 0x802 PUSH1 0x0 PUSH2 0x1C67 JUMP JUMPDEST JUMP JUMPDEST PUSH1 0x0 PUSH2 0x80E PUSH2 0x1CC3 JUMP JUMPDEST DUP1 SLOAD SWAP1 SWAP2 POP PUSH1 0xFF PUSH1 0x1 PUSH1 0x40 SHL DUP3 DIV AND ISZERO SWAP1 PUSH1 0x1 PUSH1 0x1 PUSH1 0x40 SHL SUB AND PUSH1 0x0 DUP2 ISZERO DUP1 ISZERO PUSH2 0x835 JUMPI POP DUP3 JUMPDEST SWAP1 POP PUSH1 0x0 DUP3 PUSH1 0x1 PUSH1 0x1 PUSH1 0x40 SHL SUB AND PUSH1 0x1 EQ DUP1 ISZERO PUSH2 0x851 JUMPI POP ADDRESS EXTCODESIZE ISZERO JUMPDEST SWAP1 POP DUP2 ISZERO DUP1 ISZERO PUSH2 0x85F JUMPI POP DUP1 ISZERO JUMPDEST ISZERO PUSH2 0x87D JUMPI PUSH1 0x40 MLOAD PUSH4 0xF92EE8A9 PUSH1 0xE0 SHL DUP2 MSTORE PUSH1 0x4 ADD PUSH1 0x40 MLOAD DUP1 SWAP2 SUB SWAP1 REVERT JUMPDEST DUP5 SLOAD PUSH1 0x1 PUSH1 0x1 PUSH1 0x40 SHL SUB NOT AND PUSH1 0x1 OR DUP6 SSTORE DUP4 ISZERO PUSH2 0x8A6 JUMPI DUP5 SLOAD PUSH1 0xFF PUSH1 0x40 SHL NOT AND PUSH1 0x1 PUSH1 0x40 SHL OR DUP6 SSTORE JUMPDEST PUSH2 0x8AF CALLER PUSH2 0x1CEC JUMP JUMPDEST PUSH2 0x8B7 PUSH2 0x1CFD JUMP JUMPDEST PUSH1 0x40 MLOAD PUSH1 0x1 PUSH1 0x1 PUSH1 0x60 SHL SUB NOT CALLER PUSH1 0x60 SHL AND PUSH1 0x20 DUP3 ADD MSTORE TIMESTAMP PUSH1 0x34 DUP3 ADD MSTORE PUSH1 0x54 ADD PUSH1 0x40 DUP1 MLOAD PUSH1 0x1F NOT DUP2 DUP5 SUB ADD DUP2 MSTORE SWAP2 SWAP1 MSTORE DUP1 MLOAD PUSH1 0x20 SWAP1 SWAP2 ADD KECCAK256 PUSH1 0x0 SSTORE PUSH1 0x1E PUSH1 0x2 SSTORE PUSH1 0x32 PUSH1 0x3 SSTORE DUP4 ISZERO PUSH2 0x941 JUMPI DUP5 SLOAD PUSH1 0xFF PUSH1 0x40 SHL NOT AND DUP6 SSTORE PUSH1 0x40 MLOAD PUSH1 0x1 DUP2 MSTORE PUSH32 0xC7F505B2F371AE2175EE4913F4499E1F2633A7B5936321EED1CDAEB6115181D2 SWAP1 PUSH1 0x20 ADD PUSH1 0x40 MLOAD DUP1 SWAP2 SUB SWAP1 LOG1 JUMPDEST POP POP POP POP POP JUMP JUMPDEST PUSH1 0x0 DUP1 PUSH2 0x953 PUSH2 0x1D0D JUMP JUMPDEST SLOAD PUSH1 0x1 PUSH1 0x1 PUSH1 0xA0 SHL SUB AND SWAP3 SWAP2 POP POP JUMP JUMPDEST PUSH2 0x96B PUSH2 0x1BBD JUMP JUMPDEST PUSH1 0x0 DUP2 PUSH1 0x1 DUP2 GT ISZERO PUSH2 0x97F JUMPI PUSH2 0x97F PUSH2 0x2992 JUMP JUMPDEST EQ DUP1 PUSH2 0x99C JUMPI POP PUSH1 0x1 DUP2 PUSH1 0x1 DUP2 GT ISZERO PUSH2 0x99A JUMPI PUSH2 0x99A PUSH2 0x2992 JUMP JUMPDEST EQ JUMPDEST PUSH2 0x9B8 JUMPI PUSH1 0x40 MLOAD PUSH3 0x461BCD PUSH1 0xE5 SHL DUP2 MSTORE PUSH1 0x4 ADD PUSH2 0x44F SWAP1 PUSH2 0x2DE1 JUMP JUMPDEST PUSH1 0x1 DUP3 LT ISZERO DUP1 ISZERO PUSH2 0x9CA JUMPI POP PUSH1 0x64 DUP3 GT ISZERO JUMPDEST PUSH2 0xA21 JUMPI PUSH1 0x40 MLOAD PUSH3 0x461BCD PUSH1 0xE5 SHL DUP2 MSTORE PUSH1 0x20 PUSH1 0x4 DUP3 ADD MSTORE PUSH1 0x22 PUSH1 0x24 DUP3 ADD MSTORE PUSH32 0x57696E2072617465206D757374206265206265747765656E203120616E642031 PUSH1 0x44 DUP3 ADD MSTORE PUSH2 0x303 PUSH1 0xF4 SHL PUSH1 0x64 DUP3 ADD MSTORE PUSH1 0x84 ADD PUSH2 0x44F JUMP JUMPDEST PUSH1 0x0 DUP2 PUSH1 0x1 DUP2 GT ISZERO PUSH2 0xA35 JUMPI PUSH2 0xA35 PUSH2 0x2992 JUMP JUMPDEST SUB PUSH2 0xA69 JUMPI DUP2 PUSH1 0x2 SLOAD PUSH1 0x0 DUP1 MLOAD PUSH1 0x20 PUSH2 0x3215 DUP4 CODECOPY DUP2 MLOAD SWAP2 MSTORE DUP4 PUSH1 0x40 MLOAD PUSH2 0xA5B SWAP2 SWAP1 PUSH2 0x2EB6 JUMP JUMPDEST PUSH1 0x40 MLOAD DUP1 SWAP2 SUB SWAP1 LOG3 POP PUSH1 0x2 SSTORE JUMP JUMPDEST PUSH1 0x1 DUP2 PUSH1 0x1 DUP2 GT ISZERO PUSH2 0xA7D JUMPI PUSH2 0xA7D PUSH2 0x2992 JUMP JUMPDEST SUB PUSH2 0xAB1 JUMPI DUP2 PUSH1 0x3 SLOAD PUSH1 0x0 DUP1 MLOAD PUSH1 0x20 PUSH2 0x3215 DUP4 CODECOPY DUP2 MLOAD SWAP2 MSTORE DUP4 PUSH1 0x40 MLOAD PUSH2 0xAA3 SWAP2 SWAP1 PUSH2 0x2EB6 JUMP JUMPDEST PUSH1 0x40 MLOAD DUP1 SWAP2 SUB SWAP1 LOG3 POP PUSH1 0x3 SSTORE JUMP JUMPDEST PUSH1 0x40 MLOAD PUSH3 0x461BCD PUSH1 0xE5 SHL DUP2 MSTORE PUSH1 0x4 ADD PUSH2 0x44F SWAP1 PUSH2 0x2DE1 JUMP JUMPDEST POP POP JUMP JUMPDEST PUSH2 0xAD5 PUSH2 0x1BBD JUMP JUMPDEST PUSH2 0xAE0 PUSH1 0x6 DUP3 PUSH2 0x1BEF JUMP JUMPDEST PUSH2 0xAFC JUMPI PUSH1 0x40 MLOAD PUSH3 0x461BCD PUSH1 0xE5 SHL DUP2 MSTORE PUSH1 0x4 ADD PUSH2 0x44F SWAP1 PUSH2 0x2D71 JUMP JUMPDEST PUSH2 0xB05 DUP2 PUSH2 0x1D31 JUMP JUMPDEST POP JUMP JUMPDEST PUSH2 0xB49 PUSH1 0x40 DUP1 MLOAD PUSH1 0xE0 DUP2 ADD SWAP1 SWAP2 MSTORE PUSH1 0x0 DUP1 DUP3 MSTORE PUSH1 0x20 DUP3 ADD SWAP1 DUP2 MSTORE PUSH1 0x20 ADD PUSH1 0x0 DUP2 MSTORE PUSH1 0x20 ADD PUSH1 0x0 DUP2 MSTORE PUSH1 0x0 PUSH1 0x20 DUP3 ADD DUP2 SWAP1 MSTORE PUSH1 0x40 DUP3 ADD DUP2 SWAP1 MSTORE PUSH1 0x60 SWAP1 SWAP2 ADD MSTORE SWAP1 JUMP JUMPDEST PUSH2 0xB54 PUSH1 0x6 DUP4 PUSH2 0x1BEF JUMP JUMPDEST PUSH2 0xB70 JUMPI PUSH1 0x40 MLOAD PUSH3 0x461BCD PUSH1 0xE5 SHL DUP2 MSTORE PUSH1 0x4 ADD PUSH2 0x44F SWAP1 PUSH2 0x2D71 JUMP JUMPDEST PUSH1 0x0 DUP3 DUP2 MSTORE PUSH1 0x5 PUSH1 0x20 SWAP1 DUP2 MSTORE PUSH1 0x40 SWAP2 DUP3 SWAP1 KECCAK256 DUP3 MLOAD PUSH1 0xE0 DUP2 ADD SWAP1 SWAP4 MSTORE DUP1 SLOAD DUP4 MSTORE PUSH1 0x1 DUP1 DUP3 ADD SLOAD SWAP2 SWAP3 DUP5 ADD SWAP2 PUSH1 0xFF AND SWAP1 DUP2 GT ISZERO PUSH2 0xBAD JUMPI PUSH2 0xBAD PUSH2 0x2992 JUMP JUMPDEST PUSH1 0x1 DUP2 GT ISZERO PUSH2 0xBBE JUMPI PUSH2 0xBBE PUSH2 0x2992 JUMP JUMPDEST DUP2 MSTORE PUSH1 0x20 ADD PUSH1 0x1 DUP3 ADD PUSH1 0x1 SWAP1 SLOAD SWAP1 PUSH2 0x100 EXP SWAP1 DIV PUSH1 0xFF AND PUSH1 0x1 DUP2 GT ISZERO PUSH2 0xBE6 JUMPI PUSH2 0xBE6 PUSH2 0x2992 JUMP JUMPDEST PUSH1 0x1 DUP2 GT ISZERO PUSH2 0xBF7 JUMPI PUSH2 0xBF7 PUSH2 0x2992 JUMP JUMPDEST DUP2 MSTORE PUSH1 0x20 ADD PUSH1 0x1 DUP3 ADD PUSH1 0x2 SWAP1 SLOAD SWAP1 PUSH2 0x100 EXP SWAP1 DIV PUSH1 0xFF AND PUSH1 0x2 DUP2 GT ISZERO PUSH2 0xC1F JUMPI PUSH2 0xC1F PUSH2 0x2992 JUMP JUMPDEST PUSH1 0x2 DUP2 GT ISZERO PUSH2 0xC30 JUMPI PUSH2 0xC30 PUSH2 0x2992 JUMP JUMPDEST DUP2 MSTORE PUSH1 0x1 DUP3 ADD SLOAD PUSH1 0x1 PUSH1 0x1 PUSH1 0xA0 SHL SUB PUSH4 0x1000000 SWAP1 SWAP2 DIV DUP2 AND PUSH1 0x20 DUP4 ADD MSTORE PUSH1 0x2 DUP4 ADD SLOAD AND PUSH1 0x40 DUP3 ADD MSTORE PUSH1 0x3 SWAP1 SWAP2 ADD SLOAD PUSH1 0x60 SWAP1 SWAP2 ADD MSTORE SWAP3 SWAP2 POP POP JUMP JUMPDEST PUSH1 0x0 PUSH2 0xC77 PUSH1 0x6 PUSH2 0x1C5D JUMP JUMPDEST DUP3 LT PUSH2 0xCBB JUMPI PUSH1 0x40 MLOAD PUSH3 0x461BCD PUSH1 0xE5 SHL DUP2 MSTORE PUSH1 0x20 PUSH1 0x4 DUP3 ADD MSTORE PUSH1 0x13 PUSH1 0x24 DUP3 ADD MSTORE PUSH19 0x496E646578206F7574206F6620626F756E6473 PUSH1 0x68 SHL PUSH1 0x44 DUP3 ADD MSTORE PUSH1 0x64 ADD PUSH2 0x44F JUMP JUMPDEST PUSH2 0xCC6 PUSH1 0x6 DUP4 PUSH2 0x1DA4 JUMP JUMPDEST SWAP3 SWAP2 POP POP JUMP JUMPDEST CALLER PUSH1 0x0 SWAP1 DUP2 MSTORE PUSH1 0x8 PUSH1 0x20 MSTORE PUSH1 0x40 SWAP1 KECCAK256 SLOAD PUSH1 0xFF AND PUSH2 0xCFB JUMPI PUSH1 0x40 MLOAD PUSH3 0x82B429 PUSH1 0xE8 SHL DUP2 MSTORE PUSH1 0x4 ADD PUSH1 0x40 MLOAD DUP1 SWAP2 SUB SWAP1 REVERT JUMPDEST PUSH2 0xD03 PUSH2 0x1DB0 JUMP JUMPDEST PUSH1 0x0 DUP7 DUP2 MSTORE PUSH1 0x4 PUSH1 0x20 MSTORE PUSH1 0x40 SWAP1 KECCAK256 SLOAD PUSH1 0xFF AND PUSH2 0xD32 JUMPI PUSH1 0x40 MLOAD PUSH4 0x2589D98F PUSH1 0xE1 SHL DUP2 MSTORE PUSH1 0x4 ADD PUSH1 0x40 MLOAD DUP1 SWAP2 SUB SWAP1 REVERT JUMPDEST PUSH2 0xD41 DUP7 DUP7 DUP7 DUP7 CALLER DUP8 DUP8 PUSH2 0x1DE6 JUMP JUMPDEST PUSH2 0xD5E JUMPI PUSH1 0x40 MLOAD PUSH4 0x8BAA579F PUSH1 0xE0 SHL DUP2 MSTORE PUSH1 0x4 ADD PUSH1 0x40 MLOAD DUP1 SWAP2 SUB SWAP1 REVERT JUMPDEST PUSH2 0xD69 PUSH1 0x6 DUP6 PUSH2 0x1BEF JUMP JUMPDEST PUSH2 0xD85 JUMPI PUSH1 0x40 MLOAD PUSH3 0x461BCD PUSH1 0xE5 SHL DUP2 MSTORE PUSH1 0x4 ADD PUSH2 0x44F SWAP1 PUSH2 0x2D71 JUMP JUMPDEST PUSH1 0x0 DUP5 DUP2 MSTORE PUSH1 0x5 PUSH1 0x20 MSTORE PUSH1 0x40 SWAP1 KECCAK256 PUSH1 0x1 DUP1 DUP3 DUP2 ADD SLOAD PUSH2 0x100 SWAP1 DIV PUSH1 0xFF AND SWAP1 DUP2 GT ISZERO PUSH2 0xDB2 JUMPI PUSH2 0xDB2 PUSH2 0x2992 JUMP JUMPDEST EQ PUSH2 0xDF0 JUMPI PUSH1 0x40 MLOAD PUSH3 0x461BCD PUSH1 0xE5 SHL DUP2 MSTORE PUSH1 0x20 PUSH1 0x4 DUP3 ADD MSTORE PUSH1 0xE PUSH1 0x24 DUP3 ADD MSTORE PUSH14 0x105B1C9958591E481BDC195B9959 PUSH1 0x92 SHL PUSH1 0x44 DUP3 ADD MSTORE PUSH1 0x64 ADD PUSH2 0x44F JUMP JUMPDEST PUSH1 0x1 DUP2 ADD SLOAD PUSH4 0x1000000 SWAP1 DIV PUSH1 0x1 PUSH1 0x1 PUSH1 0xA0 SHL SUB AND ISZERO PUSH2 0xE42 JUMPI PUSH1 0x40 MLOAD PUSH3 0x461BCD PUSH1 0xE5 SHL DUP2 MSTORE PUSH1 0x20 PUSH1 0x4 DUP3 ADD MSTORE PUSH1 0xD PUSH1 0x24 DUP3 ADD MSTORE PUSH13 0x2137BC103430B99037BBB732B9 PUSH1 0x99 SHL PUSH1 0x44 DUP3 ADD MSTORE PUSH1 0x64 ADD PUSH2 0x44F JUMP JUMPDEST PUSH1 0x1 DUP2 DUP2 ADD DUP1 SLOAD PUSH1 0x1 PUSH1 0x1 PUSH1 0xA0 SHL SUB DUP8 AND PUSH4 0x1000000 MUL PUSH3 0xFF0100 PUSH1 0x1 PUSH1 0xB8 SHL SUB NOT DUP3 AND DUP2 OR SWAP1 SWAP3 SSTORE PUSH1 0x0 SWAP3 DUP4 SWAP3 PUSH1 0xFF SWAP1 DUP2 AND SWAP3 AND SWAP2 SWAP1 SWAP2 OR SWAP1 DUP2 GT ISZERO PUSH2 0xE8B JUMPI PUSH2 0xE8B PUSH2 0x2992 JUMP JUMPDEST SUB PUSH2 0xEC2 JUMPI PUSH1 0x2 SLOAD PUSH1 0x64 DUP9 PUSH1 0x0 DUP2 MLOAD DUP2 LT PUSH2 0xEA8 JUMPI PUSH2 0xEA8 PUSH2 0x2EC9 JUMP JUMPDEST PUSH1 0x20 MUL PUSH1 0x20 ADD ADD MLOAD PUSH2 0xEBA SWAP2 SWAP1 PUSH2 0x2EF5 JUMP JUMPDEST LT SWAP1 POP PUSH2 0xEF0 JUMP JUMPDEST PUSH1 0x3 SLOAD PUSH1 0x64 DUP9 PUSH1 0x0 DUP2 MLOAD DUP2 LT PUSH2 0xEDA JUMPI PUSH2 0xEDA PUSH2 0x2EC9 JUMP JUMPDEST PUSH1 0x20 MUL PUSH1 0x20 ADD ADD MLOAD PUSH2 0xEEC SWAP2 SWAP1 PUSH2 0x2EF5 JUMP JUMPDEST LT SWAP1 POP JUMPDEST PUSH2 0xF3B PUSH1 0x40 MLOAD DUP1 PUSH1 0x40 ADD PUSH1 0x40 MSTORE DUP1 PUSH1 0xF DUP2 MSTORE PUSH1 0x20 ADD PUSH15 0x2930B73237B690373AB6B132B91D1 PUSH1 0x8D SHL DUP2 MSTORE POP DUP9 PUSH1 0x0 DUP2 MLOAD DUP2 LT PUSH2 0xF2E JUMPI PUSH2 0xF2E PUSH2 0x2EC9 JUMP JUMPDEST PUSH1 0x20 MUL PUSH1 0x20 ADD ADD MLOAD PUSH2 0x1EB6 JUMP JUMPDEST PUSH2 0xF68 PUSH1 0x40 MLOAD DUP1 PUSH1 0x40 ADD PUSH1 0x40 MSTORE DUP1 PUSH1 0xB DUP2 MSTORE PUSH1 0x20 ADD PUSH11 0x2932B8BAB2B9BA32B91D1 PUSH1 0xAD SHL DUP2 MSTORE POP DUP7 PUSH2 0x1EFB JUMP JUMPDEST PUSH1 0x40 DUP1 MLOAD DUP1 DUP3 ADD SWAP1 SWAP2 MSTORE PUSH1 0xA DUP2 MSTORE PUSH10 0x2137BC102A3CB8329D1 PUSH1 0xB5 SHL PUSH1 0x20 DUP3 ADD MSTORE PUSH1 0x1 DUP1 DUP5 ADD SLOAD PUSH2 0xFAE SWAP3 SWAP2 PUSH1 0xFF SWAP1 SWAP2 AND SWAP1 DUP2 GT ISZERO PUSH2 0xFA9 JUMPI PUSH2 0xFA9 PUSH2 0x2992 JUMP JUMPDEST PUSH2 0x1EB6 JUMP JUMPDEST PUSH2 0xFE2 PUSH1 0x40 MLOAD DUP1 PUSH1 0x40 ADD PUSH1 0x40 MSTORE DUP1 PUSH1 0xE DUP2 MSTORE PUSH1 0x20 ADD PUSH14 0x283934BD329020B6B7BAB73A1D1 PUSH1 0x95 SHL DUP2 MSTORE POP DUP4 PUSH1 0x3 ADD SLOAD PUSH2 0x1EB6 JUMP JUMPDEST PUSH2 0x1009 PUSH1 0x40 MLOAD DUP1 PUSH1 0x40 ADD PUSH1 0x40 MSTORE DUP1 PUSH1 0x5 DUP2 MSTORE PUSH1 0x20 ADD PUSH5 0x2BB7B71D1 PUSH1 0xDD SHL DUP2 MSTORE POP DUP3 PUSH2 0x1F40 JUMP JUMPDEST PUSH1 0x40 DUP1 MLOAD DUP1 DUP3 ADD SWAP1 SWAP2 MSTORE PUSH1 0xD DUP2 MSTORE PUSH13 0x283934BD32902A37B5B2B71D1 PUSH1 0x9D SHL PUSH1 0x20 DUP3 ADD MSTORE PUSH1 0x2 DUP4 ADD SLOAD PUSH2 0x1045 SWAP2 SWAP1 PUSH1 0x1 PUSH1 0x1 PUSH1 0xA0 SHL SUB AND PUSH2 0x1EFB JUMP JUMPDEST DUP1 ISZERO PUSH2 0x1306 JUMPI PUSH1 0x0 PUSH1 0x1 DUP1 DUP1 DUP6 ADD SLOAD PUSH1 0xFF AND SWAP1 DUP2 GT ISZERO PUSH2 0x1067 JUMPI PUSH2 0x1067 PUSH2 0x2992 JUMP JUMPDEST EQ PUSH2 0x1073 JUMPI PUSH1 0x64 PUSH2 0x10A5 JUMP JUMPDEST PUSH1 0x64 DUP9 PUSH1 0x0 DUP2 MLOAD DUP2 LT PUSH2 0x1088 JUMPI PUSH2 0x1088 PUSH2 0x2EC9 JUMP JUMPDEST PUSH1 0x20 MUL PUSH1 0x20 ADD ADD MLOAD PUSH2 0x109A SWAP2 SWAP1 PUSH2 0x2EF5 JUMP JUMPDEST PUSH2 0x10A5 SWAP1 PUSH1 0x1 PUSH2 0x2F1F JUMP JUMPDEST SWAP1 POP PUSH1 0x0 PUSH1 0x1 DUP1 DUP1 DUP7 ADD SLOAD PUSH1 0xFF AND SWAP1 DUP2 GT ISZERO PUSH2 0x10C3 JUMPI PUSH2 0x10C3 PUSH2 0x2992 JUMP JUMPDEST EQ PUSH2 0x10D2 JUMPI DUP4 PUSH1 0x3 ADD SLOAD PUSH2 0x10EE JUMP JUMPDEST PUSH1 0x64 DUP3 DUP6 PUSH1 0x3 ADD SLOAD PUSH2 0x10E4 SWAP2 SWAP1 PUSH2 0x2F32 JUMP JUMPDEST PUSH2 0x10EE SWAP2 SWAP1 PUSH2 0x2F49 JUMP JUMPDEST SWAP1 POP PUSH2 0x111B PUSH1 0x40 MLOAD DUP1 PUSH1 0x40 ADD PUSH1 0x40 MSTORE DUP1 PUSH1 0x9 DUP2 MSTORE PUSH1 0x20 ADD PUSH9 0x2832B931B2B73A1D1 PUSH1 0xBD SHL DUP2 MSTORE POP DUP4 PUSH2 0x1EB6 JUMP JUMPDEST PUSH1 0x0 DUP2 DUP6 PUSH1 0x3 ADD SLOAD PUSH2 0x112D SWAP2 SWAP1 PUSH2 0x2F5D JUMP JUMPDEST SWAP1 POP PUSH2 0x1185 PUSH1 0x40 MLOAD DUP1 PUSH1 0x40 ADD PUSH1 0x40 MSTORE DUP1 PUSH1 0x8 DUP2 MSTORE PUSH1 0x20 ADD PUSH8 0x2830BCB7BABA1D1 PUSH1 0xC5 SHL DUP2 MSTORE POP DUP4 PUSH1 0x40 MLOAD DUP1 PUSH1 0x40 ADD PUSH1 0x40 MSTORE DUP1 PUSH1 0x12 DUP2 MSTORE PUSH1 0x20 ADD PUSH18 0x102932B6B0B4B734B73390283934BD329D1 PUSH1 0x75 SHL DUP2 MSTORE POP DUP5 PUSH2 0x1F85 JUMP JUMPDEST PUSH1 0x2 DUP6 ADD SLOAD PUSH1 0x1 PUSH1 0x1 PUSH1 0xA0 SHL SUB AND PUSH2 0x11EF JUMPI PUSH2 0x11A1 DUP9 DUP4 PUSH2 0x1FCE JUMP JUMPDEST DUP1 ISZERO PUSH2 0x11B8 JUMPI PUSH2 0x11B8 PUSH2 0x11B2 PUSH2 0x948 JUMP JUMPDEST DUP3 PUSH2 0x1FCE JUMP JUMPDEST PUSH2 0x11EA PUSH1 0x40 MLOAD DUP1 PUSH1 0x40 ADD PUSH1 0x40 MSTORE DUP1 PUSH1 0x11 DUP2 MSTORE PUSH1 0x20 ADD PUSH17 0x2A3930B739B332B93932B21032BA3432B9 PUSH1 0x79 SHL DUP2 MSTORE POP PUSH2 0x20AA JUMP JUMPDEST PUSH2 0x1261 JUMP JUMPDEST PUSH1 0x2 DUP6 ADD SLOAD PUSH2 0x1208 SWAP1 PUSH1 0x1 PUSH1 0x1 PUSH1 0xA0 SHL SUB AND DUP10 DUP5 PUSH2 0x20ED JUMP JUMPDEST DUP1 ISZERO PUSH2 0x122E JUMPI PUSH1 0x2 DUP6 ADD SLOAD PUSH2 0x122E SWAP1 PUSH1 0x1 PUSH1 0x1 PUSH1 0xA0 SHL SUB AND PUSH2 0x1228 PUSH2 0x948 JUMP JUMPDEST DUP4 PUSH2 0x20ED JUMP JUMPDEST PUSH2 0x1261 PUSH1 0x40 MLOAD DUP1 PUSH1 0x40 ADD PUSH1 0x40 MSTORE DUP1 PUSH1 0x12 DUP2 MSTORE PUSH1 0x20 ADD PUSH18 0x5472616E7366657272656420746F6B656E73 PUSH1 0x70 SHL DUP2 MSTORE POP PUSH2 0x20AA JUMP JUMPDEST PUSH1 0x2 DUP6 ADD SLOAD PUSH1 0x40 MLOAD PUSH1 0x1 PUSH1 0x1 PUSH1 0xA0 SHL SUB DUP1 DUP12 AND SWAP3 DUP13 SWAP3 PUSH32 0x6CA0DA92C4797A558F7E777695E71010CA0BBF7B7007B7E0402C5921A25FB4D8 SWAP3 PUSH2 0x12A6 SWAP3 AND SWAP1 DUP8 SWAP1 PUSH2 0x2F70 JUMP JUMPDEST PUSH1 0x40 MLOAD DUP1 SWAP2 SUB SWAP1 LOG3 DUP1 ISZERO PUSH2 0x12FE JUMPI PUSH1 0x2 DUP6 ADD SLOAD PUSH1 0x40 MLOAD DUP11 SWAP2 PUSH32 0xF552CA82E113AC3C539C3D617F29FCD19C172A0C75DAD017555C9E109F7FE183 SWAP2 PUSH2 0x12F5 SWAP2 PUSH1 0x1 PUSH1 0x1 PUSH1 0xA0 SHL SUB AND SWAP1 DUP6 SWAP1 PUSH2 0x2F70 JUMP JUMPDEST PUSH1 0x40 MLOAD DUP1 SWAP2 SUB SWAP1 LOG2 JUMPDEST POP POP POP PUSH2 0x133D JUMP JUMPDEST PUSH1 0x40 MLOAD PUSH1 0x1 PUSH1 0x1 PUSH1 0xA0 SHL SUB DUP7 AND SWAP1 DUP8 SWAP1 PUSH32 0x59C544C2595303434D37BD8EE8AF000818BE6066BEB8C37844D43F7EE80A444 SWAP1 PUSH1 0x0 SWAP1 LOG3 JUMPDEST PUSH1 0x0 DUP9 DUP2 MSTORE PUSH1 0x4 PUSH1 0x20 MSTORE PUSH1 0x40 SWAP1 DUP2 SWAP1 KECCAK256 DUP1 SLOAD PUSH1 0xFF NOT AND SWAP1 SSTORE MLOAD DUP7 SWAP1 DUP10 SWAP1 PUSH32 0xC9245471E1EDA01DF96AC978BD431512E8E4F71C9541C7D946973B851391D8AD SWAP1 PUSH2 0x1387 SWAP1 DUP12 SWAP1 PUSH2 0x2F89 JUMP JUMPDEST PUSH1 0x40 MLOAD DUP1 SWAP2 SUB SWAP1 LOG3 POP POP PUSH2 0x1399 PUSH2 0x20F8 JUMP JUMPDEST POP POP POP POP POP POP JUMP JUMPDEST PUSH2 0x13A9 PUSH2 0x1BBD JUMP JUMPDEST SELFBALANCE DUP1 PUSH2 0x13E0 JUMPI PUSH1 0x40 MLOAD PUSH3 0x461BCD PUSH1 0xE5 SHL DUP2 MSTORE PUSH1 0x20 PUSH1 0x4 DUP3 ADD MSTORE PUSH1 0x6 PUSH1 0x24 DUP3 ADD MSTORE PUSH6 0x9CDE408AA89 PUSH1 0xD3 SHL PUSH1 0x44 DUP3 ADD MSTORE PUSH1 0x64 ADD PUSH2 0x44F JUMP JUMPDEST DUP1 DUP3 GT ISZERO PUSH2 0x1400 JUMPI PUSH1 0x40 MLOAD PUSH3 0x461BCD PUSH1 0xE5 SHL DUP2 MSTORE PUSH1 0x4 ADD PUSH2 0x44F SWAP1 PUSH2 0x2E86 JUMP JUMPDEST PUSH1 0x0 DUP4 PUSH1 0x1 PUSH1 0x1 PUSH1 0xA0 SHL SUB AND DUP3 PUSH1 0x40 MLOAD PUSH1 0x0 PUSH1 0x40 MLOAD DUP1 DUP4 SUB DUP2 DUP6 DUP8 GAS CALL SWAP3 POP POP POP RETURNDATASIZE DUP1 PUSH1 0x0 DUP2 EQ PUSH2 0x144D JUMPI PUSH1 0x40 MLOAD SWAP2 POP PUSH1 0x1F NOT PUSH1 0x3F RETURNDATASIZE ADD AND DUP3 ADD PUSH1 0x40 MSTORE RETURNDATASIZE DUP3 MSTORE RETURNDATASIZE PUSH1 0x0 PUSH1 0x20 DUP5 ADD RETURNDATACOPY PUSH2 0x1452 JUMP JUMPDEST PUSH1 0x60 SWAP2 POP JUMPDEST POP POP SWAP1 POP DUP1 PUSH2 0x721 JUMPI PUSH1 0x40 MLOAD PUSH3 0x461BCD PUSH1 0xE5 SHL DUP2 MSTORE PUSH1 0x20 PUSH1 0x4 DUP3 ADD MSTORE PUSH1 0xF PUSH1 0x24 DUP3 ADD MSTORE PUSH15 0x151C985B9CD9995C8819985A5B1959 PUSH1 0x8A SHL PUSH1 0x44 DUP3 ADD MSTORE PUSH1 0x64 ADD PUSH2 0x44F JUMP JUMPDEST PUSH2 0x149D PUSH2 0x1BBD JUMP JUMPDEST PUSH1 0x0 DUP2 GT PUSH2 0x14BD JUMPI PUSH1 0x40 MLOAD PUSH3 0x461BCD PUSH1 0xE5 SHL DUP2 MSTORE PUSH1 0x4 ADD PUSH2 0x44F SWAP1 PUSH2 0x2D9B JUMP JUMPDEST PUSH1 0x0 PUSH2 0x14C7 PUSH2 0x2109 JUMP JUMPDEST SWAP1 POP PUSH2 0x14D4 PUSH1 0x6 DUP3 PUSH2 0x1BEF JUMP JUMPDEST ISZERO PUSH2 0x1519 JUMPI PUSH1 0x40 MLOAD PUSH3 0x461BCD PUSH1 0xE5 SHL DUP2 MSTORE PUSH1 0x20 PUSH1 0x4 DUP3 ADD MSTORE PUSH1 0x15 PUSH1 0x24 DUP3 ADD MSTORE PUSH21 0x426F7820494420616C726561647920657869737473 PUSH1 0x58 SHL PUSH1 0x44 DUP3 ADD MSTORE PUSH1 0x64 ADD PUSH2 0x44F JUMP JUMPDEST PUSH1 0x0 DUP6 PUSH1 0x1 DUP2 GT ISZERO PUSH2 0x152D JUMPI PUSH2 0x152D PUSH2 0x2992 JUMP JUMPDEST EQ DUP1 PUSH2 0x154A JUMPI POP PUSH1 0x1 DUP6 PUSH1 0x1 DUP2 GT ISZERO PUSH2 0x1548 JUMPI PUSH2 0x1548 PUSH2 0x2992 JUMP JUMPDEST EQ JUMPDEST PUSH2 0x1566 JUMPI PUSH1 0x40 MLOAD PUSH3 0x461BCD PUSH1 0xE5 SHL DUP2 MSTORE PUSH1 0x4 ADD PUSH2 0x44F SWAP1 PUSH2 0x2DE1 JUMP JUMPDEST PUSH1 0x0 DUP5 PUSH1 0x2 DUP2 GT ISZERO PUSH2 0x157A JUMPI PUSH2 0x157A PUSH2 0x2992 JUMP JUMPDEST EQ DUP1 PUSH2 0x1597 JUMPI POP PUSH1 0x1 DUP5 PUSH1 0x2 DUP2 GT ISZERO PUSH2 0x1595 JUMPI PUSH2 0x1595 PUSH2 0x2992 JUMP JUMPDEST EQ JUMPDEST DUP1 PUSH2 0x15B3 JUMPI POP PUSH1 0x2 DUP5 PUSH1 0x2 DUP2 GT ISZERO PUSH2 0x15B1 JUMPI PUSH2 0x15B1 PUSH2 0x2992 JUMP JUMPDEST EQ JUMPDEST PUSH2 0x15CF JUMPI PUSH1 0x40 MLOAD PUSH3 0x461BCD PUSH1 0xE5 SHL DUP2 MSTORE PUSH1 0x4 ADD PUSH2 0x44F SWAP1 PUSH2 0x2E0B JUMP JUMPDEST PUSH1 0x0 DUP3 GT PUSH2 0x15EF JUMPI PUSH1 0x40 MLOAD PUSH3 0x461BCD PUSH1 0xE5 SHL DUP2 MSTORE PUSH1 0x4 ADD PUSH2 0x44F SWAP1 PUSH2 0x2D9B JUMP JUMPDEST PUSH1 0x1 PUSH1 0x1 PUSH1 0xA0 SHL SUB DUP4 AND ISZERO PUSH2 0x16B5 JUMPI PUSH1 0x40 MLOAD PUSH4 0x6EB1769F PUSH1 0xE1 SHL DUP2 MSTORE CALLER PUSH1 0x4 DUP3 ADD MSTORE ADDRESS PUSH1 0x24 DUP3 ADD MSTORE DUP3 SWAP1 PUSH1 0x1 PUSH1 0x1 PUSH1 0xA0 SHL SUB DUP6 AND SWAP1 PUSH4 0xDD62ED3E SWAP1 PUSH1 0x44 ADD PUSH1 0x20 PUSH1 0x40 MLOAD DUP1 DUP4 SUB DUP2 DUP7 GAS STATICCALL ISZERO DUP1 ISZERO PUSH2 0x164A JUMPI RETURNDATASIZE PUSH1 0x0 DUP1 RETURNDATACOPY RETURNDATASIZE PUSH1 0x0 REVERT JUMPDEST POP POP POP POP PUSH1 0x40 MLOAD RETURNDATASIZE PUSH1 0x1F NOT PUSH1 0x1F DUP3 ADD AND DUP3 ADD DUP1 PUSH1 0x40 MSTORE POP DUP2 ADD SWAP1 PUSH2 0x166E SWAP2 SWAP1 PUSH2 0x2E6D JUMP JUMPDEST LT ISZERO PUSH2 0x16B5 JUMPI PUSH1 0x40 MLOAD PUSH3 0x461BCD PUSH1 0xE5 SHL DUP2 MSTORE PUSH1 0x20 PUSH1 0x4 DUP3 ADD MSTORE PUSH1 0x16 PUSH1 0x24 DUP3 ADD MSTORE PUSH22 0x496E73756666696369656E7420616C6C6F77616E6365 PUSH1 0x50 SHL PUSH1 0x44 DUP3 ADD MSTORE PUSH1 0x64 ADD PUSH2 0x44F JUMP JUMPDEST PUSH1 0x40 MLOAD DUP1 PUSH1 0xE0 ADD PUSH1 0x40 MSTORE DUP1 DUP3 DUP2 MSTORE PUSH1 0x20 ADD DUP7 PUSH1 0x1 DUP2 GT ISZERO PUSH2 0x16D8 JUMPI PUSH2 0x16D8 PUSH2 0x2992 JUMP JUMPDEST DUP2 MSTORE PUSH1 0x20 ADD PUSH1 0x1 DUP2 MSTORE PUSH1 0x20 ADD DUP6 PUSH1 0x2 DUP2 GT ISZERO PUSH2 0x16F6 JUMPI PUSH2 0x16F6 PUSH2 0x2992 JUMP JUMPDEST DUP2 MSTORE PUSH1 0x0 PUSH1 0x20 DUP1 DUP4 ADD DUP3 SWAP1 MSTORE PUSH1 0x1 PUSH1 0x1 PUSH1 0xA0 SHL SUB DUP8 AND PUSH1 0x40 DUP1 DUP6 ADD SWAP2 SWAP1 SWAP2 MSTORE PUSH1 0x60 SWAP1 SWAP4 ADD DUP7 SWAP1 MSTORE DUP5 DUP3 MSTORE PUSH1 0x5 DUP2 MSTORE SWAP2 SWAP1 KECCAK256 DUP3 MLOAD DUP2 SSTORE SWAP1 DUP3 ADD MLOAD PUSH1 0x1 DUP1 DUP4 ADD DUP1 SLOAD SWAP1 SWAP2 PUSH1 0xFF NOT SWAP1 SWAP2 AND SWAP1 DUP4 DUP2 DUP2 GT ISZERO PUSH2 0x1750 JUMPI PUSH2 0x1750 PUSH2 0x2992 JUMP JUMPDEST MUL OR SWAP1 SSTORE POP PUSH1 0x40 DUP3 ADD MLOAD DUP2 PUSH1 0x1 ADD PUSH1 0x1 PUSH2 0x100 EXP DUP2 SLOAD DUP2 PUSH1 0xFF MUL NOT AND SWAP1 DUP4 PUSH1 0x1 DUP2 GT ISZERO PUSH2 0x177F JUMPI PUSH2 0x177F PUSH2 0x2992 JUMP JUMPDEST MUL OR SWAP1 SSTORE POP PUSH1 0x60 DUP3 ADD MLOAD PUSH1 0x1 DUP3 ADD DUP1 SLOAD PUSH3 0xFF0000 NOT AND PUSH3 0x10000 DUP4 PUSH1 0x2 DUP2 GT ISZERO PUSH2 0x17AB JUMPI PUSH2 0x17AB PUSH2 0x2992 JUMP JUMPDEST MUL OR SWAP1 SSTORE POP PUSH1 0x80 DUP3 ADD MLOAD PUSH1 0x1 DUP3 ADD DUP1 SLOAD PUSH4 0x1000000 PUSH1 0x1 PUSH1 0xB8 SHL SUB NOT AND PUSH4 0x1000000 PUSH1 0x1 PUSH1 0x1 PUSH1 0xA0 SHL SUB SWAP4 DUP5 AND MUL OR SWAP1 SSTORE PUSH1 0xA0 DUP4 ADD MLOAD PUSH1 0x2 DUP4 ADD DUP1 SLOAD PUSH1 0x1 PUSH1 0x1 PUSH1 0xA0 SHL SUB NOT AND SWAP2 SWAP1 SWAP3 AND OR SWAP1 SSTORE PUSH1 0xC0 SWAP1 SWAP2 ADD MLOAD PUSH1 0x3 SWAP1 SWAP2 ADD SSTORE PUSH2 0x180F PUSH1 0x6 DUP3 PUSH2 0x21B1 JUMP JUMPDEST POP PUSH1 0x1 PUSH1 0x1 PUSH1 0xA0 SHL SUB DUP4 AND PUSH2 0x186F JUMPI DUP2 CALLVALUE EQ PUSH2 0x186A JUMPI PUSH1 0x40 MLOAD PUSH3 0x461BCD PUSH1 0xE5 SHL DUP2 MSTORE PUSH1 0x20 PUSH1 0x4 DUP3 ADD MSTORE PUSH1 0x1A PUSH1 0x24 DUP3 ADD MSTORE PUSH26 0x125B98DBDC9C9958DD08195D1A195C881D985B1D59481CD95B9D PUSH1 0x32 SHL PUSH1 0x44 DUP3 ADD MSTORE PUSH1 0x64 ADD PUSH2 0x44F JUMP JUMPDEST PUSH2 0x187B JUMP JUMPDEST PUSH2 0x187B DUP4 CALLER ADDRESS DUP6 PUSH2 0x21BD JUMP JUMPDEST PUSH1 0x0 PUSH1 0x1 PUSH1 0x1 PUSH1 0xA0 SHL SUB AND DUP2 PUSH32 0xB3B535E190EFDD2DA85C3B882E6C17533A6FFCBEB2AC4B3B42013E095E11D8BC DUP8 PUSH1 0x1 DUP9 DUP9 DUP9 PUSH1 0x40 MLOAD PUSH2 0x18BF SWAP6 SWAP5 SWAP4 SWAP3 SWAP2 SWAP1 PUSH2 0x2FCD JUMP JUMPDEST PUSH1 0x40 MLOAD DUP1 SWAP2 SUB SWAP1 LOG3 POP POP POP POP POP JUMP JUMPDEST PUSH1 0x0 PUSH2 0x18DB PUSH1 0x6 DUP4 PUSH2 0x1BEF JUMP JUMPDEST PUSH2 0x18F7 JUMPI PUSH1 0x40 MLOAD PUSH3 0x461BCD PUSH1 0xE5 SHL DUP2 MSTORE PUSH1 0x4 ADD PUSH2 0x44F SWAP1 PUSH2 0x2D71 JUMP JUMPDEST PUSH1 0x1 PUSH1 0x0 DUP4 DUP2 MSTORE PUSH1 0x5 PUSH1 0x20 MSTORE PUSH1 0x40 SWAP1 KECCAK256 PUSH1 0x1 SWAP1 DUP2 ADD SLOAD PUSH2 0x100 SWAP1 DIV PUSH1 0xFF AND SWAP1 DUP2 GT ISZERO PUSH2 0x1925 JUMPI PUSH2 0x1925 PUSH2 0x2992 JUMP JUMPDEST EQ PUSH2 0x1967 JUMPI PUSH1 0x40 MLOAD PUSH3 0x461BCD PUSH1 0xE5 SHL DUP2 MSTORE PUSH1 0x20 PUSH1 0x4 DUP3 ADD MSTORE PUSH1 0x12 PUSH1 0x24 DUP3 ADD MSTORE PUSH18 0x109BDE08185B1C9958591E481BDC195B9959 PUSH1 0x72 SHL PUSH1 0x44 DUP3 ADD MSTORE PUSH1 0x64 ADD PUSH2 0x44F JUMP JUMPDEST PUSH1 0x0 DUP3 DUP2 MSTORE PUSH1 0x5 PUSH1 0x20 MSTORE PUSH1 0x40 SWAP1 KECCAK256 PUSH1 0x1 ADD SLOAD PUSH4 0x1000000 SWAP1 DIV PUSH1 0x1 PUSH1 0x1 PUSH1 0xA0 SHL SUB AND ISZERO PUSH2 0x19CE JUMPI PUSH1 0x40 MLOAD PUSH3 0x461BCD PUSH1 0xE5 SHL DUP2 MSTORE PUSH1 0x20 PUSH1 0x4 DUP3 ADD MSTORE PUSH1 0x15 PUSH1 0x24 DUP3 ADD MSTORE PUSH21 0x2137BC1030B63932B0B23C903430B99037BBB732B9 PUSH1 0x59 SHL PUSH1 0x44 DUP3 ADD MSTORE PUSH1 0x64 ADD PUSH2 0x44F JUMP JUMPDEST DUP3 PUSH1 0x1 EQ PUSH2 0x1A16 JUMPI PUSH1 0x40 MLOAD PUSH3 0x461BCD PUSH1 0xE5 SHL DUP2 MSTORE PUSH1 0x20 PUSH1 0x4 DUP3 ADD MSTORE PUSH1 0x15 PUSH1 0x24 DUP3 ADD MSTORE PUSH21 0x13DB9B1E481BDB99481DDBDC9908185B1B1BDDD959 PUSH1 0x5A SHL PUSH1 0x44 DUP3 ADD MSTORE PUSH1 0x64 ADD PUSH2 0x44F JUMP JUMPDEST CALLER TIMESTAMP PUSH1 0x0 SLOAD PUSH1 0x40 MLOAD PUSH1 0x20 ADD PUSH2 0x1A2D SWAP4 SWAP3 SWAP2 SWAP1 PUSH2 0x3015 JUMP JUMPDEST PUSH1 0x40 DUP1 MLOAD PUSH1 0x1F NOT DUP2 DUP5 SUB ADD DUP2 MSTORE SWAP2 SWAP1 MSTORE DUP1 MLOAD PUSH1 0x20 SWAP1 SWAP2 ADD KECCAK256 PUSH1 0x0 DUP2 DUP2 SSTORE PUSH1 0x1 DUP1 SLOAD TIMESTAMP SWAP3 PREVRANDAO SWAP3 CALLER SWAP3 ADDRESS SWAP3 DUP11 SWAP3 DUP11 SWAP3 SWAP2 PUSH2 0x1A64 DUP4 PUSH2 0x303A JUMP JUMPDEST SWAP1 SWAP2 SSTORE POP PUSH1 0x40 DUP1 MLOAD PUSH1 0x20 DUP2 ADD SWAP10 SWAP1 SWAP10 MSTORE DUP9 ADD SWAP7 SWAP1 SWAP7 MSTORE PUSH1 0x60 DUP1 DUP9 ADD SWAP6 SWAP1 SWAP6 MSTORE SWAP3 DUP5 SHL PUSH1 0x1 PUSH1 0x1 PUSH1 0x60 SHL SUB NOT SWAP1 DUP2 AND PUSH1 0x80 DUP9 ADD MSTORE SWAP2 SWAP1 SWAP4 SHL AND PUSH1 0x94 DUP6 ADD MSTORE PUSH1 0xA8 DUP5 ADD SWAP2 SWAP1 SWAP2 MSTORE PUSH1 0xC8 DUP4 ADD MSTORE PUSH1 0xE8 DUP3 ADD MSTORE PUSH2 0x108 ADD PUSH1 0x40 DUP1 MLOAD PUSH1 0x1F NOT DUP2 DUP5 SUB ADD DUP2 MSTORE SWAP2 DUP2 MSTORE DUP2 MLOAD PUSH1 0x20 SWAP3 DUP4 ADD KECCAK256 PUSH1 0x0 DUP2 DUP2 MSTORE PUSH1 0x4 SWAP1 SWAP4 MSTORE SWAP2 KECCAK256 SLOAD SWAP1 SWAP2 POP PUSH1 0xFF AND ISZERO PUSH2 0x1B23 JUMPI PUSH1 0x40 MLOAD PUSH3 0x461BCD PUSH1 0xE5 SHL DUP2 MSTORE PUSH1 0x20 PUSH1 0x4 DUP3 ADD MSTORE PUSH1 0x11 PUSH1 0x24 DUP3 ADD MSTORE PUSH17 0x5265717565737420494420657869737473 PUSH1 0x78 SHL PUSH1 0x44 DUP3 ADD MSTORE PUSH1 0x64 ADD PUSH2 0x44F JUMP JUMPDEST PUSH1 0x0 DUP2 DUP2 MSTORE PUSH1 0x4 PUSH1 0x20 MSTORE PUSH1 0x40 SWAP1 DUP2 SWAP1 KECCAK256 DUP1 SLOAD PUSH1 0xFF NOT AND PUSH1 0x1 OR SWAP1 SSTORE MLOAD DUP3 SWAP1 CALLER SWAP1 DUP4 SWAP1 PUSH32 0xE597616BCC7AD3B09B316C7123410AF4695ED18F3FFCAEBB95CFD266755412FB SWAP1 PUSH2 0x1B74 SWAP1 DUP9 DUP2 MSTORE PUSH1 0x20 ADD SWAP1 JUMP JUMPDEST PUSH1 0x40 MLOAD DUP1 SWAP2 SUB SWAP1 LOG4 SWAP3 SWAP2 POP POP JUMP JUMPDEST PUSH2 0x1B8A PUSH2 0x1BBD JUMP JUMPDEST PUSH1 0x1 PUSH1 0x1 PUSH1 0xA0 SHL SUB DUP2 AND PUSH2 0x1BB4 JUMPI PUSH1 0x0 PUSH1 0x40 MLOAD PUSH4 0x1E4FBDF7 PUSH1 0xE0 SHL DUP2 MSTORE PUSH1 0x4 ADD PUSH2 0x44F SWAP2 SWAP1 PUSH2 0x2AA9 JUMP JUMPDEST PUSH2 0xB05 DUP2 PUSH2 0x1C67 JUMP JUMPDEST CALLER PUSH2 0x1BC6 PUSH2 0x948 JUMP JUMPDEST PUSH1 0x1 PUSH1 0x1 PUSH1 0xA0 SHL SUB AND EQ PUSH2 0x802 JUMPI CALLER PUSH1 0x40 MLOAD PUSH4 0x118CDAA7 PUSH1 0xE0 SHL DUP2 MSTORE PUSH1 0x4 ADD PUSH2 0x44F SWAP2 SWAP1 PUSH2 0x2AA9 JUMP JUMPDEST PUSH1 0x0 PUSH2 0x1BFB DUP4 DUP4 PUSH2 0x21F5 JUMP JUMPDEST SWAP4 SWAP3 POP POP POP JUMP JUMPDEST PUSH2 0x1C58 DUP4 PUSH4 0xA9059CBB PUSH1 0xE0 SHL DUP5 DUP5 PUSH1 0x40 MLOAD PUSH1 0x24 ADD PUSH2 0x1C21 SWAP3 SWAP2 SWAP1 PUSH2 0x2F70 JUMP JUMPDEST PUSH1 0x40 DUP1 MLOAD PUSH1 0x1F NOT DUP2 DUP5 SUB ADD DUP2 MSTORE SWAP2 SWAP1 MSTORE PUSH1 0x20 DUP2 ADD DUP1 MLOAD PUSH1 0x1 PUSH1 0x1 PUSH1 0xE0 SHL SUB AND PUSH1 0x1 PUSH1 0x1 PUSH1 0xE0 SHL SUB NOT SWAP1 SWAP4 AND SWAP3 SWAP1 SWAP3 OR SWAP1 SWAP2 MSTORE PUSH2 0x220D JUMP JUMPDEST POP POP POP JUMP JUMPDEST PUSH1 0x0 PUSH2 0xCC6 DUP3 SLOAD SWAP1 JUMP JUMPDEST PUSH1 0x0 PUSH2 0x1C71 PUSH2 0x1D0D JUMP JUMPDEST DUP1 SLOAD PUSH1 0x1 PUSH1 0x1 PUSH1 0xA0 SHL SUB DUP5 DUP2 AND PUSH1 0x1 PUSH1 0x1 PUSH1 0xA0 SHL SUB NOT DUP4 AND DUP2 OR DUP5 SSTORE PUSH1 0x40 MLOAD SWAP4 SWAP5 POP SWAP2 AND SWAP2 DUP3 SWAP1 PUSH32 0x8BE0079C531659141344CD1FD0A4F28419497F9722A3DAAFE3B4186F6B6457E0 SWAP1 PUSH1 0x0 SWAP1 LOG3 POP POP POP JUMP JUMPDEST PUSH1 0x0 DUP1 PUSH32 0xF0C57E16840DF040F15088DC2F81FE391C3923BEC73E23A9662EFC9C229C6A00 PUSH2 0xCC6 JUMP JUMPDEST PUSH2 0x1CF4 PUSH2 0x22E2 JUMP JUMPDEST PUSH2 0xB05 DUP2 PUSH2 0x2307 JUMP JUMPDEST PUSH2 0x1D05 PUSH2 0x22E2 JUMP JUMPDEST PUSH2 0x802 PUSH2 0x230F JUMP JUMPDEST PUSH32 0x9016D09D72D40FDAE2FD8CEAC6B6234C7706214FD39C1CD1E609A0528C199300 SWAP1 JUMP JUMPDEST PUSH1 0x0 DUP2 DUP2 MSTORE PUSH1 0x5 PUSH1 0x20 MSTORE PUSH1 0x40 DUP2 KECCAK256 DUP2 DUP2 SSTORE PUSH1 0x1 DUP2 ADD DUP1 SLOAD PUSH1 0x1 PUSH1 0x1 PUSH1 0xB8 SHL SUB NOT AND SWAP1 SSTORE PUSH1 0x2 DUP2 ADD DUP1 SLOAD PUSH1 0x1 PUSH1 0x1 PUSH1 0xA0 SHL SUB NOT AND SWAP1 SSTORE PUSH1 0x3 ADD SSTORE PUSH2 0x1D75 PUSH1 0x6 DUP3 PUSH2 0x2317 JUMP JUMPDEST POP PUSH1 0x40 MLOAD DUP2 SWAP1 PUSH32 0x606CE84A58BEEBDD8ABDD4BB24672FC015A5EB5A7BE08A9D2F4023A920C8E7DD SWAP1 PUSH1 0x0 SWAP1 LOG2 POP JUMP JUMPDEST PUSH1 0x0 PUSH2 0x1BFB DUP4 DUP4 PUSH2 0x2323 JUMP JUMPDEST PUSH1 0x0 PUSH2 0x1DBA PUSH2 0x234D JUMP JUMPDEST DUP1 SLOAD SWAP1 SWAP2 POP PUSH1 0x1 NOT ADD PUSH2 0x1DE0 JUMPI PUSH1 0x40 MLOAD PUSH4 0x3EE5AEB5 PUSH1 0xE0 SHL DUP2 MSTORE PUSH1 0x4 ADD PUSH1 0x40 MLOAD DUP1 SWAP2 SUB SWAP1 REVERT JUMPDEST PUSH1 0x2 SWAP1 SSTORE JUMP JUMPDEST PUSH1 0x0 DUP1 DUP9 DUP9 DUP9 DUP9 DUP9 PUSH1 0x40 MLOAD PUSH1 0x20 ADD PUSH2 0x1E02 SWAP6 SWAP5 SWAP4 SWAP3 SWAP2 SWAP1 PUSH2 0x3053 JUMP JUMPDEST PUSH1 0x40 MLOAD PUSH1 0x20 DUP2 DUP4 SUB SUB DUP2 MSTORE SWAP1 PUSH1 0x40 MSTORE DUP1 MLOAD SWAP1 PUSH1 0x20 ADD KECCAK256 SWAP1 POP PUSH1 0x0 PUSH2 0x1E52 DUP3 PUSH28 0xCA2BA3432B932BAB69029B4B3B732B21026B2B9B9B0B3B29D051999 PUSH1 0x21 SHL PUSH1 0x0 SWAP1 DUP2 MSTORE PUSH1 0x1C SWAP2 SWAP1 SWAP2 MSTORE PUSH1 0x3C SWAP1 KECCAK256 SWAP1 JUMP JUMPDEST SWAP1 POP DUP6 PUSH1 0x1 PUSH1 0x1 PUSH1 0xA0 SHL SUB AND PUSH2 0x1E9E DUP3 DUP8 DUP8 DUP1 DUP1 PUSH1 0x1F ADD PUSH1 0x20 DUP1 SWAP2 DIV MUL PUSH1 0x20 ADD PUSH1 0x40 MLOAD SWAP1 DUP2 ADD PUSH1 0x40 MSTORE DUP1 SWAP4 SWAP3 SWAP2 SWAP1 DUP2 DUP2 MSTORE PUSH1 0x20 ADD DUP4 DUP4 DUP1 DUP3 DUP5 CALLDATACOPY PUSH1 0x0 SWAP3 ADD SWAP2 SWAP1 SWAP2 MSTORE POP PUSH2 0x2371 SWAP3 POP POP POP JUMP JUMPDEST PUSH1 0x1 PUSH1 0x1 PUSH1 0xA0 SHL SUB AND EQ SWAP11 SWAP10 POP POP POP POP POP POP POP POP POP POP JUMP JUMPDEST PUSH2 0xAC9 DUP3 DUP3 PUSH1 0x40 MLOAD PUSH1 0x24 ADD PUSH2 0x1ECC SWAP3 SWAP2 SWAP1 PUSH2 0x3105 JUMP JUMPDEST PUSH1 0x40 DUP1 MLOAD PUSH1 0x1F NOT DUP2 DUP5 SUB ADD DUP2 MSTORE SWAP2 SWAP1 MSTORE PUSH1 0x20 DUP2 ADD DUP1 MLOAD PUSH1 0x1 PUSH1 0x1 PUSH1 0xE0 SHL SUB AND PUSH4 0x2D839CB3 PUSH1 0xE2 SHL OR SWAP1 MSTORE PUSH2 0x2395 JUMP JUMPDEST PUSH2 0xAC9 DUP3 DUP3 PUSH1 0x40 MLOAD PUSH1 0x24 ADD PUSH2 0x1F11 SWAP3 SWAP2 SWAP1 PUSH2 0x3127 JUMP JUMPDEST PUSH1 0x40 DUP1 MLOAD PUSH1 0x1F NOT DUP2 DUP5 SUB ADD DUP2 MSTORE SWAP2 SWAP1 MSTORE PUSH1 0x20 DUP2 ADD DUP1 MLOAD PUSH1 0x1 PUSH1 0x1 PUSH1 0xE0 SHL SUB AND PUSH4 0x319AF333 PUSH1 0xE0 SHL OR SWAP1 MSTORE PUSH2 0x2395 JUMP JUMPDEST PUSH2 0xAC9 DUP3 DUP3 PUSH1 0x40 MLOAD PUSH1 0x24 ADD PUSH2 0x1F56 SWAP3 SWAP2 SWAP1 PUSH2 0x3151 JUMP JUMPDEST PUSH1 0x40 DUP1 MLOAD PUSH1 0x1F NOT DUP2 DUP5 SUB ADD DUP2 MSTORE SWAP2 SWAP1 MSTORE PUSH1 0x20 DUP2 ADD DUP1 MLOAD PUSH1 0x1 PUSH1 0x1 PUSH1 0xE0 SHL SUB AND PUSH4 0xC3B55635 PUSH1 0xE0 SHL OR SWAP1 MSTORE PUSH2 0x2395 JUMP JUMPDEST PUSH2 0x721 DUP5 DUP5 DUP5 DUP5 PUSH1 0x40 MLOAD PUSH1 0x24 ADD PUSH2 0x1F9F SWAP5 SWAP4 SWAP3 SWAP2 SWAP1 PUSH2 0x3175 JUMP JUMPDEST PUSH1 0x40 DUP1 MLOAD PUSH1 0x1F NOT DUP2 DUP5 SUB ADD DUP2 MSTORE SWAP2 SWAP1 MSTORE PUSH1 0x20 DUP2 ADD DUP1 MLOAD PUSH1 0x1 PUSH1 0x1 PUSH1 0xE0 SHL SUB AND PUSH4 0xC67EA9D1 PUSH1 0xE0 SHL OR SWAP1 MSTORE PUSH2 0x2395 JUMP JUMPDEST DUP1 SELFBALANCE LT ISZERO PUSH2 0x2011 JUMPI PUSH1 0x40 MLOAD PUSH3 0x461BCD PUSH1 0xE5 SHL DUP2 MSTORE PUSH1 0x20 PUSH1 0x4 DUP3 ADD MSTORE PUSH1 0x10 PUSH1 0x24 DUP3 ADD MSTORE PUSH16 0x92DCE6EACCCCD2C6D2CADCE8408AA89 PUSH1 0x83 SHL PUSH1 0x44 DUP3 ADD MSTORE PUSH1 0x64 ADD PUSH2 0x44F JUMP JUMPDEST PUSH1 0x0 DUP3 PUSH1 0x1 PUSH1 0x1 PUSH1 0xA0 SHL SUB AND DUP3 PUSH1 0x40 MLOAD PUSH1 0x0 PUSH1 0x40 MLOAD DUP1 DUP4 SUB DUP2 DUP6 DUP8 GAS CALL SWAP3 POP POP POP RETURNDATASIZE DUP1 PUSH1 0x0 DUP2 EQ PUSH2 0x205E JUMPI PUSH1 0x40 MLOAD SWAP2 POP PUSH1 0x1F NOT PUSH1 0x3F RETURNDATASIZE ADD AND DUP3 ADD PUSH1 0x40 MSTORE RETURNDATASIZE DUP3 MSTORE RETURNDATASIZE PUSH1 0x0 PUSH1 0x20 DUP5 ADD RETURNDATACOPY PUSH2 0x2063 JUMP JUMPDEST PUSH1 0x60 SWAP2 POP JUMPDEST POP POP SWAP1 POP DUP1 PUSH2 0x1C58 JUMPI PUSH1 0x40 MLOAD PUSH3 0x461BCD PUSH1 0xE5 SHL DUP2 MSTORE PUSH1 0x20 PUSH1 0x4 DUP3 ADD MSTORE PUSH1 0x13 PUSH1 0x24 DUP3 ADD MSTORE PUSH19 0x115512081D1C985B9CD9995C8819985A5B1959 PUSH1 0x6A SHL PUSH1 0x44 DUP3 ADD MSTORE PUSH1 0x64 ADD PUSH2 0x44F JUMP JUMPDEST PUSH2 0xB05 DUP2 PUSH1 0x40 MLOAD PUSH1 0x24 ADD PUSH2 0x20BE SWAP2 SWAP1 PUSH2 0x31B2 JUMP JUMPDEST PUSH1 0x40 DUP1 MLOAD PUSH1 0x1F NOT DUP2 DUP5 SUB ADD DUP2 MSTORE SWAP2 SWAP1 MSTORE PUSH1 0x20 DUP2 ADD DUP1 MLOAD PUSH1 0x1 PUSH1 0x1 PUSH1 0xE0 SHL SUB AND PUSH4 0x104C13EB PUSH1 0xE2 SHL OR SWAP1 MSTORE PUSH2 0x2395 JUMP JUMPDEST PUSH2 0x1C58 DUP4 DUP4 DUP4 PUSH2 0x1C02 JUMP JUMPDEST PUSH1 0x0 PUSH2 0x2102 PUSH2 0x234D JUMP JUMPDEST PUSH1 0x1 SWAP1 SSTORE POP JUMP JUMPDEST PUSH1 0x0 CALLER TIMESTAMP PUSH1 0x0 SLOAD PUSH1 0x40 MLOAD PUSH1 0x20 ADD PUSH2 0x2122 SWAP4 SWAP3 SWAP2 SWAP1 PUSH2 0x3015 JUMP JUMPDEST PUSH1 0x40 DUP1 MLOAD PUSH1 0x1F NOT DUP2 DUP5 SUB ADD DUP2 MSTORE SWAP2 SWAP1 MSTORE DUP1 MLOAD PUSH1 0x20 SWAP1 SWAP2 ADD KECCAK256 PUSH1 0x0 DUP2 DUP2 SSTORE PUSH1 0x1 DUP1 SLOAD TIMESTAMP SWAP4 PREVRANDAO SWAP4 CALLER SWAP4 ADDRESS SWAP4 SWAP2 PUSH2 0x2155 DUP4 PUSH2 0x303A JUMP JUMPDEST SWAP1 SWAP2 SSTORE POP PUSH1 0x40 DUP1 MLOAD PUSH1 0x20 DUP2 ADD SWAP8 SWAP1 SWAP8 MSTORE DUP7 ADD SWAP5 SWAP1 SWAP5 MSTORE PUSH1 0x1 PUSH1 0x1 PUSH1 0x60 SHL SUB NOT PUSH1 0x60 SWAP4 DUP5 SHL DUP2 AND DUP5 DUP8 ADD MSTORE SWAP2 SWAP1 SWAP3 SHL AND PUSH1 0x74 DUP5 ADD MSTORE PUSH1 0x88 DUP4 ADD MSTORE PUSH1 0xA8 DUP3 ADD MSTORE PUSH1 0xC8 ADD PUSH1 0x40 MLOAD PUSH1 0x20 DUP2 DUP4 SUB SUB DUP2 MSTORE SWAP1 PUSH1 0x40 MSTORE DUP1 MLOAD SWAP1 PUSH1 0x20 ADD KECCAK256 SWAP1 POP SWAP1 JUMP JUMPDEST PUSH1 0x0 PUSH2 0x1BFB DUP4 DUP4 PUSH2 0x239E JUMP JUMPDEST PUSH1 0x40 MLOAD PUSH1 0x1 PUSH1 0x1 PUSH1 0xA0 SHL SUB DUP1 DUP6 AND PUSH1 0x24 DUP4 ADD MSTORE DUP4 AND PUSH1 0x44 DUP3 ADD MSTORE PUSH1 0x64 DUP2 ADD DUP3 SWAP1 MSTORE PUSH2 0x721 SWAP1 DUP6 SWAP1 PUSH4 0x23B872DD PUSH1 0xE0 SHL SWAP1 PUSH1 0x84 ADD PUSH2 0x1C21 JUMP JUMPDEST PUSH1 0x0 SWAP1 DUP2 MSTORE PUSH1 0x1 SWAP2 SWAP1 SWAP2 ADD PUSH1 0x20 MSTORE PUSH1 0x40 SWAP1 KECCAK256 SLOAD ISZERO ISZERO SWAP1 JUMP JUMPDEST PUSH1 0x0 PUSH2 0x2262 DUP3 PUSH1 0x40 MLOAD DUP1 PUSH1 0x40 ADD PUSH1 0x40 MSTORE DUP1 PUSH1 0x20 DUP2 MSTORE PUSH1 0x20 ADD PUSH32 0x5361666545524332303A206C6F772D6C6576656C2063616C6C206661696C6564 DUP2 MSTORE POP DUP6 PUSH1 0x1 PUSH1 0x1 PUSH1 0xA0 SHL SUB AND PUSH2 0x23E8 SWAP1 SWAP3 SWAP2 SWAP1 PUSH4 0xFFFFFFFF AND JUMP JUMPDEST SWAP1 POP DUP1 MLOAD PUSH1 0x0 EQ DUP1 PUSH2 0x2283 JUMPI POP DUP1 DUP1 PUSH1 0x20 ADD SWAP1 MLOAD DUP2 ADD SWAP1 PUSH2 0x2283 SWAP2 SWAP1 PUSH2 0x31C5 JUMP JUMPDEST PUSH2 0x1C58 JUMPI PUSH1 0x40 MLOAD PUSH3 0x461BCD PUSH1 0xE5 SHL DUP2 MSTORE PUSH1 0x20 PUSH1 0x4 DUP3 ADD MSTORE PUSH1 0x2A PUSH1 0x24 DUP3 ADD MSTORE PUSH32 0x5361666545524332303A204552433230206F7065726174696F6E20646964206E PUSH1 0x44 DUP3 ADD MSTORE PUSH10 0x1BDD081CDD58D8D95959 PUSH1 0xB2 SHL PUSH1 0x64 DUP3 ADD MSTORE PUSH1 0x84 ADD PUSH2 0x44F JUMP JUMPDEST PUSH2 0x22EA PUSH2 0x23FF JUMP JUMPDEST PUSH2 0x802 JUMPI PUSH1 0x40 MLOAD PUSH4 0x1AFCD79F PUSH1 0xE3 SHL DUP2 MSTORE PUSH1 0x4 ADD PUSH1 0x40 MLOAD DUP1 SWAP2 SUB SWAP1 REVERT JUMPDEST PUSH2 0x1B8A PUSH2 0x22E2 JUMP JUMPDEST PUSH2 0x20F8 PUSH2 0x22E2 JUMP JUMPDEST PUSH1 0x0 PUSH2 0x1BFB DUP4 DUP4 PUSH2 0x2419 JUMP JUMPDEST PUSH1 0x0 DUP3 PUSH1 0x0 ADD DUP3 DUP2 SLOAD DUP2 LT PUSH2 0x233A JUMPI PUSH2 0x233A PUSH2 0x2EC9 JUMP JUMPDEST SWAP1 PUSH1 0x0 MSTORE PUSH1 0x20 PUSH1 0x0 KECCAK256 ADD SLOAD SWAP1 POP SWAP3 SWAP2 POP POP JUMP JUMPDEST PUSH32 0x9B779B17422D0DF92223018B32B4D1FA46E071723D6817E2486D003BECC55F00 SWAP1 JUMP JUMPDEST PUSH1 0x0 DUP1 PUSH1 0x0 PUSH2 0x2380 DUP6 DUP6 PUSH2 0x250C JUMP JUMPDEST SWAP2 POP SWAP2 POP PUSH2 0x238D DUP2 PUSH2 0x2551 JUMP JUMPDEST POP SWAP4 SWAP3 POP POP POP JUMP JUMPDEST PUSH2 0xB05 DUP2 PUSH2 0x2696 JUMP JUMPDEST PUSH1 0x0 PUSH2 0x23AA DUP4 DUP4 PUSH2 0x21F5 JUMP JUMPDEST PUSH2 0x23E0 JUMPI POP DUP2 SLOAD PUSH1 0x1 DUP2 DUP2 ADD DUP5 SSTORE PUSH1 0x0 DUP5 DUP2 MSTORE PUSH1 0x20 DUP1 DUP3 KECCAK256 SWAP1 SWAP4 ADD DUP5 SWAP1 SSTORE DUP5 SLOAD DUP5 DUP3 MSTORE DUP3 DUP7 ADD SWAP1 SWAP4 MSTORE PUSH1 0x40 SWAP1 KECCAK256 SWAP2 SWAP1 SWAP2 SSTORE PUSH2 0xCC6 JUMP JUMPDEST POP PUSH1 0x0 PUSH2 0xCC6 JUMP JUMPDEST PUSH1 0x60 PUSH2 0x23F7 DUP5 DUP5 PUSH1 0x0 DUP6 PUSH2 0x26B7 JUMP JUMPDEST SWAP5 SWAP4 POP POP POP POP JUMP JUMPDEST PUSH1 0x0 PUSH2 0x2409 PUSH2 0x1CC3 JUMP JUMPDEST SLOAD PUSH1 0x1 PUSH1 0x40 SHL SWAP1 DIV PUSH1 0xFF AND SWAP2 SWAP1 POP JUMP JUMPDEST PUSH1 0x0 DUP2 DUP2 MSTORE PUSH1 0x1 DUP4 ADD PUSH1 0x20 MSTORE PUSH1 0x40 DUP2 KECCAK256 SLOAD DUP1 ISZERO PUSH2 0x2502 JUMPI PUSH1 0x0 PUSH2 0x243D PUSH1 0x1 DUP4 PUSH2 0x2F5D JUMP JUMPDEST DUP6 SLOAD SWAP1 SWAP2 POP PUSH1 0x0 SWAP1 PUSH2 0x2451 SWAP1 PUSH1 0x1 SWAP1 PUSH2 0x2F5D JUMP JUMPDEST SWAP1 POP DUP2 DUP2 EQ PUSH2 0x24B6 JUMPI PUSH1 0x0 DUP7 PUSH1 0x0 ADD DUP3 DUP2 SLOAD DUP2 LT PUSH2 0x2471 JUMPI PUSH2 0x2471 PUSH2 0x2EC9 JUMP JUMPDEST SWAP1 PUSH1 0x0 MSTORE PUSH1 0x20 PUSH1 0x0 KECCAK256 ADD SLOAD SWAP1 POP DUP1 DUP8 PUSH1 0x0 ADD DUP5 DUP2 SLOAD DUP2 LT PUSH2 0x2494 JUMPI PUSH2 0x2494 PUSH2 0x2EC9 JUMP JUMPDEST PUSH1 0x0 SWAP2 DUP3 MSTORE PUSH1 0x20 DUP1 DUP4 KECCAK256 SWAP1 SWAP2 ADD SWAP3 SWAP1 SWAP3 SSTORE SWAP2 DUP3 MSTORE PUSH1 0x1 DUP9 ADD SWAP1 MSTORE PUSH1 0x40 SWAP1 KECCAK256 DUP4 SWAP1 SSTORE JUMPDEST DUP6 SLOAD DUP7 SWAP1 DUP1 PUSH2 0x24C7 JUMPI PUSH2 0x24C7 PUSH2 0x31E2 JUMP JUMPDEST PUSH1 0x1 SWAP1 SUB DUP2 DUP2 SWAP1 PUSH1 0x0 MSTORE PUSH1 0x20 PUSH1 0x0 KECCAK256 ADD PUSH1 0x0 SWAP1 SSTORE SWAP1 SSTORE DUP6 PUSH1 0x1 ADD PUSH1 0x0 DUP7 DUP2 MSTORE PUSH1 0x20 ADD SWAP1 DUP2 MSTORE PUSH1 0x20 ADD PUSH1 0x0 KECCAK256 PUSH1 0x0 SWAP1 SSTORE PUSH1 0x1 SWAP4 POP POP POP POP PUSH2 0xCC6 JUMP JUMPDEST PUSH1 0x0 SWAP2 POP POP PUSH2 0xCC6 JUMP JUMPDEST PUSH1 0x0 DUP1 DUP3 MLOAD PUSH1 0x41 SUB PUSH2 0x2542 JUMPI PUSH1 0x20 DUP4 ADD MLOAD PUSH1 0x40 DUP5 ADD MLOAD PUSH1 0x60 DUP6 ADD MLOAD PUSH1 0x0 BYTE PUSH2 0x2536 DUP8 DUP3 DUP6 DUP6 PUSH2 0x2792 JUMP JUMPDEST SWAP5 POP SWAP5 POP POP POP POP PUSH2 0x254A JUMP JUMPDEST POP PUSH1 0x0 SWAP1 POP PUSH1 0x2 JUMPDEST SWAP3 POP SWAP3 SWAP1 POP JUMP JUMPDEST PUSH1 0x0 DUP2 PUSH1 0x4 DUP2 GT ISZERO PUSH2 0x2565 JUMPI PUSH2 0x2565 PUSH2 0x2992 JUMP JUMPDEST SUB PUSH2 0x256D JUMPI POP JUMP JUMPDEST PUSH1 0x1 DUP2 PUSH1 0x4 DUP2 GT ISZERO PUSH2 0x2581 JUMPI PUSH2 0x2581 PUSH2 0x2992 JUMP JUMPDEST SUB PUSH2 0x25C9 JUMPI PUSH1 0x40 MLOAD PUSH3 0x461BCD PUSH1 0xE5 SHL DUP2 MSTORE PUSH1 0x20 PUSH1 0x4 DUP3 ADD MSTORE PUSH1 0x18 PUSH1 0x24 DUP3 ADD MSTORE PUSH24 0x45434453413A20696E76616C6964207369676E6174757265 PUSH1 0x40 SHL PUSH1 0x44 DUP3 ADD MSTORE PUSH1 0x64 ADD PUSH2 0x44F JUMP JUMPDEST PUSH1 0x2 DUP2 PUSH1 0x4 DUP2 GT ISZERO PUSH2 0x25DD JUMPI PUSH2 0x25DD PUSH2 0x2992 JUMP JUMPDEST SUB PUSH2 0x262A JUMPI PUSH1 0x40 MLOAD PUSH3 0x461BCD PUSH1 0xE5 SHL DUP2 MSTORE PUSH1 0x20 PUSH1 0x4 DUP3 ADD MSTORE PUSH1 0x1F PUSH1 0x24 DUP3 ADD MSTORE PUSH32 0x45434453413A20696E76616C6964207369676E6174757265206C656E67746800 PUSH1 0x44 DUP3 ADD MSTORE PUSH1 0x64 ADD PUSH2 0x44F JUMP JUMPDEST PUSH1 0x3 DUP2 PUSH1 0x4 DUP2 GT ISZERO PUSH2 0x263E JUMPI PUSH2 0x263E PUSH2 0x2992 JUMP JUMPDEST SUB PUSH2 0xB05 JUMPI PUSH1 0x40 MLOAD PUSH3 0x461BCD PUSH1 0xE5 SHL DUP2 MSTORE PUSH1 0x20 PUSH1 0x4 DUP3 ADD MSTORE PUSH1 0x22 PUSH1 0x24 DUP3 ADD MSTORE PUSH32 0x45434453413A20696E76616C6964207369676E6174757265202773272076616C PUSH1 0x44 DUP3 ADD MSTORE PUSH2 0x7565 PUSH1 0xF0 SHL PUSH1 0x64 DUP3 ADD MSTORE PUSH1 0x84 ADD PUSH2 0x44F JUMP JUMPDEST PUSH1 0x0 PUSH11 0x636F6E736F6C652E6C6F67 SWAP1 POP PUSH1 0x0 DUP1 DUP4 MLOAD PUSH1 0x20 DUP6 ADD DUP5 GAS STATICCALL POP POP POP JUMP JUMPDEST PUSH1 0x60 DUP3 SELFBALANCE LT ISZERO PUSH2 0x2718 JUMPI PUSH1 0x40 MLOAD PUSH3 0x461BCD PUSH1 0xE5 SHL DUP2 MSTORE PUSH1 0x20 PUSH1 0x4 DUP3 ADD MSTORE PUSH1 0x26 PUSH1 0x24 DUP3 ADD MSTORE PUSH32 0x416464726573733A20696E73756666696369656E742062616C616E636520666F PUSH1 0x44 DUP3 ADD MSTORE PUSH6 0x1C8818D85B1B PUSH1 0xD2 SHL PUSH1 0x64 DUP3 ADD MSTORE PUSH1 0x84 ADD PUSH2 0x44F JUMP JUMPDEST PUSH1 0x0 DUP1 DUP7 PUSH1 0x1 PUSH1 0x1 PUSH1 0xA0 SHL SUB AND DUP6 DUP8 PUSH1 0x40 MLOAD PUSH2 0x2734 SWAP2 SWAP1 PUSH2 0x31F8 JUMP JUMPDEST PUSH1 0x0 PUSH1 0x40 MLOAD DUP1 DUP4 SUB DUP2 DUP6 DUP8 GAS CALL SWAP3 POP POP POP RETURNDATASIZE DUP1 PUSH1 0x0 DUP2 EQ PUSH2 0x2771 JUMPI PUSH1 0x40 MLOAD SWAP2 POP PUSH1 0x1F NOT PUSH1 0x3F RETURNDATASIZE ADD AND DUP3 ADD PUSH1 0x40 MSTORE RETURNDATASIZE DUP3 MSTORE RETURNDATASIZE PUSH1 0x0 PUSH1 0x20 DUP5 ADD RETURNDATACOPY PUSH2 0x2776 JUMP JUMPDEST PUSH1 0x60 SWAP2 POP JUMPDEST POP SWAP2 POP SWAP2 POP PUSH2 0x2787 DUP8 DUP4 DUP4 DUP8 PUSH2 0x284C JUMP JUMPDEST SWAP8 SWAP7 POP POP POP POP POP POP POP JUMP JUMPDEST PUSH1 0x0 DUP1 PUSH16 0xA2A8918CA85BAFE22016D0B997E4DF60 PUSH1 0x1 PUSH1 0xFF SHL SUB DUP4 GT ISZERO PUSH2 0x27BF JUMPI POP PUSH1 0x0 SWAP1 POP PUSH1 0x3 PUSH2 0x2843 JUMP JUMPDEST PUSH1 0x40 DUP1 MLOAD PUSH1 0x0 DUP1 DUP3 MSTORE PUSH1 0x20 DUP3 ADD DUP1 DUP5 MSTORE DUP10 SWAP1 MSTORE PUSH1 0xFF DUP9 AND SWAP3 DUP3 ADD SWAP3 SWAP1 SWAP3 MSTORE PUSH1 0x60 DUP2 ADD DUP7 SWAP1 MSTORE PUSH1 0x80 DUP2 ADD DUP6 SWAP1 MSTORE PUSH1 0x1 SWAP1 PUSH1 0xA0 ADD PUSH1 0x20 PUSH1 0x40 MLOAD PUSH1 0x20 DUP2 SUB SWAP1 DUP1 DUP5 SUB SWAP1 DUP6 GAS STATICCALL ISZERO DUP1 ISZERO PUSH2 0x2813 JUMPI RETURNDATASIZE PUSH1 0x0 DUP1 RETURNDATACOPY RETURNDATASIZE PUSH1 0x0 REVERT JUMPDEST POP POP PUSH1 0x40 MLOAD PUSH1 0x1F NOT ADD MLOAD SWAP2 POP POP PUSH1 0x1 PUSH1 0x1 PUSH1 0xA0 SHL SUB DUP2 AND PUSH2 0x283C JUMPI PUSH1 0x0 PUSH1 0x1 SWAP3 POP SWAP3 POP POP PUSH2 0x2843 JUMP JUMPDEST SWAP2 POP PUSH1 0x0 SWAP1 POP JUMPDEST SWAP5 POP SWAP5 SWAP3 POP POP POP JUMP JUMPDEST PUSH1 0x60 DUP4 ISZERO PUSH2 0x28BB JUMPI DUP3 MLOAD PUSH1 0x0 SUB PUSH2 0x28B4 JUMPI PUSH1 0x1 PUSH1 0x1 PUSH1 0xA0 SHL SUB DUP6 AND EXTCODESIZE PUSH2 0x28B4 JUMPI PUSH1 0x40 MLOAD PUSH3 0x461BCD PUSH1 0xE5 SHL DUP2 MSTORE PUSH1 0x20 PUSH1 0x4 DUP3 ADD MSTORE PUSH1 0x1D PUSH1 0x24 DUP3 ADD MSTORE PUSH32 0x416464726573733A2063616C6C20746F206E6F6E2D636F6E7472616374000000 PUSH1 0x44 DUP3 ADD MSTORE PUSH1 0x64 ADD PUSH2 0x44F JUMP JUMPDEST POP DUP2 PUSH2 0x23F7 JUMP JUMPDEST PUSH2 0x23F7 DUP4 DUP4 DUP2 MLOAD ISZERO PUSH2 0x28D0 JUMPI DUP2 MLOAD DUP1 DUP4 PUSH1 0x20 ADD REVERT JUMPDEST DUP1 PUSH1 0x40 MLOAD PUSH3 0x461BCD PUSH1 0xE5 SHL DUP2 MSTORE PUSH1 0x4 ADD PUSH2 0x44F SWAP2 SWAP1 PUSH2 0x31B2 JUMP JUMPDEST DUP1 CALLDATALOAD PUSH1 0x2 DUP2 LT PUSH2 0x28F9 JUMPI PUSH1 0x0 DUP1 REVERT JUMPDEST SWAP2 SWAP1 POP JUMP JUMPDEST DUP1 CALLDATALOAD PUSH1 0x3 DUP2 LT PUSH2 0x28F9 JUMPI PUSH1 0x0 DUP1 REVERT JUMPDEST DUP1 CALLDATALOAD PUSH1 0x1 PUSH1 0x1 PUSH1 0xA0 SHL SUB DUP2 AND DUP2 EQ PUSH2 0x28F9 JUMPI PUSH1 0x0 DUP1 REVERT JUMPDEST PUSH1 0x0 DUP1 PUSH1 0x0 DUP1 PUSH1 0x0 PUSH1 0xA0 DUP7 DUP9 SUB SLT ISZERO PUSH2 0x293C JUMPI PUSH1 0x0 DUP1 REVERT JUMPDEST DUP6 CALLDATALOAD SWAP5 POP PUSH2 0x294C PUSH1 0x20 DUP8 ADD PUSH2 0x28EA JUMP JUMPDEST SWAP4 POP PUSH2 0x295A PUSH1 0x40 DUP8 ADD PUSH2 0x28FE JUMP JUMPDEST SWAP3 POP PUSH2 0x2968 PUSH1 0x60 DUP8 ADD PUSH2 0x290D JUMP JUMPDEST SWAP5 SWAP8 SWAP4 SWAP7 POP SWAP2 SWAP5 PUSH1 0x80 ADD CALLDATALOAD SWAP3 SWAP2 POP POP JUMP JUMPDEST PUSH1 0x0 PUSH1 0x20 DUP3 DUP5 SUB SLT ISZERO PUSH2 0x298B JUMPI PUSH1 0x0 DUP1 REVERT JUMPDEST POP CALLDATALOAD SWAP2 SWAP1 POP JUMP JUMPDEST PUSH4 0x4E487B71 PUSH1 0xE0 SHL PUSH1 0x0 MSTORE PUSH1 0x21 PUSH1 0x4 MSTORE PUSH1 0x24 PUSH1 0x0 REVERT JUMPDEST PUSH1 0x2 DUP2 LT PUSH2 0xB05 JUMPI PUSH2 0xB05 PUSH2 0x2992 JUMP JUMPDEST PUSH1 0x3 DUP2 LT PUSH2 0x29C8 JUMPI PUSH2 0x29C8 PUSH2 0x2992 JUMP JUMPDEST SWAP1 MSTORE JUMP JUMPDEST DUP8 DUP2 MSTORE PUSH1 0xE0 DUP2 ADD PUSH2 0x29DC DUP9 PUSH2 0x29A8 JUMP JUMPDEST DUP8 PUSH1 0x20 DUP4 ADD MSTORE PUSH2 0x29EB DUP8 PUSH2 0x29A8 JUMP JUMPDEST DUP7 PUSH1 0x40 DUP4 ADD MSTORE PUSH2 0x29FE PUSH1 0x60 DUP4 ADD DUP8 PUSH2 0x29B8 JUMP JUMPDEST PUSH1 0x1 PUSH1 0x1 PUSH1 0xA0 SHL SUB SWAP5 DUP6 AND PUSH1 0x80 DUP4 ADD MSTORE SWAP3 SWAP1 SWAP4 AND PUSH1 0xA0 DUP5 ADD MSTORE PUSH1 0xC0 SWAP1 SWAP3 ADD SWAP2 SWAP1 SWAP2 MSTORE SWAP5 SWAP4 POP POP POP POP JUMP JUMPDEST PUSH1 0x0 DUP1 PUSH1 0x0 PUSH1 0x60 DUP5 DUP7 SUB SLT ISZERO PUSH2 0x2A3D JUMPI PUSH1 0x0 DUP1 REVERT JUMPDEST PUSH2 0x2A46 DUP5 PUSH2 0x290D JUMP JUMPDEST SWAP3 POP PUSH2 0x2A54 PUSH1 0x20 DUP6 ADD PUSH2 0x290D JUMP JUMPDEST SWAP2 POP PUSH1 0x40 DUP5 ADD CALLDATALOAD SWAP1 POP SWAP3 POP SWAP3 POP SWAP3 JUMP JUMPDEST DUP1 ISZERO ISZERO DUP2 EQ PUSH2 0xB05 JUMPI PUSH1 0x0 DUP1 REVERT JUMPDEST PUSH1 0x0 DUP1 PUSH1 0x40 DUP4 DUP6 SUB SLT ISZERO PUSH2 0x2A85 JUMPI PUSH1 0x0 DUP1 REVERT JUMPDEST PUSH2 0x2A8E DUP4 PUSH2 0x290D JUMP JUMPDEST SWAP2 POP PUSH1 0x20 DUP4 ADD CALLDATALOAD PUSH2 0x2A9E DUP2 PUSH2 0x2A64 JUMP JUMPDEST DUP1 SWAP2 POP POP SWAP3 POP SWAP3 SWAP1 POP JUMP JUMPDEST PUSH1 0x1 PUSH1 0x1 PUSH1 0xA0 SHL SUB SWAP2 SWAP1 SWAP2 AND DUP2 MSTORE PUSH1 0x20 ADD SWAP1 JUMP JUMPDEST PUSH1 0x0 DUP1 PUSH1 0x40 DUP4 DUP6 SUB SLT ISZERO PUSH2 0x2AD0 JUMPI PUSH1 0x0 DUP1 REVERT JUMPDEST DUP3 CALLDATALOAD SWAP2 POP PUSH2 0x2AE0 PUSH1 0x20 DUP5 ADD PUSH2 0x28EA JUMP JUMPDEST SWAP1 POP SWAP3 POP SWAP3 SWAP1 POP JUMP JUMPDEST DUP2 MLOAD DUP2 MSTORE PUSH1 0x20 DUP3 ADD MLOAD PUSH1 0xE0 DUP3 ADD SWAP1 PUSH2 0x2B00 DUP2 PUSH2 0x29A8 JUMP JUMPDEST PUSH1 0x20 DUP4 ADD MSTORE PUSH1 0x40 DUP4 ADD MLOAD PUSH2 0x2B13 DUP2 PUSH2 0x29A8 JUMP JUMPDEST DUP1 PUSH1 0x40 DUP5 ADD MSTORE POP PUSH1 0x60 DUP4 ADD MLOAD PUSH2 0x2B2C PUSH1 0x60 DUP5 ADD DUP3 PUSH2 0x29B8 JUMP JUMPDEST POP PUSH1 0x80 DUP4 ADD MLOAD PUSH1 0x1 DUP1 PUSH1 0xA0 SHL SUB DUP1 DUP3 AND PUSH1 0x80 DUP6 ADD MSTORE DUP1 PUSH1 0xA0 DUP7 ADD MLOAD AND PUSH1 0xA0 DUP6 ADD MSTORE POP POP PUSH1 0xC0 DUP4 ADD MLOAD PUSH1 0xC0 DUP4 ADD MSTORE SWAP3 SWAP2 POP POP JUMP JUMPDEST PUSH1 0x0 PUSH1 0x20 DUP3 DUP5 SUB SLT ISZERO PUSH2 0x2B71 JUMPI PUSH1 0x0 DUP1 REVERT JUMPDEST PUSH2 0x1BFB DUP3 PUSH2 0x290D JUMP JUMPDEST PUSH4 0x4E487B71 PUSH1 0xE0 SHL PUSH1 0x0 MSTORE PUSH1 0x41 PUSH1 0x4 MSTORE PUSH1 0x24 PUSH1 0x0 REVERT JUMPDEST PUSH1 0x0 DUP1 DUP4 PUSH1 0x1F DUP5 ADD SLT PUSH2 0x2BA2 JUMPI PUSH1 0x0 DUP1 REVERT JUMPDEST POP DUP2 CALLDATALOAD PUSH1 0x1 PUSH1 0x1 PUSH1 0x40 SHL SUB DUP2 GT ISZERO PUSH2 0x2BB9 JUMPI PUSH1 0x0 DUP1 REVERT JUMPDEST PUSH1 0x20 DUP4 ADD SWAP2 POP DUP4 PUSH1 0x20 DUP3 DUP6 ADD ADD GT ISZERO PUSH2 0x254A JUMPI PUSH1 0x0 DUP1 REVERT JUMPDEST PUSH1 0x0 DUP1 PUSH1 0x0 DUP1 PUSH1 0x0 DUP1 PUSH1 0xA0 DUP8 DUP10 SUB SLT ISZERO PUSH2 0x2BEA JUMPI PUSH1 0x0 DUP1 REVERT JUMPDEST DUP7 CALLDATALOAD SWAP6 POP PUSH1 0x20 DUP1 DUP9 ADD CALLDATALOAD PUSH1 0x1 PUSH1 0x1 PUSH1 0x40 SHL SUB DUP1 DUP3 GT ISZERO PUSH2 0x2C09 JUMPI PUSH1 0x0 DUP1 REVERT JUMPDEST DUP2 DUP11 ADD SWAP2 POP DUP11 PUSH1 0x1F DUP4 ADD SLT PUSH2 0x2C1D JUMPI PUSH1 0x0 DUP1 REVERT JUMPDEST DUP2 CALLDATALOAD DUP2 DUP2 GT ISZERO PUSH2 0x2C2F JUMPI PUSH2 0x2C2F PUSH2 0x2B7A JUMP JUMPDEST DUP1 PUSH1 0x5 SHL PUSH1 0x40 MLOAD PUSH1 0x1F NOT PUSH1 0x3F DUP4 ADD AND DUP2 ADD DUP2 DUP2 LT DUP6 DUP3 GT OR ISZERO PUSH2 0x2C54 JUMPI PUSH2 0x2C54 PUSH2 0x2B7A JUMP JUMPDEST PUSH1 0x40 MSTORE SWAP2 DUP3 MSTORE DUP4 DUP2 ADD DUP6 ADD SWAP2 DUP6 DUP2 ADD DUP15 DUP5 GT ISZERO PUSH2 0x2C70 JUMPI PUSH1 0x0 DUP1 REVERT JUMPDEST SWAP5 DUP7 ADD SWAP5 JUMPDEST DUP4 DUP7 LT ISZERO PUSH2 0x2C8C JUMPI DUP6 CALLDATALOAD DUP2 MSTORE SWAP5 DUP7 ADD SWAP5 DUP7 ADD PUSH2 0x2C75 JUMP JUMPDEST POP SWAP10 POP POP POP PUSH1 0x40 DUP11 ADD CALLDATALOAD SWAP7 POP PUSH2 0x2CA4 PUSH1 0x60 DUP12 ADD PUSH2 0x290D JUMP JUMPDEST SWAP6 POP PUSH1 0x80 DUP11 ADD CALLDATALOAD SWAP3 POP DUP1 DUP4 GT ISZERO PUSH2 0x2CBA JUMPI PUSH1 0x0 DUP1 REVERT JUMPDEST POP POP PUSH2 0x2CC8 DUP10 DUP3 DUP11 ADD PUSH2 0x2B90 JUMP JUMPDEST SWAP8 SWAP11 SWAP7 SWAP10 POP SWAP5 SWAP8 POP SWAP3 SWAP6 SWAP4 SWAP5 SWAP3 POP POP POP JUMP JUMPDEST PUSH1 0x0 DUP1 PUSH1 0x40 DUP4 DUP6 SUB SLT ISZERO PUSH2 0x2CED JUMPI PUSH1 0x0 DUP1 REVERT JUMPDEST PUSH2 0x2CF6 DUP4 PUSH2 0x290D JUMP JUMPDEST SWAP5 PUSH1 0x20 SWAP4 SWAP1 SWAP4 ADD CALLDATALOAD SWAP4 POP POP POP JUMP JUMPDEST PUSH1 0x0 DUP1 PUSH1 0x0 DUP1 PUSH1 0x80 DUP6 DUP8 SUB SLT ISZERO PUSH2 0x2D1A JUMPI PUSH1 0x0 DUP1 REVERT JUMPDEST PUSH2 0x2D23 DUP6 PUSH2 0x28EA JUMP JUMPDEST SWAP4 POP PUSH2 0x2D31 PUSH1 0x20 DUP7 ADD PUSH2 0x28FE JUMP JUMPDEST SWAP3 POP PUSH2 0x2D3F PUSH1 0x40 DUP7 ADD PUSH2 0x290D JUMP JUMPDEST SWAP4 SWAP7 SWAP3 SWAP6 POP SWAP3 SWAP4 PUSH1 0x60 ADD CALLDATALOAD SWAP3 POP POP JUMP JUMPDEST PUSH1 0x0 DUP1 PUSH1 0x40 DUP4 DUP6 SUB SLT ISZERO PUSH2 0x2D62 JUMPI PUSH1 0x0 DUP1 REVERT JUMPDEST POP POP DUP1 CALLDATALOAD SWAP3 PUSH1 0x20 SWAP1 SWAP2 ADD CALLDATALOAD SWAP2 POP JUMP JUMPDEST PUSH1 0x20 DUP1 DUP3 MSTORE PUSH1 0x10 SWAP1 DUP3 ADD MSTORE PUSH16 0x109BDE081251081B9BDD08199BDD5B99 PUSH1 0x82 SHL PUSH1 0x40 DUP3 ADD MSTORE PUSH1 0x60 ADD SWAP1 JUMP JUMPDEST PUSH1 0x20 DUP1 DUP3 MSTORE PUSH1 0x26 SWAP1 DUP3 ADD MSTORE PUSH32 0x5072697A6520616D6F756E74206D757374206265206772656174657220746861 PUSH1 0x40 DUP3 ADD MSTORE PUSH6 0x6E207A65726F PUSH1 0xD0 SHL PUSH1 0x60 DUP3 ADD MSTORE PUSH1 0x80 ADD SWAP1 JUMP JUMPDEST PUSH1 0x20 DUP1 DUP3 MSTORE PUSH1 0x10 SWAP1 DUP3 ADD MSTORE PUSH16 0x496E76616C696420626F782074797065 PUSH1 0x80 SHL PUSH1 0x40 DUP3 ADD MSTORE PUSH1 0x60 ADD SWAP1 JUMP JUMPDEST PUSH1 0x20 DUP1 DUP3 MSTORE PUSH1 0x10 SWAP1 DUP3 ADD MSTORE PUSH16 0x24B73B30B634B2103137BC103A34B2B9 PUSH1 0x81 SHL PUSH1 0x40 DUP3 ADD MSTORE PUSH1 0x60 ADD SWAP1 JUMP JUMPDEST PUSH1 0x80 DUP2 ADD PUSH2 0x2E42 DUP7 PUSH2 0x29A8 JUMP JUMPDEST DUP6 DUP3 MSTORE PUSH2 0x2E52 PUSH1 0x20 DUP4 ADD DUP7 PUSH2 0x29B8 JUMP JUMPDEST PUSH1 0x1 PUSH1 0x1 PUSH1 0xA0 SHL SUB SWAP4 SWAP1 SWAP4 AND PUSH1 0x40 DUP3 ADD MSTORE PUSH1 0x60 ADD MSTORE SWAP3 SWAP2 POP POP JUMP JUMPDEST PUSH1 0x0 PUSH1 0x20 DUP3 DUP5 SUB SLT ISZERO PUSH2 0x2E7F JUMPI PUSH1 0x0 DUP1 REVERT JUMPDEST POP MLOAD SWAP2 SWAP1 POP JUMP JUMPDEST PUSH1 0x20 DUP1 DUP3 MSTORE PUSH1 0x16 SWAP1 DUP3 ADD MSTORE PUSH22 0x416D6F756E7420657863656564732062616C616E6365 PUSH1 0x50 SHL PUSH1 0x40 DUP3 ADD MSTORE PUSH1 0x60 ADD SWAP1 JUMP JUMPDEST PUSH1 0x20 DUP2 ADD PUSH2 0x2EC3 DUP4 PUSH2 0x29A8 JUMP JUMPDEST SWAP2 SWAP1 MSTORE SWAP1 JUMP JUMPDEST PUSH4 0x4E487B71 PUSH1 0xE0 SHL PUSH1 0x0 MSTORE PUSH1 0x32 PUSH1 0x4 MSTORE PUSH1 0x24 PUSH1 0x0 REVERT JUMPDEST PUSH4 0x4E487B71 PUSH1 0xE0 SHL PUSH1 0x0 MSTORE PUSH1 0x12 PUSH1 0x4 MSTORE PUSH1 0x24 PUSH1 0x0 REVERT JUMPDEST PUSH1 0x0 DUP3 PUSH2 0x2F04 JUMPI PUSH2 0x2F04 PUSH2 0x2EDF JUMP JUMPDEST POP MOD SWAP1 JUMP JUMPDEST PUSH4 0x4E487B71 PUSH1 0xE0 SHL PUSH1 0x0 MSTORE PUSH1 0x11 PUSH1 0x4 MSTORE PUSH1 0x24 PUSH1 0x0 REVERT JUMPDEST DUP1 DUP3 ADD DUP1 DUP3 GT ISZERO PUSH2 0xCC6 JUMPI PUSH2 0xCC6 PUSH2 0x2F09 JUMP JUMPDEST DUP1 DUP3 MUL DUP2 ISZERO DUP3 DUP3 DIV DUP5 EQ OR PUSH2 0xCC6 JUMPI PUSH2 0xCC6 PUSH2 0x2F09 JUMP JUMPDEST PUSH1 0x0 DUP3 PUSH2 0x2F58 JUMPI PUSH2 0x2F58 PUSH2 0x2EDF JUMP JUMPDEST POP DIV SWAP1 JUMP JUMPDEST DUP2 DUP2 SUB DUP2 DUP2 GT ISZERO PUSH2 0xCC6 JUMPI PUSH2 0xCC6 PUSH2 0x2F09 JUMP JUMPDEST PUSH1 0x1 PUSH1 0x1 PUSH1 0xA0 SHL SUB SWAP3 SWAP1 SWAP3 AND DUP3 MSTORE PUSH1 0x20 DUP3 ADD MSTORE PUSH1 0x40 ADD SWAP1 JUMP JUMPDEST PUSH1 0x20 DUP1 DUP3 MSTORE DUP3 MLOAD DUP3 DUP3 ADD DUP2 SWAP1 MSTORE PUSH1 0x0 SWAP2 SWAP1 DUP5 DUP3 ADD SWAP1 PUSH1 0x40 DUP6 ADD SWAP1 DUP5 JUMPDEST DUP2 DUP2 LT ISZERO PUSH2 0x2FC1 JUMPI DUP4 MLOAD DUP4 MSTORE SWAP3 DUP5 ADD SWAP3 SWAP2 DUP5 ADD SWAP2 PUSH1 0x1 ADD PUSH2 0x2FA5 JUMP JUMPDEST POP SWAP1 SWAP7 SWAP6 POP POP POP POP POP POP JUMP JUMPDEST PUSH1 0xA0 DUP2 ADD PUSH2 0x2FDA DUP8 PUSH2 0x29A8 JUMP JUMPDEST DUP7 DUP3 MSTORE PUSH2 0x2FE6 DUP7 PUSH2 0x29A8 JUMP JUMPDEST DUP6 PUSH1 0x20 DUP4 ADD MSTORE PUSH2 0x2FF9 PUSH1 0x40 DUP4 ADD DUP7 PUSH2 0x29B8 JUMP JUMPDEST PUSH1 0x1 PUSH1 0x1 PUSH1 0xA0 SHL SUB SWAP4 SWAP1 SWAP4 AND PUSH1 0x60 DUP3 ADD MSTORE PUSH1 0x80 ADD MSTORE SWAP4 SWAP3 POP POP POP JUMP JUMPDEST PUSH1 0x60 SWAP4 SWAP1 SWAP4 SHL PUSH1 0x1 PUSH1 0x1 PUSH1 0x60 SHL SUB NOT AND DUP4 MSTORE PUSH1 0x14 DUP4 ADD SWAP2 SWAP1 SWAP2 MSTORE PUSH1 0x34 DUP3 ADD MSTORE PUSH1 0x54 ADD SWAP1 JUMP JUMPDEST PUSH1 0x0 PUSH1 0x1 DUP3 ADD PUSH2 0x304C JUMPI PUSH2 0x304C PUSH2 0x2F09 JUMP JUMPDEST POP PUSH1 0x1 ADD SWAP1 JUMP JUMPDEST DUP6 DUP2 MSTORE PUSH1 0x0 PUSH1 0x20 DUP1 DUP4 ADD DUP8 MLOAD DUP3 DUP10 ADD PUSH1 0x0 JUMPDEST DUP3 DUP2 LT ISZERO PUSH2 0x3081 JUMPI DUP2 MLOAD DUP5 MSTORE SWAP3 DUP5 ADD SWAP3 SWAP1 DUP5 ADD SWAP1 PUSH1 0x1 ADD PUSH2 0x3065 JUMP JUMPDEST POP POP POP SWAP6 DUP7 MSTORE PUSH1 0x1 PUSH1 0x1 PUSH1 0x60 SHL SUB NOT PUSH1 0x60 SWAP6 DUP7 SHL DUP2 AND SWAP2 DUP8 ADD SWAP2 SWAP1 SWAP2 MSTORE SWAP3 SWAP1 SWAP4 SHL SWAP1 SWAP2 AND PUSH1 0x34 DUP5 ADD MSTORE POP POP PUSH1 0x48 ADD SWAP3 SWAP2 POP POP JUMP JUMPDEST PUSH1 0x0 JUMPDEST DUP4 DUP2 LT ISZERO PUSH2 0x30D0 JUMPI DUP2 DUP2 ADD MLOAD DUP4 DUP3 ADD MSTORE PUSH1 0x20 ADD PUSH2 0x30B8 JUMP JUMPDEST POP POP PUSH1 0x0 SWAP2 ADD MSTORE JUMP JUMPDEST PUSH1 0x0 DUP2 MLOAD DUP1 DUP5 MSTORE PUSH2 0x30F1 DUP2 PUSH1 0x20 DUP7 ADD PUSH1 0x20 DUP7 ADD PUSH2 0x30B5 JUMP JUMPDEST PUSH1 0x1F ADD PUSH1 0x1F NOT AND SWAP3 SWAP1 SWAP3 ADD PUSH1 0x20 ADD SWAP3 SWAP2 POP POP JUMP JUMPDEST PUSH1 0x40 DUP2 MSTORE PUSH1 0x0 PUSH2 0x3118 PUSH1 0x40 DUP4 ADD DUP6 PUSH2 0x30D9 JUMP JUMPDEST SWAP1 POP DUP3 PUSH1 0x20 DUP4 ADD MSTORE SWAP4 SWAP3 POP POP POP JUMP JUMPDEST PUSH1 0x40 DUP2 MSTORE PUSH1 0x0 PUSH2 0x313A PUSH1 0x40 DUP4 ADD DUP6 PUSH2 0x30D9 JUMP JUMPDEST SWAP1 POP PUSH1 0x1 DUP1 PUSH1 0xA0 SHL SUB DUP4 AND PUSH1 0x20 DUP4 ADD MSTORE SWAP4 SWAP3 POP POP POP JUMP JUMPDEST PUSH1 0x40 DUP2 MSTORE PUSH1 0x0 PUSH2 0x3164 PUSH1 0x40 DUP4 ADD DUP6 PUSH2 0x30D9 JUMP JUMPDEST SWAP1 POP DUP3 ISZERO ISZERO PUSH1 0x20 DUP4 ADD MSTORE SWAP4 SWAP3 POP POP POP JUMP JUMPDEST PUSH1 0x80 DUP2 MSTORE PUSH1 0x0 PUSH2 0x3188 PUSH1 0x80 DUP4 ADD DUP8 PUSH2 0x30D9 JUMP JUMPDEST DUP6 PUSH1 0x20 DUP5 ADD MSTORE DUP3 DUP2 SUB PUSH1 0x40 DUP5 ADD MSTORE PUSH2 0x31A0 DUP2 DUP7 PUSH2 0x30D9 JUMP JUMPDEST SWAP2 POP POP DUP3 PUSH1 0x60 DUP4 ADD MSTORE SWAP6 SWAP5 POP POP POP POP POP JUMP JUMPDEST PUSH1 0x20 DUP2 MSTORE PUSH1 0x0 PUSH2 0x1BFB PUSH1 0x20 DUP4 ADD DUP5 PUSH2 0x30D9 JUMP JUMPDEST PUSH1 0x0 PUSH1 0x20 DUP3 DUP5 SUB SLT ISZERO PUSH2 0x31D7 JUMPI PUSH1 0x0 DUP1 REVERT JUMPDEST DUP2 MLOAD PUSH2 0x1BFB DUP2 PUSH2 0x2A64 JUMP JUMPDEST PUSH4 0x4E487B71 PUSH1 0xE0 SHL PUSH1 0x0 MSTORE PUSH1 0x31 PUSH1 0x4 MSTORE PUSH1 0x24 PUSH1 0x0 REVERT JUMPDEST PUSH1 0x0 DUP3 MLOAD PUSH2 0x320A DUP2 DUP5 PUSH1 0x20 DUP8 ADD PUSH2 0x30B5 JUMP JUMPDEST SWAP2 SWAP1 SWAP2 ADD SWAP3 SWAP2 POP POP JUMP INVALID 0xDB CALLVALUE 0xB9 0x4C 0xDF MSIZE SLOAD MULMOD PUSH2 0x9536 CREATE2 EQ 0xE4 ISZERO 0xC5 0xDB ORIGIN GAS 0x2E LT 0xBD PUSH12 0x1162168A8A2E2E889A26469 PUSH17 0x6673582212206AFF8C883A9E9C4558BB91 0x29 0xC5 SELFDESTRUCT DUP8 MSTORE 0xE6 EXP STOP 0xCC PUSH26 0xA15DE4A3BEEDB1B140448864736F6C6343000814003300000000 "},"methodIdentifiers":{"boxes(bytes32)":"0589c970","createBox(uint8,uint8,address,uint256)":"ebc5a829","deleteBox(bytes32)":"a46e717e","freeBoxWinRate()":"e1e10054","fulfillRandomWords(bytes32,uint256[],bytes32,address,bytes)":"cf611c45","getBox(bytes32)":"a55f0565","getBoxIdAt(uint256)":"c4018427","initialize()":"8129fc1c","oracles(address)":"addd5099","owner()":"8da5cb5b","paidBoxWinRate()":"e30459bc","pendingRequests(bytes32)":"2795ad20","recoverERC20(address,address,uint256)":"1171bda9","recoverEth(address,uint256)":"e72c5717","renounceOwnership()":"715018a6","requestRandomWords(uint256,bytes32)":"ef31d20e","setOracle(address,bool)":"65360843","setWinRate(uint256,uint8)":"91a85dde","totalBoxes()":"57e78adc","transferOwnership(address)":"f2fde38b","updateBox(bytes32,uint8,uint8,address,uint256)":"041368ed"}},"storageLayout":{"storage":[{"astId":3672,"contract":"contracts/LootBox.sol:LootBox","label":"randNumber","offset":0,"slot":"0","type":"t_uint256"},{"astId":3674,"contract":"contracts/LootBox.sol:LootBox","label":"nonce","offset":0,"slot":"1","type":"t_uint256"},{"astId":3676,"contract":"contracts/LootBox.sol:LootBox","label":"freeBoxWinRate","offset":0,"slot":"2","type":"t_uint256"},{"astId":3678,"contract":"contracts/LootBox.sol:LootBox","label":"paidBoxWinRate","offset":0,"slot":"3","type":"t_uint256"},{"astId":3710,"contract":"contracts/LootBox.sol:LootBox","label":"pendingRequests","offset":0,"slot":"4","type":"t_mapping(t_bytes32,t_bool)"},{"astId":3715,"contract":"contracts/LootBox.sol:LootBox","label":"boxes","offset":0,"slot":"5","type":"t_mapping(t_bytes32,t_struct(Box)3706_storage)"},{"astId":3718,"contract":"contracts/LootBox.sol:LootBox","label":"boxIds","offset":0,"slot":"6","type":"t_struct(Bytes32Set)3234_storage"},{"astId":3722,"contract":"contracts/LootBox.sol:LootBox","label":"oracles","offset":0,"slot":"8","type":"t_mapping(t_address,t_bool)"}],"types":{"t_address":{"encoding":"inplace","label":"address","numberOfBytes":"20"},"t_array(t_bytes32)dyn_storage":{"base":"t_bytes32","encoding":"dynamic_array","label":"bytes32[]","numberOfBytes":"32"},"t_bool":{"encoding":"inplace","label":"bool","numberOfBytes":"1"},"t_bytes32":{"encoding":"inplace","label":"bytes32","numberOfBytes":"32"},"t_enum(BoxStatus)3684":{"encoding":"inplace","label":"enum LootBox.BoxStatus","numberOfBytes":"1"},"t_enum(BoxTier)3688":{"encoding":"inplace","label":"enum LootBox.BoxTier","numberOfBytes":"1"},"t_enum(BoxType)3681":{"encoding":"inplace","label":"enum LootBox.BoxType","numberOfBytes":"1"},"t_mapping(t_address,t_bool)":{"encoding":"mapping","key":"t_address","label":"mapping(address => bool)","numberOfBytes":"32","value":"t_bool"},"t_mapping(t_bytes32,t_bool)":{"encoding":"mapping","key":"t_bytes32","label":"mapping(bytes32 => bool)","numberOfBytes":"32","value":"t_bool"},"t_mapping(t_bytes32,t_struct(Box)3706_storage)":{"encoding":"mapping","key":"t_bytes32","label":"mapping(bytes32 => struct LootBox.Box)","numberOfBytes":"32","value":"t_struct(Box)3706_storage"},"t_mapping(t_bytes32,t_uint256)":{"encoding":"mapping","key":"t_bytes32","label":"mapping(bytes32 => uint256)","numberOfBytes":"32","value":"t_uint256"},"t_struct(Box)3706_storage":{"encoding":"inplace","label":"struct LootBox.Box","members":[{"astId":3690,"contract":"contracts/LootBox.sol:LootBox","label":"id","offset":0,"slot":"0","type":"t_bytes32"},{"astId":3693,"contract":"contracts/LootBox.sol:LootBox","label":"boxType","offset":0,"slot":"1","type":"t_enum(BoxType)3681"},{"astId":3696,"contract":"contracts/LootBox.sol:LootBox","label":"status","offset":1,"slot":"1","type":"t_enum(BoxStatus)3684"},{"astId":3699,"contract":"contracts/LootBox.sol:LootBox","label":"boxTier","offset":2,"slot":"1","type":"t_enum(BoxTier)3688"},{"astId":3701,"contract":"contracts/LootBox.sol:LootBox","label":"owner","offset":3,"slot":"1","type":"t_address"},{"astId":3703,"contract":"contracts/LootBox.sol:LootBox","label":"prizeToken","offset":0,"slot":"2","type":"t_address"},{"astId":3705,"contract":"contracts/LootBox.sol:LootBox","label":"prizeAmount","offset":0,"slot":"3","type":"t_uint256"}],"numberOfBytes":"128"},"t_struct(Bytes32Set)3234_storage":{"encoding":"inplace","label":"struct EnumerableSet.Bytes32Set","members":[{"astId":3233,"contract":"contracts/LootBox.sol:LootBox","label":"_inner","offset":0,"slot":"0","type":"t_struct(Set)3040_storage"}],"numberOfBytes":"64"},"t_struct(Set)3040_storage":{"encoding":"inplace","label":"struct EnumerableSet.Set","members":[{"astId":3035,"contract":"contracts/LootBox.sol:LootBox","label":"_values","offset":0,"slot":"0","type":"t_array(t_bytes32)dyn_storage"},{"astId":3039,"contract":"contracts/LootBox.sol:LootBox","label":"_indexes","offset":0,"slot":"1","type":"t_mapping(t_bytes32,t_uint256)"}],"numberOfBytes":"64"},"t_uint256":{"encoding":"inplace","label":"uint256","numberOfBytes":"32"}}}}}}