{"contracts/LootBox.sol":{"LootBox":{"abi":[{"inputs":[],"stateMutability":"nonpayable","type":"constructor"},{"inputs":[],"name":"InvalidInitialization","type":"error"},{"inputs":[],"name":"InvalidSignature","type":"error"},{"inputs":[],"name":"NotInitializing","type":"error"},{"inputs":[{"internalType":"address","name":"owner","type":"address"}],"name":"OwnableInvalidOwner","type":"error"},{"inputs":[{"internalType":"address","name":"account","type":"address"}],"name":"OwnableUnauthorizedAccount","type":"error"},{"inputs":[],"name":"ReentrancyGuardReentrantCall","type":"error"},{"inputs":[],"name":"RequestNotFound","type":"error"},{"inputs":[],"name":"Unauthorized","type":"error"},{"anonymous":false,"inputs":[{"indexed":true,"internalType":"bytes32","name":"boxId","type":"bytes32"},{"indexed":false,"internalType":"enum LootBox.BoxType","name":"boxType","type":"uint8"},{"indexed":false,"internalType":"enum LootBox.BoxStatus","name":"status","type":"uint8"},{"indexed":true,"internalType":"address","name":"owner","type":"address"},{"indexed":false,"internalType":"address","name":"prizeToken","type":"address"},{"indexed":false,"internalType":"uint256","name":"prizeAmount","type":"uint256"}],"name":"BoxCreated","type":"event"},{"anonymous":false,"inputs":[{"indexed":true,"internalType":"bytes32","name":"boxId","type":"bytes32"}],"name":"BoxDeleted","type":"event"},{"anonymous":false,"inputs":[{"indexed":true,"internalType":"bytes32","name":"boxId","type":"bytes32"},{"indexed":true,"internalType":"address","name":"owner","type":"address"}],"name":"BoxOpened","type":"event"},{"anonymous":false,"inputs":[{"indexed":true,"internalType":"bytes32","name":"boxId","type":"bytes32"},{"indexed":false,"internalType":"enum LootBox.BoxType","name":"boxType","type":"uint8"},{"indexed":false,"internalType":"enum LootBox.BoxStatus","name":"status","type":"uint8"},{"indexed":true,"internalType":"address","name":"owner","type":"address"}],"name":"BoxUpdated","type":"event"},{"anonymous":false,"inputs":[{"indexed":false,"internalType":"uint64","name":"version","type":"uint64"}],"name":"Initialized","type":"event"},{"anonymous":false,"inputs":[{"indexed":true,"internalType":"address","name":"previousOwner","type":"address"},{"indexed":true,"internalType":"address","name":"newOwner","type":"address"}],"name":"OwnershipTransferred","type":"event"},{"anonymous":false,"inputs":[{"indexed":true,"internalType":"bytes32","name":"requestId","type":"bytes32"},{"indexed":false,"internalType":"uint256[]","name":"randomWords","type":"uint256[]"},{"indexed":true,"internalType":"bytes32","name":"boxId","type":"bytes32"}],"name":"RandomWordsFulfilled","type":"event"},{"anonymous":false,"inputs":[{"indexed":true,"internalType":"bytes32","name":"requestId","type":"bytes32"},{"indexed":true,"internalType":"address","name":"requester","type":"address"},{"indexed":false,"internalType":"uint256","name":"numberOfWords","type":"uint256"},{"indexed":true,"internalType":"bytes32","name":"boxId","type":"bytes32"}],"name":"RandomWordsRequested","type":"event"},{"anonymous":false,"inputs":[{"indexed":true,"internalType":"bytes32","name":"boxId","type":"bytes32"},{"indexed":false,"internalType":"address","name":"prizeToken","type":"address"},{"indexed":false,"internalType":"uint256","name":"prizeAmount","type":"uint256"}],"name":"Refunded","type":"event"},{"anonymous":false,"inputs":[{"indexed":true,"internalType":"address","name":"oldOracle","type":"address"},{"indexed":true,"internalType":"address","name":"newOracle","type":"address"}],"name":"UpdateOracle","type":"event"},{"anonymous":false,"inputs":[{"indexed":true,"internalType":"bytes32","name":"boxId","type":"bytes32"},{"indexed":true,"internalType":"address","name":"loser","type":"address"}],"name":"UserLost","type":"event"},{"anonymous":false,"inputs":[{"indexed":true,"internalType":"bytes32","name":"boxId","type":"bytes32"},{"indexed":true,"internalType":"address","name":"winner","type":"address"},{"indexed":false,"internalType":"address","name":"prizeToken","type":"address"},{"indexed":false,"internalType":"uint256","name":"prizeAmount","type":"uint256"}],"name":"UserWon","type":"event"},{"inputs":[{"internalType":"bytes32","name":"","type":"bytes32"}],"name":"boxes","outputs":[{"internalType":"bytes32","name":"id","type":"bytes32"},{"internalType":"enum LootBox.BoxType","name":"boxType","type":"uint8"},{"internalType":"enum LootBox.BoxStatus","name":"status","type":"uint8"},{"internalType":"address","name":"owner","type":"address"},{"internalType":"address","name":"prizeToken","type":"address"},{"internalType":"uint256","name":"prizeAmount","type":"uint256"}],"stateMutability":"view","type":"function"},{"inputs":[{"internalType":"enum LootBox.BoxType","name":"boxType","type":"uint8"},{"internalType":"address","name":"prizeToken","type":"address"},{"internalType":"uint256","name":"prizeAmount","type":"uint256"}],"name":"createBox","outputs":[],"stateMutability":"payable","type":"function"},{"inputs":[{"internalType":"bytes32","name":"boxId","type":"bytes32"}],"name":"deleteBox","outputs":[],"stateMutability":"nonpayable","type":"function"},{"inputs":[{"internalType":"bytes32","name":"requestId","type":"bytes32"},{"internalType":"uint256[]","name":"_randomWords","type":"uint256[]"},{"internalType":"bytes32","name":"boxId","type":"bytes32"},{"internalType":"address","name":"requester","type":"address"},{"internalType":"bytes","name":"signature","type":"bytes"}],"name":"fulfillRandomWords","outputs":[],"stateMutability":"nonpayable","type":"function"},{"inputs":[{"internalType":"bytes32","name":"boxId","type":"bytes32"}],"name":"getBox","outputs":[{"components":[{"internalType":"bytes32","name":"id","type":"bytes32"},{"internalType":"enum LootBox.BoxType","name":"boxType","type":"uint8"},{"internalType":"enum LootBox.BoxStatus","name":"status","type":"uint8"},{"internalType":"address","name":"owner","type":"address"},{"internalType":"address","name":"prizeToken","type":"address"},{"internalType":"uint256","name":"prizeAmount","type":"uint256"}],"internalType":"struct LootBox.Box","name":"","type":"tuple"}],"stateMutability":"view","type":"function"},{"inputs":[{"internalType":"uint256","name":"index","type":"uint256"}],"name":"getBoxIdAt","outputs":[{"internalType":"bytes32","name":"","type":"bytes32"}],"stateMutability":"view","type":"function"},{"inputs":[{"internalType":"address","name":"_oracle","type":"address"}],"name":"initialize","outputs":[],"stateMutability":"nonpayable","type":"function"},{"inputs":[],"name":"oracle","outputs":[{"internalType":"address","name":"","type":"address"}],"stateMutability":"view","type":"function"},{"inputs":[],"name":"owner","outputs":[{"internalType":"address","name":"","type":"address"}],"stateMutability":"view","type":"function"},{"inputs":[{"internalType":"bytes32","name":"","type":"bytes32"}],"name":"pendingRequests","outputs":[{"internalType":"bool","name":"","type":"bool"}],"stateMutability":"view","type":"function"},{"inputs":[],"name":"renounceOwnership","outputs":[],"stateMutability":"nonpayable","type":"function"},{"inputs":[{"internalType":"uint256","name":"numberOfWords","type":"uint256"},{"internalType":"bytes32","name":"boxId","type":"bytes32"}],"name":"requestRandomWords","outputs":[{"internalType":"bytes32","name":"requestId","type":"bytes32"}],"stateMutability":"nonpayable","type":"function"},{"inputs":[{"internalType":"address","name":"_newOracle","type":"address"}],"name":"setTrustedOracle","outputs":[],"stateMutability":"nonpayable","type":"function"},{"inputs":[],"name":"totalBoxes","outputs":[{"internalType":"uint256","name":"","type":"uint256"}],"stateMutability":"view","type":"function"},{"inputs":[{"internalType":"address","name":"newOwner","type":"address"}],"name":"transferOwnership","outputs":[],"stateMutability":"nonpayable","type":"function"},{"stateMutability":"payable","type":"receive"}],"evm":{"bytecode":{"linkReferences":{},"object":"608060405234801561001057600080fd5b5061001961001e565b6100d0565b7ff0c57e16840df040f15088dc2f81fe391c3923bec73e23a9662efc9c229c6a00805468010000000000000000900460ff161561006e5760405163f92ee8a960e01b815260040160405180910390fd5b80546001600160401b03908116146100cd5780546001600160401b0319166001600160401b0390811782556040519081527fc7f505b2f371ae2175ee4913f4499e1f2633a7b5936321eed1cdaeb6115181d29060200160405180910390a15b50565b6122b880620000e06000396000f3fe6080604052600436106100bc5760003560e01c80630589c970146100c85780632795ad201461014657806349f769981461018657806357e78adc1461019b578063715018a6146101be5780637dc0d1d0146101d35780638da5cb5b14610200578063a46e717e14610215578063a55f056514610235578063b22bd29814610262578063c401842714610282578063c4d66de8146102a2578063cf611c45146102c2578063ef31d20e146102e2578063f2fde38b1461030257600080fd5b366100c357005b600080fd5b3480156100d457600080fd5b5061012b6100e3366004611c78565b6004602052600090815260409020805460018201546002830154600390930154919260ff808316936101008404909116926001600160a01b0362010000909104811692169086565b60405161013d96959493929190611cc5565b60405180910390f35b34801561015257600080fd5b50610176610161366004611c78565b60036020526000908152604090205460ff1681565b604051901515815260200161013d565b610199610194366004611d2b565b610322565b005b3480156101a757600080fd5b506101b06105b9565b60405190815260200161013d565b3480156101ca57600080fd5b506101996105ca565b3480156101df57600080fd5b506000546101f3906001600160a01b031681565b60405161013d9190611d6d565b34801561020c57600080fd5b506101f36105de565b34801561022157600080fd5b50610199610230366004611c78565b6105f9565b34801561024157600080fd5b50610255610250366004611c78565b610634565b60405161013d9190611d81565b34801561026e57600080fd5b5061019961027d366004611de4565b610756565b34801561028e57600080fd5b506101b061029d366004611c78565b6107cd565b3480156102ae57600080fd5b506101996102bd366004611de4565b61082e565b3480156102ce57600080fd5b506101996102dd366004611e56565b6109cc565b3480156102ee57600080fd5b506101b06102fd366004611f5f565b610dcd565b34801561030e57600080fd5b5061019961031d366004611de4565b61108e565b61032a6110c9565b6000811161038e5760405162461bcd60e51b815260206004820152602660248201527f5072697a6520616d6f756e74206d7573742062652067726561746572207468616044820152656e207a65726f60d01b60648201526084015b60405180910390fd5b60006103986110fb565b90506103a56005826111a5565b156103ea5760405162461bcd60e51b8152602060048201526015602482015274426f7820494420616c72656164792065786973747360581b6044820152606401610385565b6040518060c0016040528082815260200185600181111561040d5761040d611c91565b815260016020808301829052600060408085018290526001600160a01b038916606086015260809094018790528581526004825292909220835181559183015182820180549192909160ff191690838181111561046c5761046c611c91565b021790555060408201518160010160016101000a81548160ff0219169083600181111561049b5761049b611c91565b0217905550606082015160018201805462010000600160b01b031916620100006001600160a01b039384160217905560808301516002830180546001600160a01b0319169190921617905560a0909101516003909101556104fd6005826111b8565b506001600160a01b03831661055d578134146105585760405162461bcd60e51b815260206004820152601a602482015279125b98dbdc9c9958dd08195d1a195c881d985b1d59481cd95b9d60321b6044820152606401610385565b610569565b610569833330856111c4565b60006001600160a01b0316817fc3ee22ee6bfb7ea87d4b424f2fdf8d27fbc3eb99d90b50cc187b26ef74e0056886600187876040516105ab9493929190611f81565b60405180910390a350505050565b60006105c56005611235565b905090565b6105d26110c9565b6105dc600061123f565b565b6000806105e961129b565b546001600160a01b031692915050565b6106016110c9565b61060c6005826111a5565b6106285760405162461bcd60e51b815260040161038590611fbe565b610631816112bf565b50565b61066e6040805160c08101909152600080825260208201908152602001600081526000602082018190526040820181905260609091015290565b6106796005836111a5565b6106955760405162461bcd60e51b815260040161038590611fbe565b600082815260046020908152604091829020825160c0810190935280548352600180820154919284019160ff16908111156106d2576106d2611c91565b60018111156106e3576106e3611c91565b81526020016001820160019054906101000a900460ff16600181111561070b5761070b611c91565b600181111561071c5761071c611c91565b815260018201546001600160a01b036201000090910481166020830152600283015416604082015260039091015460609091015292915050565b61075e6110c9565b6001600160a01b0381166107845760405162461bcd60e51b815260040161038590611fe8565b600080546040516001600160a01b038085169392169160008051602061226383398151915291a3600080546001600160a01b0319166001600160a01b0392909216919091179055565b60006107d96005611235565b821061081d5760405162461bcd60e51b8152602060048201526013602482015272496e646578206f7574206f6620626f756e647360681b6044820152606401610385565b610828600583611332565b92915050565b600061083861133e565b805490915060ff600160401b82041615906001600160401b031660008115801561085f5750825b90506000826001600160401b0316600114801561087b5750303b155b905081158015610889575080155b156108a75760405163f92ee8a960e01b815260040160405180910390fd5b84546001600160401b031916600117855583156108d057845460ff60401b1916600160401b1785555b6001600160a01b0386166108f65760405162461bcd60e51b815260040161038590611fe8565b6108ff33611367565b610907611378565b600080546001600160a01b0319166001600160a01b0388161790556040516001600160601b03193360601b16602082015242603482015260540160408051601f198184030181529082905280516020909101206001556001600160a01b03871690600090600080516020612263833981519152908290a383156109c457845460ff60401b19168555604051600181527fc7f505b2f371ae2175ee4913f4499e1f2633a7b5936321eed1cdaeb6115181d29060200160405180910390a15b505050505050565b6000546001600160a01b031633146109f6576040516282b42960e81b815260040160405180910390fd5b6109fe611388565b60008681526003602052604090205460ff16610a2d57604051632589d98f60e11b815260040160405180910390fd5b610a3b8686868686866113be565b610a5857604051638baa579f60e01b815260040160405180910390fd5b610a636005856111a5565b610a7f5760405162461bcd60e51b815260040161038590611fbe565b600084815260046020526040902060018082810154610100900460ff1690811115610aac57610aac611c91565b14610aea5760405162461bcd60e51b815260206004820152600e60248201526d105b1c9958591e481bdc195b995960921b6044820152606401610385565b60018101546201000090046001600160a01b031615610b3b5760405162461bcd60e51b815260206004820152600d60248201526c2137bc103430b99037bbb732b960991b6044820152606401610385565b600181018054610100600160b01b031916620100006001600160a01b03871602179055855160009060029088908390610b7657610b7661201f565b6020026020010151610b88919061204b565b1590508015610d3a5760006001808085015460ff1690811115610bad57610bad611c91565b14610bbc578260030154610c08565b60648089600081518110610bd257610bd261201f565b6020026020010151610be4919061204b565b610bef906001612075565b8460030154610bfe9190612088565b610c08919061209f565b90506000818460030154610c1c91906120b3565b60028501549091506001600160a01b0316610c5757610c3b8783611491565b8015610c5257610c52610c4c6105de565b82611491565b610c96565b6002840154610c70906001600160a01b03168884611572565b8015610c96576002840154610c96906001600160a01b0316610c906105de565b83611572565b60028401546040516001600160a01b03808a16928b927f6ca0da92c4797a558f7e777695e71010ca0bbf7b7007b7e0402c5921a25fb4d892610cdb92169087906120c6565b60405180910390a38015610d3357600284015460405189917ff552ca82e113ac3c539c3d617f29fcd19c172a0c75dad017555c9e109f7fe18391610d2a916001600160a01b03169085906120c6565b60405180910390a25b5050610d71565b6040516001600160a01b0386169087907f059c544c2595303434d37bd8ee8af000818be6066beb8c37844d43f7ee80a44490600090a35b60008881526003602052604090819020805460ff1916905551869089907fc9245471e1eda01df96ac978bd431512e8e4f71c9541c7d946973b851391d8ad90610dbb908b906120df565b60405180910390a350506109c461157d565b6000610dda6005836111a5565b610df65760405162461bcd60e51b815260040161038590611fbe565b60016000838152600460205260409020600190810154610100900460ff1690811115610e2457610e24611c91565b14610e665760405162461bcd60e51b8152602060048201526012602482015271109bde08185b1c9958591e481bdc195b995960721b6044820152606401610385565b6000828152600460205260409020600101546201000090046001600160a01b031615610ecc5760405162461bcd60e51b81526020600482015260156024820152742137bc1030b63932b0b23c903430b99037bbb732b960591b6044820152606401610385565b600083118015610edd5750600a8311155b610f1e5760405162461bcd60e51b8152602060048201526012602482015271125b9d985b1a59081ddbdc990818dbdd5b9d60721b6044820152606401610385565b3342600154604051602001610f3593929190612123565b6040516020818303038152906040528051906020012060001c60018190555060015442443330878760026000815480929190610f7090612148565b9091555060408051602081019990995288019690965260608088019590955292841b6001600160601b031990811660808801529190931b16609485015260a884019190915260c883015260e88201526101080160408051601f1981840301815291815281516020928301206000818152600390935291205490915060ff161561102f5760405162461bcd60e51b8152602060048201526011602482015270526571756573742049442065786973747360781b6044820152606401610385565b60008181526003602052604090819020805460ff19166001179055518290339083907fe597616bcc7ad3b09b316c7123410af4695ed18f3ffcaebb95cfd266755412fb906110809088815260200190565b60405180910390a492915050565b6110966110c9565b6001600160a01b0381166110c0576000604051631e4fbdf760e01b81526004016103859190611d6d565b6106318161123f565b336110d26105de565b6001600160a01b0316146105dc573360405163118cdaa760e01b81526004016103859190611d6d565b6000334260015460405160200161111493929190612123565b60408051601f198184030181529190528051602090910120600181905560028054429244923392309291600061114983612148565b909155506040805160208101979097528601949094526001600160601b0319606093841b8116848701529190921b166074840152608883015260a882015260c80160405160208183030381529060405280519060200120905090565b60006111b1838361158e565b9392505050565b60006111b183836115a6565b6040516001600160a01b038085166024830152831660448201526064810182905261122f9085906323b872dd60e01b906084015b60408051601f198184030181529190526020810180516001600160e01b03166001600160e01b0319909316929092179091526115f0565b50505050565b6000610828825490565b600061124961129b565b80546001600160a01b038481166001600160a01b031983168117845560405193945091169182907f8be0079c531659141344cd1fd0a4f28419497f9722a3daafe3b4186f6b6457e090600090a3505050565b7f9016d09d72d40fdae2fd8ceac6b6234c7706214fd39c1cd1e609a0528c19930090565b60008181526004602052604081208181556001810180546001600160b01b03191690556002810180546001600160a01b0319169055600301556113036005826116c5565b5060405181907f606ce84a58beebdd8abdd4bb24672fc015a5eb5a7be08a9d2f4023a920c8e7dd90600090a250565b60006111b183836116d1565b6000807ff0c57e16840df040f15088dc2f81fe391c3923bec73e23a9662efc9c229c6a00610828565b61136f6116fb565b61063181611720565b6113806116fb565b6105dc611728565b6000611392611730565b8054909150600119016113b857604051633ee5aeb560e01b815260040160405180910390fd5b60029055565b600080878787876040516020016113d89493929190612161565b6040516020818303038152906040528051906020012090506000611428827b0ca2ba3432b932bab69029b4b3b732b21026b2b9b9b0b3b29d05199960211b6000908152601c91909152603c902090565b600054604080516020601f89018190048102820181019092528781529293506001600160a01b039091169161147a91849190899089908190840183828082843760009201919091525061175492505050565b6001600160a01b0316149998505050505050505050565b804710156114d45760405162461bcd60e51b815260206004820152601060248201526f092dce6eaccccd2c6d2cadce8408aa8960831b6044820152606401610385565b6000826001600160a01b03168260405160006040518083038185875af1925050503d8060008114611521576040519150601f19603f3d011682016040523d82523d6000602084013e611526565b606091505b505090508061156d5760405162461bcd60e51b8152602060048201526013602482015272115512081d1c985b9cd9995c8819985a5b1959606a1b6044820152606401610385565b505050565b61156d838383611778565b6000611587611730565b6001905550565b60009081526001919091016020526040902054151590565b60006115b2838361158e565b6115e857508154600181810184556000848152602080822090930184905584548482528286019093526040902091909155610828565b506000610828565b6000611645826040518060400160405280602081526020017f5361666545524332303a206c6f772d6c6576656c2063616c6c206661696c6564815250856001600160a01b03166117979092919063ffffffff16565b905080516000148061166657508080602001905181019061166691906121b7565b61156d5760405162461bcd60e51b815260206004820152602a60248201527f5361666545524332303a204552433230206f7065726174696f6e20646964206e6044820152691bdd081cdd58d8d9595960b21b6064820152608401610385565b60006111b183836117ae565b60008260000182815481106116e8576116e861201f565b9060005260206000200154905092915050565b6117036118a1565b6105dc57604051631afcd79f60e31b815260040160405180910390fd5b6110966116fb565b61157d6116fb565b7f9b779b17422d0df92223018b32b4d1fa46e071723d6817e2486d003becc55f0090565b600080600061176385856118bb565b9150915061177081611900565b509392505050565b61156d8363a9059cbb60e01b84846040516024016111f89291906120c6565b60606117a68484600085611a45565b949350505050565b600081815260018301602052604081205480156118975760006117d26001836120b3565b85549091506000906117e6906001906120b3565b905081811461184b5760008660000182815481106118065761180661201f565b90600052602060002001549050808760000184815481106118295761182961201f565b6000918252602080832090910192909255918252600188019052604090208390555b855486908061185c5761185c6121d9565b600190038181906000526020600020016000905590558560010160008681526020019081526020016000206000905560019350505050610828565b6000915050610828565b60006118ab61133e565b54600160401b900460ff16919050565b60008082516041036118f15760208301516040840151606085015160001a6118e587828585611b20565b945094505050506118f9565b506000905060025b9250929050565b600081600481111561191457611914611c91565b0361191c5750565b600181600481111561193057611930611c91565b036119785760405162461bcd60e51b815260206004820152601860248201527745434453413a20696e76616c6964207369676e617475726560401b6044820152606401610385565b600281600481111561198c5761198c611c91565b036119d95760405162461bcd60e51b815260206004820152601f60248201527f45434453413a20696e76616c6964207369676e6174757265206c656e677468006044820152606401610385565b60038160048111156119ed576119ed611c91565b036106315760405162461bcd60e51b815260206004820152602260248201527f45434453413a20696e76616c6964207369676e6174757265202773272076616c604482015261756560f01b6064820152608401610385565b606082471015611aa65760405162461bcd60e51b815260206004820152602660248201527f416464726573733a20696e73756666696369656e742062616c616e636520666f6044820152651c8818d85b1b60d21b6064820152608401610385565b600080866001600160a01b03168587604051611ac29190612213565b60006040518083038185875af1925050503d8060008114611aff576040519150601f19603f3d011682016040523d82523d6000602084013e611b04565b606091505b5091509150611b1587838387611bda565b979650505050505050565b6000806fa2a8918ca85bafe22016d0b997e4df60600160ff1b03831115611b4d5750600090506003611bd1565b6040805160008082526020820180845289905260ff881692820192909252606081018690526080810185905260019060a0016020604051602081039080840390855afa158015611ba1573d6000803e3d6000fd5b5050604051601f1901519150506001600160a01b038116611bca57600060019250925050611bd1565b9150600090505b94509492505050565b60608315611c49578251600003611c42576001600160a01b0385163b611c425760405162461bcd60e51b815260206004820152601d60248201527f416464726573733a2063616c6c20746f206e6f6e2d636f6e74726163740000006044820152606401610385565b50816117a6565b6117a68383815115611c5e5781518083602001fd5b8060405162461bcd60e51b8152600401610385919061222f565b600060208284031215611c8a57600080fd5b5035919050565b634e487b7160e01b600052602160045260246000fd5b6002811061063157634e487b7160e01b600052602160045260246000fd5b86815260c08101611cd587611ca7565b866020830152611ce486611ca7565b60408201959095526001600160a01b03938416606082015291909216608082015260a0015292915050565b80356001600160a01b0381168114611d2657600080fd5b919050565b600080600060608486031215611d4057600080fd5b833560028110611d4f57600080fd5b9250611d5d60208501611d0f565b9150604084013590509250925092565b6001600160a01b0391909116815260200190565b81518152602082015160c0820190611d9881611ca7565b60208301526040830151611dab81611ca7565b80604084015250606083015160018060a01b038082166060850152806080860151166080850152505060a083015160a083015292915050565b600060208284031215611df657600080fd5b6111b182611d0f565b634e487b7160e01b600052604160045260246000fd5b60008083601f840112611e2757600080fd5b5081356001600160401b03811115611e3e57600080fd5b6020830191508360208285010111156118f957600080fd5b60008060008060008060a08789031215611e6f57600080fd5b863595506020808801356001600160401b0380821115611e8e57600080fd5b818a0191508a601f830112611ea257600080fd5b813581811115611eb457611eb4611dff565b8060051b604051601f19603f83011681018181108582111715611ed957611ed9611dff565b6040529182528381018501918581018e841115611ef557600080fd5b948601945b83861015611f115785358152948601948601611efa565b509950505060408a01359650611f2960608b01611d0f565b955060808a0135925080831115611f3f57600080fd5b5050611f4d89828a01611e15565b979a9699509497509295939492505050565b60008060408385031215611f7257600080fd5b50508035926020909101359150565b60808101611f8e86611ca7565b858252611f9a85611ca7565b60208201949094526001600160a01b03929092166040830152606090910152919050565b60208082526010908201526f109bde081251081b9bdd08199bdd5b9960821b604082015260600190565b6020808252601d908201527f4f7261636c6520616464726573732063616e6e6f74206265207a65726f000000604082015260600190565b634e487b7160e01b600052603260045260246000fd5b634e487b7160e01b600052601260045260246000fd5b60008261205a5761205a612035565b500690565b634e487b7160e01b600052601160045260246000fd5b808201808211156108285761082861205f565b80820281158282048414176108285761082861205f565b6000826120ae576120ae612035565b500490565b818103818111156108285761082861205f565b6001600160a01b03929092168252602082015260400190565b6020808252825182820181905260009190848201906040850190845b81811015612117578351835292840192918401916001016120fb565b50909695505050505050565b60609390931b6001600160601b03191683526014830191909152603482015260540190565b60006001820161215a5761215a61205f565b5060010190565b84815260006020808301865182880160005b8281101561218f57815184529284019290840190600101612173565b50505094855260609390931b6001600160601b03191692840192909252505060340192915050565b6000602082840312156121c957600080fd5b815180151581146111b157600080fd5b634e487b7160e01b600052603160045260246000fd5b60005b8381101561220a5781810151838201526020016121f2565b50506000910152565b600082516122258184602087016121ef565b9190910192915050565b602081526000825180602084015261224e8160408501602087016121ef565b601f01601f1916919091016040019291505056feb1d1442dba579887e297ac433e5716c847abf2dc052ee9de4869b7b1b8f6206da2646970667358221220898908443960df5e3fea533008a3c44ac83d3aa9bd5c82359163514f27ebb02f64736f6c63430008140033","opcodes":"PUSH1 0x80 PUSH1 0x40 MSTORE CALLVALUE DUP1 ISZERO PUSH2 0x10 JUMPI PUSH1 0x0 DUP1 REVERT JUMPDEST POP PUSH2 0x19 PUSH2 0x1E JUMP JUMPDEST PUSH2 0xD0 JUMP JUMPDEST PUSH32 0xF0C57E16840DF040F15088DC2F81FE391C3923BEC73E23A9662EFC9C229C6A00 DUP1 SLOAD PUSH9 0x10000000000000000 SWAP1 DIV PUSH1 0xFF AND ISZERO PUSH2 0x6E JUMPI PUSH1 0x40 MLOAD PUSH4 0xF92EE8A9 PUSH1 0xE0 SHL DUP2 MSTORE PUSH1 0x4 ADD PUSH1 0x40 MLOAD DUP1 SWAP2 SUB SWAP1 REVERT JUMPDEST DUP1 SLOAD PUSH1 0x1 PUSH1 0x1 PUSH1 0x40 SHL SUB SWAP1 DUP2 AND EQ PUSH2 0xCD JUMPI DUP1 SLOAD PUSH1 0x1 PUSH1 0x1 PUSH1 0x40 SHL SUB NOT AND PUSH1 0x1 PUSH1 0x1 PUSH1 0x40 SHL SUB SWAP1 DUP2 OR DUP3 SSTORE PUSH1 0x40 MLOAD SWAP1 DUP2 MSTORE PUSH32 0xC7F505B2F371AE2175EE4913F4499E1F2633A7B5936321EED1CDAEB6115181D2 SWAP1 PUSH1 0x20 ADD PUSH1 0x40 MLOAD DUP1 SWAP2 SUB SWAP1 LOG1 JUMPDEST POP JUMP JUMPDEST PUSH2 0x22B8 DUP1 PUSH3 0xE0 PUSH1 0x0 CODECOPY PUSH1 0x0 RETURN INVALID PUSH1 0x80 PUSH1 0x40 MSTORE PUSH1 0x4 CALLDATASIZE LT PUSH2 0xBC JUMPI PUSH1 0x0 CALLDATALOAD PUSH1 0xE0 SHR DUP1 PUSH4 0x589C970 EQ PUSH2 0xC8 JUMPI DUP1 PUSH4 0x2795AD20 EQ PUSH2 0x146 JUMPI DUP1 PUSH4 0x49F76998 EQ PUSH2 0x186 JUMPI DUP1 PUSH4 0x57E78ADC EQ PUSH2 0x19B JUMPI DUP1 PUSH4 0x715018A6 EQ PUSH2 0x1BE JUMPI DUP1 PUSH4 0x7DC0D1D0 EQ PUSH2 0x1D3 JUMPI DUP1 PUSH4 0x8DA5CB5B EQ PUSH2 0x200 JUMPI DUP1 PUSH4 0xA46E717E EQ PUSH2 0x215 JUMPI DUP1 PUSH4 0xA55F0565 EQ PUSH2 0x235 JUMPI DUP1 PUSH4 0xB22BD298 EQ PUSH2 0x262 JUMPI DUP1 PUSH4 0xC4018427 EQ PUSH2 0x282 JUMPI DUP1 PUSH4 0xC4D66DE8 EQ PUSH2 0x2A2 JUMPI DUP1 PUSH4 0xCF611C45 EQ PUSH2 0x2C2 JUMPI DUP1 PUSH4 0xEF31D20E EQ PUSH2 0x2E2 JUMPI DUP1 PUSH4 0xF2FDE38B EQ PUSH2 0x302 JUMPI PUSH1 0x0 DUP1 REVERT JUMPDEST CALLDATASIZE PUSH2 0xC3 JUMPI STOP JUMPDEST PUSH1 0x0 DUP1 REVERT JUMPDEST CALLVALUE DUP1 ISZERO PUSH2 0xD4 JUMPI PUSH1 0x0 DUP1 REVERT JUMPDEST POP PUSH2 0x12B PUSH2 0xE3 CALLDATASIZE PUSH1 0x4 PUSH2 0x1C78 JUMP JUMPDEST PUSH1 0x4 PUSH1 0x20 MSTORE PUSH1 0x0 SWAP1 DUP2 MSTORE PUSH1 0x40 SWAP1 KECCAK256 DUP1 SLOAD PUSH1 0x1 DUP3 ADD SLOAD PUSH1 0x2 DUP4 ADD SLOAD PUSH1 0x3 SWAP1 SWAP4 ADD SLOAD SWAP2 SWAP3 PUSH1 0xFF DUP1 DUP4 AND SWAP4 PUSH2 0x100 DUP5 DIV SWAP1 SWAP2 AND SWAP3 PUSH1 0x1 PUSH1 0x1 PUSH1 0xA0 SHL SUB PUSH3 0x10000 SWAP1 SWAP2 DIV DUP2 AND SWAP3 AND SWAP1 DUP7 JUMP JUMPDEST PUSH1 0x40 MLOAD PUSH2 0x13D SWAP7 SWAP6 SWAP5 SWAP4 SWAP3 SWAP2 SWAP1 PUSH2 0x1CC5 JUMP JUMPDEST PUSH1 0x40 MLOAD DUP1 SWAP2 SUB SWAP1 RETURN JUMPDEST CALLVALUE DUP1 ISZERO PUSH2 0x152 JUMPI PUSH1 0x0 DUP1 REVERT JUMPDEST POP PUSH2 0x176 PUSH2 0x161 CALLDATASIZE PUSH1 0x4 PUSH2 0x1C78 JUMP JUMPDEST PUSH1 0x3 PUSH1 0x20 MSTORE PUSH1 0x0 SWAP1 DUP2 MSTORE PUSH1 0x40 SWAP1 KECCAK256 SLOAD PUSH1 0xFF AND DUP2 JUMP JUMPDEST PUSH1 0x40 MLOAD SWAP1 ISZERO ISZERO DUP2 MSTORE PUSH1 0x20 ADD PUSH2 0x13D JUMP JUMPDEST PUSH2 0x199 PUSH2 0x194 CALLDATASIZE PUSH1 0x4 PUSH2 0x1D2B JUMP JUMPDEST PUSH2 0x322 JUMP JUMPDEST STOP JUMPDEST CALLVALUE DUP1 ISZERO PUSH2 0x1A7 JUMPI PUSH1 0x0 DUP1 REVERT JUMPDEST POP PUSH2 0x1B0 PUSH2 0x5B9 JUMP JUMPDEST PUSH1 0x40 MLOAD SWAP1 DUP2 MSTORE PUSH1 0x20 ADD PUSH2 0x13D JUMP JUMPDEST CALLVALUE DUP1 ISZERO PUSH2 0x1CA JUMPI PUSH1 0x0 DUP1 REVERT JUMPDEST POP PUSH2 0x199 PUSH2 0x5CA JUMP JUMPDEST CALLVALUE DUP1 ISZERO PUSH2 0x1DF JUMPI PUSH1 0x0 DUP1 REVERT JUMPDEST POP PUSH1 0x0 SLOAD PUSH2 0x1F3 SWAP1 PUSH1 0x1 PUSH1 0x1 PUSH1 0xA0 SHL SUB AND DUP2 JUMP JUMPDEST PUSH1 0x40 MLOAD PUSH2 0x13D SWAP2 SWAP1 PUSH2 0x1D6D JUMP JUMPDEST CALLVALUE DUP1 ISZERO PUSH2 0x20C JUMPI PUSH1 0x0 DUP1 REVERT JUMPDEST POP PUSH2 0x1F3 PUSH2 0x5DE JUMP JUMPDEST CALLVALUE DUP1 ISZERO PUSH2 0x221 JUMPI PUSH1 0x0 DUP1 REVERT JUMPDEST POP PUSH2 0x199 PUSH2 0x230 CALLDATASIZE PUSH1 0x4 PUSH2 0x1C78 JUMP JUMPDEST PUSH2 0x5F9 JUMP JUMPDEST CALLVALUE DUP1 ISZERO PUSH2 0x241 JUMPI PUSH1 0x0 DUP1 REVERT JUMPDEST POP PUSH2 0x255 PUSH2 0x250 CALLDATASIZE PUSH1 0x4 PUSH2 0x1C78 JUMP JUMPDEST PUSH2 0x634 JUMP JUMPDEST PUSH1 0x40 MLOAD PUSH2 0x13D SWAP2 SWAP1 PUSH2 0x1D81 JUMP JUMPDEST CALLVALUE DUP1 ISZERO PUSH2 0x26E JUMPI PUSH1 0x0 DUP1 REVERT JUMPDEST POP PUSH2 0x199 PUSH2 0x27D CALLDATASIZE PUSH1 0x4 PUSH2 0x1DE4 JUMP JUMPDEST PUSH2 0x756 JUMP JUMPDEST CALLVALUE DUP1 ISZERO PUSH2 0x28E JUMPI PUSH1 0x0 DUP1 REVERT JUMPDEST POP PUSH2 0x1B0 PUSH2 0x29D CALLDATASIZE PUSH1 0x4 PUSH2 0x1C78 JUMP JUMPDEST PUSH2 0x7CD JUMP JUMPDEST CALLVALUE DUP1 ISZERO PUSH2 0x2AE JUMPI PUSH1 0x0 DUP1 REVERT JUMPDEST POP PUSH2 0x199 PUSH2 0x2BD CALLDATASIZE PUSH1 0x4 PUSH2 0x1DE4 JUMP JUMPDEST PUSH2 0x82E JUMP JUMPDEST CALLVALUE DUP1 ISZERO PUSH2 0x2CE JUMPI PUSH1 0x0 DUP1 REVERT JUMPDEST POP PUSH2 0x199 PUSH2 0x2DD CALLDATASIZE PUSH1 0x4 PUSH2 0x1E56 JUMP JUMPDEST PUSH2 0x9CC JUMP JUMPDEST CALLVALUE DUP1 ISZERO PUSH2 0x2EE JUMPI PUSH1 0x0 DUP1 REVERT JUMPDEST POP PUSH2 0x1B0 PUSH2 0x2FD CALLDATASIZE PUSH1 0x4 PUSH2 0x1F5F JUMP JUMPDEST PUSH2 0xDCD JUMP JUMPDEST CALLVALUE DUP1 ISZERO PUSH2 0x30E JUMPI PUSH1 0x0 DUP1 REVERT JUMPDEST POP PUSH2 0x199 PUSH2 0x31D CALLDATASIZE PUSH1 0x4 PUSH2 0x1DE4 JUMP JUMPDEST PUSH2 0x108E JUMP JUMPDEST PUSH2 0x32A PUSH2 0x10C9 JUMP JUMPDEST PUSH1 0x0 DUP2 GT PUSH2 0x38E JUMPI PUSH1 0x40 MLOAD PUSH3 0x461BCD PUSH1 0xE5 SHL DUP2 MSTORE PUSH1 0x20 PUSH1 0x4 DUP3 ADD MSTORE PUSH1 0x26 PUSH1 0x24 DUP3 ADD MSTORE PUSH32 0x5072697A6520616D6F756E74206D757374206265206772656174657220746861 PUSH1 0x44 DUP3 ADD MSTORE PUSH6 0x6E207A65726F PUSH1 0xD0 SHL PUSH1 0x64 DUP3 ADD MSTORE PUSH1 0x84 ADD JUMPDEST PUSH1 0x40 MLOAD DUP1 SWAP2 SUB SWAP1 REVERT JUMPDEST PUSH1 0x0 PUSH2 0x398 PUSH2 0x10FB JUMP JUMPDEST SWAP1 POP PUSH2 0x3A5 PUSH1 0x5 DUP3 PUSH2 0x11A5 JUMP JUMPDEST ISZERO PUSH2 0x3EA JUMPI PUSH1 0x40 MLOAD PUSH3 0x461BCD PUSH1 0xE5 SHL DUP2 MSTORE PUSH1 0x20 PUSH1 0x4 DUP3 ADD MSTORE PUSH1 0x15 PUSH1 0x24 DUP3 ADD MSTORE PUSH21 0x426F7820494420616C726561647920657869737473 PUSH1 0x58 SHL PUSH1 0x44 DUP3 ADD MSTORE PUSH1 0x64 ADD PUSH2 0x385 JUMP JUMPDEST PUSH1 0x40 MLOAD DUP1 PUSH1 0xC0 ADD PUSH1 0x40 MSTORE DUP1 DUP3 DUP2 MSTORE PUSH1 0x20 ADD DUP6 PUSH1 0x1 DUP2 GT ISZERO PUSH2 0x40D JUMPI PUSH2 0x40D PUSH2 0x1C91 JUMP JUMPDEST DUP2 MSTORE PUSH1 0x1 PUSH1 0x20 DUP1 DUP4 ADD DUP3 SWAP1 MSTORE PUSH1 0x0 PUSH1 0x40 DUP1 DUP6 ADD DUP3 SWAP1 MSTORE PUSH1 0x1 PUSH1 0x1 PUSH1 0xA0 SHL SUB DUP10 AND PUSH1 0x60 DUP7 ADD MSTORE PUSH1 0x80 SWAP1 SWAP5 ADD DUP8 SWAP1 MSTORE DUP6 DUP2 MSTORE PUSH1 0x4 DUP3 MSTORE SWAP3 SWAP1 SWAP3 KECCAK256 DUP4 MLOAD DUP2 SSTORE SWAP2 DUP4 ADD MLOAD DUP3 DUP3 ADD DUP1 SLOAD SWAP2 SWAP3 SWAP1 SWAP2 PUSH1 0xFF NOT AND SWAP1 DUP4 DUP2 DUP2 GT ISZERO PUSH2 0x46C JUMPI PUSH2 0x46C PUSH2 0x1C91 JUMP JUMPDEST MUL OR SWAP1 SSTORE POP PUSH1 0x40 DUP3 ADD MLOAD DUP2 PUSH1 0x1 ADD PUSH1 0x1 PUSH2 0x100 EXP DUP2 SLOAD DUP2 PUSH1 0xFF MUL NOT AND SWAP1 DUP4 PUSH1 0x1 DUP2 GT ISZERO PUSH2 0x49B JUMPI PUSH2 0x49B PUSH2 0x1C91 JUMP JUMPDEST MUL OR SWAP1 SSTORE POP PUSH1 0x60 DUP3 ADD MLOAD PUSH1 0x1 DUP3 ADD DUP1 SLOAD PUSH3 0x10000 PUSH1 0x1 PUSH1 0xB0 SHL SUB NOT AND PUSH3 0x10000 PUSH1 0x1 PUSH1 0x1 PUSH1 0xA0 SHL SUB SWAP4 DUP5 AND MUL OR SWAP1 SSTORE PUSH1 0x80 DUP4 ADD MLOAD PUSH1 0x2 DUP4 ADD DUP1 SLOAD PUSH1 0x1 PUSH1 0x1 PUSH1 0xA0 SHL SUB NOT AND SWAP2 SWAP1 SWAP3 AND OR SWAP1 SSTORE PUSH1 0xA0 SWAP1 SWAP2 ADD MLOAD PUSH1 0x3 SWAP1 SWAP2 ADD SSTORE PUSH2 0x4FD PUSH1 0x5 DUP3 PUSH2 0x11B8 JUMP JUMPDEST POP PUSH1 0x1 PUSH1 0x1 PUSH1 0xA0 SHL SUB DUP4 AND PUSH2 0x55D JUMPI DUP2 CALLVALUE EQ PUSH2 0x558 JUMPI PUSH1 0x40 MLOAD PUSH3 0x461BCD PUSH1 0xE5 SHL DUP2 MSTORE PUSH1 0x20 PUSH1 0x4 DUP3 ADD MSTORE PUSH1 0x1A PUSH1 0x24 DUP3 ADD MSTORE PUSH26 0x125B98DBDC9C9958DD08195D1A195C881D985B1D59481CD95B9D PUSH1 0x32 SHL PUSH1 0x44 DUP3 ADD MSTORE PUSH1 0x64 ADD PUSH2 0x385 JUMP JUMPDEST PUSH2 0x569 JUMP JUMPDEST PUSH2 0x569 DUP4 CALLER ADDRESS DUP6 PUSH2 0x11C4 JUMP JUMPDEST PUSH1 0x0 PUSH1 0x1 PUSH1 0x1 PUSH1 0xA0 SHL SUB AND DUP2 PUSH32 0xC3EE22EE6BFB7EA87D4B424F2FDF8D27FBC3EB99D90B50CC187B26EF74E00568 DUP7 PUSH1 0x1 DUP8 DUP8 PUSH1 0x40 MLOAD PUSH2 0x5AB SWAP5 SWAP4 SWAP3 SWAP2 SWAP1 PUSH2 0x1F81 JUMP JUMPDEST PUSH1 0x40 MLOAD DUP1 SWAP2 SUB SWAP1 LOG3 POP POP POP POP JUMP JUMPDEST PUSH1 0x0 PUSH2 0x5C5 PUSH1 0x5 PUSH2 0x1235 JUMP JUMPDEST SWAP1 POP SWAP1 JUMP JUMPDEST PUSH2 0x5D2 PUSH2 0x10C9 JUMP JUMPDEST PUSH2 0x5DC PUSH1 0x0 PUSH2 0x123F JUMP JUMPDEST JUMP JUMPDEST PUSH1 0x0 DUP1 PUSH2 0x5E9 PUSH2 0x129B JUMP JUMPDEST SLOAD PUSH1 0x1 PUSH1 0x1 PUSH1 0xA0 SHL SUB AND SWAP3 SWAP2 POP POP JUMP JUMPDEST PUSH2 0x601 PUSH2 0x10C9 JUMP JUMPDEST PUSH2 0x60C PUSH1 0x5 DUP3 PUSH2 0x11A5 JUMP JUMPDEST PUSH2 0x628 JUMPI PUSH1 0x40 MLOAD PUSH3 0x461BCD PUSH1 0xE5 SHL DUP2 MSTORE PUSH1 0x4 ADD PUSH2 0x385 SWAP1 PUSH2 0x1FBE JUMP JUMPDEST PUSH2 0x631 DUP2 PUSH2 0x12BF JUMP JUMPDEST POP JUMP JUMPDEST PUSH2 0x66E PUSH1 0x40 DUP1 MLOAD PUSH1 0xC0 DUP2 ADD SWAP1 SWAP2 MSTORE PUSH1 0x0 DUP1 DUP3 MSTORE PUSH1 0x20 DUP3 ADD SWAP1 DUP2 MSTORE PUSH1 0x20 ADD PUSH1 0x0 DUP2 MSTORE PUSH1 0x0 PUSH1 0x20 DUP3 ADD DUP2 SWAP1 MSTORE PUSH1 0x40 DUP3 ADD DUP2 SWAP1 MSTORE PUSH1 0x60 SWAP1 SWAP2 ADD MSTORE SWAP1 JUMP JUMPDEST PUSH2 0x679 PUSH1 0x5 DUP4 PUSH2 0x11A5 JUMP JUMPDEST PUSH2 0x695 JUMPI PUSH1 0x40 MLOAD PUSH3 0x461BCD PUSH1 0xE5 SHL DUP2 MSTORE PUSH1 0x4 ADD PUSH2 0x385 SWAP1 PUSH2 0x1FBE JUMP JUMPDEST PUSH1 0x0 DUP3 DUP2 MSTORE PUSH1 0x4 PUSH1 0x20 SWAP1 DUP2 MSTORE PUSH1 0x40 SWAP2 DUP3 SWAP1 KECCAK256 DUP3 MLOAD PUSH1 0xC0 DUP2 ADD SWAP1 SWAP4 MSTORE DUP1 SLOAD DUP4 MSTORE PUSH1 0x1 DUP1 DUP3 ADD SLOAD SWAP2 SWAP3 DUP5 ADD SWAP2 PUSH1 0xFF AND SWAP1 DUP2 GT ISZERO PUSH2 0x6D2 JUMPI PUSH2 0x6D2 PUSH2 0x1C91 JUMP JUMPDEST PUSH1 0x1 DUP2 GT ISZERO PUSH2 0x6E3 JUMPI PUSH2 0x6E3 PUSH2 0x1C91 JUMP JUMPDEST DUP2 MSTORE PUSH1 0x20 ADD PUSH1 0x1 DUP3 ADD PUSH1 0x1 SWAP1 SLOAD SWAP1 PUSH2 0x100 EXP SWAP1 DIV PUSH1 0xFF AND PUSH1 0x1 DUP2 GT ISZERO PUSH2 0x70B JUMPI PUSH2 0x70B PUSH2 0x1C91 JUMP JUMPDEST PUSH1 0x1 DUP2 GT ISZERO PUSH2 0x71C JUMPI PUSH2 0x71C PUSH2 0x1C91 JUMP JUMPDEST DUP2 MSTORE PUSH1 0x1 DUP3 ADD SLOAD PUSH1 0x1 PUSH1 0x1 PUSH1 0xA0 SHL SUB PUSH3 0x10000 SWAP1 SWAP2 DIV DUP2 AND PUSH1 0x20 DUP4 ADD MSTORE PUSH1 0x2 DUP4 ADD SLOAD AND PUSH1 0x40 DUP3 ADD MSTORE PUSH1 0x3 SWAP1 SWAP2 ADD SLOAD PUSH1 0x60 SWAP1 SWAP2 ADD MSTORE SWAP3 SWAP2 POP POP JUMP JUMPDEST PUSH2 0x75E PUSH2 0x10C9 JUMP JUMPDEST PUSH1 0x1 PUSH1 0x1 PUSH1 0xA0 SHL SUB DUP2 AND PUSH2 0x784 JUMPI PUSH1 0x40 MLOAD PUSH3 0x461BCD PUSH1 0xE5 SHL DUP2 MSTORE PUSH1 0x4 ADD PUSH2 0x385 SWAP1 PUSH2 0x1FE8 JUMP JUMPDEST PUSH1 0x0 DUP1 SLOAD PUSH1 0x40 MLOAD PUSH1 0x1 PUSH1 0x1 PUSH1 0xA0 SHL SUB DUP1 DUP6 AND SWAP4 SWAP3 AND SWAP2 PUSH1 0x0 DUP1 MLOAD PUSH1 0x20 PUSH2 0x2263 DUP4 CODECOPY DUP2 MLOAD SWAP2 MSTORE SWAP2 LOG3 PUSH1 0x0 DUP1 SLOAD PUSH1 0x1 PUSH1 0x1 PUSH1 0xA0 SHL SUB NOT AND PUSH1 0x1 PUSH1 0x1 PUSH1 0xA0 SHL SUB SWAP3 SWAP1 SWAP3 AND SWAP2 SWAP1 SWAP2 OR SWAP1 SSTORE JUMP JUMPDEST PUSH1 0x0 PUSH2 0x7D9 PUSH1 0x5 PUSH2 0x1235 JUMP JUMPDEST DUP3 LT PUSH2 0x81D JUMPI PUSH1 0x40 MLOAD PUSH3 0x461BCD PUSH1 0xE5 SHL DUP2 MSTORE PUSH1 0x20 PUSH1 0x4 DUP3 ADD MSTORE PUSH1 0x13 PUSH1 0x24 DUP3 ADD MSTORE PUSH19 0x496E646578206F7574206F6620626F756E6473 PUSH1 0x68 SHL PUSH1 0x44 DUP3 ADD MSTORE PUSH1 0x64 ADD PUSH2 0x385 JUMP JUMPDEST PUSH2 0x828 PUSH1 0x5 DUP4 PUSH2 0x1332 JUMP JUMPDEST SWAP3 SWAP2 POP POP JUMP JUMPDEST PUSH1 0x0 PUSH2 0x838 PUSH2 0x133E JUMP JUMPDEST DUP1 SLOAD SWAP1 SWAP2 POP PUSH1 0xFF PUSH1 0x1 PUSH1 0x40 SHL DUP3 DIV AND ISZERO SWAP1 PUSH1 0x1 PUSH1 0x1 PUSH1 0x40 SHL SUB AND PUSH1 0x0 DUP2 ISZERO DUP1 ISZERO PUSH2 0x85F JUMPI POP DUP3 JUMPDEST SWAP1 POP PUSH1 0x0 DUP3 PUSH1 0x1 PUSH1 0x1 PUSH1 0x40 SHL SUB AND PUSH1 0x1 EQ DUP1 ISZERO PUSH2 0x87B JUMPI POP ADDRESS EXTCODESIZE ISZERO JUMPDEST SWAP1 POP DUP2 ISZERO DUP1 ISZERO PUSH2 0x889 JUMPI POP DUP1 ISZERO JUMPDEST ISZERO PUSH2 0x8A7 JUMPI PUSH1 0x40 MLOAD PUSH4 0xF92EE8A9 PUSH1 0xE0 SHL DUP2 MSTORE PUSH1 0x4 ADD PUSH1 0x40 MLOAD DUP1 SWAP2 SUB SWAP1 REVERT JUMPDEST DUP5 SLOAD PUSH1 0x1 PUSH1 0x1 PUSH1 0x40 SHL SUB NOT AND PUSH1 0x1 OR DUP6 SSTORE DUP4 ISZERO PUSH2 0x8D0 JUMPI DUP5 SLOAD PUSH1 0xFF PUSH1 0x40 SHL NOT AND PUSH1 0x1 PUSH1 0x40 SHL OR DUP6 SSTORE JUMPDEST PUSH1 0x1 PUSH1 0x1 PUSH1 0xA0 SHL SUB DUP7 AND PUSH2 0x8F6 JUMPI PUSH1 0x40 MLOAD PUSH3 0x461BCD PUSH1 0xE5 SHL DUP2 MSTORE PUSH1 0x4 ADD PUSH2 0x385 SWAP1 PUSH2 0x1FE8 JUMP JUMPDEST PUSH2 0x8FF CALLER PUSH2 0x1367 JUMP JUMPDEST PUSH2 0x907 PUSH2 0x1378 JUMP JUMPDEST PUSH1 0x0 DUP1 SLOAD PUSH1 0x1 PUSH1 0x1 PUSH1 0xA0 SHL SUB NOT AND PUSH1 0x1 PUSH1 0x1 PUSH1 0xA0 SHL SUB DUP9 AND OR SWAP1 SSTORE PUSH1 0x40 MLOAD PUSH1 0x1 PUSH1 0x1 PUSH1 0x60 SHL SUB NOT CALLER PUSH1 0x60 SHL AND PUSH1 0x20 DUP3 ADD MSTORE TIMESTAMP PUSH1 0x34 DUP3 ADD MSTORE PUSH1 0x54 ADD PUSH1 0x40 DUP1 MLOAD PUSH1 0x1F NOT DUP2 DUP5 SUB ADD DUP2 MSTORE SWAP1 DUP3 SWAP1 MSTORE DUP1 MLOAD PUSH1 0x20 SWAP1 SWAP2 ADD KECCAK256 PUSH1 0x1 SSTORE PUSH1 0x1 PUSH1 0x1 PUSH1 0xA0 SHL SUB DUP8 AND SWAP1 PUSH1 0x0 SWAP1 PUSH1 0x0 DUP1 MLOAD PUSH1 0x20 PUSH2 0x2263 DUP4 CODECOPY DUP2 MLOAD SWAP2 MSTORE SWAP1 DUP3 SWAP1 LOG3 DUP4 ISZERO PUSH2 0x9C4 JUMPI DUP5 SLOAD PUSH1 0xFF PUSH1 0x40 SHL NOT AND DUP6 SSTORE PUSH1 0x40 MLOAD PUSH1 0x1 DUP2 MSTORE PUSH32 0xC7F505B2F371AE2175EE4913F4499E1F2633A7B5936321EED1CDAEB6115181D2 SWAP1 PUSH1 0x20 ADD PUSH1 0x40 MLOAD DUP1 SWAP2 SUB SWAP1 LOG1 JUMPDEST POP POP POP POP POP POP JUMP JUMPDEST PUSH1 0x0 SLOAD PUSH1 0x1 PUSH1 0x1 PUSH1 0xA0 SHL SUB AND CALLER EQ PUSH2 0x9F6 JUMPI PUSH1 0x40 MLOAD PUSH3 0x82B429 PUSH1 0xE8 SHL DUP2 MSTORE PUSH1 0x4 ADD PUSH1 0x40 MLOAD DUP1 SWAP2 SUB SWAP1 REVERT JUMPDEST PUSH2 0x9FE PUSH2 0x1388 JUMP JUMPDEST PUSH1 0x0 DUP7 DUP2 MSTORE PUSH1 0x3 PUSH1 0x20 MSTORE PUSH1 0x40 SWAP1 KECCAK256 SLOAD PUSH1 0xFF AND PUSH2 0xA2D JUMPI PUSH1 0x40 MLOAD PUSH4 0x2589D98F PUSH1 0xE1 SHL DUP2 MSTORE PUSH1 0x4 ADD PUSH1 0x40 MLOAD DUP1 SWAP2 SUB SWAP1 REVERT JUMPDEST PUSH2 0xA3B DUP7 DUP7 DUP7 DUP7 DUP7 DUP7 PUSH2 0x13BE JUMP JUMPDEST PUSH2 0xA58 JUMPI PUSH1 0x40 MLOAD PUSH4 0x8BAA579F PUSH1 0xE0 SHL DUP2 MSTORE PUSH1 0x4 ADD PUSH1 0x40 MLOAD DUP1 SWAP2 SUB SWAP1 REVERT JUMPDEST PUSH2 0xA63 PUSH1 0x5 DUP6 PUSH2 0x11A5 JUMP JUMPDEST PUSH2 0xA7F JUMPI PUSH1 0x40 MLOAD PUSH3 0x461BCD PUSH1 0xE5 SHL DUP2 MSTORE PUSH1 0x4 ADD PUSH2 0x385 SWAP1 PUSH2 0x1FBE JUMP JUMPDEST PUSH1 0x0 DUP5 DUP2 MSTORE PUSH1 0x4 PUSH1 0x20 MSTORE PUSH1 0x40 SWAP1 KECCAK256 PUSH1 0x1 DUP1 DUP3 DUP2 ADD SLOAD PUSH2 0x100 SWAP1 DIV PUSH1 0xFF AND SWAP1 DUP2 GT ISZERO PUSH2 0xAAC JUMPI PUSH2 0xAAC PUSH2 0x1C91 JUMP JUMPDEST EQ PUSH2 0xAEA JUMPI PUSH1 0x40 MLOAD PUSH3 0x461BCD PUSH1 0xE5 SHL DUP2 MSTORE PUSH1 0x20 PUSH1 0x4 DUP3 ADD MSTORE PUSH1 0xE PUSH1 0x24 DUP3 ADD MSTORE PUSH14 0x105B1C9958591E481BDC195B9959 PUSH1 0x92 SHL PUSH1 0x44 DUP3 ADD MSTORE PUSH1 0x64 ADD PUSH2 0x385 JUMP JUMPDEST PUSH1 0x1 DUP2 ADD SLOAD PUSH3 0x10000 SWAP1 DIV PUSH1 0x1 PUSH1 0x1 PUSH1 0xA0 SHL SUB AND ISZERO PUSH2 0xB3B JUMPI PUSH1 0x40 MLOAD PUSH3 0x461BCD PUSH1 0xE5 SHL DUP2 MSTORE PUSH1 0x20 PUSH1 0x4 DUP3 ADD MSTORE PUSH1 0xD PUSH1 0x24 DUP3 ADD MSTORE PUSH13 0x2137BC103430B99037BBB732B9 PUSH1 0x99 SHL PUSH1 0x44 DUP3 ADD MSTORE PUSH1 0x64 ADD PUSH2 0x385 JUMP JUMPDEST PUSH1 0x1 DUP2 ADD DUP1 SLOAD PUSH2 0x100 PUSH1 0x1 PUSH1 0xB0 SHL SUB NOT AND PUSH3 0x10000 PUSH1 0x1 PUSH1 0x1 PUSH1 0xA0 SHL SUB DUP8 AND MUL OR SWAP1 SSTORE DUP6 MLOAD PUSH1 0x0 SWAP1 PUSH1 0x2 SWAP1 DUP9 SWAP1 DUP4 SWAP1 PUSH2 0xB76 JUMPI PUSH2 0xB76 PUSH2 0x201F JUMP JUMPDEST PUSH1 0x20 MUL PUSH1 0x20 ADD ADD MLOAD PUSH2 0xB88 SWAP2 SWAP1 PUSH2 0x204B JUMP JUMPDEST ISZERO SWAP1 POP DUP1 ISZERO PUSH2 0xD3A JUMPI PUSH1 0x0 PUSH1 0x1 DUP1 DUP1 DUP6 ADD SLOAD PUSH1 0xFF AND SWAP1 DUP2 GT ISZERO PUSH2 0xBAD JUMPI PUSH2 0xBAD PUSH2 0x1C91 JUMP JUMPDEST EQ PUSH2 0xBBC JUMPI DUP3 PUSH1 0x3 ADD SLOAD PUSH2 0xC08 JUMP JUMPDEST PUSH1 0x64 DUP1 DUP10 PUSH1 0x0 DUP2 MLOAD DUP2 LT PUSH2 0xBD2 JUMPI PUSH2 0xBD2 PUSH2 0x201F JUMP JUMPDEST PUSH1 0x20 MUL PUSH1 0x20 ADD ADD MLOAD PUSH2 0xBE4 SWAP2 SWAP1 PUSH2 0x204B JUMP JUMPDEST PUSH2 0xBEF SWAP1 PUSH1 0x1 PUSH2 0x2075 JUMP JUMPDEST DUP5 PUSH1 0x3 ADD SLOAD PUSH2 0xBFE SWAP2 SWAP1 PUSH2 0x2088 JUMP JUMPDEST PUSH2 0xC08 SWAP2 SWAP1 PUSH2 0x209F JUMP JUMPDEST SWAP1 POP PUSH1 0x0 DUP2 DUP5 PUSH1 0x3 ADD SLOAD PUSH2 0xC1C SWAP2 SWAP1 PUSH2 0x20B3 JUMP JUMPDEST PUSH1 0x2 DUP6 ADD SLOAD SWAP1 SWAP2 POP PUSH1 0x1 PUSH1 0x1 PUSH1 0xA0 SHL SUB AND PUSH2 0xC57 JUMPI PUSH2 0xC3B DUP8 DUP4 PUSH2 0x1491 JUMP JUMPDEST DUP1 ISZERO PUSH2 0xC52 JUMPI PUSH2 0xC52 PUSH2 0xC4C PUSH2 0x5DE JUMP JUMPDEST DUP3 PUSH2 0x1491 JUMP JUMPDEST PUSH2 0xC96 JUMP JUMPDEST PUSH1 0x2 DUP5 ADD SLOAD PUSH2 0xC70 SWAP1 PUSH1 0x1 PUSH1 0x1 PUSH1 0xA0 SHL SUB AND DUP9 DUP5 PUSH2 0x1572 JUMP JUMPDEST DUP1 ISZERO PUSH2 0xC96 JUMPI PUSH1 0x2 DUP5 ADD SLOAD PUSH2 0xC96 SWAP1 PUSH1 0x1 PUSH1 0x1 PUSH1 0xA0 SHL SUB AND PUSH2 0xC90 PUSH2 0x5DE JUMP JUMPDEST DUP4 PUSH2 0x1572 JUMP JUMPDEST PUSH1 0x2 DUP5 ADD SLOAD PUSH1 0x40 MLOAD PUSH1 0x1 PUSH1 0x1 PUSH1 0xA0 SHL SUB DUP1 DUP11 AND SWAP3 DUP12 SWAP3 PUSH32 0x6CA0DA92C4797A558F7E777695E71010CA0BBF7B7007B7E0402C5921A25FB4D8 SWAP3 PUSH2 0xCDB SWAP3 AND SWAP1 DUP8 SWAP1 PUSH2 0x20C6 JUMP JUMPDEST PUSH1 0x40 MLOAD DUP1 SWAP2 SUB SWAP1 LOG3 DUP1 ISZERO PUSH2 0xD33 JUMPI PUSH1 0x2 DUP5 ADD SLOAD PUSH1 0x40 MLOAD DUP10 SWAP2 PUSH32 0xF552CA82E113AC3C539C3D617F29FCD19C172A0C75DAD017555C9E109F7FE183 SWAP2 PUSH2 0xD2A SWAP2 PUSH1 0x1 PUSH1 0x1 PUSH1 0xA0 SHL SUB AND SWAP1 DUP6 SWAP1 PUSH2 0x20C6 JUMP JUMPDEST PUSH1 0x40 MLOAD DUP1 SWAP2 SUB SWAP1 LOG2 JUMPDEST POP POP PUSH2 0xD71 JUMP JUMPDEST PUSH1 0x40 MLOAD PUSH1 0x1 PUSH1 0x1 PUSH1 0xA0 SHL SUB DUP7 AND SWAP1 DUP8 SWAP1 PUSH32 0x59C544C2595303434D37BD8EE8AF000818BE6066BEB8C37844D43F7EE80A444 SWAP1 PUSH1 0x0 SWAP1 LOG3 JUMPDEST PUSH1 0x0 DUP9 DUP2 MSTORE PUSH1 0x3 PUSH1 0x20 MSTORE PUSH1 0x40 SWAP1 DUP2 SWAP1 KECCAK256 DUP1 SLOAD PUSH1 0xFF NOT AND SWAP1 SSTORE MLOAD DUP7 SWAP1 DUP10 SWAP1 PUSH32 0xC9245471E1EDA01DF96AC978BD431512E8E4F71C9541C7D946973B851391D8AD SWAP1 PUSH2 0xDBB SWAP1 DUP12 SWAP1 PUSH2 0x20DF JUMP JUMPDEST PUSH1 0x40 MLOAD DUP1 SWAP2 SUB SWAP1 LOG3 POP POP PUSH2 0x9C4 PUSH2 0x157D JUMP JUMPDEST PUSH1 0x0 PUSH2 0xDDA PUSH1 0x5 DUP4 PUSH2 0x11A5 JUMP JUMPDEST PUSH2 0xDF6 JUMPI PUSH1 0x40 MLOAD PUSH3 0x461BCD PUSH1 0xE5 SHL DUP2 MSTORE PUSH1 0x4 ADD PUSH2 0x385 SWAP1 PUSH2 0x1FBE JUMP JUMPDEST PUSH1 0x1 PUSH1 0x0 DUP4 DUP2 MSTORE PUSH1 0x4 PUSH1 0x20 MSTORE PUSH1 0x40 SWAP1 KECCAK256 PUSH1 0x1 SWAP1 DUP2 ADD SLOAD PUSH2 0x100 SWAP1 DIV PUSH1 0xFF AND SWAP1 DUP2 GT ISZERO PUSH2 0xE24 JUMPI PUSH2 0xE24 PUSH2 0x1C91 JUMP JUMPDEST EQ PUSH2 0xE66 JUMPI PUSH1 0x40 MLOAD PUSH3 0x461BCD PUSH1 0xE5 SHL DUP2 MSTORE PUSH1 0x20 PUSH1 0x4 DUP3 ADD MSTORE PUSH1 0x12 PUSH1 0x24 DUP3 ADD MSTORE PUSH18 0x109BDE08185B1C9958591E481BDC195B9959 PUSH1 0x72 SHL PUSH1 0x44 DUP3 ADD MSTORE PUSH1 0x64 ADD PUSH2 0x385 JUMP JUMPDEST PUSH1 0x0 DUP3 DUP2 MSTORE PUSH1 0x4 PUSH1 0x20 MSTORE PUSH1 0x40 SWAP1 KECCAK256 PUSH1 0x1 ADD SLOAD PUSH3 0x10000 SWAP1 DIV PUSH1 0x1 PUSH1 0x1 PUSH1 0xA0 SHL SUB AND ISZERO PUSH2 0xECC JUMPI PUSH1 0x40 MLOAD PUSH3 0x461BCD PUSH1 0xE5 SHL DUP2 MSTORE PUSH1 0x20 PUSH1 0x4 DUP3 ADD MSTORE PUSH1 0x15 PUSH1 0x24 DUP3 ADD MSTORE PUSH21 0x2137BC1030B63932B0B23C903430B99037BBB732B9 PUSH1 0x59 SHL PUSH1 0x44 DUP3 ADD MSTORE PUSH1 0x64 ADD PUSH2 0x385 JUMP JUMPDEST PUSH1 0x0 DUP4 GT DUP1 ISZERO PUSH2 0xEDD JUMPI POP PUSH1 0xA DUP4 GT ISZERO JUMPDEST PUSH2 0xF1E JUMPI PUSH1 0x40 MLOAD PUSH3 0x461BCD PUSH1 0xE5 SHL DUP2 MSTORE PUSH1 0x20 PUSH1 0x4 DUP3 ADD MSTORE PUSH1 0x12 PUSH1 0x24 DUP3 ADD MSTORE PUSH18 0x125B9D985B1A59081DDBDC990818DBDD5B9D PUSH1 0x72 SHL PUSH1 0x44 DUP3 ADD MSTORE PUSH1 0x64 ADD PUSH2 0x385 JUMP JUMPDEST CALLER TIMESTAMP PUSH1 0x1 SLOAD PUSH1 0x40 MLOAD PUSH1 0x20 ADD PUSH2 0xF35 SWAP4 SWAP3 SWAP2 SWAP1 PUSH2 0x2123 JUMP JUMPDEST PUSH1 0x40 MLOAD PUSH1 0x20 DUP2 DUP4 SUB SUB DUP2 MSTORE SWAP1 PUSH1 0x40 MSTORE DUP1 MLOAD SWAP1 PUSH1 0x20 ADD KECCAK256 PUSH1 0x0 SHR PUSH1 0x1 DUP2 SWAP1 SSTORE POP PUSH1 0x1 SLOAD TIMESTAMP PREVRANDAO CALLER ADDRESS DUP8 DUP8 PUSH1 0x2 PUSH1 0x0 DUP2 SLOAD DUP1 SWAP3 SWAP2 SWAP1 PUSH2 0xF70 SWAP1 PUSH2 0x2148 JUMP JUMPDEST SWAP1 SWAP2 SSTORE POP PUSH1 0x40 DUP1 MLOAD PUSH1 0x20 DUP2 ADD SWAP10 SWAP1 SWAP10 MSTORE DUP9 ADD SWAP7 SWAP1 SWAP7 MSTORE PUSH1 0x60 DUP1 DUP9 ADD SWAP6 SWAP1 SWAP6 MSTORE SWAP3 DUP5 SHL PUSH1 0x1 PUSH1 0x1 PUSH1 0x60 SHL SUB NOT SWAP1 DUP2 AND PUSH1 0x80 DUP9 ADD MSTORE SWAP2 SWAP1 SWAP4 SHL AND PUSH1 0x94 DUP6 ADD MSTORE PUSH1 0xA8 DUP5 ADD SWAP2 SWAP1 SWAP2 MSTORE PUSH1 0xC8 DUP4 ADD MSTORE PUSH1 0xE8 DUP3 ADD MSTORE PUSH2 0x108 ADD PUSH1 0x40 DUP1 MLOAD PUSH1 0x1F NOT DUP2 DUP5 SUB ADD DUP2 MSTORE SWAP2 DUP2 MSTORE DUP2 MLOAD PUSH1 0x20 SWAP3 DUP4 ADD KECCAK256 PUSH1 0x0 DUP2 DUP2 MSTORE PUSH1 0x3 SWAP1 SWAP4 MSTORE SWAP2 KECCAK256 SLOAD SWAP1 SWAP2 POP PUSH1 0xFF AND ISZERO PUSH2 0x102F JUMPI PUSH1 0x40 MLOAD PUSH3 0x461BCD PUSH1 0xE5 SHL DUP2 MSTORE PUSH1 0x20 PUSH1 0x4 DUP3 ADD MSTORE PUSH1 0x11 PUSH1 0x24 DUP3 ADD MSTORE PUSH17 0x5265717565737420494420657869737473 PUSH1 0x78 SHL PUSH1 0x44 DUP3 ADD MSTORE PUSH1 0x64 ADD PUSH2 0x385 JUMP JUMPDEST PUSH1 0x0 DUP2 DUP2 MSTORE PUSH1 0x3 PUSH1 0x20 MSTORE PUSH1 0x40 SWAP1 DUP2 SWAP1 KECCAK256 DUP1 SLOAD PUSH1 0xFF NOT AND PUSH1 0x1 OR SWAP1 SSTORE MLOAD DUP3 SWAP1 CALLER SWAP1 DUP4 SWAP1 PUSH32 0xE597616BCC7AD3B09B316C7123410AF4695ED18F3FFCAEBB95CFD266755412FB SWAP1 PUSH2 0x1080 SWAP1 DUP9 DUP2 MSTORE PUSH1 0x20 ADD SWAP1 JUMP JUMPDEST PUSH1 0x40 MLOAD DUP1 SWAP2 SUB SWAP1 LOG4 SWAP3 SWAP2 POP POP JUMP JUMPDEST PUSH2 0x1096 PUSH2 0x10C9 JUMP JUMPDEST PUSH1 0x1 PUSH1 0x1 PUSH1 0xA0 SHL SUB DUP2 AND PUSH2 0x10C0 JUMPI PUSH1 0x0 PUSH1 0x40 MLOAD PUSH4 0x1E4FBDF7 PUSH1 0xE0 SHL DUP2 MSTORE PUSH1 0x4 ADD PUSH2 0x385 SWAP2 SWAP1 PUSH2 0x1D6D JUMP JUMPDEST PUSH2 0x631 DUP2 PUSH2 0x123F JUMP JUMPDEST CALLER PUSH2 0x10D2 PUSH2 0x5DE JUMP JUMPDEST PUSH1 0x1 PUSH1 0x1 PUSH1 0xA0 SHL SUB AND EQ PUSH2 0x5DC JUMPI CALLER PUSH1 0x40 MLOAD PUSH4 0x118CDAA7 PUSH1 0xE0 SHL DUP2 MSTORE PUSH1 0x4 ADD PUSH2 0x385 SWAP2 SWAP1 PUSH2 0x1D6D JUMP JUMPDEST PUSH1 0x0 CALLER TIMESTAMP PUSH1 0x1 SLOAD PUSH1 0x40 MLOAD PUSH1 0x20 ADD PUSH2 0x1114 SWAP4 SWAP3 SWAP2 SWAP1 PUSH2 0x2123 JUMP JUMPDEST PUSH1 0x40 DUP1 MLOAD PUSH1 0x1F NOT DUP2 DUP5 SUB ADD DUP2 MSTORE SWAP2 SWAP1 MSTORE DUP1 MLOAD PUSH1 0x20 SWAP1 SWAP2 ADD KECCAK256 PUSH1 0x1 DUP2 SWAP1 SSTORE PUSH1 0x2 DUP1 SLOAD TIMESTAMP SWAP3 PREVRANDAO SWAP3 CALLER SWAP3 ADDRESS SWAP3 SWAP2 PUSH1 0x0 PUSH2 0x1149 DUP4 PUSH2 0x2148 JUMP JUMPDEST SWAP1 SWAP2 SSTORE POP PUSH1 0x40 DUP1 MLOAD PUSH1 0x20 DUP2 ADD SWAP8 SWAP1 SWAP8 MSTORE DUP7 ADD SWAP5 SWAP1 SWAP5 MSTORE PUSH1 0x1 PUSH1 0x1 PUSH1 0x60 SHL SUB NOT PUSH1 0x60 SWAP4 DUP5 SHL DUP2 AND DUP5 DUP8 ADD MSTORE SWAP2 SWAP1 SWAP3 SHL AND PUSH1 0x74 DUP5 ADD MSTORE PUSH1 0x88 DUP4 ADD MSTORE PUSH1 0xA8 DUP3 ADD MSTORE PUSH1 0xC8 ADD PUSH1 0x40 MLOAD PUSH1 0x20 DUP2 DUP4 SUB SUB DUP2 MSTORE SWAP1 PUSH1 0x40 MSTORE DUP1 MLOAD SWAP1 PUSH1 0x20 ADD KECCAK256 SWAP1 POP SWAP1 JUMP JUMPDEST PUSH1 0x0 PUSH2 0x11B1 DUP4 DUP4 PUSH2 0x158E JUMP JUMPDEST SWAP4 SWAP3 POP POP POP JUMP JUMPDEST PUSH1 0x0 PUSH2 0x11B1 DUP4 DUP4 PUSH2 0x15A6 JUMP JUMPDEST PUSH1 0x40 MLOAD PUSH1 0x1 PUSH1 0x1 PUSH1 0xA0 SHL SUB DUP1 DUP6 AND PUSH1 0x24 DUP4 ADD MSTORE DUP4 AND PUSH1 0x44 DUP3 ADD MSTORE PUSH1 0x64 DUP2 ADD DUP3 SWAP1 MSTORE PUSH2 0x122F SWAP1 DUP6 SWAP1 PUSH4 0x23B872DD PUSH1 0xE0 SHL SWAP1 PUSH1 0x84 ADD JUMPDEST PUSH1 0x40 DUP1 MLOAD PUSH1 0x1F NOT DUP2 DUP5 SUB ADD DUP2 MSTORE SWAP2 SWAP1 MSTORE PUSH1 0x20 DUP2 ADD DUP1 MLOAD PUSH1 0x1 PUSH1 0x1 PUSH1 0xE0 SHL SUB AND PUSH1 0x1 PUSH1 0x1 PUSH1 0xE0 SHL SUB NOT SWAP1 SWAP4 AND SWAP3 SWAP1 SWAP3 OR SWAP1 SWAP2 MSTORE PUSH2 0x15F0 JUMP JUMPDEST POP POP POP POP JUMP JUMPDEST PUSH1 0x0 PUSH2 0x828 DUP3 SLOAD SWAP1 JUMP JUMPDEST PUSH1 0x0 PUSH2 0x1249 PUSH2 0x129B JUMP JUMPDEST DUP1 SLOAD PUSH1 0x1 PUSH1 0x1 PUSH1 0xA0 SHL SUB DUP5 DUP2 AND PUSH1 0x1 PUSH1 0x1 PUSH1 0xA0 SHL SUB NOT DUP4 AND DUP2 OR DUP5 SSTORE PUSH1 0x40 MLOAD SWAP4 SWAP5 POP SWAP2 AND SWAP2 DUP3 SWAP1 PUSH32 0x8BE0079C531659141344CD1FD0A4F28419497F9722A3DAAFE3B4186F6B6457E0 SWAP1 PUSH1 0x0 SWAP1 LOG3 POP POP POP JUMP JUMPDEST PUSH32 0x9016D09D72D40FDAE2FD8CEAC6B6234C7706214FD39C1CD1E609A0528C199300 SWAP1 JUMP JUMPDEST PUSH1 0x0 DUP2 DUP2 MSTORE PUSH1 0x4 PUSH1 0x20 MSTORE PUSH1 0x40 DUP2 KECCAK256 DUP2 DUP2 SSTORE PUSH1 0x1 DUP2 ADD DUP1 SLOAD PUSH1 0x1 PUSH1 0x1 PUSH1 0xB0 SHL SUB NOT AND SWAP1 SSTORE PUSH1 0x2 DUP2 ADD DUP1 SLOAD PUSH1 0x1 PUSH1 0x1 PUSH1 0xA0 SHL SUB NOT AND SWAP1 SSTORE PUSH1 0x3 ADD SSTORE PUSH2 0x1303 PUSH1 0x5 DUP3 PUSH2 0x16C5 JUMP JUMPDEST POP PUSH1 0x40 MLOAD DUP2 SWAP1 PUSH32 0x606CE84A58BEEBDD8ABDD4BB24672FC015A5EB5A7BE08A9D2F4023A920C8E7DD SWAP1 PUSH1 0x0 SWAP1 LOG2 POP JUMP JUMPDEST PUSH1 0x0 PUSH2 0x11B1 DUP4 DUP4 PUSH2 0x16D1 JUMP JUMPDEST PUSH1 0x0 DUP1 PUSH32 0xF0C57E16840DF040F15088DC2F81FE391C3923BEC73E23A9662EFC9C229C6A00 PUSH2 0x828 JUMP JUMPDEST PUSH2 0x136F PUSH2 0x16FB JUMP JUMPDEST PUSH2 0x631 DUP2 PUSH2 0x1720 JUMP JUMPDEST PUSH2 0x1380 PUSH2 0x16FB JUMP JUMPDEST PUSH2 0x5DC PUSH2 0x1728 JUMP JUMPDEST PUSH1 0x0 PUSH2 0x1392 PUSH2 0x1730 JUMP JUMPDEST DUP1 SLOAD SWAP1 SWAP2 POP PUSH1 0x1 NOT ADD PUSH2 0x13B8 JUMPI PUSH1 0x40 MLOAD PUSH4 0x3EE5AEB5 PUSH1 0xE0 SHL DUP2 MSTORE PUSH1 0x4 ADD PUSH1 0x40 MLOAD DUP1 SWAP2 SUB SWAP1 REVERT JUMPDEST PUSH1 0x2 SWAP1 SSTORE JUMP JUMPDEST PUSH1 0x0 DUP1 DUP8 DUP8 DUP8 DUP8 PUSH1 0x40 MLOAD PUSH1 0x20 ADD PUSH2 0x13D8 SWAP5 SWAP4 SWAP3 SWAP2 SWAP1 PUSH2 0x2161 JUMP JUMPDEST PUSH1 0x40 MLOAD PUSH1 0x20 DUP2 DUP4 SUB SUB DUP2 MSTORE SWAP1 PUSH1 0x40 MSTORE DUP1 MLOAD SWAP1 PUSH1 0x20 ADD KECCAK256 SWAP1 POP PUSH1 0x0 PUSH2 0x1428 DUP3 PUSH28 0xCA2BA3432B932BAB69029B4B3B732B21026B2B9B9B0B3B29D051999 PUSH1 0x21 SHL PUSH1 0x0 SWAP1 DUP2 MSTORE PUSH1 0x1C SWAP2 SWAP1 SWAP2 MSTORE PUSH1 0x3C SWAP1 KECCAK256 SWAP1 JUMP JUMPDEST PUSH1 0x0 SLOAD PUSH1 0x40 DUP1 MLOAD PUSH1 0x20 PUSH1 0x1F DUP10 ADD DUP2 SWAP1 DIV DUP2 MUL DUP3 ADD DUP2 ADD SWAP1 SWAP3 MSTORE DUP8 DUP2 MSTORE SWAP3 SWAP4 POP PUSH1 0x1 PUSH1 0x1 PUSH1 0xA0 SHL SUB SWAP1 SWAP2 AND SWAP2 PUSH2 0x147A SWAP2 DUP5 SWAP2 SWAP1 DUP10 SWAP1 DUP10 SWAP1 DUP2 SWAP1 DUP5 ADD DUP4 DUP3 DUP1 DUP3 DUP5 CALLDATACOPY PUSH1 0x0 SWAP3 ADD SWAP2 SWAP1 SWAP2 MSTORE POP PUSH2 0x1754 SWAP3 POP POP POP JUMP JUMPDEST PUSH1 0x1 PUSH1 0x1 PUSH1 0xA0 SHL SUB AND EQ SWAP10 SWAP9 POP POP POP POP POP POP POP POP POP JUMP JUMPDEST DUP1 SELFBALANCE LT ISZERO PUSH2 0x14D4 JUMPI PUSH1 0x40 MLOAD PUSH3 0x461BCD PUSH1 0xE5 SHL DUP2 MSTORE PUSH1 0x20 PUSH1 0x4 DUP3 ADD MSTORE PUSH1 0x10 PUSH1 0x24 DUP3 ADD MSTORE PUSH16 0x92DCE6EACCCCD2C6D2CADCE8408AA89 PUSH1 0x83 SHL PUSH1 0x44 DUP3 ADD MSTORE PUSH1 0x64 ADD PUSH2 0x385 JUMP JUMPDEST PUSH1 0x0 DUP3 PUSH1 0x1 PUSH1 0x1 PUSH1 0xA0 SHL SUB AND DUP3 PUSH1 0x40 MLOAD PUSH1 0x0 PUSH1 0x40 MLOAD DUP1 DUP4 SUB DUP2 DUP6 DUP8 GAS CALL SWAP3 POP POP POP RETURNDATASIZE DUP1 PUSH1 0x0 DUP2 EQ PUSH2 0x1521 JUMPI PUSH1 0x40 MLOAD SWAP2 POP PUSH1 0x1F NOT PUSH1 0x3F RETURNDATASIZE ADD AND DUP3 ADD PUSH1 0x40 MSTORE RETURNDATASIZE DUP3 MSTORE RETURNDATASIZE PUSH1 0x0 PUSH1 0x20 DUP5 ADD RETURNDATACOPY PUSH2 0x1526 JUMP JUMPDEST PUSH1 0x60 SWAP2 POP JUMPDEST POP POP SWAP1 POP DUP1 PUSH2 0x156D JUMPI PUSH1 0x40 MLOAD PUSH3 0x461BCD PUSH1 0xE5 SHL DUP2 MSTORE PUSH1 0x20 PUSH1 0x4 DUP3 ADD MSTORE PUSH1 0x13 PUSH1 0x24 DUP3 ADD MSTORE PUSH19 0x115512081D1C985B9CD9995C8819985A5B1959 PUSH1 0x6A SHL PUSH1 0x44 DUP3 ADD MSTORE PUSH1 0x64 ADD PUSH2 0x385 JUMP JUMPDEST POP POP POP JUMP JUMPDEST PUSH2 0x156D DUP4 DUP4 DUP4 PUSH2 0x1778 JUMP JUMPDEST PUSH1 0x0 PUSH2 0x1587 PUSH2 0x1730 JUMP JUMPDEST PUSH1 0x1 SWAP1 SSTORE POP JUMP JUMPDEST PUSH1 0x0 SWAP1 DUP2 MSTORE PUSH1 0x1 SWAP2 SWAP1 SWAP2 ADD PUSH1 0x20 MSTORE PUSH1 0x40 SWAP1 KECCAK256 SLOAD ISZERO ISZERO SWAP1 JUMP JUMPDEST PUSH1 0x0 PUSH2 0x15B2 DUP4 DUP4 PUSH2 0x158E JUMP JUMPDEST PUSH2 0x15E8 JUMPI POP DUP2 SLOAD PUSH1 0x1 DUP2 DUP2 ADD DUP5 SSTORE PUSH1 0x0 DUP5 DUP2 MSTORE PUSH1 0x20 DUP1 DUP3 KECCAK256 SWAP1 SWAP4 ADD DUP5 SWAP1 SSTORE DUP5 SLOAD DUP5 DUP3 MSTORE DUP3 DUP7 ADD SWAP1 SWAP4 MSTORE PUSH1 0x40 SWAP1 KECCAK256 SWAP2 SWAP1 SWAP2 SSTORE PUSH2 0x828 JUMP JUMPDEST POP PUSH1 0x0 PUSH2 0x828 JUMP JUMPDEST PUSH1 0x0 PUSH2 0x1645 DUP3 PUSH1 0x40 MLOAD DUP1 PUSH1 0x40 ADD PUSH1 0x40 MSTORE DUP1 PUSH1 0x20 DUP2 MSTORE PUSH1 0x20 ADD PUSH32 0x5361666545524332303A206C6F772D6C6576656C2063616C6C206661696C6564 DUP2 MSTORE POP DUP6 PUSH1 0x1 PUSH1 0x1 PUSH1 0xA0 SHL SUB AND PUSH2 0x1797 SWAP1 SWAP3 SWAP2 SWAP1 PUSH4 0xFFFFFFFF AND JUMP JUMPDEST SWAP1 POP DUP1 MLOAD PUSH1 0x0 EQ DUP1 PUSH2 0x1666 JUMPI POP DUP1 DUP1 PUSH1 0x20 ADD SWAP1 MLOAD DUP2 ADD SWAP1 PUSH2 0x1666 SWAP2 SWAP1 PUSH2 0x21B7 JUMP JUMPDEST PUSH2 0x156D JUMPI PUSH1 0x40 MLOAD PUSH3 0x461BCD PUSH1 0xE5 SHL DUP2 MSTORE PUSH1 0x20 PUSH1 0x4 DUP3 ADD MSTORE PUSH1 0x2A PUSH1 0x24 DUP3 ADD MSTORE PUSH32 0x5361666545524332303A204552433230206F7065726174696F6E20646964206E PUSH1 0x44 DUP3 ADD MSTORE PUSH10 0x1BDD081CDD58D8D95959 PUSH1 0xB2 SHL PUSH1 0x64 DUP3 ADD MSTORE PUSH1 0x84 ADD PUSH2 0x385 JUMP JUMPDEST PUSH1 0x0 PUSH2 0x11B1 DUP4 DUP4 PUSH2 0x17AE JUMP JUMPDEST PUSH1 0x0 DUP3 PUSH1 0x0 ADD DUP3 DUP2 SLOAD DUP2 LT PUSH2 0x16E8 JUMPI PUSH2 0x16E8 PUSH2 0x201F JUMP JUMPDEST SWAP1 PUSH1 0x0 MSTORE PUSH1 0x20 PUSH1 0x0 KECCAK256 ADD SLOAD SWAP1 POP SWAP3 SWAP2 POP POP JUMP JUMPDEST PUSH2 0x1703 PUSH2 0x18A1 JUMP JUMPDEST PUSH2 0x5DC JUMPI PUSH1 0x40 MLOAD PUSH4 0x1AFCD79F PUSH1 0xE3 SHL DUP2 MSTORE PUSH1 0x4 ADD PUSH1 0x40 MLOAD DUP1 SWAP2 SUB SWAP1 REVERT JUMPDEST PUSH2 0x1096 PUSH2 0x16FB JUMP JUMPDEST PUSH2 0x157D PUSH2 0x16FB JUMP JUMPDEST PUSH32 0x9B779B17422D0DF92223018B32B4D1FA46E071723D6817E2486D003BECC55F00 SWAP1 JUMP JUMPDEST PUSH1 0x0 DUP1 PUSH1 0x0 PUSH2 0x1763 DUP6 DUP6 PUSH2 0x18BB JUMP JUMPDEST SWAP2 POP SWAP2 POP PUSH2 0x1770 DUP2 PUSH2 0x1900 JUMP JUMPDEST POP SWAP4 SWAP3 POP POP POP JUMP JUMPDEST PUSH2 0x156D DUP4 PUSH4 0xA9059CBB PUSH1 0xE0 SHL DUP5 DUP5 PUSH1 0x40 MLOAD PUSH1 0x24 ADD PUSH2 0x11F8 SWAP3 SWAP2 SWAP1 PUSH2 0x20C6 JUMP JUMPDEST PUSH1 0x60 PUSH2 0x17A6 DUP5 DUP5 PUSH1 0x0 DUP6 PUSH2 0x1A45 JUMP JUMPDEST SWAP5 SWAP4 POP POP POP POP JUMP JUMPDEST PUSH1 0x0 DUP2 DUP2 MSTORE PUSH1 0x1 DUP4 ADD PUSH1 0x20 MSTORE PUSH1 0x40 DUP2 KECCAK256 SLOAD DUP1 ISZERO PUSH2 0x1897 JUMPI PUSH1 0x0 PUSH2 0x17D2 PUSH1 0x1 DUP4 PUSH2 0x20B3 JUMP JUMPDEST DUP6 SLOAD SWAP1 SWAP2 POP PUSH1 0x0 SWAP1 PUSH2 0x17E6 SWAP1 PUSH1 0x1 SWAP1 PUSH2 0x20B3 JUMP JUMPDEST SWAP1 POP DUP2 DUP2 EQ PUSH2 0x184B JUMPI PUSH1 0x0 DUP7 PUSH1 0x0 ADD DUP3 DUP2 SLOAD DUP2 LT PUSH2 0x1806 JUMPI PUSH2 0x1806 PUSH2 0x201F JUMP JUMPDEST SWAP1 PUSH1 0x0 MSTORE PUSH1 0x20 PUSH1 0x0 KECCAK256 ADD SLOAD SWAP1 POP DUP1 DUP8 PUSH1 0x0 ADD DUP5 DUP2 SLOAD DUP2 LT PUSH2 0x1829 JUMPI PUSH2 0x1829 PUSH2 0x201F JUMP JUMPDEST PUSH1 0x0 SWAP2 DUP3 MSTORE PUSH1 0x20 DUP1 DUP4 KECCAK256 SWAP1 SWAP2 ADD SWAP3 SWAP1 SWAP3 SSTORE SWAP2 DUP3 MSTORE PUSH1 0x1 DUP9 ADD SWAP1 MSTORE PUSH1 0x40 SWAP1 KECCAK256 DUP4 SWAP1 SSTORE JUMPDEST DUP6 SLOAD DUP7 SWAP1 DUP1 PUSH2 0x185C JUMPI PUSH2 0x185C PUSH2 0x21D9 JUMP JUMPDEST PUSH1 0x1 SWAP1 SUB DUP2 DUP2 SWAP1 PUSH1 0x0 MSTORE PUSH1 0x20 PUSH1 0x0 KECCAK256 ADD PUSH1 0x0 SWAP1 SSTORE SWAP1 SSTORE DUP6 PUSH1 0x1 ADD PUSH1 0x0 DUP7 DUP2 MSTORE PUSH1 0x20 ADD SWAP1 DUP2 MSTORE PUSH1 0x20 ADD PUSH1 0x0 KECCAK256 PUSH1 0x0 SWAP1 SSTORE PUSH1 0x1 SWAP4 POP POP POP POP PUSH2 0x828 JUMP JUMPDEST PUSH1 0x0 SWAP2 POP POP PUSH2 0x828 JUMP JUMPDEST PUSH1 0x0 PUSH2 0x18AB PUSH2 0x133E JUMP JUMPDEST SLOAD PUSH1 0x1 PUSH1 0x40 SHL SWAP1 DIV PUSH1 0xFF AND SWAP2 SWAP1 POP JUMP JUMPDEST PUSH1 0x0 DUP1 DUP3 MLOAD PUSH1 0x41 SUB PUSH2 0x18F1 JUMPI PUSH1 0x20 DUP4 ADD MLOAD PUSH1 0x40 DUP5 ADD MLOAD PUSH1 0x60 DUP6 ADD MLOAD PUSH1 0x0 BYTE PUSH2 0x18E5 DUP8 DUP3 DUP6 DUP6 PUSH2 0x1B20 JUMP JUMPDEST SWAP5 POP SWAP5 POP POP POP POP PUSH2 0x18F9 JUMP JUMPDEST POP PUSH1 0x0 SWAP1 POP PUSH1 0x2 JUMPDEST SWAP3 POP SWAP3 SWAP1 POP JUMP JUMPDEST PUSH1 0x0 DUP2 PUSH1 0x4 DUP2 GT ISZERO PUSH2 0x1914 JUMPI PUSH2 0x1914 PUSH2 0x1C91 JUMP JUMPDEST SUB PUSH2 0x191C JUMPI POP JUMP JUMPDEST PUSH1 0x1 DUP2 PUSH1 0x4 DUP2 GT ISZERO PUSH2 0x1930 JUMPI PUSH2 0x1930 PUSH2 0x1C91 JUMP JUMPDEST SUB PUSH2 0x1978 JUMPI PUSH1 0x40 MLOAD PUSH3 0x461BCD PUSH1 0xE5 SHL DUP2 MSTORE PUSH1 0x20 PUSH1 0x4 DUP3 ADD MSTORE PUSH1 0x18 PUSH1 0x24 DUP3 ADD MSTORE PUSH24 0x45434453413A20696E76616C6964207369676E6174757265 PUSH1 0x40 SHL PUSH1 0x44 DUP3 ADD MSTORE PUSH1 0x64 ADD PUSH2 0x385 JUMP JUMPDEST PUSH1 0x2 DUP2 PUSH1 0x4 DUP2 GT ISZERO PUSH2 0x198C JUMPI PUSH2 0x198C PUSH2 0x1C91 JUMP JUMPDEST SUB PUSH2 0x19D9 JUMPI PUSH1 0x40 MLOAD PUSH3 0x461BCD PUSH1 0xE5 SHL DUP2 MSTORE PUSH1 0x20 PUSH1 0x4 DUP3 ADD MSTORE PUSH1 0x1F PUSH1 0x24 DUP3 ADD MSTORE PUSH32 0x45434453413A20696E76616C6964207369676E6174757265206C656E67746800 PUSH1 0x44 DUP3 ADD MSTORE PUSH1 0x64 ADD PUSH2 0x385 JUMP JUMPDEST PUSH1 0x3 DUP2 PUSH1 0x4 DUP2 GT ISZERO PUSH2 0x19ED JUMPI PUSH2 0x19ED PUSH2 0x1C91 JUMP JUMPDEST SUB PUSH2 0x631 JUMPI PUSH1 0x40 MLOAD PUSH3 0x461BCD PUSH1 0xE5 SHL DUP2 MSTORE PUSH1 0x20 PUSH1 0x4 DUP3 ADD MSTORE PUSH1 0x22 PUSH1 0x24 DUP3 ADD MSTORE PUSH32 0x45434453413A20696E76616C6964207369676E6174757265202773272076616C PUSH1 0x44 DUP3 ADD MSTORE PUSH2 0x7565 PUSH1 0xF0 SHL PUSH1 0x64 DUP3 ADD MSTORE PUSH1 0x84 ADD PUSH2 0x385 JUMP JUMPDEST PUSH1 0x60 DUP3 SELFBALANCE LT ISZERO PUSH2 0x1AA6 JUMPI PUSH1 0x40 MLOAD PUSH3 0x461BCD PUSH1 0xE5 SHL DUP2 MSTORE PUSH1 0x20 PUSH1 0x4 DUP3 ADD MSTORE PUSH1 0x26 PUSH1 0x24 DUP3 ADD MSTORE PUSH32 0x416464726573733A20696E73756666696369656E742062616C616E636520666F PUSH1 0x44 DUP3 ADD MSTORE PUSH6 0x1C8818D85B1B PUSH1 0xD2 SHL PUSH1 0x64 DUP3 ADD MSTORE PUSH1 0x84 ADD PUSH2 0x385 JUMP JUMPDEST PUSH1 0x0 DUP1 DUP7 PUSH1 0x1 PUSH1 0x1 PUSH1 0xA0 SHL SUB AND DUP6 DUP8 PUSH1 0x40 MLOAD PUSH2 0x1AC2 SWAP2 SWAP1 PUSH2 0x2213 JUMP JUMPDEST PUSH1 0x0 PUSH1 0x40 MLOAD DUP1 DUP4 SUB DUP2 DUP6 DUP8 GAS CALL SWAP3 POP POP POP RETURNDATASIZE DUP1 PUSH1 0x0 DUP2 EQ PUSH2 0x1AFF JUMPI PUSH1 0x40 MLOAD SWAP2 POP PUSH1 0x1F NOT PUSH1 0x3F RETURNDATASIZE ADD AND DUP3 ADD PUSH1 0x40 MSTORE RETURNDATASIZE DUP3 MSTORE RETURNDATASIZE PUSH1 0x0 PUSH1 0x20 DUP5 ADD RETURNDATACOPY PUSH2 0x1B04 JUMP JUMPDEST PUSH1 0x60 SWAP2 POP JUMPDEST POP SWAP2 POP SWAP2 POP PUSH2 0x1B15 DUP8 DUP4 DUP4 DUP8 PUSH2 0x1BDA JUMP JUMPDEST SWAP8 SWAP7 POP POP POP POP POP POP POP JUMP JUMPDEST PUSH1 0x0 DUP1 PUSH16 0xA2A8918CA85BAFE22016D0B997E4DF60 PUSH1 0x1 PUSH1 0xFF SHL SUB DUP4 GT ISZERO PUSH2 0x1B4D JUMPI POP PUSH1 0x0 SWAP1 POP PUSH1 0x3 PUSH2 0x1BD1 JUMP JUMPDEST PUSH1 0x40 DUP1 MLOAD PUSH1 0x0 DUP1 DUP3 MSTORE PUSH1 0x20 DUP3 ADD DUP1 DUP5 MSTORE DUP10 SWAP1 MSTORE PUSH1 0xFF DUP9 AND SWAP3 DUP3 ADD SWAP3 SWAP1 SWAP3 MSTORE PUSH1 0x60 DUP2 ADD DUP7 SWAP1 MSTORE PUSH1 0x80 DUP2 ADD DUP6 SWAP1 MSTORE PUSH1 0x1 SWAP1 PUSH1 0xA0 ADD PUSH1 0x20 PUSH1 0x40 MLOAD PUSH1 0x20 DUP2 SUB SWAP1 DUP1 DUP5 SUB SWAP1 DUP6 GAS STATICCALL ISZERO DUP1 ISZERO PUSH2 0x1BA1 JUMPI RETURNDATASIZE PUSH1 0x0 DUP1 RETURNDATACOPY RETURNDATASIZE PUSH1 0x0 REVERT JUMPDEST POP POP PUSH1 0x40 MLOAD PUSH1 0x1F NOT ADD MLOAD SWAP2 POP POP PUSH1 0x1 PUSH1 0x1 PUSH1 0xA0 SHL SUB DUP2 AND PUSH2 0x1BCA JUMPI PUSH1 0x0 PUSH1 0x1 SWAP3 POP SWAP3 POP POP PUSH2 0x1BD1 JUMP JUMPDEST SWAP2 POP PUSH1 0x0 SWAP1 POP JUMPDEST SWAP5 POP SWAP5 SWAP3 POP POP POP JUMP JUMPDEST PUSH1 0x60 DUP4 ISZERO PUSH2 0x1C49 JUMPI DUP3 MLOAD PUSH1 0x0 SUB PUSH2 0x1C42 JUMPI PUSH1 0x1 PUSH1 0x1 PUSH1 0xA0 SHL SUB DUP6 AND EXTCODESIZE PUSH2 0x1C42 JUMPI PUSH1 0x40 MLOAD PUSH3 0x461BCD PUSH1 0xE5 SHL DUP2 MSTORE PUSH1 0x20 PUSH1 0x4 DUP3 ADD MSTORE PUSH1 0x1D PUSH1 0x24 DUP3 ADD MSTORE PUSH32 0x416464726573733A2063616C6C20746F206E6F6E2D636F6E7472616374000000 PUSH1 0x44 DUP3 ADD MSTORE PUSH1 0x64 ADD PUSH2 0x385 JUMP JUMPDEST POP DUP2 PUSH2 0x17A6 JUMP JUMPDEST PUSH2 0x17A6 DUP4 DUP4 DUP2 MLOAD ISZERO PUSH2 0x1C5E JUMPI DUP2 MLOAD DUP1 DUP4 PUSH1 0x20 ADD REVERT JUMPDEST DUP1 PUSH1 0x40 MLOAD PUSH3 0x461BCD PUSH1 0xE5 SHL DUP2 MSTORE PUSH1 0x4 ADD PUSH2 0x385 SWAP2 SWAP1 PUSH2 0x222F JUMP JUMPDEST PUSH1 0x0 PUSH1 0x20 DUP3 DUP5 SUB SLT ISZERO PUSH2 0x1C8A JUMPI PUSH1 0x0 DUP1 REVERT JUMPDEST POP CALLDATALOAD SWAP2 SWAP1 POP JUMP JUMPDEST PUSH4 0x4E487B71 PUSH1 0xE0 SHL PUSH1 0x0 MSTORE PUSH1 0x21 PUSH1 0x4 MSTORE PUSH1 0x24 PUSH1 0x0 REVERT JUMPDEST PUSH1 0x2 DUP2 LT PUSH2 0x631 JUMPI PUSH4 0x4E487B71 PUSH1 0xE0 SHL PUSH1 0x0 MSTORE PUSH1 0x21 PUSH1 0x4 MSTORE PUSH1 0x24 PUSH1 0x0 REVERT JUMPDEST DUP7 DUP2 MSTORE PUSH1 0xC0 DUP2 ADD PUSH2 0x1CD5 DUP8 PUSH2 0x1CA7 JUMP JUMPDEST DUP7 PUSH1 0x20 DUP4 ADD MSTORE PUSH2 0x1CE4 DUP7 PUSH2 0x1CA7 JUMP JUMPDEST PUSH1 0x40 DUP3 ADD SWAP6 SWAP1 SWAP6 MSTORE PUSH1 0x1 PUSH1 0x1 PUSH1 0xA0 SHL SUB SWAP4 DUP5 AND PUSH1 0x60 DUP3 ADD MSTORE SWAP2 SWAP1 SWAP3 AND PUSH1 0x80 DUP3 ADD MSTORE PUSH1 0xA0 ADD MSTORE SWAP3 SWAP2 POP POP JUMP JUMPDEST DUP1 CALLDATALOAD PUSH1 0x1 PUSH1 0x1 PUSH1 0xA0 SHL SUB DUP2 AND DUP2 EQ PUSH2 0x1D26 JUMPI PUSH1 0x0 DUP1 REVERT JUMPDEST SWAP2 SWAP1 POP JUMP JUMPDEST PUSH1 0x0 DUP1 PUSH1 0x0 PUSH1 0x60 DUP5 DUP7 SUB SLT ISZERO PUSH2 0x1D40 JUMPI PUSH1 0x0 DUP1 REVERT JUMPDEST DUP4 CALLDATALOAD PUSH1 0x2 DUP2 LT PUSH2 0x1D4F JUMPI PUSH1 0x0 DUP1 REVERT JUMPDEST SWAP3 POP PUSH2 0x1D5D PUSH1 0x20 DUP6 ADD PUSH2 0x1D0F JUMP JUMPDEST SWAP2 POP PUSH1 0x40 DUP5 ADD CALLDATALOAD SWAP1 POP SWAP3 POP SWAP3 POP SWAP3 JUMP JUMPDEST PUSH1 0x1 PUSH1 0x1 PUSH1 0xA0 SHL SUB SWAP2 SWAP1 SWAP2 AND DUP2 MSTORE PUSH1 0x20 ADD SWAP1 JUMP JUMPDEST DUP2 MLOAD DUP2 MSTORE PUSH1 0x20 DUP3 ADD MLOAD PUSH1 0xC0 DUP3 ADD SWAP1 PUSH2 0x1D98 DUP2 PUSH2 0x1CA7 JUMP JUMPDEST PUSH1 0x20 DUP4 ADD MSTORE PUSH1 0x40 DUP4 ADD MLOAD PUSH2 0x1DAB DUP2 PUSH2 0x1CA7 JUMP JUMPDEST DUP1 PUSH1 0x40 DUP5 ADD MSTORE POP PUSH1 0x60 DUP4 ADD MLOAD PUSH1 0x1 DUP1 PUSH1 0xA0 SHL SUB DUP1 DUP3 AND PUSH1 0x60 DUP6 ADD MSTORE DUP1 PUSH1 0x80 DUP7 ADD MLOAD AND PUSH1 0x80 DUP6 ADD MSTORE POP POP PUSH1 0xA0 DUP4 ADD MLOAD PUSH1 0xA0 DUP4 ADD MSTORE SWAP3 SWAP2 POP POP JUMP JUMPDEST PUSH1 0x0 PUSH1 0x20 DUP3 DUP5 SUB SLT ISZERO PUSH2 0x1DF6 JUMPI PUSH1 0x0 DUP1 REVERT JUMPDEST PUSH2 0x11B1 DUP3 PUSH2 0x1D0F JUMP JUMPDEST PUSH4 0x4E487B71 PUSH1 0xE0 SHL PUSH1 0x0 MSTORE PUSH1 0x41 PUSH1 0x4 MSTORE PUSH1 0x24 PUSH1 0x0 REVERT JUMPDEST PUSH1 0x0 DUP1 DUP4 PUSH1 0x1F DUP5 ADD SLT PUSH2 0x1E27 JUMPI PUSH1 0x0 DUP1 REVERT JUMPDEST POP DUP2 CALLDATALOAD PUSH1 0x1 PUSH1 0x1 PUSH1 0x40 SHL SUB DUP2 GT ISZERO PUSH2 0x1E3E JUMPI PUSH1 0x0 DUP1 REVERT JUMPDEST PUSH1 0x20 DUP4 ADD SWAP2 POP DUP4 PUSH1 0x20 DUP3 DUP6 ADD ADD GT ISZERO PUSH2 0x18F9 JUMPI PUSH1 0x0 DUP1 REVERT JUMPDEST PUSH1 0x0 DUP1 PUSH1 0x0 DUP1 PUSH1 0x0 DUP1 PUSH1 0xA0 DUP8 DUP10 SUB SLT ISZERO PUSH2 0x1E6F JUMPI PUSH1 0x0 DUP1 REVERT JUMPDEST DUP7 CALLDATALOAD SWAP6 POP PUSH1 0x20 DUP1 DUP9 ADD CALLDATALOAD PUSH1 0x1 PUSH1 0x1 PUSH1 0x40 SHL SUB DUP1 DUP3 GT ISZERO PUSH2 0x1E8E JUMPI PUSH1 0x0 DUP1 REVERT JUMPDEST DUP2 DUP11 ADD SWAP2 POP DUP11 PUSH1 0x1F DUP4 ADD SLT PUSH2 0x1EA2 JUMPI PUSH1 0x0 DUP1 REVERT JUMPDEST DUP2 CALLDATALOAD DUP2 DUP2 GT ISZERO PUSH2 0x1EB4 JUMPI PUSH2 0x1EB4 PUSH2 0x1DFF JUMP JUMPDEST DUP1 PUSH1 0x5 SHL PUSH1 0x40 MLOAD PUSH1 0x1F NOT PUSH1 0x3F DUP4 ADD AND DUP2 ADD DUP2 DUP2 LT DUP6 DUP3 GT OR ISZERO PUSH2 0x1ED9 JUMPI PUSH2 0x1ED9 PUSH2 0x1DFF JUMP JUMPDEST PUSH1 0x40 MSTORE SWAP2 DUP3 MSTORE DUP4 DUP2 ADD DUP6 ADD SWAP2 DUP6 DUP2 ADD DUP15 DUP5 GT ISZERO PUSH2 0x1EF5 JUMPI PUSH1 0x0 DUP1 REVERT JUMPDEST SWAP5 DUP7 ADD SWAP5 JUMPDEST DUP4 DUP7 LT ISZERO PUSH2 0x1F11 JUMPI DUP6 CALLDATALOAD DUP2 MSTORE SWAP5 DUP7 ADD SWAP5 DUP7 ADD PUSH2 0x1EFA JUMP JUMPDEST POP SWAP10 POP POP POP PUSH1 0x40 DUP11 ADD CALLDATALOAD SWAP7 POP PUSH2 0x1F29 PUSH1 0x60 DUP12 ADD PUSH2 0x1D0F JUMP JUMPDEST SWAP6 POP PUSH1 0x80 DUP11 ADD CALLDATALOAD SWAP3 POP DUP1 DUP4 GT ISZERO PUSH2 0x1F3F JUMPI PUSH1 0x0 DUP1 REVERT JUMPDEST POP POP PUSH2 0x1F4D DUP10 DUP3 DUP11 ADD PUSH2 0x1E15 JUMP JUMPDEST SWAP8 SWAP11 SWAP7 SWAP10 POP SWAP5 SWAP8 POP SWAP3 SWAP6 SWAP4 SWAP5 SWAP3 POP POP POP JUMP JUMPDEST PUSH1 0x0 DUP1 PUSH1 0x40 DUP4 DUP6 SUB SLT ISZERO PUSH2 0x1F72 JUMPI PUSH1 0x0 DUP1 REVERT JUMPDEST POP POP DUP1 CALLDATALOAD SWAP3 PUSH1 0x20 SWAP1 SWAP2 ADD CALLDATALOAD SWAP2 POP JUMP JUMPDEST PUSH1 0x80 DUP2 ADD PUSH2 0x1F8E DUP7 PUSH2 0x1CA7 JUMP JUMPDEST DUP6 DUP3 MSTORE PUSH2 0x1F9A DUP6 PUSH2 0x1CA7 JUMP JUMPDEST PUSH1 0x20 DUP3 ADD SWAP5 SWAP1 SWAP5 MSTORE PUSH1 0x1 PUSH1 0x1 PUSH1 0xA0 SHL SUB SWAP3 SWAP1 SWAP3 AND PUSH1 0x40 DUP4 ADD MSTORE PUSH1 0x60 SWAP1 SWAP2 ADD MSTORE SWAP2 SWAP1 POP JUMP JUMPDEST PUSH1 0x20 DUP1 DUP3 MSTORE PUSH1 0x10 SWAP1 DUP3 ADD MSTORE PUSH16 0x109BDE081251081B9BDD08199BDD5B99 PUSH1 0x82 SHL PUSH1 0x40 DUP3 ADD MSTORE PUSH1 0x60 ADD SWAP1 JUMP JUMPDEST PUSH1 0x20 DUP1 DUP3 MSTORE PUSH1 0x1D SWAP1 DUP3 ADD MSTORE PUSH32 0x4F7261636C6520616464726573732063616E6E6F74206265207A65726F000000 PUSH1 0x40 DUP3 ADD MSTORE PUSH1 0x60 ADD SWAP1 JUMP JUMPDEST PUSH4 0x4E487B71 PUSH1 0xE0 SHL PUSH1 0x0 MSTORE PUSH1 0x32 PUSH1 0x4 MSTORE PUSH1 0x24 PUSH1 0x0 REVERT JUMPDEST PUSH4 0x4E487B71 PUSH1 0xE0 SHL PUSH1 0x0 MSTORE PUSH1 0x12 PUSH1 0x4 MSTORE PUSH1 0x24 PUSH1 0x0 REVERT JUMPDEST PUSH1 0x0 DUP3 PUSH2 0x205A JUMPI PUSH2 0x205A PUSH2 0x2035 JUMP JUMPDEST POP MOD SWAP1 JUMP JUMPDEST PUSH4 0x4E487B71 PUSH1 0xE0 SHL PUSH1 0x0 MSTORE PUSH1 0x11 PUSH1 0x4 MSTORE PUSH1 0x24 PUSH1 0x0 REVERT JUMPDEST DUP1 DUP3 ADD DUP1 DUP3 GT ISZERO PUSH2 0x828 JUMPI PUSH2 0x828 PUSH2 0x205F JUMP JUMPDEST DUP1 DUP3 MUL DUP2 ISZERO DUP3 DUP3 DIV DUP5 EQ OR PUSH2 0x828 JUMPI PUSH2 0x828 PUSH2 0x205F JUMP JUMPDEST PUSH1 0x0 DUP3 PUSH2 0x20AE JUMPI PUSH2 0x20AE PUSH2 0x2035 JUMP JUMPDEST POP DIV SWAP1 JUMP JUMPDEST DUP2 DUP2 SUB DUP2 DUP2 GT ISZERO PUSH2 0x828 JUMPI PUSH2 0x828 PUSH2 0x205F JUMP JUMPDEST PUSH1 0x1 PUSH1 0x1 PUSH1 0xA0 SHL SUB SWAP3 SWAP1 SWAP3 AND DUP3 MSTORE PUSH1 0x20 DUP3 ADD MSTORE PUSH1 0x40 ADD SWAP1 JUMP JUMPDEST PUSH1 0x20 DUP1 DUP3 MSTORE DUP3 MLOAD DUP3 DUP3 ADD DUP2 SWAP1 MSTORE PUSH1 0x0 SWAP2 SWAP1 DUP5 DUP3 ADD SWAP1 PUSH1 0x40 DUP6 ADD SWAP1 DUP5 JUMPDEST DUP2 DUP2 LT ISZERO PUSH2 0x2117 JUMPI DUP4 MLOAD DUP4 MSTORE SWAP3 DUP5 ADD SWAP3 SWAP2 DUP5 ADD SWAP2 PUSH1 0x1 ADD PUSH2 0x20FB JUMP JUMPDEST POP SWAP1 SWAP7 SWAP6 POP POP POP POP POP POP JUMP JUMPDEST PUSH1 0x60 SWAP4 SWAP1 SWAP4 SHL PUSH1 0x1 PUSH1 0x1 PUSH1 0x60 SHL SUB NOT AND DUP4 MSTORE PUSH1 0x14 DUP4 ADD SWAP2 SWAP1 SWAP2 MSTORE PUSH1 0x34 DUP3 ADD MSTORE PUSH1 0x54 ADD SWAP1 JUMP JUMPDEST PUSH1 0x0 PUSH1 0x1 DUP3 ADD PUSH2 0x215A JUMPI PUSH2 0x215A PUSH2 0x205F JUMP JUMPDEST POP PUSH1 0x1 ADD SWAP1 JUMP JUMPDEST DUP5 DUP2 MSTORE PUSH1 0x0 PUSH1 0x20 DUP1 DUP4 ADD DUP7 MLOAD DUP3 DUP9 ADD PUSH1 0x0 JUMPDEST DUP3 DUP2 LT ISZERO PUSH2 0x218F JUMPI DUP2 MLOAD DUP5 MSTORE SWAP3 DUP5 ADD SWAP3 SWAP1 DUP5 ADD SWAP1 PUSH1 0x1 ADD PUSH2 0x2173 JUMP JUMPDEST POP POP POP SWAP5 DUP6 MSTORE PUSH1 0x60 SWAP4 SWAP1 SWAP4 SHL PUSH1 0x1 PUSH1 0x1 PUSH1 0x60 SHL SUB NOT AND SWAP3 DUP5 ADD SWAP3 SWAP1 SWAP3 MSTORE POP POP PUSH1 0x34 ADD SWAP3 SWAP2 POP POP JUMP JUMPDEST PUSH1 0x0 PUSH1 0x20 DUP3 DUP5 SUB SLT ISZERO PUSH2 0x21C9 JUMPI PUSH1 0x0 DUP1 REVERT JUMPDEST DUP2 MLOAD DUP1 ISZERO ISZERO DUP2 EQ PUSH2 0x11B1 JUMPI PUSH1 0x0 DUP1 REVERT JUMPDEST PUSH4 0x4E487B71 PUSH1 0xE0 SHL PUSH1 0x0 MSTORE PUSH1 0x31 PUSH1 0x4 MSTORE PUSH1 0x24 PUSH1 0x0 REVERT JUMPDEST PUSH1 0x0 JUMPDEST DUP4 DUP2 LT ISZERO PUSH2 0x220A JUMPI DUP2 DUP2 ADD MLOAD DUP4 DUP3 ADD MSTORE PUSH1 0x20 ADD PUSH2 0x21F2 JUMP JUMPDEST POP POP PUSH1 0x0 SWAP2 ADD MSTORE JUMP JUMPDEST PUSH1 0x0 DUP3 MLOAD PUSH2 0x2225 DUP2 DUP5 PUSH1 0x20 DUP8 ADD PUSH2 0x21EF JUMP JUMPDEST SWAP2 SWAP1 SWAP2 ADD SWAP3 SWAP2 POP POP JUMP JUMPDEST PUSH1 0x20 DUP2 MSTORE PUSH1 0x0 DUP3 MLOAD DUP1 PUSH1 0x20 DUP5 ADD MSTORE PUSH2 0x224E DUP2 PUSH1 0x40 DUP6 ADD PUSH1 0x20 DUP8 ADD PUSH2 0x21EF JUMP JUMPDEST PUSH1 0x1F ADD PUSH1 0x1F NOT AND SWAP2 SWAP1 SWAP2 ADD PUSH1 0x40 ADD SWAP3 SWAP2 POP POP JUMP INVALID 0xB1 0xD1 PREVRANDAO 0x2D 0xBA JUMPI SWAP9 DUP8 0xE2 SWAP8 0xAC NUMBER RETURNDATACOPY JUMPI AND 0xC8 SELFBALANCE 0xAB CALLCODE 0xDC SDIV 0x2E 0xE9 0xDE BASEFEE PUSH10 0xB7B1B8F6206DA2646970 PUSH7 0x73582212208989 ADDMOD PREVRANDAO CODECOPY PUSH1 0xDF 0x5E EXTCODEHASH 0xEA MSTORE8 ADDRESS ADDMOD LOG3 0xC4 0x4A 0xC8 RETURNDATASIZE GASPRICE 0xA9 0xBD 0x5C DUP3 CALLDATALOAD SWAP2 PUSH4 0x514F27EB 0xB0 0x2F PUSH5 0x736F6C6343 STOP ADDMOD EQ STOP CALLER "},"methodIdentifiers":{"boxes(bytes32)":"0589c970","createBox(uint8,address,uint256)":"49f76998","deleteBox(bytes32)":"a46e717e","fulfillRandomWords(bytes32,uint256[],bytes32,address,bytes)":"cf611c45","getBox(bytes32)":"a55f0565","getBoxIdAt(uint256)":"c4018427","initialize(address)":"c4d66de8","oracle()":"7dc0d1d0","owner()":"8da5cb5b","pendingRequests(bytes32)":"2795ad20","renounceOwnership()":"715018a6","requestRandomWords(uint256,bytes32)":"ef31d20e","setTrustedOracle(address)":"b22bd298","totalBoxes()":"57e78adc","transferOwnership(address)":"f2fde38b"}},"storageLayout":{"storage":[{"astId":3664,"contract":"contracts/LootBox.sol:LootBox","label":"oracle","offset":0,"slot":"0","type":"t_address"},{"astId":3666,"contract":"contracts/LootBox.sol:LootBox","label":"randNumber","offset":0,"slot":"1","type":"t_uint256"},{"astId":3668,"contract":"contracts/LootBox.sol:LootBox","label":"nonce","offset":0,"slot":"2","type":"t_uint256"},{"astId":3693,"contract":"contracts/LootBox.sol:LootBox","label":"pendingRequests","offset":0,"slot":"3","type":"t_mapping(t_bytes32,t_bool)"},{"astId":3698,"contract":"contracts/LootBox.sol:LootBox","label":"boxes","offset":0,"slot":"4","type":"t_mapping(t_bytes32,t_struct(Box)3689_storage)"},{"astId":3701,"contract":"contracts/LootBox.sol:LootBox","label":"boxIds","offset":0,"slot":"5","type":"t_struct(Bytes32Set)3228_storage"}],"types":{"t_address":{"encoding":"inplace","label":"address","numberOfBytes":"20"},"t_array(t_bytes32)dyn_storage":{"base":"t_bytes32","encoding":"dynamic_array","label":"bytes32[]","numberOfBytes":"32"},"t_bool":{"encoding":"inplace","label":"bool","numberOfBytes":"1"},"t_bytes32":{"encoding":"inplace","label":"bytes32","numberOfBytes":"32"},"t_enum(BoxStatus)3674":{"encoding":"inplace","label":"enum LootBox.BoxStatus","numberOfBytes":"1"},"t_enum(BoxType)3671":{"encoding":"inplace","label":"enum LootBox.BoxType","numberOfBytes":"1"},"t_mapping(t_bytes32,t_bool)":{"encoding":"mapping","key":"t_bytes32","label":"mapping(bytes32 => bool)","numberOfBytes":"32","value":"t_bool"},"t_mapping(t_bytes32,t_struct(Box)3689_storage)":{"encoding":"mapping","key":"t_bytes32","label":"mapping(bytes32 => struct LootBox.Box)","numberOfBytes":"32","value":"t_struct(Box)3689_storage"},"t_mapping(t_bytes32,t_uint256)":{"encoding":"mapping","key":"t_bytes32","label":"mapping(bytes32 => uint256)","numberOfBytes":"32","value":"t_uint256"},"t_struct(Box)3689_storage":{"encoding":"inplace","label":"struct LootBox.Box","members":[{"astId":3676,"contract":"contracts/LootBox.sol:LootBox","label":"id","offset":0,"slot":"0","type":"t_bytes32"},{"astId":3679,"contract":"contracts/LootBox.sol:LootBox","label":"boxType","offset":0,"slot":"1","type":"t_enum(BoxType)3671"},{"astId":3682,"contract":"contracts/LootBox.sol:LootBox","label":"status","offset":1,"slot":"1","type":"t_enum(BoxStatus)3674"},{"astId":3684,"contract":"contracts/LootBox.sol:LootBox","label":"owner","offset":2,"slot":"1","type":"t_address"},{"astId":3686,"contract":"contracts/LootBox.sol:LootBox","label":"prizeToken","offset":0,"slot":"2","type":"t_address"},{"astId":3688,"contract":"contracts/LootBox.sol:LootBox","label":"prizeAmount","offset":0,"slot":"3","type":"t_uint256"}],"numberOfBytes":"128"},"t_struct(Bytes32Set)3228_storage":{"encoding":"inplace","label":"struct EnumerableSet.Bytes32Set","members":[{"astId":3227,"contract":"contracts/LootBox.sol:LootBox","label":"_inner","offset":0,"slot":"0","type":"t_struct(Set)3034_storage"}],"numberOfBytes":"64"},"t_struct(Set)3034_storage":{"encoding":"inplace","label":"struct EnumerableSet.Set","members":[{"astId":3029,"contract":"contracts/LootBox.sol:LootBox","label":"_values","offset":0,"slot":"0","type":"t_array(t_bytes32)dyn_storage"},{"astId":3033,"contract":"contracts/LootBox.sol:LootBox","label":"_indexes","offset":0,"slot":"1","type":"t_mapping(t_bytes32,t_uint256)"}],"numberOfBytes":"64"},"t_uint256":{"encoding":"inplace","label":"uint256","numberOfBytes":"32"}}}}}}