{"contracts/LootBox.sol":{"LootBox":{"abi":[{"inputs":[],"stateMutability":"nonpayable","type":"constructor"},{"inputs":[],"name":"InvalidInitialization","type":"error"},{"inputs":[],"name":"InvalidSignature","type":"error"},{"inputs":[],"name":"NotInitializing","type":"error"},{"inputs":[{"internalType":"address","name":"owner","type":"address"}],"name":"OwnableInvalidOwner","type":"error"},{"inputs":[{"internalType":"address","name":"account","type":"address"}],"name":"OwnableUnauthorizedAccount","type":"error"},{"inputs":[],"name":"ReentrancyGuardReentrantCall","type":"error"},{"inputs":[],"name":"RequestNotFound","type":"error"},{"inputs":[],"name":"Unauthorized","type":"error"},{"anonymous":false,"inputs":[{"indexed":true,"internalType":"bytes32","name":"boxId","type":"bytes32"},{"indexed":false,"internalType":"enum LootBox.BoxType","name":"boxType","type":"uint8"},{"indexed":false,"internalType":"enum LootBox.BoxStatus","name":"status","type":"uint8"},{"indexed":false,"internalType":"enum LootBox.BoxTier","name":"boxTier","type":"uint8"},{"indexed":true,"internalType":"address","name":"owner","type":"address"},{"indexed":false,"internalType":"address","name":"prizeToken","type":"address"},{"indexed":false,"internalType":"uint256","name":"prizeAmount","type":"uint256"}],"name":"BoxCreated","type":"event"},{"anonymous":false,"inputs":[{"indexed":true,"internalType":"bytes32","name":"boxId","type":"bytes32"}],"name":"BoxDeleted","type":"event"},{"anonymous":false,"inputs":[{"indexed":true,"internalType":"bytes32","name":"boxId","type":"bytes32"},{"indexed":true,"internalType":"address","name":"owner","type":"address"}],"name":"BoxOpened","type":"event"},{"anonymous":false,"inputs":[{"indexed":true,"internalType":"bytes32","name":"boxId","type":"bytes32"},{"indexed":false,"internalType":"enum LootBox.BoxType","name":"boxType","type":"uint8"},{"indexed":false,"internalType":"enum LootBox.BoxTier","name":"boxTier","type":"uint8"},{"indexed":false,"internalType":"address","name":"prizeToken","type":"address"},{"indexed":false,"internalType":"uint256","name":"prizeAmount","type":"uint256"}],"name":"BoxUpdated","type":"event"},{"anonymous":false,"inputs":[{"indexed":false,"internalType":"uint64","name":"version","type":"uint64"}],"name":"Initialized","type":"event"},{"anonymous":false,"inputs":[{"indexed":true,"internalType":"address","name":"previousOwner","type":"address"},{"indexed":true,"internalType":"address","name":"newOwner","type":"address"}],"name":"OwnershipTransferred","type":"event"},{"anonymous":false,"inputs":[{"indexed":true,"internalType":"bytes32","name":"requestId","type":"bytes32"},{"indexed":false,"internalType":"uint256[]","name":"randomWords","type":"uint256[]"},{"indexed":true,"internalType":"bytes32","name":"boxId","type":"bytes32"}],"name":"RandomWordsFulfilled","type":"event"},{"anonymous":false,"inputs":[{"indexed":true,"internalType":"bytes32","name":"requestId","type":"bytes32"},{"indexed":true,"internalType":"address","name":"requester","type":"address"},{"indexed":false,"internalType":"uint256","name":"numberOfWords","type":"uint256"},{"indexed":true,"internalType":"bytes32","name":"boxId","type":"bytes32"},{"indexed":false,"internalType":"uint256","name":"timestamp","type":"uint256"}],"name":"RandomWordsRequested","type":"event"},{"anonymous":false,"inputs":[{"indexed":true,"internalType":"bytes32","name":"boxId","type":"bytes32"},{"indexed":false,"internalType":"address","name":"prizeToken","type":"address"},{"indexed":false,"internalType":"uint256","name":"prizeAmount","type":"uint256"}],"name":"Refunded","type":"event"},{"anonymous":false,"inputs":[{"indexed":true,"internalType":"address","name":"oracle","type":"address"},{"indexed":false,"internalType":"bool","name":"enabled","type":"bool"}],"name":"UpdateOracle","type":"event"},{"anonymous":false,"inputs":[{"indexed":true,"internalType":"uint256","name":"newRate","type":"uint256"},{"indexed":true,"internalType":"uint256","name":"oldRate","type":"uint256"},{"indexed":false,"internalType":"enum LootBox.BoxType","name":"boxType","type":"uint8"}],"name":"UpdateWinRate","type":"event"},{"anonymous":false,"inputs":[{"indexed":true,"internalType":"bytes32","name":"boxId","type":"bytes32"},{"indexed":true,"internalType":"address","name":"loser","type":"address"}],"name":"UserLost","type":"event"},{"anonymous":false,"inputs":[{"indexed":true,"internalType":"bytes32","name":"boxId","type":"bytes32"},{"indexed":true,"internalType":"address","name":"winner","type":"address"},{"indexed":false,"internalType":"address","name":"prizeToken","type":"address"},{"indexed":false,"internalType":"uint256","name":"prizeAmount","type":"uint256"}],"name":"UserWon","type":"event"},{"inputs":[],"name":"SIGNATURE_EXPIRY","outputs":[{"internalType":"uint256","name":"","type":"uint256"}],"stateMutability":"view","type":"function"},{"inputs":[{"internalType":"bytes32","name":"","type":"bytes32"}],"name":"boxes","outputs":[{"internalType":"bytes32","name":"id","type":"bytes32"},{"internalType":"enum LootBox.BoxType","name":"boxType","type":"uint8"},{"internalType":"enum LootBox.BoxStatus","name":"status","type":"uint8"},{"internalType":"enum LootBox.BoxTier","name":"boxTier","type":"uint8"},{"internalType":"address","name":"owner","type":"address"},{"internalType":"address","name":"prizeToken","type":"address"},{"internalType":"uint256","name":"prizeAmount","type":"uint256"},{"internalType":"bool","name":"won","type":"bool"},{"internalType":"uint256","name":"payout","type":"uint256"}],"stateMutability":"view","type":"function"},{"inputs":[{"internalType":"bytes32","name":"boxId","type":"bytes32"}],"name":"claimPrize","outputs":[],"stateMutability":"nonpayable","type":"function"},{"inputs":[{"internalType":"enum LootBox.BoxType","name":"boxType","type":"uint8"},{"internalType":"enum LootBox.BoxTier","name":"boxTier","type":"uint8"},{"internalType":"address","name":"prizeToken","type":"address"},{"internalType":"uint256","name":"prizeAmount","type":"uint256"}],"name":"createBox","outputs":[],"stateMutability":"payable","type":"function"},{"inputs":[{"internalType":"bytes32","name":"boxId","type":"bytes32"}],"name":"deleteBox","outputs":[],"stateMutability":"nonpayable","type":"function"},{"inputs":[],"name":"freeBoxWinRate","outputs":[{"internalType":"uint256","name":"","type":"uint256"}],"stateMutability":"view","type":"function"},{"inputs":[{"internalType":"bytes32","name":"requestId","type":"bytes32"},{"internalType":"uint256[]","name":"_randomWords","type":"uint256[]"},{"internalType":"bytes32","name":"boxId","type":"bytes32"},{"internalType":"address","name":"requester","type":"address"},{"internalType":"uint256","name":"timestamp","type":"uint256"},{"internalType":"bytes","name":"signature","type":"bytes"}],"name":"fulfillRandomWords","outputs":[],"stateMutability":"nonpayable","type":"function"},{"inputs":[{"internalType":"bytes32","name":"boxId","type":"bytes32"}],"name":"getBox","outputs":[{"components":[{"internalType":"bytes32","name":"id","type":"bytes32"},{"internalType":"enum LootBox.BoxType","name":"boxType","type":"uint8"},{"internalType":"enum LootBox.BoxStatus","name":"status","type":"uint8"},{"internalType":"enum LootBox.BoxTier","name":"boxTier","type":"uint8"},{"internalType":"address","name":"owner","type":"address"},{"internalType":"address","name":"prizeToken","type":"address"},{"internalType":"uint256","name":"prizeAmount","type":"uint256"},{"internalType":"bool","name":"won","type":"bool"},{"internalType":"uint256","name":"payout","type":"uint256"}],"internalType":"struct LootBox.Box","name":"","type":"tuple"}],"stateMutability":"view","type":"function"},{"inputs":[{"internalType":"uint256","name":"index","type":"uint256"}],"name":"getBoxIdAt","outputs":[{"internalType":"bytes32","name":"","type":"bytes32"}],"stateMutability":"view","type":"function"},{"inputs":[],"name":"initialize","outputs":[],"stateMutability":"nonpayable","type":"function"},{"inputs":[{"internalType":"address","name":"","type":"address"}],"name":"oracles","outputs":[{"internalType":"bool","name":"","type":"bool"}],"stateMutability":"view","type":"function"},{"inputs":[],"name":"owner","outputs":[{"internalType":"address","name":"","type":"address"}],"stateMutability":"view","type":"function"},{"inputs":[],"name":"paidBoxWinRate","outputs":[{"internalType":"uint256","name":"","type":"uint256"}],"stateMutability":"view","type":"function"},{"inputs":[{"internalType":"bytes32","name":"","type":"bytes32"}],"name":"pendingRequests","outputs":[{"internalType":"bool","name":"","type":"bool"}],"stateMutability":"view","type":"function"},{"inputs":[{"internalType":"address","name":"token","type":"address"},{"internalType":"address","name":"to","type":"address"},{"internalType":"uint256","name":"amount","type":"uint256"}],"name":"recoverERC20","outputs":[],"stateMutability":"nonpayable","type":"function"},{"inputs":[{"internalType":"address","name":"to","type":"address"},{"internalType":"uint256","name":"amount","type":"uint256"}],"name":"recoverEth","outputs":[],"stateMutability":"nonpayable","type":"function"},{"inputs":[],"name":"renounceOwnership","outputs":[],"stateMutability":"nonpayable","type":"function"},{"inputs":[{"internalType":"uint256","name":"numberOfWords","type":"uint256"},{"internalType":"bytes32","name":"boxId","type":"bytes32"}],"name":"requestRandomWords","outputs":[{"internalType":"bytes32","name":"requestId","type":"bytes32"}],"stateMutability":"nonpayable","type":"function"},{"inputs":[{"internalType":"address","name":"oracle","type":"address"},{"internalType":"bool","name":"enabled","type":"bool"}],"name":"setOracle","outputs":[],"stateMutability":"nonpayable","type":"function"},{"inputs":[{"internalType":"uint256","name":"_newRate","type":"uint256"},{"internalType":"enum LootBox.BoxType","name":"boxType","type":"uint8"}],"name":"setWinRate","outputs":[],"stateMutability":"nonpayable","type":"function"},{"inputs":[],"name":"totalBoxes","outputs":[{"internalType":"uint256","name":"","type":"uint256"}],"stateMutability":"view","type":"function"},{"inputs":[{"internalType":"address","name":"newOwner","type":"address"}],"name":"transferOwnership","outputs":[],"stateMutability":"nonpayable","type":"function"},{"inputs":[{"internalType":"bytes32","name":"boxId","type":"bytes32"},{"internalType":"enum LootBox.BoxType","name":"boxType","type":"uint8"},{"internalType":"enum LootBox.BoxTier","name":"boxTier","type":"uint8"},{"internalType":"address","name":"prizeToken","type":"address"},{"internalType":"uint256","name":"prizeAmount","type":"uint256"}],"name":"updateBox","outputs":[],"stateMutability":"nonpayable","type":"function"},{"inputs":[{"internalType":"address","name":"","type":"address"}],"name":"userNonces","outputs":[{"internalType":"uint256","name":"","type":"uint256"}],"stateMutability":"view","type":"function"},{"stateMutability":"payable","type":"receive"}],"evm":{"bytecode":{"linkReferences":{},"object":"60806040523480156200001157600080fd5b506200001c62000022565b620000d6565b7ff0c57e16840df040f15088dc2f81fe391c3923bec73e23a9662efc9c229c6a00805468010000000000000000900460ff1615620000735760405163f92ee8a960e01b815260040160405180910390fd5b80546001600160401b0390811614620000d35780546001600160401b0319166001600160401b0390811782556040519081527fc7f505b2f371ae2175ee4913f4499e1f2633a7b5936321eed1cdaeb6115181d29060200160405180910390a15b50565b61380780620000e66000396000f3fe60806040526004361061011f5760003560e01c8063041368ed1461012b5780630589c9701461014d5780631171bda9146101e85780632795ad20146102085780632f7801f41461024857806357e78adc146102835780636536084314610298578063715018a6146102b85780638129fc1c146102cd57806384393706146102e25780638da5cb5b1461030257806391a85dde14610324578063a46e717e14610344578063a55f056514610364578063addd509914610391578063b0fc9440146103c1578063c0416606146103e1578063c4018427146103f7578063e1e1005414610417578063e30459bc1461042d578063e72c571714610443578063ebc5a82914610463578063ef31d20e14610476578063f2fde38b1461049657600080fd5b3661012657005b600080fd5b34801561013757600080fd5b5061014b610146366004612dc2565b6104b6565b005b34801561015957600080fd5b506101ca610168366004612e17565b6005602081905260009182526040909120805460018201546002830154600384015460048501549490950154929460ff808416956101008504821695620100008604831695630100000090046001600160a01b03908116951693929091169089565b6040516101df99989796959493929190612e77565b60405180910390f35b3480156101f457600080fd5b5061014b610203366004612ee4565b61077a565b34801561021457600080fd5b50610238610223366004612e17565b60046020526000908152604090205460ff1681565b60405190151581526020016101df565b34801561025457600080fd5b50610275610263366004612f20565b60096020526000908152604090205481565b6040519081526020016101df565b34801561028f57600080fd5b506102756108b9565b3480156102a457600080fd5b5061014b6102b3366004612f49565b6108ca565b3480156102c457600080fd5b5061014b610991565b3480156102d957600080fd5b5061014b6109a5565b3480156102ee57600080fd5b5061014b6102fd366004612fd7565b610aee565b34801561030e57600080fd5b50610317611166565b6040516101df91906130ea565b34801561033057600080fd5b5061014b61033f3660046130fe565b611181565b34801561035057600080fd5b5061014b61035f366004612e17565b6112eb565b34801561037057600080fd5b5061038461037f366004612e17565b611326565b6040516101df919061312a565b34801561039d57600080fd5b506102386103ac366004612f20565b60086020526000908152604090205460ff1681565b3480156103cd57600080fd5b5061014b6103dc366004612e17565b6114b2565b3480156103ed57600080fd5b5061027561012c81565b34801561040357600080fd5b50610275610412366004612e17565b611630565b34801561042357600080fd5b5061027560025481565b34801561043957600080fd5b5061027560035481565b34801561044f57600080fd5b5061014b61045e3660046131c2565b611691565b61014b6104713660046131ec565b611797565b34801561048257600080fd5b50610275610491366004613237565b611cae565b3480156104a257600080fd5b5061014b6104b1366004612f20565b611f46565b6104be611f81565b816001600160a01b038116156105b257803b63ffffffff166104fb5760405162461bcd60e51b81526004016104f290613259565b60405180910390fd5b6000816001600160a01b03163060405160240161051891906130ea565b60408051601f198184030181529181526020820180516001600160e01b03166370a0823160e01b1790525161054d91906132a5565b6000604051808303816000865af19150503d806000811461058a576040519150601f19603f3d011682016040523d82523d6000602084013e61058f565b606091505b50509050806105b05760405162461bcd60e51b81526004016104f2906132c1565b505b6105bd600687611fb3565b6105d95760405162461bcd60e51b81526004016104f2906132ee565b600082116105f95760405162461bcd60e51b81526004016104f290613318565b600085600181111561060d5761060d612e30565b148061062a5750600185600181111561062857610628612e30565b145b6106465760405162461bcd60e51b81526004016104f29061335e565b600084600281111561065a5761065a612e30565b14806106775750600184600281111561067557610675612e30565b145b806106935750600284600281111561069157610691612e30565b145b6106af5760405162461bcd60e51b81526004016104f290613388565b600086815260056020526040902060018082018054889260ff199091169083818111156106de576106de612e30565b021790555060018101805486919062ff000019166201000083600281111561070857610708612e30565b02179055506002810180546001600160a01b0319166001600160a01b0386161790556003810183905560405187907fc02b41847a14cdd8174ef635596ee9edf41c26174db1c1dc05c098129f4cd35d906107699089908990899089906133b2565b60405180910390a250505050505050565b610782611f81565b61078a611fc6565b6001600160a01b0382166107d25760405162461bcd60e51b815260206004820152600f60248201526e496e76616c6964206164647265737360881b60448201526064016104f2565b6040516370a0823160e01b81526000906001600160a01b038516906370a08231906108019030906004016130ea565b602060405180830381865afa15801561081e573d6000803e3d6000fd5b505050506040513d601f19601f8201168201806040525081019061084291906133ea565b9050600081116108805760405162461bcd60e51b81526020600482015260096024820152684e6f20746f6b656e7360b81b60448201526064016104f2565b808211156108a05760405162461bcd60e51b81526004016104f290613403565b6108ab848484611ffc565b506108b4612052565b505050565b60006108c56006612063565b905090565b6108d2611f81565b6001600160a01b0382166109215760405162461bcd60e51b8152602060048201526016602482015275496e76616c6964206f7261636c65206164647265737360501b60448201526064016104f2565b816001600160a01b03167fa035e0992cbeda3214dc4bcec01fe216ab2be4a7cf8c826e4fdc886b853846ac8260405161095e911515815260200190565b60405180910390a26001600160a01b03919091166000908152600860205260409020805460ff1916911515919091179055565b610999611f81565b6109a3600061206d565b565b60006109af6120c9565b805490915060ff600160401b82041615906001600160401b03166000811580156109d65750825b90506000826001600160401b031660011480156109f25750303b155b905081158015610a00575080155b15610a1e5760405163f92ee8a960e01b815260040160405180910390fd5b84546001600160401b03191660011785558315610a4757845460ff60401b1916600160401b1785555b610a50336120f2565b610a58612103565b6040516001600160601b03193360601b16602082015242603482015260540160408051601f1981840301815291905280516020909101206000908155601e60025560326003556001558315610ae757845460ff60401b19168555604051600181527fc7f505b2f371ae2175ee4913f4499e1f2633a7b5936321eed1cdaeb6115181d29060200160405180910390a15b5050505050565b3360009081526008602052604090205460ff16610b1d576040516282b42960e81b815260040160405180910390fd5b610b25611fc6565b60008781526004602052604090205460ff16610b5457604051632589d98f60e11b815260040160405180910390fd5b610b648787878733888888612113565b610b8157604051638baa579f60e01b815260040160405180910390fd5b610b8c600686611fb3565b610ba85760405162461bcd60e51b81526004016104f2906132ee565b600085815260056020526040902060018082810154610100900460ff1690811115610bd557610bd5612e30565b14610c135760405162461bcd60e51b815260206004820152600e60248201526d105b1c9958591e481bdc195b995960921b60448201526064016104f2565b6001810154630100000090046001600160a01b031615610c655760405162461bcd60e51b815260206004820152600d60248201526c2137bc103430b99037bbb732b960991b60448201526064016104f2565b6001810180546301000000600160b81b03191663010000006001600160a01b0388160217905560008060018084015460ff1690811115610ca757610ca7612e30565b03610cde57600254606489600081518110610cc457610cc4613433565b6020026020010151610cd6919061345f565b109050610d0c565b600354606489600081518110610cf657610cf6613433565b6020026020010151610d08919061345f565b1090505b610d576040518060400160405280600f81526020016e02930b73237b690373ab6b132b91d1608d1b81525089600081518110610d4a57610d4a613433565b60200260200101516122ca565b610d846040518060400160405280600b81526020016a02932b8bab2b9ba32b91d160ad1b8152508761230f565b60408051808201909152600a81526902137bc102a3cb8329d160b51b6020820152600180840154610dca929160ff90911690811115610dc557610dc5612e30565b6122ca565b610dfe6040518060400160405280600e81526020016d0283934bd329020b6b7bab73a1d160951b81525083600301546122ca565b610e256040518060400160405280600581526020016402bb7b71d160dd1b81525082612354565b60408051808201909152600d81526c0283934bd32902a37b5b2b71d1609d1b60208201526002830154610e6191906001600160a01b031661230f565b801561106a5760006001808085015460ff1690811115610e8357610e83612e30565b14610e8f576064610ec1565b606489600081518110610ea457610ea4613433565b6020026020010151610eb6919061345f565b610ec1906001613489565b905060006001808086015460ff1690811115610edf57610edf612e30565b14610eee578360030154610f0a565b6064828560030154610f00919061349c565b610f0a91906134b3565b9050610f376040518060400160405280600981526020016802832b931b2b73a1d160bd1b815250836122ca565b6000818560030154610f4991906134c7565b9050610fa16040518060400160405280600881526020016702830bcb7baba1d160c51b81525083604051806040016040528060128152602001710102932b6b0b4b734b73390283934bd329d160751b81525084612399565b60048501805460ff19166001179055600585018290558015611015576002850154610fdd906001600160a01b0316610fd7611166565b836123e8565b60028501546040518b916000805160206137b28339815191529161100c916001600160a01b03169085906134da565b60405180910390a25b60028501546040516001600160a01b03808c16928d927f6ca0da92c4797a558f7e777695e71010ca0bbf7b7007b7e0402c5921a25fb4d89261105a92169087906134da565b60405180910390a3505050611101565b600282015461108e906001600160a01b0316611084611166565b84600301546123e8565b6040516001600160a01b0387169088907f059c544c2595303434d37bd8ee8af000818be6066beb8c37844d43f7ee80a44490600090a36002820154600383015460405189926000805160206137b2833981519152926110f8926001600160a01b03909216916134da565b60405180910390a25b60008981526004602052604090819020805460ff191690555187908a907fc9245471e1eda01df96ac978bd431512e8e4f71c9541c7d946973b851391d8ad9061114b908c906134f3565b60405180910390a3505061115d612052565b50505050505050565b60008061117161240b565b546001600160a01b031692915050565b611189611f81565b600081600181111561119d5761119d612e30565b14806111ba575060018160018111156111b8576111b8612e30565b145b6111d65760405162461bcd60e51b81526004016104f29061335e565b600182101580156111e8575060648211155b61123f5760405162461bcd60e51b815260206004820152602260248201527f57696e2072617465206d757374206265206265747765656e203120616e642031604482015261030360f41b60648201526084016104f2565b600081600181111561125357611253612e30565b036112875760025482600080516020613792833981519152836040516112799190613537565b60405180910390a350600255565b600181600181111561129b5761129b612e30565b036112cf5760035482600080516020613792833981519152836040516112c19190613537565b60405180910390a350600355565b60405162461bcd60e51b81526004016104f29061335e565b5050565b6112f3611f81565b6112fe600682611fb3565b61131a5760405162461bcd60e51b81526004016104f2906132ee565b6113238161242f565b50565b611376604080516101208101909152600080825260208201908152602001600081526020016000815260006020820181905260408201819052606082018190526080820181905260a09091015290565b611381600683611fb3565b61139d5760405162461bcd60e51b81526004016104f2906132ee565b6000828152600560209081526040918290208251610120810190935280548352600180820154919284019160ff16908111156113db576113db612e30565b60018111156113ec576113ec612e30565b81526020016001820160019054906101000a900460ff16600181111561141457611414612e30565b600181111561142557611425612e30565b81526020016001820160029054906101000a900460ff16600281111561144d5761144d612e30565b600281111561145e5761145e612e30565b815260018201546001600160a01b03630100000090910481166020830152600283015416604082015260038201546060820152600482015460ff161515608082015260059091015460a09091015292915050565b6114ba611fc6565b6114c5600682611fb3565b6114e15760405162461bcd60e51b81526004016104f2906132ee565b60008181526005602052604090206001810154630100000090046001600160a01b031633146115425760405162461bcd60e51b815260206004820152600d60248201526c2737ba103a34329037bbb732b960991b60448201526064016104f2565b60018082810154610100900460ff169081111561156157611561612e30565b1461157e5760405162461bcd60e51b81526004016104f29061354a565b600481015460ff166115ce5760405162461bcd60e51b81526020600482015260196024820152780eae6cae440c8d2c840dcdee840eed2dc40e8d0d2e640c4def603b1b60448201526064016104f2565b60018101805461ff0019169055600281015460058201546115fa916001600160a01b03169033906123e8565b604051339083907f73c4d210015330a38433845484805da09d022359c35fb7fc8bd04381a5a9200390600090a350611323612052565b600061163c6006612063565b82106116805760405162461bcd60e51b8152602060048201526013602482015272496e646578206f7574206f6620626f756e647360681b60448201526064016104f2565b61168b6006836124b5565b92915050565b611699611f81565b6116a1611fc6565b47806116d85760405162461bcd60e51b815260206004820152600660248201526509cde408aa8960d31b60448201526064016104f2565b808211156116f85760405162461bcd60e51b81526004016104f290613403565b6000836001600160a01b03168360405160006040518083038185875af1925050503d8060008114611745576040519150601f19603f3d011682016040523d82523d6000602084013e61174a565b606091505b505090508061178d5760405162461bcd60e51b815260206004820152600f60248201526e151c985b9cd9995c8819985a5b1959608a1b60448201526064016104f2565b50506112e7612052565b61179f611f81565b816001600160a01b0381161561188a57803b63ffffffff166117d35760405162461bcd60e51b81526004016104f290613259565b6000816001600160a01b0316306040516024016117f091906130ea565b60408051601f198184030181529181526020820180516001600160e01b03166370a0823160e01b1790525161182591906132a5565b6000604051808303816000865af19150503d8060008114611862576040519150601f19603f3d011682016040523d82523d6000602084013e611867565b606091505b50509050806118885760405162461bcd60e51b81526004016104f2906132c1565b505b600082116118aa5760405162461bcd60e51b81526004016104f290613318565b60005b6118b56124c1565b90506118c2600682611fb3565b6118ad5760008660018111156118da576118da612e30565b14806118f7575060018660018111156118f5576118f5612e30565b145b6119135760405162461bcd60e51b81526004016104f29061335e565b600085600281111561192757611927612e30565b14806119445750600185600281111561194257611942612e30565b145b806119605750600285600281111561195e5761195e612e30565b145b61197c5760405162461bcd60e51b81526004016104f290613388565b6000831161199c5760405162461bcd60e51b81526004016104f290613318565b6001600160a01b03841615611a6257604051636eb1769f60e11b815233600482015230602482015283906001600160a01b0386169063dd62ed3e90604401602060405180830381865afa1580156119f7573d6000803e3d6000fd5b505050506040513d601f19601f82011682018060405250810190611a1b91906133ea565b1015611a625760405162461bcd60e51b8152602060048201526016602482015275496e73756666696369656e7420616c6c6f77616e636560501b60448201526064016104f2565b604051806101200160405280828152602001876001811115611a8657611a86612e30565b815260200160018152602001866002811115611aa457611aa4612e30565b8152600060208083018290526001600160a01b038816604080850191909152606084018890526080840183905260a090930182905284825260058152919020825181559082015160018281018054909160ff19909116908381811115611b0c57611b0c612e30565b021790555060408201518160010160016101000a81548160ff02191690836001811115611b3b57611b3b612e30565b0217905550606082015160018201805462ff0000191662010000836002811115611b6757611b67612e30565b021790555060808201516001820180546301000000600160b81b03191663010000006001600160a01b039384160217905560a08301516002830180546001600160a01b0319169190921617905560c0820151600382015560e082015160048201805460ff191691151591909117905561010090910151600590910155611bee600682612568565b506001600160a01b038416611c4e57823414611c495760405162461bcd60e51b815260206004820152601a602482015279125b98dbdc9c9958dd08195d1a195c881d985b1d59481cd95b9d60321b60448201526064016104f2565b611c5a565b611c5a84333086612574565b60006001600160a01b0316817fb3b535e190efdd2da85c3b882e6c17533a6ffcbeb2ac4b3b42013e095e11d8bc886001898989604051611c9e959493929190613576565b60405180910390a3505050505050565b6000611cbb600683611fb3565b611cd75760405162461bcd60e51b81526004016104f2906132ee565b60016000838152600560205260409020600190810154610100900460ff1690811115611d0557611d05612e30565b14611d225760405162461bcd60e51b81526004016104f29061354a565b600082815260056020526040902060010154630100000090046001600160a01b031615611d895760405162461bcd60e51b81526020600482015260156024820152742137bc1030b63932b0b23c903430b99037bbb732b960591b60448201526064016104f2565b82600114611dd15760405162461bcd60e51b815260206004820152601560248201527413db9b1e481bdb99481ddbdc9908185b1b1bddd959605a1b60448201526064016104f2565b3342600054604051602001611de8939291906135be565b60408051601f19818403018152919052805160209091012060008181556001805442924492339230928a928a9291611e1f836135e3565b9091555060408051602081019990995288019690965260608088019590955292841b6001600160601b031990811660808801529190931b16609485015260a884019190915260c883015260e88201526101080160408051601f1981840301815291815281516020928301206000818152600490935291205490915060ff1615611ede5760405162461bcd60e51b8152602060048201526011602482015270526571756573742049442065786973747360781b60448201526064016104f2565b60008181526004602052604090819020805460ff19166001179055518290339083907f82d16af03b973f65f2891a082a63207d4a1d14bdc8e3cb5995b0b5aa05a06bf490611f389088904290918252602082015260400190565b60405180910390a492915050565b611f4e611f81565b6001600160a01b038116611f78576000604051631e4fbdf760e01b81526004016104f291906130ea565b6113238161206d565b33611f8a611166565b6001600160a01b0316146109a3573360405163118cdaa760e01b81526004016104f291906130ea565b6000611fbf83836125ac565b9392505050565b6000611fd06125c4565b805490915060011901611ff657604051633ee5aeb560e01b815260040160405180910390fd5b60029055565b6108b48363a9059cbb60e01b848460405160240161201b9291906134da565b60408051601f198184030181529190526020810180516001600160e01b03166001600160e01b0319909316929092179091526125e8565b600061205c6125c4565b6001905550565b600061168b825490565b600061207761240b565b80546001600160a01b038481166001600160a01b031983168117845560405193945091169182907f8be0079c531659141344cd1fd0a4f28419497f9722a3daafe3b4186f6b6457e090600090a3505050565b6000807ff0c57e16840df040f15088dc2f81fe391c3923bec73e23a9662efc9c229c6a0061168b565b6120fa6126bd565b611323816126e2565b61210b6126bd565b6109a36126ea565b6001600160a01b03851660009081526009602052604081205461213861012c86613489565b42111561217b5760405162461bcd60e51b815260206004820152601160248201527014da59db985d1d5c9948195e1c1a5c9959607a1b60448201526064016104f2565b428511156121bf5760405162461bcd60e51b81526020600482015260116024820152700496e76616c69642074696d657374616d7607c1b60448201526064016104f2565b60008a8a8a8a8a868b306040516020016121e09897969594939291906135fc565b6040516020818303038152906040528051906020012090506000612230827b0ca2ba3432b932bab69029b4b3b732b21026b2b9b9b0b3b29d05199960211b6000908152601c91909152603c902090565b905061223d836001613489565b600960008b6001600160a01b03166001600160a01b0316815260200190815260200160002081905550876001600160a01b03166122b08288888080601f0160208091040260200160405190810160405280939291908181526020018383808284376000920191909152506126f292505050565b6001600160a01b0316149c9b505050505050505050505050565b6112e782826040516024016122e092919061369e565b60408051601f198184030181529190526020810180516001600160e01b0316632d839cb360e21b179052612716565b6112e782826040516024016123259291906136c0565b60408051601f198184030181529190526020810180516001600160e01b031663319af33360e01b179052612716565b6112e7828260405160240161236a9291906136ea565b60408051601f198184030181529190526020810180516001600160e01b031663c3b5563560e01b179052612716565b6123e2848484846040516024016123b3949392919061370e565b60408051601f198184030181529190526020810180516001600160e01b031663c67ea9d160e01b179052612716565b50505050565b6001600160a01b038316612400576108b4828261271f565b6108b48383836127fb565b7f9016d09d72d40fdae2fd8ceac6b6234c7706214fd39c1cd1e609a0528c19930090565b600081815260056020819052604082208281556001810180546001600160b81b03191690556002810180546001600160a01b03191690556003810183905560048101805460ff191690550155612486600682612806565b5060405181907f606ce84a58beebdd8abdd4bb24672fc015a5eb5a7be08a9d2f4023a920c8e7dd90600090a250565b6000611fbf8383612812565b600033426000546040516020016124da939291906135be565b60408051601f1981840301815291905280516020909101206000556001805461250291613489565b60018190556000546040805142602082015244918101919091526001600160601b031933606090811b82168184015230901b166074820152608881019190915260a881019190915260c80160405160208183030381529060405280519060200120905090565b6000611fbf838361283c565b6040516001600160a01b03808516602483015283166044820152606481018290526123e29085906323b872dd60e01b9060840161201b565b60009081526001919091016020526040902054151590565b7f9b779b17422d0df92223018b32b4d1fa46e071723d6817e2486d003becc55f0090565b600061263d826040518060400160405280602081526020017f5361666545524332303a206c6f772d6c6576656c2063616c6c206661696c6564815250856001600160a01b03166128869092919063ffffffff16565b905080516000148061265e57508080602001905181019061265e919061374b565b6108b45760405162461bcd60e51b815260206004820152602a60248201527f5361666545524332303a204552433230206f7065726174696f6e20646964206e6044820152691bdd081cdd58d8d9595960b21b60648201526084016104f2565b6126c561289d565b6109a357604051631afcd79f60e31b815260040160405180910390fd5b611f4e6126bd565b6120526126bd565b600080600061270185856128b7565b9150915061270e816128fc565b509392505050565b61132381612a41565b804710156127625760405162461bcd60e51b815260206004820152601060248201526f092dce6eaccccd2c6d2cadce8408aa8960831b60448201526064016104f2565b6000826001600160a01b03168260405160006040518083038185875af1925050503d80600081146127af576040519150601f19603f3d011682016040523d82523d6000602084013e6127b4565b606091505b50509050806108b45760405162461bcd60e51b8152602060048201526013602482015272115512081d1c985b9cd9995c8819985a5b1959606a1b60448201526064016104f2565b6108b4838383611ffc565b6000611fbf8383612a62565b600082600001828154811061282957612829613433565b9060005260206000200154905092915050565b600061284883836125ac565b61287e5750815460018181018455600084815260208082209093018490558454848252828601909352604090209190915561168b565b50600061168b565b60606128958484600085612b55565b949350505050565b60006128a76120c9565b54600160401b900460ff16919050565b60008082516041036128ed5760208301516040840151606085015160001a6128e187828585612c30565b945094505050506128f5565b506000905060025b9250929050565b600081600481111561291057612910612e30565b036129185750565b600181600481111561292c5761292c612e30565b036129745760405162461bcd60e51b815260206004820152601860248201527745434453413a20696e76616c6964207369676e617475726560401b60448201526064016104f2565b600281600481111561298857612988612e30565b036129d55760405162461bcd60e51b815260206004820152601f60248201527f45434453413a20696e76616c6964207369676e6174757265206c656e6774680060448201526064016104f2565b60038160048111156129e9576129e9612e30565b036113235760405162461bcd60e51b815260206004820152602260248201527f45434453413a20696e76616c6964207369676e6174757265202773272076616c604482015261756560f01b60648201526084016104f2565b60006a636f6e736f6c652e6c6f679050600080835160208501845afa505050565b60008181526001830160205260408120548015612b4b576000612a866001836134c7565b8554909150600090612a9a906001906134c7565b9050818114612aff576000866000018281548110612aba57612aba613433565b9060005260206000200154905080876000018481548110612add57612add613433565b6000918252602080832090910192909255918252600188019052604090208390555b8554869080612b1057612b10613768565b60019003818190600052602060002001600090559055856001016000868152602001908152602001600020600090556001935050505061168b565b600091505061168b565b606082471015612bb65760405162461bcd60e51b815260206004820152602660248201527f416464726573733a20696e73756666696369656e742062616c616e636520666f6044820152651c8818d85b1b60d21b60648201526084016104f2565b600080866001600160a01b03168587604051612bd291906132a5565b60006040518083038185875af1925050503d8060008114612c0f576040519150601f19603f3d011682016040523d82523d6000602084013e612c14565b606091505b5091509150612c2587838387612cea565b979650505050505050565b6000806fa2a8918ca85bafe22016d0b997e4df60600160ff1b03831115612c5d5750600090506003612ce1565b6040805160008082526020820180845289905260ff881692820192909252606081018690526080810185905260019060a0016020604051602081039080840390855afa158015612cb1573d6000803e3d6000fd5b5050604051601f1901519150506001600160a01b038116612cda57600060019250925050612ce1565b9150600090505b94509492505050565b60608315612d59578251600003612d52576001600160a01b0385163b612d525760405162461bcd60e51b815260206004820152601d60248201527f416464726573733a2063616c6c20746f206e6f6e2d636f6e747261637400000060448201526064016104f2565b5081612895565b6128958383815115612d6e5781518083602001fd5b8060405162461bcd60e51b81526004016104f2919061377e565b803560028110612d9757600080fd5b919050565b803560038110612d9757600080fd5b80356001600160a01b0381168114612d9757600080fd5b600080600080600060a08688031215612dda57600080fd5b85359450612dea60208701612d88565b9350612df860408701612d9c565b9250612e0660608701612dab565b949793965091946080013592915050565b600060208284031215612e2957600080fd5b5035919050565b634e487b7160e01b600052602160045260246000fd5b6002811061132357611323612e30565b60038110612e6657612e66612e30565b9052565b6001600160a01b03169052565b8981526101208101612e888a612e46565b896020830152612e9789612e46565b886040830152612eaa6060830189612e56565b6001600160a01b0396871660808301529490951660a086015260c0850192909252151560e084015261010090920191909152949350505050565b600080600060608486031215612ef957600080fd5b612f0284612dab565b9250612f1060208501612dab565b9150604084013590509250925092565b600060208284031215612f3257600080fd5b611fbf82612dab565b801515811461132357600080fd5b60008060408385031215612f5c57600080fd5b612f6583612dab565b91506020830135612f7581612f3b565b809150509250929050565b634e487b7160e01b600052604160045260246000fd5b60008083601f840112612fa857600080fd5b5081356001600160401b03811115612fbf57600080fd5b6020830191508360208285010111156128f557600080fd5b600080600080600080600060c0888a031215612ff257600080fd5b873596506020808901356001600160401b038082111561301157600080fd5b818b0191508b601f83011261302557600080fd5b81358181111561303757613037612f80565b8060051b604051601f19603f8301168101818110858211171561305c5761305c612f80565b6040529182528381018501918581018f84111561307857600080fd5b948601945b83861015613094578535815294860194860161307d565b509a50505060408b013597506130ac60608c01612dab565b965060808b0135955060a08b01359250808311156130c957600080fd5b50506130d78a828b01612f96565b989b979a50959850939692959293505050565b6001600160a01b0391909116815260200190565b6000806040838503121561311157600080fd5b8235915061312160208401612d88565b90509250929050565b81518152602082015161012082019061314281612e46565b6020830152604083015161315581612e46565b80604084015250606083015161316e6060840182612e56565b5060808301516131816080840182612e6a565b5060a083015161319460a0840182612e6a565b5060c083015160c083015260e08301516131b260e084018215159052565b5061010092830151919092015290565b600080604083850312156131d557600080fd5b6131de83612dab565b946020939093013593505050565b6000806000806080858703121561320257600080fd5b61320b85612d88565b935061321960208601612d9c565b925061322760408601612dab565b9396929550929360600135925050565b6000806040838503121561324a57600080fd5b50508035926020909101359150565b6020808252600e908201526d139bdd08184818dbdb9d1c9858dd60921b604082015260600190565b60005b8381101561329c578181015183820152602001613284565b50506000910152565b600082516132b7818460208701613281565b9190910192915050565b602080825260139082015272139bdd08115490cc8c0818dbdb5c1b1a585b9d606a1b604082015260600190565b60208082526010908201526f109bde081251081b9bdd08199bdd5b9960821b604082015260600190565b60208082526026908201527f5072697a6520616d6f756e74206d7573742062652067726561746572207468616040820152656e207a65726f60d01b606082015260800190565b60208082526010908201526f496e76616c696420626f78207479706560801b604082015260600190565b60208082526010908201526f24b73b30b634b2103137bc103a34b2b960811b604082015260600190565b608081016133bf86612e46565b8582526133cf6020830186612e56565b6001600160a01b039390931660408201526060015292915050565b6000602082840312156133fc57600080fd5b5051919050565b602080825260169082015275416d6f756e7420657863656564732062616c616e636560501b604082015260600190565b634e487b7160e01b600052603260045260246000fd5b634e487b7160e01b600052601260045260246000fd5b60008261346e5761346e613449565b500690565b634e487b7160e01b600052601160045260246000fd5b8082018082111561168b5761168b613473565b808202811582820484141761168b5761168b613473565b6000826134c2576134c2613449565b500490565b8181038181111561168b5761168b613473565b6001600160a01b03929092168252602082015260400190565b6020808252825182820181905260009190848201906040850190845b8181101561352b5783518352928401929184019160010161350f565b50909695505050505050565b6020810161354483612e46565b91905290565b602080825260129082015271109bde08185b1c9958591e481bdc195b995960721b604082015260600190565b60a0810161358387612e46565b86825261358f86612e46565b8560208301526135a26040830186612e56565b6001600160a01b03939093166060820152608001529392505050565b60609390931b6001600160601b03191683526014830191909152603482015260540190565b6000600182016135f5576135f5613473565b5060010190565b888152600060208083018a51828c0160005b8281101561362a5781518452928401929084019060010161360e565b5050509889526001600160601b0319606098891b8116918a019190915295871b8616603489015250506048860192909252606885015290911b166088820152609c0192915050565b6000815180845261368a816020860160208601613281565b601f01601f19169290920160200192915050565b6040815260006136b16040830185613672565b90508260208301529392505050565b6040815260006136d36040830185613672565b905060018060a01b03831660208301529392505050565b6040815260006136fd6040830185613672565b905082151560208301529392505050565b6080815260006137216080830187613672565b85602084015282810360408401526137398186613672565b91505082606083015295945050505050565b60006020828403121561375d57600080fd5b8151611fbf81612f3b565b634e487b7160e01b600052603160045260246000fd5b602081526000611fbf602083018461367256fedb34b94cdf595409619536f514e415c5db325a2e10bd6b01162168a8a2e2e889f552ca82e113ac3c539c3d617f29fcd19c172a0c75dad017555c9e109f7fe183a2646970667358221220336f8548cff950ab5095315c7f338759837c9a710cd2d889c0190af3ce34829c64736f6c63430008140033","opcodes":"PUSH1 0x80 PUSH1 0x40 MSTORE CALLVALUE DUP1 ISZERO PUSH3 0x11 JUMPI PUSH1 0x0 DUP1 REVERT JUMPDEST POP PUSH3 0x1C PUSH3 0x22 JUMP JUMPDEST PUSH3 0xD6 JUMP JUMPDEST PUSH32 0xF0C57E16840DF040F15088DC2F81FE391C3923BEC73E23A9662EFC9C229C6A00 DUP1 SLOAD PUSH9 0x10000000000000000 SWAP1 DIV PUSH1 0xFF AND ISZERO PUSH3 0x73 JUMPI PUSH1 0x40 MLOAD PUSH4 0xF92EE8A9 PUSH1 0xE0 SHL DUP2 MSTORE PUSH1 0x4 ADD PUSH1 0x40 MLOAD DUP1 SWAP2 SUB SWAP1 REVERT JUMPDEST DUP1 SLOAD PUSH1 0x1 PUSH1 0x1 PUSH1 0x40 SHL SUB SWAP1 DUP2 AND EQ PUSH3 0xD3 JUMPI DUP1 SLOAD PUSH1 0x1 PUSH1 0x1 PUSH1 0x40 SHL SUB NOT AND PUSH1 0x1 PUSH1 0x1 PUSH1 0x40 SHL SUB SWAP1 DUP2 OR DUP3 SSTORE PUSH1 0x40 MLOAD SWAP1 DUP2 MSTORE PUSH32 0xC7F505B2F371AE2175EE4913F4499E1F2633A7B5936321EED1CDAEB6115181D2 SWAP1 PUSH1 0x20 ADD PUSH1 0x40 MLOAD DUP1 SWAP2 SUB SWAP1 LOG1 JUMPDEST POP JUMP JUMPDEST PUSH2 0x3807 DUP1 PUSH3 0xE6 PUSH1 0x0 CODECOPY PUSH1 0x0 RETURN INVALID PUSH1 0x80 PUSH1 0x40 MSTORE PUSH1 0x4 CALLDATASIZE LT PUSH2 0x11F JUMPI PUSH1 0x0 CALLDATALOAD PUSH1 0xE0 SHR DUP1 PUSH4 0x41368ED EQ PUSH2 0x12B JUMPI DUP1 PUSH4 0x589C970 EQ PUSH2 0x14D JUMPI DUP1 PUSH4 0x1171BDA9 EQ PUSH2 0x1E8 JUMPI DUP1 PUSH4 0x2795AD20 EQ PUSH2 0x208 JUMPI DUP1 PUSH4 0x2F7801F4 EQ PUSH2 0x248 JUMPI DUP1 PUSH4 0x57E78ADC EQ PUSH2 0x283 JUMPI DUP1 PUSH4 0x65360843 EQ PUSH2 0x298 JUMPI DUP1 PUSH4 0x715018A6 EQ PUSH2 0x2B8 JUMPI DUP1 PUSH4 0x8129FC1C EQ PUSH2 0x2CD JUMPI DUP1 PUSH4 0x84393706 EQ PUSH2 0x2E2 JUMPI DUP1 PUSH4 0x8DA5CB5B EQ PUSH2 0x302 JUMPI DUP1 PUSH4 0x91A85DDE EQ PUSH2 0x324 JUMPI DUP1 PUSH4 0xA46E717E EQ PUSH2 0x344 JUMPI DUP1 PUSH4 0xA55F0565 EQ PUSH2 0x364 JUMPI DUP1 PUSH4 0xADDD5099 EQ PUSH2 0x391 JUMPI DUP1 PUSH4 0xB0FC9440 EQ PUSH2 0x3C1 JUMPI DUP1 PUSH4 0xC0416606 EQ PUSH2 0x3E1 JUMPI DUP1 PUSH4 0xC4018427 EQ PUSH2 0x3F7 JUMPI DUP1 PUSH4 0xE1E10054 EQ PUSH2 0x417 JUMPI DUP1 PUSH4 0xE30459BC EQ PUSH2 0x42D JUMPI DUP1 PUSH4 0xE72C5717 EQ PUSH2 0x443 JUMPI DUP1 PUSH4 0xEBC5A829 EQ PUSH2 0x463 JUMPI DUP1 PUSH4 0xEF31D20E EQ PUSH2 0x476 JUMPI DUP1 PUSH4 0xF2FDE38B EQ PUSH2 0x496 JUMPI PUSH1 0x0 DUP1 REVERT JUMPDEST CALLDATASIZE PUSH2 0x126 JUMPI STOP JUMPDEST PUSH1 0x0 DUP1 REVERT JUMPDEST CALLVALUE DUP1 ISZERO PUSH2 0x137 JUMPI PUSH1 0x0 DUP1 REVERT JUMPDEST POP PUSH2 0x14B PUSH2 0x146 CALLDATASIZE PUSH1 0x4 PUSH2 0x2DC2 JUMP JUMPDEST PUSH2 0x4B6 JUMP JUMPDEST STOP JUMPDEST CALLVALUE DUP1 ISZERO PUSH2 0x159 JUMPI PUSH1 0x0 DUP1 REVERT JUMPDEST POP PUSH2 0x1CA PUSH2 0x168 CALLDATASIZE PUSH1 0x4 PUSH2 0x2E17 JUMP JUMPDEST PUSH1 0x5 PUSH1 0x20 DUP2 SWAP1 MSTORE PUSH1 0x0 SWAP2 DUP3 MSTORE PUSH1 0x40 SWAP1 SWAP2 KECCAK256 DUP1 SLOAD PUSH1 0x1 DUP3 ADD SLOAD PUSH1 0x2 DUP4 ADD SLOAD PUSH1 0x3 DUP5 ADD SLOAD PUSH1 0x4 DUP6 ADD SLOAD SWAP5 SWAP1 SWAP6 ADD SLOAD SWAP3 SWAP5 PUSH1 0xFF DUP1 DUP5 AND SWAP6 PUSH2 0x100 DUP6 DIV DUP3 AND SWAP6 PUSH3 0x10000 DUP7 DIV DUP4 AND SWAP6 PUSH4 0x1000000 SWAP1 DIV PUSH1 0x1 PUSH1 0x1 PUSH1 0xA0 SHL SUB SWAP1 DUP2 AND SWAP6 AND SWAP4 SWAP3 SWAP1 SWAP2 AND SWAP1 DUP10 JUMP JUMPDEST PUSH1 0x40 MLOAD PUSH2 0x1DF SWAP10 SWAP9 SWAP8 SWAP7 SWAP6 SWAP5 SWAP4 SWAP3 SWAP2 SWAP1 PUSH2 0x2E77 JUMP JUMPDEST PUSH1 0x40 MLOAD DUP1 SWAP2 SUB SWAP1 RETURN JUMPDEST CALLVALUE DUP1 ISZERO PUSH2 0x1F4 JUMPI PUSH1 0x0 DUP1 REVERT JUMPDEST POP PUSH2 0x14B PUSH2 0x203 CALLDATASIZE PUSH1 0x4 PUSH2 0x2EE4 JUMP JUMPDEST PUSH2 0x77A JUMP JUMPDEST CALLVALUE DUP1 ISZERO PUSH2 0x214 JUMPI PUSH1 0x0 DUP1 REVERT JUMPDEST POP PUSH2 0x238 PUSH2 0x223 CALLDATASIZE PUSH1 0x4 PUSH2 0x2E17 JUMP JUMPDEST PUSH1 0x4 PUSH1 0x20 MSTORE PUSH1 0x0 SWAP1 DUP2 MSTORE PUSH1 0x40 SWAP1 KECCAK256 SLOAD PUSH1 0xFF AND DUP2 JUMP JUMPDEST PUSH1 0x40 MLOAD SWAP1 ISZERO ISZERO DUP2 MSTORE PUSH1 0x20 ADD PUSH2 0x1DF JUMP JUMPDEST CALLVALUE DUP1 ISZERO PUSH2 0x254 JUMPI PUSH1 0x0 DUP1 REVERT JUMPDEST POP PUSH2 0x275 PUSH2 0x263 CALLDATASIZE PUSH1 0x4 PUSH2 0x2F20 JUMP JUMPDEST PUSH1 0x9 PUSH1 0x20 MSTORE PUSH1 0x0 SWAP1 DUP2 MSTORE PUSH1 0x40 SWAP1 KECCAK256 SLOAD DUP2 JUMP JUMPDEST PUSH1 0x40 MLOAD SWAP1 DUP2 MSTORE PUSH1 0x20 ADD PUSH2 0x1DF JUMP JUMPDEST CALLVALUE DUP1 ISZERO PUSH2 0x28F JUMPI PUSH1 0x0 DUP1 REVERT JUMPDEST POP PUSH2 0x275 PUSH2 0x8B9 JUMP JUMPDEST CALLVALUE DUP1 ISZERO PUSH2 0x2A4 JUMPI PUSH1 0x0 DUP1 REVERT JUMPDEST POP PUSH2 0x14B PUSH2 0x2B3 CALLDATASIZE PUSH1 0x4 PUSH2 0x2F49 JUMP JUMPDEST PUSH2 0x8CA JUMP JUMPDEST CALLVALUE DUP1 ISZERO PUSH2 0x2C4 JUMPI PUSH1 0x0 DUP1 REVERT JUMPDEST POP PUSH2 0x14B PUSH2 0x991 JUMP JUMPDEST CALLVALUE DUP1 ISZERO PUSH2 0x2D9 JUMPI PUSH1 0x0 DUP1 REVERT JUMPDEST POP PUSH2 0x14B PUSH2 0x9A5 JUMP JUMPDEST CALLVALUE DUP1 ISZERO PUSH2 0x2EE JUMPI PUSH1 0x0 DUP1 REVERT JUMPDEST POP PUSH2 0x14B PUSH2 0x2FD CALLDATASIZE PUSH1 0x4 PUSH2 0x2FD7 JUMP JUMPDEST PUSH2 0xAEE JUMP JUMPDEST CALLVALUE DUP1 ISZERO PUSH2 0x30E JUMPI PUSH1 0x0 DUP1 REVERT JUMPDEST POP PUSH2 0x317 PUSH2 0x1166 JUMP JUMPDEST PUSH1 0x40 MLOAD PUSH2 0x1DF SWAP2 SWAP1 PUSH2 0x30EA JUMP JUMPDEST CALLVALUE DUP1 ISZERO PUSH2 0x330 JUMPI PUSH1 0x0 DUP1 REVERT JUMPDEST POP PUSH2 0x14B PUSH2 0x33F CALLDATASIZE PUSH1 0x4 PUSH2 0x30FE JUMP JUMPDEST PUSH2 0x1181 JUMP JUMPDEST CALLVALUE DUP1 ISZERO PUSH2 0x350 JUMPI PUSH1 0x0 DUP1 REVERT JUMPDEST POP PUSH2 0x14B PUSH2 0x35F CALLDATASIZE PUSH1 0x4 PUSH2 0x2E17 JUMP JUMPDEST PUSH2 0x12EB JUMP JUMPDEST CALLVALUE DUP1 ISZERO PUSH2 0x370 JUMPI PUSH1 0x0 DUP1 REVERT JUMPDEST POP PUSH2 0x384 PUSH2 0x37F CALLDATASIZE PUSH1 0x4 PUSH2 0x2E17 JUMP JUMPDEST PUSH2 0x1326 JUMP JUMPDEST PUSH1 0x40 MLOAD PUSH2 0x1DF SWAP2 SWAP1 PUSH2 0x312A JUMP JUMPDEST CALLVALUE DUP1 ISZERO PUSH2 0x39D JUMPI PUSH1 0x0 DUP1 REVERT JUMPDEST POP PUSH2 0x238 PUSH2 0x3AC CALLDATASIZE PUSH1 0x4 PUSH2 0x2F20 JUMP JUMPDEST PUSH1 0x8 PUSH1 0x20 MSTORE PUSH1 0x0 SWAP1 DUP2 MSTORE PUSH1 0x40 SWAP1 KECCAK256 SLOAD PUSH1 0xFF AND DUP2 JUMP JUMPDEST CALLVALUE DUP1 ISZERO PUSH2 0x3CD JUMPI PUSH1 0x0 DUP1 REVERT JUMPDEST POP PUSH2 0x14B PUSH2 0x3DC CALLDATASIZE PUSH1 0x4 PUSH2 0x2E17 JUMP JUMPDEST PUSH2 0x14B2 JUMP JUMPDEST CALLVALUE DUP1 ISZERO PUSH2 0x3ED JUMPI PUSH1 0x0 DUP1 REVERT JUMPDEST POP PUSH2 0x275 PUSH2 0x12C DUP2 JUMP JUMPDEST CALLVALUE DUP1 ISZERO PUSH2 0x403 JUMPI PUSH1 0x0 DUP1 REVERT JUMPDEST POP PUSH2 0x275 PUSH2 0x412 CALLDATASIZE PUSH1 0x4 PUSH2 0x2E17 JUMP JUMPDEST PUSH2 0x1630 JUMP JUMPDEST CALLVALUE DUP1 ISZERO PUSH2 0x423 JUMPI PUSH1 0x0 DUP1 REVERT JUMPDEST POP PUSH2 0x275 PUSH1 0x2 SLOAD DUP2 JUMP JUMPDEST CALLVALUE DUP1 ISZERO PUSH2 0x439 JUMPI PUSH1 0x0 DUP1 REVERT JUMPDEST POP PUSH2 0x275 PUSH1 0x3 SLOAD DUP2 JUMP JUMPDEST CALLVALUE DUP1 ISZERO PUSH2 0x44F JUMPI PUSH1 0x0 DUP1 REVERT JUMPDEST POP PUSH2 0x14B PUSH2 0x45E CALLDATASIZE PUSH1 0x4 PUSH2 0x31C2 JUMP JUMPDEST PUSH2 0x1691 JUMP JUMPDEST PUSH2 0x14B PUSH2 0x471 CALLDATASIZE PUSH1 0x4 PUSH2 0x31EC JUMP JUMPDEST PUSH2 0x1797 JUMP JUMPDEST CALLVALUE DUP1 ISZERO PUSH2 0x482 JUMPI PUSH1 0x0 DUP1 REVERT JUMPDEST POP PUSH2 0x275 PUSH2 0x491 CALLDATASIZE PUSH1 0x4 PUSH2 0x3237 JUMP JUMPDEST PUSH2 0x1CAE JUMP JUMPDEST CALLVALUE DUP1 ISZERO PUSH2 0x4A2 JUMPI PUSH1 0x0 DUP1 REVERT JUMPDEST POP PUSH2 0x14B PUSH2 0x4B1 CALLDATASIZE PUSH1 0x4 PUSH2 0x2F20 JUMP JUMPDEST PUSH2 0x1F46 JUMP JUMPDEST PUSH2 0x4BE PUSH2 0x1F81 JUMP JUMPDEST DUP2 PUSH1 0x1 PUSH1 0x1 PUSH1 0xA0 SHL SUB DUP2 AND ISZERO PUSH2 0x5B2 JUMPI DUP1 EXTCODESIZE PUSH4 0xFFFFFFFF AND PUSH2 0x4FB JUMPI PUSH1 0x40 MLOAD PUSH3 0x461BCD PUSH1 0xE5 SHL DUP2 MSTORE PUSH1 0x4 ADD PUSH2 0x4F2 SWAP1 PUSH2 0x3259 JUMP JUMPDEST PUSH1 0x40 MLOAD DUP1 SWAP2 SUB SWAP1 REVERT JUMPDEST PUSH1 0x0 DUP2 PUSH1 0x1 PUSH1 0x1 PUSH1 0xA0 SHL SUB AND ADDRESS PUSH1 0x40 MLOAD PUSH1 0x24 ADD PUSH2 0x518 SWAP2 SWAP1 PUSH2 0x30EA JUMP JUMPDEST PUSH1 0x40 DUP1 MLOAD PUSH1 0x1F NOT DUP2 DUP5 SUB ADD DUP2 MSTORE SWAP2 DUP2 MSTORE PUSH1 0x20 DUP3 ADD DUP1 MLOAD PUSH1 0x1 PUSH1 0x1 PUSH1 0xE0 SHL SUB AND PUSH4 0x70A08231 PUSH1 0xE0 SHL OR SWAP1 MSTORE MLOAD PUSH2 0x54D SWAP2 SWAP1 PUSH2 0x32A5 JUMP JUMPDEST PUSH1 0x0 PUSH1 0x40 MLOAD DUP1 DUP4 SUB DUP2 PUSH1 0x0 DUP7 GAS CALL SWAP2 POP POP RETURNDATASIZE DUP1 PUSH1 0x0 DUP2 EQ PUSH2 0x58A JUMPI PUSH1 0x40 MLOAD SWAP2 POP PUSH1 0x1F NOT PUSH1 0x3F RETURNDATASIZE ADD AND DUP3 ADD PUSH1 0x40 MSTORE RETURNDATASIZE DUP3 MSTORE RETURNDATASIZE PUSH1 0x0 PUSH1 0x20 DUP5 ADD RETURNDATACOPY PUSH2 0x58F JUMP JUMPDEST PUSH1 0x60 SWAP2 POP JUMPDEST POP POP SWAP1 POP DUP1 PUSH2 0x5B0 JUMPI PUSH1 0x40 MLOAD PUSH3 0x461BCD PUSH1 0xE5 SHL DUP2 MSTORE PUSH1 0x4 ADD PUSH2 0x4F2 SWAP1 PUSH2 0x32C1 JUMP JUMPDEST POP JUMPDEST PUSH2 0x5BD PUSH1 0x6 DUP8 PUSH2 0x1FB3 JUMP JUMPDEST PUSH2 0x5D9 JUMPI PUSH1 0x40 MLOAD PUSH3 0x461BCD PUSH1 0xE5 SHL DUP2 MSTORE PUSH1 0x4 ADD PUSH2 0x4F2 SWAP1 PUSH2 0x32EE JUMP JUMPDEST PUSH1 0x0 DUP3 GT PUSH2 0x5F9 JUMPI PUSH1 0x40 MLOAD PUSH3 0x461BCD PUSH1 0xE5 SHL DUP2 MSTORE PUSH1 0x4 ADD PUSH2 0x4F2 SWAP1 PUSH2 0x3318 JUMP JUMPDEST PUSH1 0x0 DUP6 PUSH1 0x1 DUP2 GT ISZERO PUSH2 0x60D JUMPI PUSH2 0x60D PUSH2 0x2E30 JUMP JUMPDEST EQ DUP1 PUSH2 0x62A JUMPI POP PUSH1 0x1 DUP6 PUSH1 0x1 DUP2 GT ISZERO PUSH2 0x628 JUMPI PUSH2 0x628 PUSH2 0x2E30 JUMP JUMPDEST EQ JUMPDEST PUSH2 0x646 JUMPI PUSH1 0x40 MLOAD PUSH3 0x461BCD PUSH1 0xE5 SHL DUP2 MSTORE PUSH1 0x4 ADD PUSH2 0x4F2 SWAP1 PUSH2 0x335E JUMP JUMPDEST PUSH1 0x0 DUP5 PUSH1 0x2 DUP2 GT ISZERO PUSH2 0x65A JUMPI PUSH2 0x65A PUSH2 0x2E30 JUMP JUMPDEST EQ DUP1 PUSH2 0x677 JUMPI POP PUSH1 0x1 DUP5 PUSH1 0x2 DUP2 GT ISZERO PUSH2 0x675 JUMPI PUSH2 0x675 PUSH2 0x2E30 JUMP JUMPDEST EQ JUMPDEST DUP1 PUSH2 0x693 JUMPI POP PUSH1 0x2 DUP5 PUSH1 0x2 DUP2 GT ISZERO PUSH2 0x691 JUMPI PUSH2 0x691 PUSH2 0x2E30 JUMP JUMPDEST EQ JUMPDEST PUSH2 0x6AF JUMPI PUSH1 0x40 MLOAD PUSH3 0x461BCD PUSH1 0xE5 SHL DUP2 MSTORE PUSH1 0x4 ADD PUSH2 0x4F2 SWAP1 PUSH2 0x3388 JUMP JUMPDEST PUSH1 0x0 DUP7 DUP2 MSTORE PUSH1 0x5 PUSH1 0x20 MSTORE PUSH1 0x40 SWAP1 KECCAK256 PUSH1 0x1 DUP1 DUP3 ADD DUP1 SLOAD DUP9 SWAP3 PUSH1 0xFF NOT SWAP1 SWAP2 AND SWAP1 DUP4 DUP2 DUP2 GT ISZERO PUSH2 0x6DE JUMPI PUSH2 0x6DE PUSH2 0x2E30 JUMP JUMPDEST MUL OR SWAP1 SSTORE POP PUSH1 0x1 DUP2 ADD DUP1 SLOAD DUP7 SWAP2 SWAP1 PUSH3 0xFF0000 NOT AND PUSH3 0x10000 DUP4 PUSH1 0x2 DUP2 GT ISZERO PUSH2 0x708 JUMPI PUSH2 0x708 PUSH2 0x2E30 JUMP JUMPDEST MUL OR SWAP1 SSTORE POP PUSH1 0x2 DUP2 ADD DUP1 SLOAD PUSH1 0x1 PUSH1 0x1 PUSH1 0xA0 SHL SUB NOT AND PUSH1 0x1 PUSH1 0x1 PUSH1 0xA0 SHL SUB DUP7 AND OR SWAP1 SSTORE PUSH1 0x3 DUP2 ADD DUP4 SWAP1 SSTORE PUSH1 0x40 MLOAD DUP8 SWAP1 PUSH32 0xC02B41847A14CDD8174EF635596EE9EDF41C26174DB1C1DC05C098129F4CD35D SWAP1 PUSH2 0x769 SWAP1 DUP10 SWAP1 DUP10 SWAP1 DUP10 SWAP1 DUP10 SWAP1 PUSH2 0x33B2 JUMP JUMPDEST PUSH1 0x40 MLOAD DUP1 SWAP2 SUB SWAP1 LOG2 POP POP POP POP POP POP POP JUMP JUMPDEST PUSH2 0x782 PUSH2 0x1F81 JUMP JUMPDEST PUSH2 0x78A PUSH2 0x1FC6 JUMP JUMPDEST PUSH1 0x1 PUSH1 0x1 PUSH1 0xA0 SHL SUB DUP3 AND PUSH2 0x7D2 JUMPI PUSH1 0x40 MLOAD PUSH3 0x461BCD PUSH1 0xE5 SHL DUP2 MSTORE PUSH1 0x20 PUSH1 0x4 DUP3 ADD MSTORE PUSH1 0xF PUSH1 0x24 DUP3 ADD MSTORE PUSH15 0x496E76616C69642061646472657373 PUSH1 0x88 SHL PUSH1 0x44 DUP3 ADD MSTORE PUSH1 0x64 ADD PUSH2 0x4F2 JUMP JUMPDEST PUSH1 0x40 MLOAD PUSH4 0x70A08231 PUSH1 0xE0 SHL DUP2 MSTORE PUSH1 0x0 SWAP1 PUSH1 0x1 PUSH1 0x1 PUSH1 0xA0 SHL SUB DUP6 AND SWAP1 PUSH4 0x70A08231 SWAP1 PUSH2 0x801 SWAP1 ADDRESS SWAP1 PUSH1 0x4 ADD PUSH2 0x30EA JUMP JUMPDEST PUSH1 0x20 PUSH1 0x40 MLOAD DUP1 DUP4 SUB DUP2 DUP7 GAS STATICCALL ISZERO DUP1 ISZERO PUSH2 0x81E JUMPI RETURNDATASIZE PUSH1 0x0 DUP1 RETURNDATACOPY RETURNDATASIZE PUSH1 0x0 REVERT JUMPDEST POP POP POP POP PUSH1 0x40 MLOAD RETURNDATASIZE PUSH1 0x1F NOT PUSH1 0x1F DUP3 ADD AND DUP3 ADD DUP1 PUSH1 0x40 MSTORE POP DUP2 ADD SWAP1 PUSH2 0x842 SWAP2 SWAP1 PUSH2 0x33EA JUMP JUMPDEST SWAP1 POP PUSH1 0x0 DUP2 GT PUSH2 0x880 JUMPI PUSH1 0x40 MLOAD PUSH3 0x461BCD PUSH1 0xE5 SHL DUP2 MSTORE PUSH1 0x20 PUSH1 0x4 DUP3 ADD MSTORE PUSH1 0x9 PUSH1 0x24 DUP3 ADD MSTORE PUSH9 0x4E6F20746F6B656E73 PUSH1 0xB8 SHL PUSH1 0x44 DUP3 ADD MSTORE PUSH1 0x64 ADD PUSH2 0x4F2 JUMP JUMPDEST DUP1 DUP3 GT ISZERO PUSH2 0x8A0 JUMPI PUSH1 0x40 MLOAD PUSH3 0x461BCD PUSH1 0xE5 SHL DUP2 MSTORE PUSH1 0x4 ADD PUSH2 0x4F2 SWAP1 PUSH2 0x3403 JUMP JUMPDEST PUSH2 0x8AB DUP5 DUP5 DUP5 PUSH2 0x1FFC JUMP JUMPDEST POP PUSH2 0x8B4 PUSH2 0x2052 JUMP JUMPDEST POP POP POP JUMP JUMPDEST PUSH1 0x0 PUSH2 0x8C5 PUSH1 0x6 PUSH2 0x2063 JUMP JUMPDEST SWAP1 POP SWAP1 JUMP JUMPDEST PUSH2 0x8D2 PUSH2 0x1F81 JUMP JUMPDEST PUSH1 0x1 PUSH1 0x1 PUSH1 0xA0 SHL SUB DUP3 AND PUSH2 0x921 JUMPI PUSH1 0x40 MLOAD PUSH3 0x461BCD PUSH1 0xE5 SHL DUP2 MSTORE PUSH1 0x20 PUSH1 0x4 DUP3 ADD MSTORE PUSH1 0x16 PUSH1 0x24 DUP3 ADD MSTORE PUSH22 0x496E76616C6964206F7261636C652061646472657373 PUSH1 0x50 SHL PUSH1 0x44 DUP3 ADD MSTORE PUSH1 0x64 ADD PUSH2 0x4F2 JUMP JUMPDEST DUP2 PUSH1 0x1 PUSH1 0x1 PUSH1 0xA0 SHL SUB AND PUSH32 0xA035E0992CBEDA3214DC4BCEC01FE216AB2BE4A7CF8C826E4FDC886B853846AC DUP3 PUSH1 0x40 MLOAD PUSH2 0x95E SWAP2 ISZERO ISZERO DUP2 MSTORE PUSH1 0x20 ADD SWAP1 JUMP JUMPDEST PUSH1 0x40 MLOAD DUP1 SWAP2 SUB SWAP1 LOG2 PUSH1 0x1 PUSH1 0x1 PUSH1 0xA0 SHL SUB SWAP2 SWAP1 SWAP2 AND PUSH1 0x0 SWAP1 DUP2 MSTORE PUSH1 0x8 PUSH1 0x20 MSTORE PUSH1 0x40 SWAP1 KECCAK256 DUP1 SLOAD PUSH1 0xFF NOT AND SWAP2 ISZERO ISZERO SWAP2 SWAP1 SWAP2 OR SWAP1 SSTORE JUMP JUMPDEST PUSH2 0x999 PUSH2 0x1F81 JUMP JUMPDEST PUSH2 0x9A3 PUSH1 0x0 PUSH2 0x206D JUMP JUMPDEST JUMP JUMPDEST PUSH1 0x0 PUSH2 0x9AF PUSH2 0x20C9 JUMP JUMPDEST DUP1 SLOAD SWAP1 SWAP2 POP PUSH1 0xFF PUSH1 0x1 PUSH1 0x40 SHL DUP3 DIV AND ISZERO SWAP1 PUSH1 0x1 PUSH1 0x1 PUSH1 0x40 SHL SUB AND PUSH1 0x0 DUP2 ISZERO DUP1 ISZERO PUSH2 0x9D6 JUMPI POP DUP3 JUMPDEST SWAP1 POP PUSH1 0x0 DUP3 PUSH1 0x1 PUSH1 0x1 PUSH1 0x40 SHL SUB AND PUSH1 0x1 EQ DUP1 ISZERO PUSH2 0x9F2 JUMPI POP ADDRESS EXTCODESIZE ISZERO JUMPDEST SWAP1 POP DUP2 ISZERO DUP1 ISZERO PUSH2 0xA00 JUMPI POP DUP1 ISZERO JUMPDEST ISZERO PUSH2 0xA1E JUMPI PUSH1 0x40 MLOAD PUSH4 0xF92EE8A9 PUSH1 0xE0 SHL DUP2 MSTORE PUSH1 0x4 ADD PUSH1 0x40 MLOAD DUP1 SWAP2 SUB SWAP1 REVERT JUMPDEST DUP5 SLOAD PUSH1 0x1 PUSH1 0x1 PUSH1 0x40 SHL SUB NOT AND PUSH1 0x1 OR DUP6 SSTORE DUP4 ISZERO PUSH2 0xA47 JUMPI DUP5 SLOAD PUSH1 0xFF PUSH1 0x40 SHL NOT AND PUSH1 0x1 PUSH1 0x40 SHL OR DUP6 SSTORE JUMPDEST PUSH2 0xA50 CALLER PUSH2 0x20F2 JUMP JUMPDEST PUSH2 0xA58 PUSH2 0x2103 JUMP JUMPDEST PUSH1 0x40 MLOAD PUSH1 0x1 PUSH1 0x1 PUSH1 0x60 SHL SUB NOT CALLER PUSH1 0x60 SHL AND PUSH1 0x20 DUP3 ADD MSTORE TIMESTAMP PUSH1 0x34 DUP3 ADD MSTORE PUSH1 0x54 ADD PUSH1 0x40 DUP1 MLOAD PUSH1 0x1F NOT DUP2 DUP5 SUB ADD DUP2 MSTORE SWAP2 SWAP1 MSTORE DUP1 MLOAD PUSH1 0x20 SWAP1 SWAP2 ADD KECCAK256 PUSH1 0x0 SWAP1 DUP2 SSTORE PUSH1 0x1E PUSH1 0x2 SSTORE PUSH1 0x32 PUSH1 0x3 SSTORE PUSH1 0x1 SSTORE DUP4 ISZERO PUSH2 0xAE7 JUMPI DUP5 SLOAD PUSH1 0xFF PUSH1 0x40 SHL NOT AND DUP6 SSTORE PUSH1 0x40 MLOAD PUSH1 0x1 DUP2 MSTORE PUSH32 0xC7F505B2F371AE2175EE4913F4499E1F2633A7B5936321EED1CDAEB6115181D2 SWAP1 PUSH1 0x20 ADD PUSH1 0x40 MLOAD DUP1 SWAP2 SUB SWAP1 LOG1 JUMPDEST POP POP POP POP POP JUMP JUMPDEST CALLER PUSH1 0x0 SWAP1 DUP2 MSTORE PUSH1 0x8 PUSH1 0x20 MSTORE PUSH1 0x40 SWAP1 KECCAK256 SLOAD PUSH1 0xFF AND PUSH2 0xB1D JUMPI PUSH1 0x40 MLOAD PUSH3 0x82B429 PUSH1 0xE8 SHL DUP2 MSTORE PUSH1 0x4 ADD PUSH1 0x40 MLOAD DUP1 SWAP2 SUB SWAP1 REVERT JUMPDEST PUSH2 0xB25 PUSH2 0x1FC6 JUMP JUMPDEST PUSH1 0x0 DUP8 DUP2 MSTORE PUSH1 0x4 PUSH1 0x20 MSTORE PUSH1 0x40 SWAP1 KECCAK256 SLOAD PUSH1 0xFF AND PUSH2 0xB54 JUMPI PUSH1 0x40 MLOAD PUSH4 0x2589D98F PUSH1 0xE1 SHL DUP2 MSTORE PUSH1 0x4 ADD PUSH1 0x40 MLOAD DUP1 SWAP2 SUB SWAP1 REVERT JUMPDEST PUSH2 0xB64 DUP8 DUP8 DUP8 DUP8 CALLER DUP9 DUP9 DUP9 PUSH2 0x2113 JUMP JUMPDEST PUSH2 0xB81 JUMPI PUSH1 0x40 MLOAD PUSH4 0x8BAA579F PUSH1 0xE0 SHL DUP2 MSTORE PUSH1 0x4 ADD PUSH1 0x40 MLOAD DUP1 SWAP2 SUB SWAP1 REVERT JUMPDEST PUSH2 0xB8C PUSH1 0x6 DUP7 PUSH2 0x1FB3 JUMP JUMPDEST PUSH2 0xBA8 JUMPI PUSH1 0x40 MLOAD PUSH3 0x461BCD PUSH1 0xE5 SHL DUP2 MSTORE PUSH1 0x4 ADD PUSH2 0x4F2 SWAP1 PUSH2 0x32EE JUMP JUMPDEST PUSH1 0x0 DUP6 DUP2 MSTORE PUSH1 0x5 PUSH1 0x20 MSTORE PUSH1 0x40 SWAP1 KECCAK256 PUSH1 0x1 DUP1 DUP3 DUP2 ADD SLOAD PUSH2 0x100 SWAP1 DIV PUSH1 0xFF AND SWAP1 DUP2 GT ISZERO PUSH2 0xBD5 JUMPI PUSH2 0xBD5 PUSH2 0x2E30 JUMP JUMPDEST EQ PUSH2 0xC13 JUMPI PUSH1 0x40 MLOAD PUSH3 0x461BCD PUSH1 0xE5 SHL DUP2 MSTORE PUSH1 0x20 PUSH1 0x4 DUP3 ADD MSTORE PUSH1 0xE PUSH1 0x24 DUP3 ADD MSTORE PUSH14 0x105B1C9958591E481BDC195B9959 PUSH1 0x92 SHL PUSH1 0x44 DUP3 ADD MSTORE PUSH1 0x64 ADD PUSH2 0x4F2 JUMP JUMPDEST PUSH1 0x1 DUP2 ADD SLOAD PUSH4 0x1000000 SWAP1 DIV PUSH1 0x1 PUSH1 0x1 PUSH1 0xA0 SHL SUB AND ISZERO PUSH2 0xC65 JUMPI PUSH1 0x40 MLOAD PUSH3 0x461BCD PUSH1 0xE5 SHL DUP2 MSTORE PUSH1 0x20 PUSH1 0x4 DUP3 ADD MSTORE PUSH1 0xD PUSH1 0x24 DUP3 ADD MSTORE PUSH13 0x2137BC103430B99037BBB732B9 PUSH1 0x99 SHL PUSH1 0x44 DUP3 ADD MSTORE PUSH1 0x64 ADD PUSH2 0x4F2 JUMP JUMPDEST PUSH1 0x1 DUP2 ADD DUP1 SLOAD PUSH4 0x1000000 PUSH1 0x1 PUSH1 0xB8 SHL SUB NOT AND PUSH4 0x1000000 PUSH1 0x1 PUSH1 0x1 PUSH1 0xA0 SHL SUB DUP9 AND MUL OR SWAP1 SSTORE PUSH1 0x0 DUP1 PUSH1 0x1 DUP1 DUP5 ADD SLOAD PUSH1 0xFF AND SWAP1 DUP2 GT ISZERO PUSH2 0xCA7 JUMPI PUSH2 0xCA7 PUSH2 0x2E30 JUMP JUMPDEST SUB PUSH2 0xCDE JUMPI PUSH1 0x2 SLOAD PUSH1 0x64 DUP10 PUSH1 0x0 DUP2 MLOAD DUP2 LT PUSH2 0xCC4 JUMPI PUSH2 0xCC4 PUSH2 0x3433 JUMP JUMPDEST PUSH1 0x20 MUL PUSH1 0x20 ADD ADD MLOAD PUSH2 0xCD6 SWAP2 SWAP1 PUSH2 0x345F JUMP JUMPDEST LT SWAP1 POP PUSH2 0xD0C JUMP JUMPDEST PUSH1 0x3 SLOAD PUSH1 0x64 DUP10 PUSH1 0x0 DUP2 MLOAD DUP2 LT PUSH2 0xCF6 JUMPI PUSH2 0xCF6 PUSH2 0x3433 JUMP JUMPDEST PUSH1 0x20 MUL PUSH1 0x20 ADD ADD MLOAD PUSH2 0xD08 SWAP2 SWAP1 PUSH2 0x345F JUMP JUMPDEST LT SWAP1 POP JUMPDEST PUSH2 0xD57 PUSH1 0x40 MLOAD DUP1 PUSH1 0x40 ADD PUSH1 0x40 MSTORE DUP1 PUSH1 0xF DUP2 MSTORE PUSH1 0x20 ADD PUSH15 0x2930B73237B690373AB6B132B91D1 PUSH1 0x8D SHL DUP2 MSTORE POP DUP10 PUSH1 0x0 DUP2 MLOAD DUP2 LT PUSH2 0xD4A JUMPI PUSH2 0xD4A PUSH2 0x3433 JUMP JUMPDEST PUSH1 0x20 MUL PUSH1 0x20 ADD ADD MLOAD PUSH2 0x22CA JUMP JUMPDEST PUSH2 0xD84 PUSH1 0x40 MLOAD DUP1 PUSH1 0x40 ADD PUSH1 0x40 MSTORE DUP1 PUSH1 0xB DUP2 MSTORE PUSH1 0x20 ADD PUSH11 0x2932B8BAB2B9BA32B91D1 PUSH1 0xAD SHL DUP2 MSTORE POP DUP8 PUSH2 0x230F JUMP JUMPDEST PUSH1 0x40 DUP1 MLOAD DUP1 DUP3 ADD SWAP1 SWAP2 MSTORE PUSH1 0xA DUP2 MSTORE PUSH10 0x2137BC102A3CB8329D1 PUSH1 0xB5 SHL PUSH1 0x20 DUP3 ADD MSTORE PUSH1 0x1 DUP1 DUP5 ADD SLOAD PUSH2 0xDCA SWAP3 SWAP2 PUSH1 0xFF SWAP1 SWAP2 AND SWAP1 DUP2 GT ISZERO PUSH2 0xDC5 JUMPI PUSH2 0xDC5 PUSH2 0x2E30 JUMP JUMPDEST PUSH2 0x22CA JUMP JUMPDEST PUSH2 0xDFE PUSH1 0x40 MLOAD DUP1 PUSH1 0x40 ADD PUSH1 0x40 MSTORE DUP1 PUSH1 0xE DUP2 MSTORE PUSH1 0x20 ADD PUSH14 0x283934BD329020B6B7BAB73A1D1 PUSH1 0x95 SHL DUP2 MSTORE POP DUP4 PUSH1 0x3 ADD SLOAD PUSH2 0x22CA JUMP JUMPDEST PUSH2 0xE25 PUSH1 0x40 MLOAD DUP1 PUSH1 0x40 ADD PUSH1 0x40 MSTORE DUP1 PUSH1 0x5 DUP2 MSTORE PUSH1 0x20 ADD PUSH5 0x2BB7B71D1 PUSH1 0xDD SHL DUP2 MSTORE POP DUP3 PUSH2 0x2354 JUMP JUMPDEST PUSH1 0x40 DUP1 MLOAD DUP1 DUP3 ADD SWAP1 SWAP2 MSTORE PUSH1 0xD DUP2 MSTORE PUSH13 0x283934BD32902A37B5B2B71D1 PUSH1 0x9D SHL PUSH1 0x20 DUP3 ADD MSTORE PUSH1 0x2 DUP4 ADD SLOAD PUSH2 0xE61 SWAP2 SWAP1 PUSH1 0x1 PUSH1 0x1 PUSH1 0xA0 SHL SUB AND PUSH2 0x230F JUMP JUMPDEST DUP1 ISZERO PUSH2 0x106A JUMPI PUSH1 0x0 PUSH1 0x1 DUP1 DUP1 DUP6 ADD SLOAD PUSH1 0xFF AND SWAP1 DUP2 GT ISZERO PUSH2 0xE83 JUMPI PUSH2 0xE83 PUSH2 0x2E30 JUMP JUMPDEST EQ PUSH2 0xE8F JUMPI PUSH1 0x64 PUSH2 0xEC1 JUMP JUMPDEST PUSH1 0x64 DUP10 PUSH1 0x0 DUP2 MLOAD DUP2 LT PUSH2 0xEA4 JUMPI PUSH2 0xEA4 PUSH2 0x3433 JUMP JUMPDEST PUSH1 0x20 MUL PUSH1 0x20 ADD ADD MLOAD PUSH2 0xEB6 SWAP2 SWAP1 PUSH2 0x345F JUMP JUMPDEST PUSH2 0xEC1 SWAP1 PUSH1 0x1 PUSH2 0x3489 JUMP JUMPDEST SWAP1 POP PUSH1 0x0 PUSH1 0x1 DUP1 DUP1 DUP7 ADD SLOAD PUSH1 0xFF AND SWAP1 DUP2 GT ISZERO PUSH2 0xEDF JUMPI PUSH2 0xEDF PUSH2 0x2E30 JUMP JUMPDEST EQ PUSH2 0xEEE JUMPI DUP4 PUSH1 0x3 ADD SLOAD PUSH2 0xF0A JUMP JUMPDEST PUSH1 0x64 DUP3 DUP6 PUSH1 0x3 ADD SLOAD PUSH2 0xF00 SWAP2 SWAP1 PUSH2 0x349C JUMP JUMPDEST PUSH2 0xF0A SWAP2 SWAP1 PUSH2 0x34B3 JUMP JUMPDEST SWAP1 POP PUSH2 0xF37 PUSH1 0x40 MLOAD DUP1 PUSH1 0x40 ADD PUSH1 0x40 MSTORE DUP1 PUSH1 0x9 DUP2 MSTORE PUSH1 0x20 ADD PUSH9 0x2832B931B2B73A1D1 PUSH1 0xBD SHL DUP2 MSTORE POP DUP4 PUSH2 0x22CA JUMP JUMPDEST PUSH1 0x0 DUP2 DUP6 PUSH1 0x3 ADD SLOAD PUSH2 0xF49 SWAP2 SWAP1 PUSH2 0x34C7 JUMP JUMPDEST SWAP1 POP PUSH2 0xFA1 PUSH1 0x40 MLOAD DUP1 PUSH1 0x40 ADD PUSH1 0x40 MSTORE DUP1 PUSH1 0x8 DUP2 MSTORE PUSH1 0x20 ADD PUSH8 0x2830BCB7BABA1D1 PUSH1 0xC5 SHL DUP2 MSTORE POP DUP4 PUSH1 0x40 MLOAD DUP1 PUSH1 0x40 ADD PUSH1 0x40 MSTORE DUP1 PUSH1 0x12 DUP2 MSTORE PUSH1 0x20 ADD PUSH18 0x102932B6B0B4B734B73390283934BD329D1 PUSH1 0x75 SHL DUP2 MSTORE POP DUP5 PUSH2 0x2399 JUMP JUMPDEST PUSH1 0x4 DUP6 ADD DUP1 SLOAD PUSH1 0xFF NOT AND PUSH1 0x1 OR SWAP1 SSTORE PUSH1 0x5 DUP6 ADD DUP3 SWAP1 SSTORE DUP1 ISZERO PUSH2 0x1015 JUMPI PUSH1 0x2 DUP6 ADD SLOAD PUSH2 0xFDD SWAP1 PUSH1 0x1 PUSH1 0x1 PUSH1 0xA0 SHL SUB AND PUSH2 0xFD7 PUSH2 0x1166 JUMP JUMPDEST DUP4 PUSH2 0x23E8 JUMP JUMPDEST PUSH1 0x2 DUP6 ADD SLOAD PUSH1 0x40 MLOAD DUP12 SWAP2 PUSH1 0x0 DUP1 MLOAD PUSH1 0x20 PUSH2 0x37B2 DUP4 CODECOPY DUP2 MLOAD SWAP2 MSTORE SWAP2 PUSH2 0x100C SWAP2 PUSH1 0x1 PUSH1 0x1 PUSH1 0xA0 SHL SUB AND SWAP1 DUP6 SWAP1 PUSH2 0x34DA JUMP JUMPDEST PUSH1 0x40 MLOAD DUP1 SWAP2 SUB SWAP1 LOG2 JUMPDEST PUSH1 0x2 DUP6 ADD SLOAD PUSH1 0x40 MLOAD PUSH1 0x1 PUSH1 0x1 PUSH1 0xA0 SHL SUB DUP1 DUP13 AND SWAP3 DUP14 SWAP3 PUSH32 0x6CA0DA92C4797A558F7E777695E71010CA0BBF7B7007B7E0402C5921A25FB4D8 SWAP3 PUSH2 0x105A SWAP3 AND SWAP1 DUP8 SWAP1 PUSH2 0x34DA JUMP JUMPDEST PUSH1 0x40 MLOAD DUP1 SWAP2 SUB SWAP1 LOG3 POP POP POP PUSH2 0x1101 JUMP JUMPDEST PUSH1 0x2 DUP3 ADD SLOAD PUSH2 0x108E SWAP1 PUSH1 0x1 PUSH1 0x1 PUSH1 0xA0 SHL SUB AND PUSH2 0x1084 PUSH2 0x1166 JUMP JUMPDEST DUP5 PUSH1 0x3 ADD SLOAD PUSH2 0x23E8 JUMP JUMPDEST PUSH1 0x40 MLOAD PUSH1 0x1 PUSH1 0x1 PUSH1 0xA0 SHL SUB DUP8 AND SWAP1 DUP9 SWAP1 PUSH32 0x59C544C2595303434D37BD8EE8AF000818BE6066BEB8C37844D43F7EE80A444 SWAP1 PUSH1 0x0 SWAP1 LOG3 PUSH1 0x2 DUP3 ADD SLOAD PUSH1 0x3 DUP4 ADD SLOAD PUSH1 0x40 MLOAD DUP10 SWAP3 PUSH1 0x0 DUP1 MLOAD PUSH1 0x20 PUSH2 0x37B2 DUP4 CODECOPY DUP2 MLOAD SWAP2 MSTORE SWAP3 PUSH2 0x10F8 SWAP3 PUSH1 0x1 PUSH1 0x1 PUSH1 0xA0 SHL SUB SWAP1 SWAP3 AND SWAP2 PUSH2 0x34DA JUMP JUMPDEST PUSH1 0x40 MLOAD DUP1 SWAP2 SUB SWAP1 LOG2 JUMPDEST PUSH1 0x0 DUP10 DUP2 MSTORE PUSH1 0x4 PUSH1 0x20 MSTORE PUSH1 0x40 SWAP1 DUP2 SWAP1 KECCAK256 DUP1 SLOAD PUSH1 0xFF NOT AND SWAP1 SSTORE MLOAD DUP8 SWAP1 DUP11 SWAP1 PUSH32 0xC9245471E1EDA01DF96AC978BD431512E8E4F71C9541C7D946973B851391D8AD SWAP1 PUSH2 0x114B SWAP1 DUP13 SWAP1 PUSH2 0x34F3 JUMP JUMPDEST PUSH1 0x40 MLOAD DUP1 SWAP2 SUB SWAP1 LOG3 POP POP PUSH2 0x115D PUSH2 0x2052 JUMP JUMPDEST POP POP POP POP POP POP POP JUMP JUMPDEST PUSH1 0x0 DUP1 PUSH2 0x1171 PUSH2 0x240B JUMP JUMPDEST SLOAD PUSH1 0x1 PUSH1 0x1 PUSH1 0xA0 SHL SUB AND SWAP3 SWAP2 POP POP JUMP JUMPDEST PUSH2 0x1189 PUSH2 0x1F81 JUMP JUMPDEST PUSH1 0x0 DUP2 PUSH1 0x1 DUP2 GT ISZERO PUSH2 0x119D JUMPI PUSH2 0x119D PUSH2 0x2E30 JUMP JUMPDEST EQ DUP1 PUSH2 0x11BA JUMPI POP PUSH1 0x1 DUP2 PUSH1 0x1 DUP2 GT ISZERO PUSH2 0x11B8 JUMPI PUSH2 0x11B8 PUSH2 0x2E30 JUMP JUMPDEST EQ JUMPDEST PUSH2 0x11D6 JUMPI PUSH1 0x40 MLOAD PUSH3 0x461BCD PUSH1 0xE5 SHL DUP2 MSTORE PUSH1 0x4 ADD PUSH2 0x4F2 SWAP1 PUSH2 0x335E JUMP JUMPDEST PUSH1 0x1 DUP3 LT ISZERO DUP1 ISZERO PUSH2 0x11E8 JUMPI POP PUSH1 0x64 DUP3 GT ISZERO JUMPDEST PUSH2 0x123F JUMPI PUSH1 0x40 MLOAD PUSH3 0x461BCD PUSH1 0xE5 SHL DUP2 MSTORE PUSH1 0x20 PUSH1 0x4 DUP3 ADD MSTORE PUSH1 0x22 PUSH1 0x24 DUP3 ADD MSTORE PUSH32 0x57696E2072617465206D757374206265206265747765656E203120616E642031 PUSH1 0x44 DUP3 ADD MSTORE PUSH2 0x303 PUSH1 0xF4 SHL PUSH1 0x64 DUP3 ADD MSTORE PUSH1 0x84 ADD PUSH2 0x4F2 JUMP JUMPDEST PUSH1 0x0 DUP2 PUSH1 0x1 DUP2 GT ISZERO PUSH2 0x1253 JUMPI PUSH2 0x1253 PUSH2 0x2E30 JUMP JUMPDEST SUB PUSH2 0x1287 JUMPI PUSH1 0x2 SLOAD DUP3 PUSH1 0x0 DUP1 MLOAD PUSH1 0x20 PUSH2 0x3792 DUP4 CODECOPY DUP2 MLOAD SWAP2 MSTORE DUP4 PUSH1 0x40 MLOAD PUSH2 0x1279 SWAP2 SWAP1 PUSH2 0x3537 JUMP JUMPDEST PUSH1 0x40 MLOAD DUP1 SWAP2 SUB SWAP1 LOG3 POP PUSH1 0x2 SSTORE JUMP JUMPDEST PUSH1 0x1 DUP2 PUSH1 0x1 DUP2 GT ISZERO PUSH2 0x129B JUMPI PUSH2 0x129B PUSH2 0x2E30 JUMP JUMPDEST SUB PUSH2 0x12CF JUMPI PUSH1 0x3 SLOAD DUP3 PUSH1 0x0 DUP1 MLOAD PUSH1 0x20 PUSH2 0x3792 DUP4 CODECOPY DUP2 MLOAD SWAP2 MSTORE DUP4 PUSH1 0x40 MLOAD PUSH2 0x12C1 SWAP2 SWAP1 PUSH2 0x3537 JUMP JUMPDEST PUSH1 0x40 MLOAD DUP1 SWAP2 SUB SWAP1 LOG3 POP PUSH1 0x3 SSTORE JUMP JUMPDEST PUSH1 0x40 MLOAD PUSH3 0x461BCD PUSH1 0xE5 SHL DUP2 MSTORE PUSH1 0x4 ADD PUSH2 0x4F2 SWAP1 PUSH2 0x335E JUMP JUMPDEST POP POP JUMP JUMPDEST PUSH2 0x12F3 PUSH2 0x1F81 JUMP JUMPDEST PUSH2 0x12FE PUSH1 0x6 DUP3 PUSH2 0x1FB3 JUMP JUMPDEST PUSH2 0x131A JUMPI PUSH1 0x40 MLOAD PUSH3 0x461BCD PUSH1 0xE5 SHL DUP2 MSTORE PUSH1 0x4 ADD PUSH2 0x4F2 SWAP1 PUSH2 0x32EE JUMP JUMPDEST PUSH2 0x1323 DUP2 PUSH2 0x242F JUMP JUMPDEST POP JUMP JUMPDEST PUSH2 0x1376 PUSH1 0x40 DUP1 MLOAD PUSH2 0x120 DUP2 ADD SWAP1 SWAP2 MSTORE PUSH1 0x0 DUP1 DUP3 MSTORE PUSH1 0x20 DUP3 ADD SWAP1 DUP2 MSTORE PUSH1 0x20 ADD PUSH1 0x0 DUP2 MSTORE PUSH1 0x20 ADD PUSH1 0x0 DUP2 MSTORE PUSH1 0x0 PUSH1 0x20 DUP3 ADD DUP2 SWAP1 MSTORE PUSH1 0x40 DUP3 ADD DUP2 SWAP1 MSTORE PUSH1 0x60 DUP3 ADD DUP2 SWAP1 MSTORE PUSH1 0x80 DUP3 ADD DUP2 SWAP1 MSTORE PUSH1 0xA0 SWAP1 SWAP2 ADD MSTORE SWAP1 JUMP JUMPDEST PUSH2 0x1381 PUSH1 0x6 DUP4 PUSH2 0x1FB3 JUMP JUMPDEST PUSH2 0x139D JUMPI PUSH1 0x40 MLOAD PUSH3 0x461BCD PUSH1 0xE5 SHL DUP2 MSTORE PUSH1 0x4 ADD PUSH2 0x4F2 SWAP1 PUSH2 0x32EE JUMP JUMPDEST PUSH1 0x0 DUP3 DUP2 MSTORE PUSH1 0x5 PUSH1 0x20 SWAP1 DUP2 MSTORE PUSH1 0x40 SWAP2 DUP3 SWAP1 KECCAK256 DUP3 MLOAD PUSH2 0x120 DUP2 ADD SWAP1 SWAP4 MSTORE DUP1 SLOAD DUP4 MSTORE PUSH1 0x1 DUP1 DUP3 ADD SLOAD SWAP2 SWAP3 DUP5 ADD SWAP2 PUSH1 0xFF AND SWAP1 DUP2 GT ISZERO PUSH2 0x13DB JUMPI PUSH2 0x13DB PUSH2 0x2E30 JUMP JUMPDEST PUSH1 0x1 DUP2 GT ISZERO PUSH2 0x13EC JUMPI PUSH2 0x13EC PUSH2 0x2E30 JUMP JUMPDEST DUP2 MSTORE PUSH1 0x20 ADD PUSH1 0x1 DUP3 ADD PUSH1 0x1 SWAP1 SLOAD SWAP1 PUSH2 0x100 EXP SWAP1 DIV PUSH1 0xFF AND PUSH1 0x1 DUP2 GT ISZERO PUSH2 0x1414 JUMPI PUSH2 0x1414 PUSH2 0x2E30 JUMP JUMPDEST PUSH1 0x1 DUP2 GT ISZERO PUSH2 0x1425 JUMPI PUSH2 0x1425 PUSH2 0x2E30 JUMP JUMPDEST DUP2 MSTORE PUSH1 0x20 ADD PUSH1 0x1 DUP3 ADD PUSH1 0x2 SWAP1 SLOAD SWAP1 PUSH2 0x100 EXP SWAP1 DIV PUSH1 0xFF AND PUSH1 0x2 DUP2 GT ISZERO PUSH2 0x144D JUMPI PUSH2 0x144D PUSH2 0x2E30 JUMP JUMPDEST PUSH1 0x2 DUP2 GT ISZERO PUSH2 0x145E JUMPI PUSH2 0x145E PUSH2 0x2E30 JUMP JUMPDEST DUP2 MSTORE PUSH1 0x1 DUP3 ADD SLOAD PUSH1 0x1 PUSH1 0x1 PUSH1 0xA0 SHL SUB PUSH4 0x1000000 SWAP1 SWAP2 DIV DUP2 AND PUSH1 0x20 DUP4 ADD MSTORE PUSH1 0x2 DUP4 ADD SLOAD AND PUSH1 0x40 DUP3 ADD MSTORE PUSH1 0x3 DUP3 ADD SLOAD PUSH1 0x60 DUP3 ADD MSTORE PUSH1 0x4 DUP3 ADD SLOAD PUSH1 0xFF AND ISZERO ISZERO PUSH1 0x80 DUP3 ADD MSTORE PUSH1 0x5 SWAP1 SWAP2 ADD SLOAD PUSH1 0xA0 SWAP1 SWAP2 ADD MSTORE SWAP3 SWAP2 POP POP JUMP JUMPDEST PUSH2 0x14BA PUSH2 0x1FC6 JUMP JUMPDEST PUSH2 0x14C5 PUSH1 0x6 DUP3 PUSH2 0x1FB3 JUMP JUMPDEST PUSH2 0x14E1 JUMPI PUSH1 0x40 MLOAD PUSH3 0x461BCD PUSH1 0xE5 SHL DUP2 MSTORE PUSH1 0x4 ADD PUSH2 0x4F2 SWAP1 PUSH2 0x32EE JUMP JUMPDEST PUSH1 0x0 DUP2 DUP2 MSTORE PUSH1 0x5 PUSH1 0x20 MSTORE PUSH1 0x40 SWAP1 KECCAK256 PUSH1 0x1 DUP2 ADD SLOAD PUSH4 0x1000000 SWAP1 DIV PUSH1 0x1 PUSH1 0x1 PUSH1 0xA0 SHL SUB AND CALLER EQ PUSH2 0x1542 JUMPI PUSH1 0x40 MLOAD PUSH3 0x461BCD PUSH1 0xE5 SHL DUP2 MSTORE PUSH1 0x20 PUSH1 0x4 DUP3 ADD MSTORE PUSH1 0xD PUSH1 0x24 DUP3 ADD MSTORE PUSH13 0x2737BA103A34329037BBB732B9 PUSH1 0x99 SHL PUSH1 0x44 DUP3 ADD MSTORE PUSH1 0x64 ADD PUSH2 0x4F2 JUMP JUMPDEST PUSH1 0x1 DUP1 DUP3 DUP2 ADD SLOAD PUSH2 0x100 SWAP1 DIV PUSH1 0xFF AND SWAP1 DUP2 GT ISZERO PUSH2 0x1561 JUMPI PUSH2 0x1561 PUSH2 0x2E30 JUMP JUMPDEST EQ PUSH2 0x157E JUMPI PUSH1 0x40 MLOAD PUSH3 0x461BCD PUSH1 0xE5 SHL DUP2 MSTORE PUSH1 0x4 ADD PUSH2 0x4F2 SWAP1 PUSH2 0x354A JUMP JUMPDEST PUSH1 0x4 DUP2 ADD SLOAD PUSH1 0xFF AND PUSH2 0x15CE JUMPI PUSH1 0x40 MLOAD PUSH3 0x461BCD PUSH1 0xE5 SHL DUP2 MSTORE PUSH1 0x20 PUSH1 0x4 DUP3 ADD MSTORE PUSH1 0x19 PUSH1 0x24 DUP3 ADD MSTORE PUSH25 0xEAE6CAE440C8D2C840DCDEE840EED2DC40E8D0D2E640C4DEF PUSH1 0x3B SHL PUSH1 0x44 DUP3 ADD MSTORE PUSH1 0x64 ADD PUSH2 0x4F2 JUMP JUMPDEST PUSH1 0x1 DUP2 ADD DUP1 SLOAD PUSH2 0xFF00 NOT AND SWAP1 SSTORE PUSH1 0x2 DUP2 ADD SLOAD PUSH1 0x5 DUP3 ADD SLOAD PUSH2 0x15FA SWAP2 PUSH1 0x1 PUSH1 0x1 PUSH1 0xA0 SHL SUB AND SWAP1 CALLER SWAP1 PUSH2 0x23E8 JUMP JUMPDEST PUSH1 0x40 MLOAD CALLER SWAP1 DUP4 SWAP1 PUSH32 0x73C4D210015330A38433845484805DA09D022359C35FB7FC8BD04381A5A92003 SWAP1 PUSH1 0x0 SWAP1 LOG3 POP PUSH2 0x1323 PUSH2 0x2052 JUMP JUMPDEST PUSH1 0x0 PUSH2 0x163C PUSH1 0x6 PUSH2 0x2063 JUMP JUMPDEST DUP3 LT PUSH2 0x1680 JUMPI PUSH1 0x40 MLOAD PUSH3 0x461BCD PUSH1 0xE5 SHL DUP2 MSTORE PUSH1 0x20 PUSH1 0x4 DUP3 ADD MSTORE PUSH1 0x13 PUSH1 0x24 DUP3 ADD MSTORE PUSH19 0x496E646578206F7574206F6620626F756E6473 PUSH1 0x68 SHL PUSH1 0x44 DUP3 ADD MSTORE PUSH1 0x64 ADD PUSH2 0x4F2 JUMP JUMPDEST PUSH2 0x168B PUSH1 0x6 DUP4 PUSH2 0x24B5 JUMP JUMPDEST SWAP3 SWAP2 POP POP JUMP JUMPDEST PUSH2 0x1699 PUSH2 0x1F81 JUMP JUMPDEST PUSH2 0x16A1 PUSH2 0x1FC6 JUMP JUMPDEST SELFBALANCE DUP1 PUSH2 0x16D8 JUMPI PUSH1 0x40 MLOAD PUSH3 0x461BCD PUSH1 0xE5 SHL DUP2 MSTORE PUSH1 0x20 PUSH1 0x4 DUP3 ADD MSTORE PUSH1 0x6 PUSH1 0x24 DUP3 ADD MSTORE PUSH6 0x9CDE408AA89 PUSH1 0xD3 SHL PUSH1 0x44 DUP3 ADD MSTORE PUSH1 0x64 ADD PUSH2 0x4F2 JUMP JUMPDEST DUP1 DUP3 GT ISZERO PUSH2 0x16F8 JUMPI PUSH1 0x40 MLOAD PUSH3 0x461BCD PUSH1 0xE5 SHL DUP2 MSTORE PUSH1 0x4 ADD PUSH2 0x4F2 SWAP1 PUSH2 0x3403 JUMP JUMPDEST PUSH1 0x0 DUP4 PUSH1 0x1 PUSH1 0x1 PUSH1 0xA0 SHL SUB AND DUP4 PUSH1 0x40 MLOAD PUSH1 0x0 PUSH1 0x40 MLOAD DUP1 DUP4 SUB DUP2 DUP6 DUP8 GAS CALL SWAP3 POP POP POP RETURNDATASIZE DUP1 PUSH1 0x0 DUP2 EQ PUSH2 0x1745 JUMPI PUSH1 0x40 MLOAD SWAP2 POP PUSH1 0x1F NOT PUSH1 0x3F RETURNDATASIZE ADD AND DUP3 ADD PUSH1 0x40 MSTORE RETURNDATASIZE DUP3 MSTORE RETURNDATASIZE PUSH1 0x0 PUSH1 0x20 DUP5 ADD RETURNDATACOPY PUSH2 0x174A JUMP JUMPDEST PUSH1 0x60 SWAP2 POP JUMPDEST POP POP SWAP1 POP DUP1 PUSH2 0x178D JUMPI PUSH1 0x40 MLOAD PUSH3 0x461BCD PUSH1 0xE5 SHL DUP2 MSTORE PUSH1 0x20 PUSH1 0x4 DUP3 ADD MSTORE PUSH1 0xF PUSH1 0x24 DUP3 ADD MSTORE PUSH15 0x151C985B9CD9995C8819985A5B1959 PUSH1 0x8A SHL PUSH1 0x44 DUP3 ADD MSTORE PUSH1 0x64 ADD PUSH2 0x4F2 JUMP JUMPDEST POP POP PUSH2 0x12E7 PUSH2 0x2052 JUMP JUMPDEST PUSH2 0x179F PUSH2 0x1F81 JUMP JUMPDEST DUP2 PUSH1 0x1 PUSH1 0x1 PUSH1 0xA0 SHL SUB DUP2 AND ISZERO PUSH2 0x188A JUMPI DUP1 EXTCODESIZE PUSH4 0xFFFFFFFF AND PUSH2 0x17D3 JUMPI PUSH1 0x40 MLOAD PUSH3 0x461BCD PUSH1 0xE5 SHL DUP2 MSTORE PUSH1 0x4 ADD PUSH2 0x4F2 SWAP1 PUSH2 0x3259 JUMP JUMPDEST PUSH1 0x0 DUP2 PUSH1 0x1 PUSH1 0x1 PUSH1 0xA0 SHL SUB AND ADDRESS PUSH1 0x40 MLOAD PUSH1 0x24 ADD PUSH2 0x17F0 SWAP2 SWAP1 PUSH2 0x30EA JUMP JUMPDEST PUSH1 0x40 DUP1 MLOAD PUSH1 0x1F NOT DUP2 DUP5 SUB ADD DUP2 MSTORE SWAP2 DUP2 MSTORE PUSH1 0x20 DUP3 ADD DUP1 MLOAD PUSH1 0x1 PUSH1 0x1 PUSH1 0xE0 SHL SUB AND PUSH4 0x70A08231 PUSH1 0xE0 SHL OR SWAP1 MSTORE MLOAD PUSH2 0x1825 SWAP2 SWAP1 PUSH2 0x32A5 JUMP JUMPDEST PUSH1 0x0 PUSH1 0x40 MLOAD DUP1 DUP4 SUB DUP2 PUSH1 0x0 DUP7 GAS CALL SWAP2 POP POP RETURNDATASIZE DUP1 PUSH1 0x0 DUP2 EQ PUSH2 0x1862 JUMPI PUSH1 0x40 MLOAD SWAP2 POP PUSH1 0x1F NOT PUSH1 0x3F RETURNDATASIZE ADD AND DUP3 ADD PUSH1 0x40 MSTORE RETURNDATASIZE DUP3 MSTORE RETURNDATASIZE PUSH1 0x0 PUSH1 0x20 DUP5 ADD RETURNDATACOPY PUSH2 0x1867 JUMP JUMPDEST PUSH1 0x60 SWAP2 POP JUMPDEST POP POP SWAP1 POP DUP1 PUSH2 0x1888 JUMPI PUSH1 0x40 MLOAD PUSH3 0x461BCD PUSH1 0xE5 SHL DUP2 MSTORE PUSH1 0x4 ADD PUSH2 0x4F2 SWAP1 PUSH2 0x32C1 JUMP JUMPDEST POP JUMPDEST PUSH1 0x0 DUP3 GT PUSH2 0x18AA JUMPI PUSH1 0x40 MLOAD PUSH3 0x461BCD PUSH1 0xE5 SHL DUP2 MSTORE PUSH1 0x4 ADD PUSH2 0x4F2 SWAP1 PUSH2 0x3318 JUMP JUMPDEST PUSH1 0x0 JUMPDEST PUSH2 0x18B5 PUSH2 0x24C1 JUMP JUMPDEST SWAP1 POP PUSH2 0x18C2 PUSH1 0x6 DUP3 PUSH2 0x1FB3 JUMP JUMPDEST PUSH2 0x18AD JUMPI PUSH1 0x0 DUP7 PUSH1 0x1 DUP2 GT ISZERO PUSH2 0x18DA JUMPI PUSH2 0x18DA PUSH2 0x2E30 JUMP JUMPDEST EQ DUP1 PUSH2 0x18F7 JUMPI POP PUSH1 0x1 DUP7 PUSH1 0x1 DUP2 GT ISZERO PUSH2 0x18F5 JUMPI PUSH2 0x18F5 PUSH2 0x2E30 JUMP JUMPDEST EQ JUMPDEST PUSH2 0x1913 JUMPI PUSH1 0x40 MLOAD PUSH3 0x461BCD PUSH1 0xE5 SHL DUP2 MSTORE PUSH1 0x4 ADD PUSH2 0x4F2 SWAP1 PUSH2 0x335E JUMP JUMPDEST PUSH1 0x0 DUP6 PUSH1 0x2 DUP2 GT ISZERO PUSH2 0x1927 JUMPI PUSH2 0x1927 PUSH2 0x2E30 JUMP JUMPDEST EQ DUP1 PUSH2 0x1944 JUMPI POP PUSH1 0x1 DUP6 PUSH1 0x2 DUP2 GT ISZERO PUSH2 0x1942 JUMPI PUSH2 0x1942 PUSH2 0x2E30 JUMP JUMPDEST EQ JUMPDEST DUP1 PUSH2 0x1960 JUMPI POP PUSH1 0x2 DUP6 PUSH1 0x2 DUP2 GT ISZERO PUSH2 0x195E JUMPI PUSH2 0x195E PUSH2 0x2E30 JUMP JUMPDEST EQ JUMPDEST PUSH2 0x197C JUMPI PUSH1 0x40 MLOAD PUSH3 0x461BCD PUSH1 0xE5 SHL DUP2 MSTORE PUSH1 0x4 ADD PUSH2 0x4F2 SWAP1 PUSH2 0x3388 JUMP JUMPDEST PUSH1 0x0 DUP4 GT PUSH2 0x199C JUMPI PUSH1 0x40 MLOAD PUSH3 0x461BCD PUSH1 0xE5 SHL DUP2 MSTORE PUSH1 0x4 ADD PUSH2 0x4F2 SWAP1 PUSH2 0x3318 JUMP JUMPDEST PUSH1 0x1 PUSH1 0x1 PUSH1 0xA0 SHL SUB DUP5 AND ISZERO PUSH2 0x1A62 JUMPI PUSH1 0x40 MLOAD PUSH4 0x6EB1769F PUSH1 0xE1 SHL DUP2 MSTORE CALLER PUSH1 0x4 DUP3 ADD MSTORE ADDRESS PUSH1 0x24 DUP3 ADD MSTORE DUP4 SWAP1 PUSH1 0x1 PUSH1 0x1 PUSH1 0xA0 SHL SUB DUP7 AND SWAP1 PUSH4 0xDD62ED3E SWAP1 PUSH1 0x44 ADD PUSH1 0x20 PUSH1 0x40 MLOAD DUP1 DUP4 SUB DUP2 DUP7 GAS STATICCALL ISZERO DUP1 ISZERO PUSH2 0x19F7 JUMPI RETURNDATASIZE PUSH1 0x0 DUP1 RETURNDATACOPY RETURNDATASIZE PUSH1 0x0 REVERT JUMPDEST POP POP POP POP PUSH1 0x40 MLOAD RETURNDATASIZE PUSH1 0x1F NOT PUSH1 0x1F DUP3 ADD AND DUP3 ADD DUP1 PUSH1 0x40 MSTORE POP DUP2 ADD SWAP1 PUSH2 0x1A1B SWAP2 SWAP1 PUSH2 0x33EA JUMP JUMPDEST LT ISZERO PUSH2 0x1A62 JUMPI PUSH1 0x40 MLOAD PUSH3 0x461BCD PUSH1 0xE5 SHL DUP2 MSTORE PUSH1 0x20 PUSH1 0x4 DUP3 ADD MSTORE PUSH1 0x16 PUSH1 0x24 DUP3 ADD MSTORE PUSH22 0x496E73756666696369656E7420616C6C6F77616E6365 PUSH1 0x50 SHL PUSH1 0x44 DUP3 ADD MSTORE PUSH1 0x64 ADD PUSH2 0x4F2 JUMP JUMPDEST PUSH1 0x40 MLOAD DUP1 PUSH2 0x120 ADD PUSH1 0x40 MSTORE DUP1 DUP3 DUP2 MSTORE PUSH1 0x20 ADD DUP8 PUSH1 0x1 DUP2 GT ISZERO PUSH2 0x1A86 JUMPI PUSH2 0x1A86 PUSH2 0x2E30 JUMP JUMPDEST DUP2 MSTORE PUSH1 0x20 ADD PUSH1 0x1 DUP2 MSTORE PUSH1 0x20 ADD DUP7 PUSH1 0x2 DUP2 GT ISZERO PUSH2 0x1AA4 JUMPI PUSH2 0x1AA4 PUSH2 0x2E30 JUMP JUMPDEST DUP2 MSTORE PUSH1 0x0 PUSH1 0x20 DUP1 DUP4 ADD DUP3 SWAP1 MSTORE PUSH1 0x1 PUSH1 0x1 PUSH1 0xA0 SHL SUB DUP9 AND PUSH1 0x40 DUP1 DUP6 ADD SWAP2 SWAP1 SWAP2 MSTORE PUSH1 0x60 DUP5 ADD DUP9 SWAP1 MSTORE PUSH1 0x80 DUP5 ADD DUP4 SWAP1 MSTORE PUSH1 0xA0 SWAP1 SWAP4 ADD DUP3 SWAP1 MSTORE DUP5 DUP3 MSTORE PUSH1 0x5 DUP2 MSTORE SWAP2 SWAP1 KECCAK256 DUP3 MLOAD DUP2 SSTORE SWAP1 DUP3 ADD MLOAD PUSH1 0x1 DUP3 DUP2 ADD DUP1 SLOAD SWAP1 SWAP2 PUSH1 0xFF NOT SWAP1 SWAP2 AND SWAP1 DUP4 DUP2 DUP2 GT ISZERO PUSH2 0x1B0C JUMPI PUSH2 0x1B0C PUSH2 0x2E30 JUMP JUMPDEST MUL OR SWAP1 SSTORE POP PUSH1 0x40 DUP3 ADD MLOAD DUP2 PUSH1 0x1 ADD PUSH1 0x1 PUSH2 0x100 EXP DUP2 SLOAD DUP2 PUSH1 0xFF MUL NOT AND SWAP1 DUP4 PUSH1 0x1 DUP2 GT ISZERO PUSH2 0x1B3B JUMPI PUSH2 0x1B3B PUSH2 0x2E30 JUMP JUMPDEST MUL OR SWAP1 SSTORE POP PUSH1 0x60 DUP3 ADD MLOAD PUSH1 0x1 DUP3 ADD DUP1 SLOAD PUSH3 0xFF0000 NOT AND PUSH3 0x10000 DUP4 PUSH1 0x2 DUP2 GT ISZERO PUSH2 0x1B67 JUMPI PUSH2 0x1B67 PUSH2 0x2E30 JUMP JUMPDEST MUL OR SWAP1 SSTORE POP PUSH1 0x80 DUP3 ADD MLOAD PUSH1 0x1 DUP3 ADD DUP1 SLOAD PUSH4 0x1000000 PUSH1 0x1 PUSH1 0xB8 SHL SUB NOT AND PUSH4 0x1000000 PUSH1 0x1 PUSH1 0x1 PUSH1 0xA0 SHL SUB SWAP4 DUP5 AND MUL OR SWAP1 SSTORE PUSH1 0xA0 DUP4 ADD MLOAD PUSH1 0x2 DUP4 ADD DUP1 SLOAD PUSH1 0x1 PUSH1 0x1 PUSH1 0xA0 SHL SUB NOT AND SWAP2 SWAP1 SWAP3 AND OR SWAP1 SSTORE PUSH1 0xC0 DUP3 ADD MLOAD PUSH1 0x3 DUP3 ADD SSTORE PUSH1 0xE0 DUP3 ADD MLOAD PUSH1 0x4 DUP3 ADD DUP1 SLOAD PUSH1 0xFF NOT AND SWAP2 ISZERO ISZERO SWAP2 SWAP1 SWAP2 OR SWAP1 SSTORE PUSH2 0x100 SWAP1 SWAP2 ADD MLOAD PUSH1 0x5 SWAP1 SWAP2 ADD SSTORE PUSH2 0x1BEE PUSH1 0x6 DUP3 PUSH2 0x2568 JUMP JUMPDEST POP PUSH1 0x1 PUSH1 0x1 PUSH1 0xA0 SHL SUB DUP5 AND PUSH2 0x1C4E JUMPI DUP3 CALLVALUE EQ PUSH2 0x1C49 JUMPI PUSH1 0x40 MLOAD PUSH3 0x461BCD PUSH1 0xE5 SHL DUP2 MSTORE PUSH1 0x20 PUSH1 0x4 DUP3 ADD MSTORE PUSH1 0x1A PUSH1 0x24 DUP3 ADD MSTORE PUSH26 0x125B98DBDC9C9958DD08195D1A195C881D985B1D59481CD95B9D PUSH1 0x32 SHL PUSH1 0x44 DUP3 ADD MSTORE PUSH1 0x64 ADD PUSH2 0x4F2 JUMP JUMPDEST PUSH2 0x1C5A JUMP JUMPDEST PUSH2 0x1C5A DUP5 CALLER ADDRESS DUP7 PUSH2 0x2574 JUMP JUMPDEST PUSH1 0x0 PUSH1 0x1 PUSH1 0x1 PUSH1 0xA0 SHL SUB AND DUP2 PUSH32 0xB3B535E190EFDD2DA85C3B882E6C17533A6FFCBEB2AC4B3B42013E095E11D8BC DUP9 PUSH1 0x1 DUP10 DUP10 DUP10 PUSH1 0x40 MLOAD PUSH2 0x1C9E SWAP6 SWAP5 SWAP4 SWAP3 SWAP2 SWAP1 PUSH2 0x3576 JUMP JUMPDEST PUSH1 0x40 MLOAD DUP1 SWAP2 SUB SWAP1 LOG3 POP POP POP POP POP POP JUMP JUMPDEST PUSH1 0x0 PUSH2 0x1CBB PUSH1 0x6 DUP4 PUSH2 0x1FB3 JUMP JUMPDEST PUSH2 0x1CD7 JUMPI PUSH1 0x40 MLOAD PUSH3 0x461BCD PUSH1 0xE5 SHL DUP2 MSTORE PUSH1 0x4 ADD PUSH2 0x4F2 SWAP1 PUSH2 0x32EE JUMP JUMPDEST PUSH1 0x1 PUSH1 0x0 DUP4 DUP2 MSTORE PUSH1 0x5 PUSH1 0x20 MSTORE PUSH1 0x40 SWAP1 KECCAK256 PUSH1 0x1 SWAP1 DUP2 ADD SLOAD PUSH2 0x100 SWAP1 DIV PUSH1 0xFF AND SWAP1 DUP2 GT ISZERO PUSH2 0x1D05 JUMPI PUSH2 0x1D05 PUSH2 0x2E30 JUMP JUMPDEST EQ PUSH2 0x1D22 JUMPI PUSH1 0x40 MLOAD PUSH3 0x461BCD PUSH1 0xE5 SHL DUP2 MSTORE PUSH1 0x4 ADD PUSH2 0x4F2 SWAP1 PUSH2 0x354A JUMP JUMPDEST PUSH1 0x0 DUP3 DUP2 MSTORE PUSH1 0x5 PUSH1 0x20 MSTORE PUSH1 0x40 SWAP1 KECCAK256 PUSH1 0x1 ADD SLOAD PUSH4 0x1000000 SWAP1 DIV PUSH1 0x1 PUSH1 0x1 PUSH1 0xA0 SHL SUB AND ISZERO PUSH2 0x1D89 JUMPI PUSH1 0x40 MLOAD PUSH3 0x461BCD PUSH1 0xE5 SHL DUP2 MSTORE PUSH1 0x20 PUSH1 0x4 DUP3 ADD MSTORE PUSH1 0x15 PUSH1 0x24 DUP3 ADD MSTORE PUSH21 0x2137BC1030B63932B0B23C903430B99037BBB732B9 PUSH1 0x59 SHL PUSH1 0x44 DUP3 ADD MSTORE PUSH1 0x64 ADD PUSH2 0x4F2 JUMP JUMPDEST DUP3 PUSH1 0x1 EQ PUSH2 0x1DD1 JUMPI PUSH1 0x40 MLOAD PUSH3 0x461BCD PUSH1 0xE5 SHL DUP2 MSTORE PUSH1 0x20 PUSH1 0x4 DUP3 ADD MSTORE PUSH1 0x15 PUSH1 0x24 DUP3 ADD MSTORE PUSH21 0x13DB9B1E481BDB99481DDBDC9908185B1B1BDDD959 PUSH1 0x5A SHL PUSH1 0x44 DUP3 ADD MSTORE PUSH1 0x64 ADD PUSH2 0x4F2 JUMP JUMPDEST CALLER TIMESTAMP PUSH1 0x0 SLOAD PUSH1 0x40 MLOAD PUSH1 0x20 ADD PUSH2 0x1DE8 SWAP4 SWAP3 SWAP2 SWAP1 PUSH2 0x35BE JUMP JUMPDEST PUSH1 0x40 DUP1 MLOAD PUSH1 0x1F NOT DUP2 DUP5 SUB ADD DUP2 MSTORE SWAP2 SWAP1 MSTORE DUP1 MLOAD PUSH1 0x20 SWAP1 SWAP2 ADD KECCAK256 PUSH1 0x0 DUP2 DUP2 SSTORE PUSH1 0x1 DUP1 SLOAD TIMESTAMP SWAP3 PREVRANDAO SWAP3 CALLER SWAP3 ADDRESS SWAP3 DUP11 SWAP3 DUP11 SWAP3 SWAP2 PUSH2 0x1E1F DUP4 PUSH2 0x35E3 JUMP JUMPDEST SWAP1 SWAP2 SSTORE POP PUSH1 0x40 DUP1 MLOAD PUSH1 0x20 DUP2 ADD SWAP10 SWAP1 SWAP10 MSTORE DUP9 ADD SWAP7 SWAP1 SWAP7 MSTORE PUSH1 0x60 DUP1 DUP9 ADD SWAP6 SWAP1 SWAP6 MSTORE SWAP3 DUP5 SHL PUSH1 0x1 PUSH1 0x1 PUSH1 0x60 SHL SUB NOT SWAP1 DUP2 AND PUSH1 0x80 DUP9 ADD MSTORE SWAP2 SWAP1 SWAP4 SHL AND PUSH1 0x94 DUP6 ADD MSTORE PUSH1 0xA8 DUP5 ADD SWAP2 SWAP1 SWAP2 MSTORE PUSH1 0xC8 DUP4 ADD MSTORE PUSH1 0xE8 DUP3 ADD MSTORE PUSH2 0x108 ADD PUSH1 0x40 DUP1 MLOAD PUSH1 0x1F NOT DUP2 DUP5 SUB ADD DUP2 MSTORE SWAP2 DUP2 MSTORE DUP2 MLOAD PUSH1 0x20 SWAP3 DUP4 ADD KECCAK256 PUSH1 0x0 DUP2 DUP2 MSTORE PUSH1 0x4 SWAP1 SWAP4 MSTORE SWAP2 KECCAK256 SLOAD SWAP1 SWAP2 POP PUSH1 0xFF AND ISZERO PUSH2 0x1EDE JUMPI PUSH1 0x40 MLOAD PUSH3 0x461BCD PUSH1 0xE5 SHL DUP2 MSTORE PUSH1 0x20 PUSH1 0x4 DUP3 ADD MSTORE PUSH1 0x11 PUSH1 0x24 DUP3 ADD MSTORE PUSH17 0x5265717565737420494420657869737473 PUSH1 0x78 SHL PUSH1 0x44 DUP3 ADD MSTORE PUSH1 0x64 ADD PUSH2 0x4F2 JUMP JUMPDEST PUSH1 0x0 DUP2 DUP2 MSTORE PUSH1 0x4 PUSH1 0x20 MSTORE PUSH1 0x40 SWAP1 DUP2 SWAP1 KECCAK256 DUP1 SLOAD PUSH1 0xFF NOT AND PUSH1 0x1 OR SWAP1 SSTORE MLOAD DUP3 SWAP1 CALLER SWAP1 DUP4 SWAP1 PUSH32 0x82D16AF03B973F65F2891A082A63207D4A1D14BDC8E3CB5995B0B5AA05A06BF4 SWAP1 PUSH2 0x1F38 SWAP1 DUP9 SWAP1 TIMESTAMP SWAP1 SWAP2 DUP3 MSTORE PUSH1 0x20 DUP3 ADD MSTORE PUSH1 0x40 ADD SWAP1 JUMP JUMPDEST PUSH1 0x40 MLOAD DUP1 SWAP2 SUB SWAP1 LOG4 SWAP3 SWAP2 POP POP JUMP JUMPDEST PUSH2 0x1F4E PUSH2 0x1F81 JUMP JUMPDEST PUSH1 0x1 PUSH1 0x1 PUSH1 0xA0 SHL SUB DUP2 AND PUSH2 0x1F78 JUMPI PUSH1 0x0 PUSH1 0x40 MLOAD PUSH4 0x1E4FBDF7 PUSH1 0xE0 SHL DUP2 MSTORE PUSH1 0x4 ADD PUSH2 0x4F2 SWAP2 SWAP1 PUSH2 0x30EA JUMP JUMPDEST PUSH2 0x1323 DUP2 PUSH2 0x206D JUMP JUMPDEST CALLER PUSH2 0x1F8A PUSH2 0x1166 JUMP JUMPDEST PUSH1 0x1 PUSH1 0x1 PUSH1 0xA0 SHL SUB AND EQ PUSH2 0x9A3 JUMPI CALLER PUSH1 0x40 MLOAD PUSH4 0x118CDAA7 PUSH1 0xE0 SHL DUP2 MSTORE PUSH1 0x4 ADD PUSH2 0x4F2 SWAP2 SWAP1 PUSH2 0x30EA JUMP JUMPDEST PUSH1 0x0 PUSH2 0x1FBF DUP4 DUP4 PUSH2 0x25AC JUMP JUMPDEST SWAP4 SWAP3 POP POP POP JUMP JUMPDEST PUSH1 0x0 PUSH2 0x1FD0 PUSH2 0x25C4 JUMP JUMPDEST DUP1 SLOAD SWAP1 SWAP2 POP PUSH1 0x1 NOT ADD PUSH2 0x1FF6 JUMPI PUSH1 0x40 MLOAD PUSH4 0x3EE5AEB5 PUSH1 0xE0 SHL DUP2 MSTORE PUSH1 0x4 ADD PUSH1 0x40 MLOAD DUP1 SWAP2 SUB SWAP1 REVERT JUMPDEST PUSH1 0x2 SWAP1 SSTORE JUMP JUMPDEST PUSH2 0x8B4 DUP4 PUSH4 0xA9059CBB PUSH1 0xE0 SHL DUP5 DUP5 PUSH1 0x40 MLOAD PUSH1 0x24 ADD PUSH2 0x201B SWAP3 SWAP2 SWAP1 PUSH2 0x34DA JUMP JUMPDEST PUSH1 0x40 DUP1 MLOAD PUSH1 0x1F NOT DUP2 DUP5 SUB ADD DUP2 MSTORE SWAP2 SWAP1 MSTORE PUSH1 0x20 DUP2 ADD DUP1 MLOAD PUSH1 0x1 PUSH1 0x1 PUSH1 0xE0 SHL SUB AND PUSH1 0x1 PUSH1 0x1 PUSH1 0xE0 SHL SUB NOT SWAP1 SWAP4 AND SWAP3 SWAP1 SWAP3 OR SWAP1 SWAP2 MSTORE PUSH2 0x25E8 JUMP JUMPDEST PUSH1 0x0 PUSH2 0x205C PUSH2 0x25C4 JUMP JUMPDEST PUSH1 0x1 SWAP1 SSTORE POP JUMP JUMPDEST PUSH1 0x0 PUSH2 0x168B DUP3 SLOAD SWAP1 JUMP JUMPDEST PUSH1 0x0 PUSH2 0x2077 PUSH2 0x240B JUMP JUMPDEST DUP1 SLOAD PUSH1 0x1 PUSH1 0x1 PUSH1 0xA0 SHL SUB DUP5 DUP2 AND PUSH1 0x1 PUSH1 0x1 PUSH1 0xA0 SHL SUB NOT DUP4 AND DUP2 OR DUP5 SSTORE PUSH1 0x40 MLOAD SWAP4 SWAP5 POP SWAP2 AND SWAP2 DUP3 SWAP1 PUSH32 0x8BE0079C531659141344CD1FD0A4F28419497F9722A3DAAFE3B4186F6B6457E0 SWAP1 PUSH1 0x0 SWAP1 LOG3 POP POP POP JUMP JUMPDEST PUSH1 0x0 DUP1 PUSH32 0xF0C57E16840DF040F15088DC2F81FE391C3923BEC73E23A9662EFC9C229C6A00 PUSH2 0x168B JUMP JUMPDEST PUSH2 0x20FA PUSH2 0x26BD JUMP JUMPDEST PUSH2 0x1323 DUP2 PUSH2 0x26E2 JUMP JUMPDEST PUSH2 0x210B PUSH2 0x26BD JUMP JUMPDEST PUSH2 0x9A3 PUSH2 0x26EA JUMP JUMPDEST PUSH1 0x1 PUSH1 0x1 PUSH1 0xA0 SHL SUB DUP6 AND PUSH1 0x0 SWAP1 DUP2 MSTORE PUSH1 0x9 PUSH1 0x20 MSTORE PUSH1 0x40 DUP2 KECCAK256 SLOAD PUSH2 0x2138 PUSH2 0x12C DUP7 PUSH2 0x3489 JUMP JUMPDEST TIMESTAMP GT ISZERO PUSH2 0x217B JUMPI PUSH1 0x40 MLOAD PUSH3 0x461BCD PUSH1 0xE5 SHL DUP2 MSTORE PUSH1 0x20 PUSH1 0x4 DUP3 ADD MSTORE PUSH1 0x11 PUSH1 0x24 DUP3 ADD MSTORE PUSH17 0x14DA59DB985D1D5C9948195E1C1A5C9959 PUSH1 0x7A SHL PUSH1 0x44 DUP3 ADD MSTORE PUSH1 0x64 ADD PUSH2 0x4F2 JUMP JUMPDEST TIMESTAMP DUP6 GT ISZERO PUSH2 0x21BF JUMPI PUSH1 0x40 MLOAD PUSH3 0x461BCD PUSH1 0xE5 SHL DUP2 MSTORE PUSH1 0x20 PUSH1 0x4 DUP3 ADD MSTORE PUSH1 0x11 PUSH1 0x24 DUP3 ADD MSTORE PUSH17 0x496E76616C69642074696D657374616D7 PUSH1 0x7C SHL PUSH1 0x44 DUP3 ADD MSTORE PUSH1 0x64 ADD PUSH2 0x4F2 JUMP JUMPDEST PUSH1 0x0 DUP11 DUP11 DUP11 DUP11 DUP11 DUP7 DUP12 ADDRESS PUSH1 0x40 MLOAD PUSH1 0x20 ADD PUSH2 0x21E0 SWAP9 SWAP8 SWAP7 SWAP6 SWAP5 SWAP4 SWAP3 SWAP2 SWAP1 PUSH2 0x35FC JUMP JUMPDEST PUSH1 0x40 MLOAD PUSH1 0x20 DUP2 DUP4 SUB SUB DUP2 MSTORE SWAP1 PUSH1 0x40 MSTORE DUP1 MLOAD SWAP1 PUSH1 0x20 ADD KECCAK256 SWAP1 POP PUSH1 0x0 PUSH2 0x2230 DUP3 PUSH28 0xCA2BA3432B932BAB69029B4B3B732B21026B2B9B9B0B3B29D051999 PUSH1 0x21 SHL PUSH1 0x0 SWAP1 DUP2 MSTORE PUSH1 0x1C SWAP2 SWAP1 SWAP2 MSTORE PUSH1 0x3C SWAP1 KECCAK256 SWAP1 JUMP JUMPDEST SWAP1 POP PUSH2 0x223D DUP4 PUSH1 0x1 PUSH2 0x3489 JUMP JUMPDEST PUSH1 0x9 PUSH1 0x0 DUP12 PUSH1 0x1 PUSH1 0x1 PUSH1 0xA0 SHL SUB AND PUSH1 0x1 PUSH1 0x1 PUSH1 0xA0 SHL SUB AND DUP2 MSTORE PUSH1 0x20 ADD SWAP1 DUP2 MSTORE PUSH1 0x20 ADD PUSH1 0x0 KECCAK256 DUP2 SWAP1 SSTORE POP DUP8 PUSH1 0x1 PUSH1 0x1 PUSH1 0xA0 SHL SUB AND PUSH2 0x22B0 DUP3 DUP9 DUP9 DUP1 DUP1 PUSH1 0x1F ADD PUSH1 0x20 DUP1 SWAP2 DIV MUL PUSH1 0x20 ADD PUSH1 0x40 MLOAD SWAP1 DUP2 ADD PUSH1 0x40 MSTORE DUP1 SWAP4 SWAP3 SWAP2 SWAP1 DUP2 DUP2 MSTORE PUSH1 0x20 ADD DUP4 DUP4 DUP1 DUP3 DUP5 CALLDATACOPY PUSH1 0x0 SWAP3 ADD SWAP2 SWAP1 SWAP2 MSTORE POP PUSH2 0x26F2 SWAP3 POP POP POP JUMP JUMPDEST PUSH1 0x1 PUSH1 0x1 PUSH1 0xA0 SHL SUB AND EQ SWAP13 SWAP12 POP POP POP POP POP POP POP POP POP POP POP POP JUMP JUMPDEST PUSH2 0x12E7 DUP3 DUP3 PUSH1 0x40 MLOAD PUSH1 0x24 ADD PUSH2 0x22E0 SWAP3 SWAP2 SWAP1 PUSH2 0x369E JUMP JUMPDEST PUSH1 0x40 DUP1 MLOAD PUSH1 0x1F NOT DUP2 DUP5 SUB ADD DUP2 MSTORE SWAP2 SWAP1 MSTORE PUSH1 0x20 DUP2 ADD DUP1 MLOAD PUSH1 0x1 PUSH1 0x1 PUSH1 0xE0 SHL SUB AND PUSH4 0x2D839CB3 PUSH1 0xE2 SHL OR SWAP1 MSTORE PUSH2 0x2716 JUMP JUMPDEST PUSH2 0x12E7 DUP3 DUP3 PUSH1 0x40 MLOAD PUSH1 0x24 ADD PUSH2 0x2325 SWAP3 SWAP2 SWAP1 PUSH2 0x36C0 JUMP JUMPDEST PUSH1 0x40 DUP1 MLOAD PUSH1 0x1F NOT DUP2 DUP5 SUB ADD DUP2 MSTORE SWAP2 SWAP1 MSTORE PUSH1 0x20 DUP2 ADD DUP1 MLOAD PUSH1 0x1 PUSH1 0x1 PUSH1 0xE0 SHL SUB AND PUSH4 0x319AF333 PUSH1 0xE0 SHL OR SWAP1 MSTORE PUSH2 0x2716 JUMP JUMPDEST PUSH2 0x12E7 DUP3 DUP3 PUSH1 0x40 MLOAD PUSH1 0x24 ADD PUSH2 0x236A SWAP3 SWAP2 SWAP1 PUSH2 0x36EA JUMP JUMPDEST PUSH1 0x40 DUP1 MLOAD PUSH1 0x1F NOT DUP2 DUP5 SUB ADD DUP2 MSTORE SWAP2 SWAP1 MSTORE PUSH1 0x20 DUP2 ADD DUP1 MLOAD PUSH1 0x1 PUSH1 0x1 PUSH1 0xE0 SHL SUB AND PUSH4 0xC3B55635 PUSH1 0xE0 SHL OR SWAP1 MSTORE PUSH2 0x2716 JUMP JUMPDEST PUSH2 0x23E2 DUP5 DUP5 DUP5 DUP5 PUSH1 0x40 MLOAD PUSH1 0x24 ADD PUSH2 0x23B3 SWAP5 SWAP4 SWAP3 SWAP2 SWAP1 PUSH2 0x370E JUMP JUMPDEST PUSH1 0x40 DUP1 MLOAD PUSH1 0x1F NOT DUP2 DUP5 SUB ADD DUP2 MSTORE SWAP2 SWAP1 MSTORE PUSH1 0x20 DUP2 ADD DUP1 MLOAD PUSH1 0x1 PUSH1 0x1 PUSH1 0xE0 SHL SUB AND PUSH4 0xC67EA9D1 PUSH1 0xE0 SHL OR SWAP1 MSTORE PUSH2 0x2716 JUMP JUMPDEST POP POP POP POP JUMP JUMPDEST PUSH1 0x1 PUSH1 0x1 PUSH1 0xA0 SHL SUB DUP4 AND PUSH2 0x2400 JUMPI PUSH2 0x8B4 DUP3 DUP3 PUSH2 0x271F JUMP JUMPDEST PUSH2 0x8B4 DUP4 DUP4 DUP4 PUSH2 0x27FB JUMP JUMPDEST PUSH32 0x9016D09D72D40FDAE2FD8CEAC6B6234C7706214FD39C1CD1E609A0528C199300 SWAP1 JUMP JUMPDEST PUSH1 0x0 DUP2 DUP2 MSTORE PUSH1 0x5 PUSH1 0x20 DUP2 SWAP1 MSTORE PUSH1 0x40 DUP3 KECCAK256 DUP3 DUP2 SSTORE PUSH1 0x1 DUP2 ADD DUP1 SLOAD PUSH1 0x1 PUSH1 0x1 PUSH1 0xB8 SHL SUB NOT AND SWAP1 SSTORE PUSH1 0x2 DUP2 ADD DUP1 SLOAD PUSH1 0x1 PUSH1 0x1 PUSH1 0xA0 SHL SUB NOT AND SWAP1 SSTORE PUSH1 0x3 DUP2 ADD DUP4 SWAP1 SSTORE PUSH1 0x4 DUP2 ADD DUP1 SLOAD PUSH1 0xFF NOT AND SWAP1 SSTORE ADD SSTORE PUSH2 0x2486 PUSH1 0x6 DUP3 PUSH2 0x2806 JUMP JUMPDEST POP PUSH1 0x40 MLOAD DUP2 SWAP1 PUSH32 0x606CE84A58BEEBDD8ABDD4BB24672FC015A5EB5A7BE08A9D2F4023A920C8E7DD SWAP1 PUSH1 0x0 SWAP1 LOG2 POP JUMP JUMPDEST PUSH1 0x0 PUSH2 0x1FBF DUP4 DUP4 PUSH2 0x2812 JUMP JUMPDEST PUSH1 0x0 CALLER TIMESTAMP PUSH1 0x0 SLOAD PUSH1 0x40 MLOAD PUSH1 0x20 ADD PUSH2 0x24DA SWAP4 SWAP3 SWAP2 SWAP1 PUSH2 0x35BE JUMP JUMPDEST PUSH1 0x40 DUP1 MLOAD PUSH1 0x1F NOT DUP2 DUP5 SUB ADD DUP2 MSTORE SWAP2 SWAP1 MSTORE DUP1 MLOAD PUSH1 0x20 SWAP1 SWAP2 ADD KECCAK256 PUSH1 0x0 SSTORE PUSH1 0x1 DUP1 SLOAD PUSH2 0x2502 SWAP2 PUSH2 0x3489 JUMP JUMPDEST PUSH1 0x1 DUP2 SWAP1 SSTORE PUSH1 0x0 SLOAD PUSH1 0x40 DUP1 MLOAD TIMESTAMP PUSH1 0x20 DUP3 ADD MSTORE PREVRANDAO SWAP2 DUP2 ADD SWAP2 SWAP1 SWAP2 MSTORE PUSH1 0x1 PUSH1 0x1 PUSH1 0x60 SHL SUB NOT CALLER PUSH1 0x60 SWAP1 DUP2 SHL DUP3 AND DUP2 DUP5 ADD MSTORE ADDRESS SWAP1 SHL AND PUSH1 0x74 DUP3 ADD MSTORE PUSH1 0x88 DUP2 ADD SWAP2 SWAP1 SWAP2 MSTORE PUSH1 0xA8 DUP2 ADD SWAP2 SWAP1 SWAP2 MSTORE PUSH1 0xC8 ADD PUSH1 0x40 MLOAD PUSH1 0x20 DUP2 DUP4 SUB SUB DUP2 MSTORE SWAP1 PUSH1 0x40 MSTORE DUP1 MLOAD SWAP1 PUSH1 0x20 ADD KECCAK256 SWAP1 POP SWAP1 JUMP JUMPDEST PUSH1 0x0 PUSH2 0x1FBF DUP4 DUP4 PUSH2 0x283C JUMP JUMPDEST PUSH1 0x40 MLOAD PUSH1 0x1 PUSH1 0x1 PUSH1 0xA0 SHL SUB DUP1 DUP6 AND PUSH1 0x24 DUP4 ADD MSTORE DUP4 AND PUSH1 0x44 DUP3 ADD MSTORE PUSH1 0x64 DUP2 ADD DUP3 SWAP1 MSTORE PUSH2 0x23E2 SWAP1 DUP6 SWAP1 PUSH4 0x23B872DD PUSH1 0xE0 SHL SWAP1 PUSH1 0x84 ADD PUSH2 0x201B JUMP JUMPDEST PUSH1 0x0 SWAP1 DUP2 MSTORE PUSH1 0x1 SWAP2 SWAP1 SWAP2 ADD PUSH1 0x20 MSTORE PUSH1 0x40 SWAP1 KECCAK256 SLOAD ISZERO ISZERO SWAP1 JUMP JUMPDEST PUSH32 0x9B779B17422D0DF92223018B32B4D1FA46E071723D6817E2486D003BECC55F00 SWAP1 JUMP JUMPDEST PUSH1 0x0 PUSH2 0x263D DUP3 PUSH1 0x40 MLOAD DUP1 PUSH1 0x40 ADD PUSH1 0x40 MSTORE DUP1 PUSH1 0x20 DUP2 MSTORE PUSH1 0x20 ADD PUSH32 0x5361666545524332303A206C6F772D6C6576656C2063616C6C206661696C6564 DUP2 MSTORE POP DUP6 PUSH1 0x1 PUSH1 0x1 PUSH1 0xA0 SHL SUB AND PUSH2 0x2886 SWAP1 SWAP3 SWAP2 SWAP1 PUSH4 0xFFFFFFFF AND JUMP JUMPDEST SWAP1 POP DUP1 MLOAD PUSH1 0x0 EQ DUP1 PUSH2 0x265E JUMPI POP DUP1 DUP1 PUSH1 0x20 ADD SWAP1 MLOAD DUP2 ADD SWAP1 PUSH2 0x265E SWAP2 SWAP1 PUSH2 0x374B JUMP JUMPDEST PUSH2 0x8B4 JUMPI PUSH1 0x40 MLOAD PUSH3 0x461BCD PUSH1 0xE5 SHL DUP2 MSTORE PUSH1 0x20 PUSH1 0x4 DUP3 ADD MSTORE PUSH1 0x2A PUSH1 0x24 DUP3 ADD MSTORE PUSH32 0x5361666545524332303A204552433230206F7065726174696F6E20646964206E PUSH1 0x44 DUP3 ADD MSTORE PUSH10 0x1BDD081CDD58D8D95959 PUSH1 0xB2 SHL PUSH1 0x64 DUP3 ADD MSTORE PUSH1 0x84 ADD PUSH2 0x4F2 JUMP JUMPDEST PUSH2 0x26C5 PUSH2 0x289D JUMP JUMPDEST PUSH2 0x9A3 JUMPI PUSH1 0x40 MLOAD PUSH4 0x1AFCD79F PUSH1 0xE3 SHL DUP2 MSTORE PUSH1 0x4 ADD PUSH1 0x40 MLOAD DUP1 SWAP2 SUB SWAP1 REVERT JUMPDEST PUSH2 0x1F4E PUSH2 0x26BD JUMP JUMPDEST PUSH2 0x2052 PUSH2 0x26BD JUMP JUMPDEST PUSH1 0x0 DUP1 PUSH1 0x0 PUSH2 0x2701 DUP6 DUP6 PUSH2 0x28B7 JUMP JUMPDEST SWAP2 POP SWAP2 POP PUSH2 0x270E DUP2 PUSH2 0x28FC JUMP JUMPDEST POP SWAP4 SWAP3 POP POP POP JUMP JUMPDEST PUSH2 0x1323 DUP2 PUSH2 0x2A41 JUMP JUMPDEST DUP1 SELFBALANCE LT ISZERO PUSH2 0x2762 JUMPI PUSH1 0x40 MLOAD PUSH3 0x461BCD PUSH1 0xE5 SHL DUP2 MSTORE PUSH1 0x20 PUSH1 0x4 DUP3 ADD MSTORE PUSH1 0x10 PUSH1 0x24 DUP3 ADD MSTORE PUSH16 0x92DCE6EACCCCD2C6D2CADCE8408AA89 PUSH1 0x83 SHL PUSH1 0x44 DUP3 ADD MSTORE PUSH1 0x64 ADD PUSH2 0x4F2 JUMP JUMPDEST PUSH1 0x0 DUP3 PUSH1 0x1 PUSH1 0x1 PUSH1 0xA0 SHL SUB AND DUP3 PUSH1 0x40 MLOAD PUSH1 0x0 PUSH1 0x40 MLOAD DUP1 DUP4 SUB DUP2 DUP6 DUP8 GAS CALL SWAP3 POP POP POP RETURNDATASIZE DUP1 PUSH1 0x0 DUP2 EQ PUSH2 0x27AF JUMPI PUSH1 0x40 MLOAD SWAP2 POP PUSH1 0x1F NOT PUSH1 0x3F RETURNDATASIZE ADD AND DUP3 ADD PUSH1 0x40 MSTORE RETURNDATASIZE DUP3 MSTORE RETURNDATASIZE PUSH1 0x0 PUSH1 0x20 DUP5 ADD RETURNDATACOPY PUSH2 0x27B4 JUMP JUMPDEST PUSH1 0x60 SWAP2 POP JUMPDEST POP POP SWAP1 POP DUP1 PUSH2 0x8B4 JUMPI PUSH1 0x40 MLOAD PUSH3 0x461BCD PUSH1 0xE5 SHL DUP2 MSTORE PUSH1 0x20 PUSH1 0x4 DUP3 ADD MSTORE PUSH1 0x13 PUSH1 0x24 DUP3 ADD MSTORE PUSH19 0x115512081D1C985B9CD9995C8819985A5B1959 PUSH1 0x6A SHL PUSH1 0x44 DUP3 ADD MSTORE PUSH1 0x64 ADD PUSH2 0x4F2 JUMP JUMPDEST PUSH2 0x8B4 DUP4 DUP4 DUP4 PUSH2 0x1FFC JUMP JUMPDEST PUSH1 0x0 PUSH2 0x1FBF DUP4 DUP4 PUSH2 0x2A62 JUMP JUMPDEST PUSH1 0x0 DUP3 PUSH1 0x0 ADD DUP3 DUP2 SLOAD DUP2 LT PUSH2 0x2829 JUMPI PUSH2 0x2829 PUSH2 0x3433 JUMP JUMPDEST SWAP1 PUSH1 0x0 MSTORE PUSH1 0x20 PUSH1 0x0 KECCAK256 ADD SLOAD SWAP1 POP SWAP3 SWAP2 POP POP JUMP JUMPDEST PUSH1 0x0 PUSH2 0x2848 DUP4 DUP4 PUSH2 0x25AC JUMP JUMPDEST PUSH2 0x287E JUMPI POP DUP2 SLOAD PUSH1 0x1 DUP2 DUP2 ADD DUP5 SSTORE PUSH1 0x0 DUP5 DUP2 MSTORE PUSH1 0x20 DUP1 DUP3 KECCAK256 SWAP1 SWAP4 ADD DUP5 SWAP1 SSTORE DUP5 SLOAD DUP5 DUP3 MSTORE DUP3 DUP7 ADD SWAP1 SWAP4 MSTORE PUSH1 0x40 SWAP1 KECCAK256 SWAP2 SWAP1 SWAP2 SSTORE PUSH2 0x168B JUMP JUMPDEST POP PUSH1 0x0 PUSH2 0x168B JUMP JUMPDEST PUSH1 0x60 PUSH2 0x2895 DUP5 DUP5 PUSH1 0x0 DUP6 PUSH2 0x2B55 JUMP JUMPDEST SWAP5 SWAP4 POP POP POP POP JUMP JUMPDEST PUSH1 0x0 PUSH2 0x28A7 PUSH2 0x20C9 JUMP JUMPDEST SLOAD PUSH1 0x1 PUSH1 0x40 SHL SWAP1 DIV PUSH1 0xFF AND SWAP2 SWAP1 POP JUMP JUMPDEST PUSH1 0x0 DUP1 DUP3 MLOAD PUSH1 0x41 SUB PUSH2 0x28ED JUMPI PUSH1 0x20 DUP4 ADD MLOAD PUSH1 0x40 DUP5 ADD MLOAD PUSH1 0x60 DUP6 ADD MLOAD PUSH1 0x0 BYTE PUSH2 0x28E1 DUP8 DUP3 DUP6 DUP6 PUSH2 0x2C30 JUMP JUMPDEST SWAP5 POP SWAP5 POP POP POP POP PUSH2 0x28F5 JUMP JUMPDEST POP PUSH1 0x0 SWAP1 POP PUSH1 0x2 JUMPDEST SWAP3 POP SWAP3 SWAP1 POP JUMP JUMPDEST PUSH1 0x0 DUP2 PUSH1 0x4 DUP2 GT ISZERO PUSH2 0x2910 JUMPI PUSH2 0x2910 PUSH2 0x2E30 JUMP JUMPDEST SUB PUSH2 0x2918 JUMPI POP JUMP JUMPDEST PUSH1 0x1 DUP2 PUSH1 0x4 DUP2 GT ISZERO PUSH2 0x292C JUMPI PUSH2 0x292C PUSH2 0x2E30 JUMP JUMPDEST SUB PUSH2 0x2974 JUMPI PUSH1 0x40 MLOAD PUSH3 0x461BCD PUSH1 0xE5 SHL DUP2 MSTORE PUSH1 0x20 PUSH1 0x4 DUP3 ADD MSTORE PUSH1 0x18 PUSH1 0x24 DUP3 ADD MSTORE PUSH24 0x45434453413A20696E76616C6964207369676E6174757265 PUSH1 0x40 SHL PUSH1 0x44 DUP3 ADD MSTORE PUSH1 0x64 ADD PUSH2 0x4F2 JUMP JUMPDEST PUSH1 0x2 DUP2 PUSH1 0x4 DUP2 GT ISZERO PUSH2 0x2988 JUMPI PUSH2 0x2988 PUSH2 0x2E30 JUMP JUMPDEST SUB PUSH2 0x29D5 JUMPI PUSH1 0x40 MLOAD PUSH3 0x461BCD PUSH1 0xE5 SHL DUP2 MSTORE PUSH1 0x20 PUSH1 0x4 DUP3 ADD MSTORE PUSH1 0x1F PUSH1 0x24 DUP3 ADD MSTORE PUSH32 0x45434453413A20696E76616C6964207369676E6174757265206C656E67746800 PUSH1 0x44 DUP3 ADD MSTORE PUSH1 0x64 ADD PUSH2 0x4F2 JUMP JUMPDEST PUSH1 0x3 DUP2 PUSH1 0x4 DUP2 GT ISZERO PUSH2 0x29E9 JUMPI PUSH2 0x29E9 PUSH2 0x2E30 JUMP JUMPDEST SUB PUSH2 0x1323 JUMPI PUSH1 0x40 MLOAD PUSH3 0x461BCD PUSH1 0xE5 SHL DUP2 MSTORE PUSH1 0x20 PUSH1 0x4 DUP3 ADD MSTORE PUSH1 0x22 PUSH1 0x24 DUP3 ADD MSTORE PUSH32 0x45434453413A20696E76616C6964207369676E6174757265202773272076616C PUSH1 0x44 DUP3 ADD MSTORE PUSH2 0x7565 PUSH1 0xF0 SHL PUSH1 0x64 DUP3 ADD MSTORE PUSH1 0x84 ADD PUSH2 0x4F2 JUMP JUMPDEST PUSH1 0x0 PUSH11 0x636F6E736F6C652E6C6F67 SWAP1 POP PUSH1 0x0 DUP1 DUP4 MLOAD PUSH1 0x20 DUP6 ADD DUP5 GAS STATICCALL POP POP POP JUMP JUMPDEST PUSH1 0x0 DUP2 DUP2 MSTORE PUSH1 0x1 DUP4 ADD PUSH1 0x20 MSTORE PUSH1 0x40 DUP2 KECCAK256 SLOAD DUP1 ISZERO PUSH2 0x2B4B JUMPI PUSH1 0x0 PUSH2 0x2A86 PUSH1 0x1 DUP4 PUSH2 0x34C7 JUMP JUMPDEST DUP6 SLOAD SWAP1 SWAP2 POP PUSH1 0x0 SWAP1 PUSH2 0x2A9A SWAP1 PUSH1 0x1 SWAP1 PUSH2 0x34C7 JUMP JUMPDEST SWAP1 POP DUP2 DUP2 EQ PUSH2 0x2AFF JUMPI PUSH1 0x0 DUP7 PUSH1 0x0 ADD DUP3 DUP2 SLOAD DUP2 LT PUSH2 0x2ABA JUMPI PUSH2 0x2ABA PUSH2 0x3433 JUMP JUMPDEST SWAP1 PUSH1 0x0 MSTORE PUSH1 0x20 PUSH1 0x0 KECCAK256 ADD SLOAD SWAP1 POP DUP1 DUP8 PUSH1 0x0 ADD DUP5 DUP2 SLOAD DUP2 LT PUSH2 0x2ADD JUMPI PUSH2 0x2ADD PUSH2 0x3433 JUMP JUMPDEST PUSH1 0x0 SWAP2 DUP3 MSTORE PUSH1 0x20 DUP1 DUP4 KECCAK256 SWAP1 SWAP2 ADD SWAP3 SWAP1 SWAP3 SSTORE SWAP2 DUP3 MSTORE PUSH1 0x1 DUP9 ADD SWAP1 MSTORE PUSH1 0x40 SWAP1 KECCAK256 DUP4 SWAP1 SSTORE JUMPDEST DUP6 SLOAD DUP7 SWAP1 DUP1 PUSH2 0x2B10 JUMPI PUSH2 0x2B10 PUSH2 0x3768 JUMP JUMPDEST PUSH1 0x1 SWAP1 SUB DUP2 DUP2 SWAP1 PUSH1 0x0 MSTORE PUSH1 0x20 PUSH1 0x0 KECCAK256 ADD PUSH1 0x0 SWAP1 SSTORE SWAP1 SSTORE DUP6 PUSH1 0x1 ADD PUSH1 0x0 DUP7 DUP2 MSTORE PUSH1 0x20 ADD SWAP1 DUP2 MSTORE PUSH1 0x20 ADD PUSH1 0x0 KECCAK256 PUSH1 0x0 SWAP1 SSTORE PUSH1 0x1 SWAP4 POP POP POP POP PUSH2 0x168B JUMP JUMPDEST PUSH1 0x0 SWAP2 POP POP PUSH2 0x168B JUMP JUMPDEST PUSH1 0x60 DUP3 SELFBALANCE LT ISZERO PUSH2 0x2BB6 JUMPI PUSH1 0x40 MLOAD PUSH3 0x461BCD PUSH1 0xE5 SHL DUP2 MSTORE PUSH1 0x20 PUSH1 0x4 DUP3 ADD MSTORE PUSH1 0x26 PUSH1 0x24 DUP3 ADD MSTORE PUSH32 0x416464726573733A20696E73756666696369656E742062616C616E636520666F PUSH1 0x44 DUP3 ADD MSTORE PUSH6 0x1C8818D85B1B PUSH1 0xD2 SHL PUSH1 0x64 DUP3 ADD MSTORE PUSH1 0x84 ADD PUSH2 0x4F2 JUMP JUMPDEST PUSH1 0x0 DUP1 DUP7 PUSH1 0x1 PUSH1 0x1 PUSH1 0xA0 SHL SUB AND DUP6 DUP8 PUSH1 0x40 MLOAD PUSH2 0x2BD2 SWAP2 SWAP1 PUSH2 0x32A5 JUMP JUMPDEST PUSH1 0x0 PUSH1 0x40 MLOAD DUP1 DUP4 SUB DUP2 DUP6 DUP8 GAS CALL SWAP3 POP POP POP RETURNDATASIZE DUP1 PUSH1 0x0 DUP2 EQ PUSH2 0x2C0F JUMPI PUSH1 0x40 MLOAD SWAP2 POP PUSH1 0x1F NOT PUSH1 0x3F RETURNDATASIZE ADD AND DUP3 ADD PUSH1 0x40 MSTORE RETURNDATASIZE DUP3 MSTORE RETURNDATASIZE PUSH1 0x0 PUSH1 0x20 DUP5 ADD RETURNDATACOPY PUSH2 0x2C14 JUMP JUMPDEST PUSH1 0x60 SWAP2 POP JUMPDEST POP SWAP2 POP SWAP2 POP PUSH2 0x2C25 DUP8 DUP4 DUP4 DUP8 PUSH2 0x2CEA JUMP JUMPDEST SWAP8 SWAP7 POP POP POP POP POP POP POP JUMP JUMPDEST PUSH1 0x0 DUP1 PUSH16 0xA2A8918CA85BAFE22016D0B997E4DF60 PUSH1 0x1 PUSH1 0xFF SHL SUB DUP4 GT ISZERO PUSH2 0x2C5D JUMPI POP PUSH1 0x0 SWAP1 POP PUSH1 0x3 PUSH2 0x2CE1 JUMP JUMPDEST PUSH1 0x40 DUP1 MLOAD PUSH1 0x0 DUP1 DUP3 MSTORE PUSH1 0x20 DUP3 ADD DUP1 DUP5 MSTORE DUP10 SWAP1 MSTORE PUSH1 0xFF DUP9 AND SWAP3 DUP3 ADD SWAP3 SWAP1 SWAP3 MSTORE PUSH1 0x60 DUP2 ADD DUP7 SWAP1 MSTORE PUSH1 0x80 DUP2 ADD DUP6 SWAP1 MSTORE PUSH1 0x1 SWAP1 PUSH1 0xA0 ADD PUSH1 0x20 PUSH1 0x40 MLOAD PUSH1 0x20 DUP2 SUB SWAP1 DUP1 DUP5 SUB SWAP1 DUP6 GAS STATICCALL ISZERO DUP1 ISZERO PUSH2 0x2CB1 JUMPI RETURNDATASIZE PUSH1 0x0 DUP1 RETURNDATACOPY RETURNDATASIZE PUSH1 0x0 REVERT JUMPDEST POP POP PUSH1 0x40 MLOAD PUSH1 0x1F NOT ADD MLOAD SWAP2 POP POP PUSH1 0x1 PUSH1 0x1 PUSH1 0xA0 SHL SUB DUP2 AND PUSH2 0x2CDA JUMPI PUSH1 0x0 PUSH1 0x1 SWAP3 POP SWAP3 POP POP PUSH2 0x2CE1 JUMP JUMPDEST SWAP2 POP PUSH1 0x0 SWAP1 POP JUMPDEST SWAP5 POP SWAP5 SWAP3 POP POP POP JUMP JUMPDEST PUSH1 0x60 DUP4 ISZERO PUSH2 0x2D59 JUMPI DUP3 MLOAD PUSH1 0x0 SUB PUSH2 0x2D52 JUMPI PUSH1 0x1 PUSH1 0x1 PUSH1 0xA0 SHL SUB DUP6 AND EXTCODESIZE PUSH2 0x2D52 JUMPI PUSH1 0x40 MLOAD PUSH3 0x461BCD PUSH1 0xE5 SHL DUP2 MSTORE PUSH1 0x20 PUSH1 0x4 DUP3 ADD MSTORE PUSH1 0x1D PUSH1 0x24 DUP3 ADD MSTORE PUSH32 0x416464726573733A2063616C6C20746F206E6F6E2D636F6E7472616374000000 PUSH1 0x44 DUP3 ADD MSTORE PUSH1 0x64 ADD PUSH2 0x4F2 JUMP JUMPDEST POP DUP2 PUSH2 0x2895 JUMP JUMPDEST PUSH2 0x2895 DUP4 DUP4 DUP2 MLOAD ISZERO PUSH2 0x2D6E JUMPI DUP2 MLOAD DUP1 DUP4 PUSH1 0x20 ADD REVERT JUMPDEST DUP1 PUSH1 0x40 MLOAD PUSH3 0x461BCD PUSH1 0xE5 SHL DUP2 MSTORE PUSH1 0x4 ADD PUSH2 0x4F2 SWAP2 SWAP1 PUSH2 0x377E JUMP JUMPDEST DUP1 CALLDATALOAD PUSH1 0x2 DUP2 LT PUSH2 0x2D97 JUMPI PUSH1 0x0 DUP1 REVERT JUMPDEST SWAP2 SWAP1 POP JUMP JUMPDEST DUP1 CALLDATALOAD PUSH1 0x3 DUP2 LT PUSH2 0x2D97 JUMPI PUSH1 0x0 DUP1 REVERT JUMPDEST DUP1 CALLDATALOAD PUSH1 0x1 PUSH1 0x1 PUSH1 0xA0 SHL SUB DUP2 AND DUP2 EQ PUSH2 0x2D97 JUMPI PUSH1 0x0 DUP1 REVERT JUMPDEST PUSH1 0x0 DUP1 PUSH1 0x0 DUP1 PUSH1 0x0 PUSH1 0xA0 DUP7 DUP9 SUB SLT ISZERO PUSH2 0x2DDA JUMPI PUSH1 0x0 DUP1 REVERT JUMPDEST DUP6 CALLDATALOAD SWAP5 POP PUSH2 0x2DEA PUSH1 0x20 DUP8 ADD PUSH2 0x2D88 JUMP JUMPDEST SWAP4 POP PUSH2 0x2DF8 PUSH1 0x40 DUP8 ADD PUSH2 0x2D9C JUMP JUMPDEST SWAP3 POP PUSH2 0x2E06 PUSH1 0x60 DUP8 ADD PUSH2 0x2DAB JUMP JUMPDEST SWAP5 SWAP8 SWAP4 SWAP7 POP SWAP2 SWAP5 PUSH1 0x80 ADD CALLDATALOAD SWAP3 SWAP2 POP POP JUMP JUMPDEST PUSH1 0x0 PUSH1 0x20 DUP3 DUP5 SUB SLT ISZERO PUSH2 0x2E29 JUMPI PUSH1 0x0 DUP1 REVERT JUMPDEST POP CALLDATALOAD SWAP2 SWAP1 POP JUMP JUMPDEST PUSH4 0x4E487B71 PUSH1 0xE0 SHL PUSH1 0x0 MSTORE PUSH1 0x21 PUSH1 0x4 MSTORE PUSH1 0x24 PUSH1 0x0 REVERT JUMPDEST PUSH1 0x2 DUP2 LT PUSH2 0x1323 JUMPI PUSH2 0x1323 PUSH2 0x2E30 JUMP JUMPDEST PUSH1 0x3 DUP2 LT PUSH2 0x2E66 JUMPI PUSH2 0x2E66 PUSH2 0x2E30 JUMP JUMPDEST SWAP1 MSTORE JUMP JUMPDEST PUSH1 0x1 PUSH1 0x1 PUSH1 0xA0 SHL SUB AND SWAP1 MSTORE JUMP JUMPDEST DUP10 DUP2 MSTORE PUSH2 0x120 DUP2 ADD PUSH2 0x2E88 DUP11 PUSH2 0x2E46 JUMP JUMPDEST DUP10 PUSH1 0x20 DUP4 ADD MSTORE PUSH2 0x2E97 DUP10 PUSH2 0x2E46 JUMP JUMPDEST DUP9 PUSH1 0x40 DUP4 ADD MSTORE PUSH2 0x2EAA PUSH1 0x60 DUP4 ADD DUP10 PUSH2 0x2E56 JUMP JUMPDEST PUSH1 0x1 PUSH1 0x1 PUSH1 0xA0 SHL SUB SWAP7 DUP8 AND PUSH1 0x80 DUP4 ADD MSTORE SWAP5 SWAP1 SWAP6 AND PUSH1 0xA0 DUP7 ADD MSTORE PUSH1 0xC0 DUP6 ADD SWAP3 SWAP1 SWAP3 MSTORE ISZERO ISZERO PUSH1 0xE0 DUP5 ADD MSTORE PUSH2 0x100 SWAP1 SWAP3 ADD SWAP2 SWAP1 SWAP2 MSTORE SWAP5 SWAP4 POP POP POP POP JUMP JUMPDEST PUSH1 0x0 DUP1 PUSH1 0x0 PUSH1 0x60 DUP5 DUP7 SUB SLT ISZERO PUSH2 0x2EF9 JUMPI PUSH1 0x0 DUP1 REVERT JUMPDEST PUSH2 0x2F02 DUP5 PUSH2 0x2DAB JUMP JUMPDEST SWAP3 POP PUSH2 0x2F10 PUSH1 0x20 DUP6 ADD PUSH2 0x2DAB JUMP JUMPDEST SWAP2 POP PUSH1 0x40 DUP5 ADD CALLDATALOAD SWAP1 POP SWAP3 POP SWAP3 POP SWAP3 JUMP JUMPDEST PUSH1 0x0 PUSH1 0x20 DUP3 DUP5 SUB SLT ISZERO PUSH2 0x2F32 JUMPI PUSH1 0x0 DUP1 REVERT JUMPDEST PUSH2 0x1FBF DUP3 PUSH2 0x2DAB JUMP JUMPDEST DUP1 ISZERO ISZERO DUP2 EQ PUSH2 0x1323 JUMPI PUSH1 0x0 DUP1 REVERT JUMPDEST PUSH1 0x0 DUP1 PUSH1 0x40 DUP4 DUP6 SUB SLT ISZERO PUSH2 0x2F5C JUMPI PUSH1 0x0 DUP1 REVERT JUMPDEST PUSH2 0x2F65 DUP4 PUSH2 0x2DAB JUMP JUMPDEST SWAP2 POP PUSH1 0x20 DUP4 ADD CALLDATALOAD PUSH2 0x2F75 DUP2 PUSH2 0x2F3B JUMP JUMPDEST DUP1 SWAP2 POP POP SWAP3 POP SWAP3 SWAP1 POP JUMP JUMPDEST PUSH4 0x4E487B71 PUSH1 0xE0 SHL PUSH1 0x0 MSTORE PUSH1 0x41 PUSH1 0x4 MSTORE PUSH1 0x24 PUSH1 0x0 REVERT JUMPDEST PUSH1 0x0 DUP1 DUP4 PUSH1 0x1F DUP5 ADD SLT PUSH2 0x2FA8 JUMPI PUSH1 0x0 DUP1 REVERT JUMPDEST POP DUP2 CALLDATALOAD PUSH1 0x1 PUSH1 0x1 PUSH1 0x40 SHL SUB DUP2 GT ISZERO PUSH2 0x2FBF JUMPI PUSH1 0x0 DUP1 REVERT JUMPDEST PUSH1 0x20 DUP4 ADD SWAP2 POP DUP4 PUSH1 0x20 DUP3 DUP6 ADD ADD GT ISZERO PUSH2 0x28F5 JUMPI PUSH1 0x0 DUP1 REVERT JUMPDEST PUSH1 0x0 DUP1 PUSH1 0x0 DUP1 PUSH1 0x0 DUP1 PUSH1 0x0 PUSH1 0xC0 DUP9 DUP11 SUB SLT ISZERO PUSH2 0x2FF2 JUMPI PUSH1 0x0 DUP1 REVERT JUMPDEST DUP8 CALLDATALOAD SWAP7 POP PUSH1 0x20 DUP1 DUP10 ADD CALLDATALOAD PUSH1 0x1 PUSH1 0x1 PUSH1 0x40 SHL SUB DUP1 DUP3 GT ISZERO PUSH2 0x3011 JUMPI PUSH1 0x0 DUP1 REVERT JUMPDEST DUP2 DUP12 ADD SWAP2 POP DUP12 PUSH1 0x1F DUP4 ADD SLT PUSH2 0x3025 JUMPI PUSH1 0x0 DUP1 REVERT JUMPDEST DUP2 CALLDATALOAD DUP2 DUP2 GT ISZERO PUSH2 0x3037 JUMPI PUSH2 0x3037 PUSH2 0x2F80 JUMP JUMPDEST DUP1 PUSH1 0x5 SHL PUSH1 0x40 MLOAD PUSH1 0x1F NOT PUSH1 0x3F DUP4 ADD AND DUP2 ADD DUP2 DUP2 LT DUP6 DUP3 GT OR ISZERO PUSH2 0x305C JUMPI PUSH2 0x305C PUSH2 0x2F80 JUMP JUMPDEST PUSH1 0x40 MSTORE SWAP2 DUP3 MSTORE DUP4 DUP2 ADD DUP6 ADD SWAP2 DUP6 DUP2 ADD DUP16 DUP5 GT ISZERO PUSH2 0x3078 JUMPI PUSH1 0x0 DUP1 REVERT JUMPDEST SWAP5 DUP7 ADD SWAP5 JUMPDEST DUP4 DUP7 LT ISZERO PUSH2 0x3094 JUMPI DUP6 CALLDATALOAD DUP2 MSTORE SWAP5 DUP7 ADD SWAP5 DUP7 ADD PUSH2 0x307D JUMP JUMPDEST POP SWAP11 POP POP POP PUSH1 0x40 DUP12 ADD CALLDATALOAD SWAP8 POP PUSH2 0x30AC PUSH1 0x60 DUP13 ADD PUSH2 0x2DAB JUMP JUMPDEST SWAP7 POP PUSH1 0x80 DUP12 ADD CALLDATALOAD SWAP6 POP PUSH1 0xA0 DUP12 ADD CALLDATALOAD SWAP3 POP DUP1 DUP4 GT ISZERO PUSH2 0x30C9 JUMPI PUSH1 0x0 DUP1 REVERT JUMPDEST POP POP PUSH2 0x30D7 DUP11 DUP3 DUP12 ADD PUSH2 0x2F96 JUMP JUMPDEST SWAP9 SWAP12 SWAP8 SWAP11 POP SWAP6 SWAP9 POP SWAP4 SWAP7 SWAP3 SWAP6 SWAP3 SWAP4 POP POP POP JUMP JUMPDEST PUSH1 0x1 PUSH1 0x1 PUSH1 0xA0 SHL SUB SWAP2 SWAP1 SWAP2 AND DUP2 MSTORE PUSH1 0x20 ADD SWAP1 JUMP JUMPDEST PUSH1 0x0 DUP1 PUSH1 0x40 DUP4 DUP6 SUB SLT ISZERO PUSH2 0x3111 JUMPI PUSH1 0x0 DUP1 REVERT JUMPDEST DUP3 CALLDATALOAD SWAP2 POP PUSH2 0x3121 PUSH1 0x20 DUP5 ADD PUSH2 0x2D88 JUMP JUMPDEST SWAP1 POP SWAP3 POP SWAP3 SWAP1 POP JUMP JUMPDEST DUP2 MLOAD DUP2 MSTORE PUSH1 0x20 DUP3 ADD MLOAD PUSH2 0x120 DUP3 ADD SWAP1 PUSH2 0x3142 DUP2 PUSH2 0x2E46 JUMP JUMPDEST PUSH1 0x20 DUP4 ADD MSTORE PUSH1 0x40 DUP4 ADD MLOAD PUSH2 0x3155 DUP2 PUSH2 0x2E46 JUMP JUMPDEST DUP1 PUSH1 0x40 DUP5 ADD MSTORE POP PUSH1 0x60 DUP4 ADD MLOAD PUSH2 0x316E PUSH1 0x60 DUP5 ADD DUP3 PUSH2 0x2E56 JUMP JUMPDEST POP PUSH1 0x80 DUP4 ADD MLOAD PUSH2 0x3181 PUSH1 0x80 DUP5 ADD DUP3 PUSH2 0x2E6A JUMP JUMPDEST POP PUSH1 0xA0 DUP4 ADD MLOAD PUSH2 0x3194 PUSH1 0xA0 DUP5 ADD DUP3 PUSH2 0x2E6A JUMP JUMPDEST POP PUSH1 0xC0 DUP4 ADD MLOAD PUSH1 0xC0 DUP4 ADD MSTORE PUSH1 0xE0 DUP4 ADD MLOAD PUSH2 0x31B2 PUSH1 0xE0 DUP5 ADD DUP3 ISZERO ISZERO SWAP1 MSTORE JUMP JUMPDEST POP PUSH2 0x100 SWAP3 DUP4 ADD MLOAD SWAP2 SWAP1 SWAP3 ADD MSTORE SWAP1 JUMP JUMPDEST PUSH1 0x0 DUP1 PUSH1 0x40 DUP4 DUP6 SUB SLT ISZERO PUSH2 0x31D5 JUMPI PUSH1 0x0 DUP1 REVERT JUMPDEST PUSH2 0x31DE DUP4 PUSH2 0x2DAB JUMP JUMPDEST SWAP5 PUSH1 0x20 SWAP4 SWAP1 SWAP4 ADD CALLDATALOAD SWAP4 POP POP POP JUMP JUMPDEST PUSH1 0x0 DUP1 PUSH1 0x0 DUP1 PUSH1 0x80 DUP6 DUP8 SUB SLT ISZERO PUSH2 0x3202 JUMPI PUSH1 0x0 DUP1 REVERT JUMPDEST PUSH2 0x320B DUP6 PUSH2 0x2D88 JUMP JUMPDEST SWAP4 POP PUSH2 0x3219 PUSH1 0x20 DUP7 ADD PUSH2 0x2D9C JUMP JUMPDEST SWAP3 POP PUSH2 0x3227 PUSH1 0x40 DUP7 ADD PUSH2 0x2DAB JUMP JUMPDEST SWAP4 SWAP7 SWAP3 SWAP6 POP SWAP3 SWAP4 PUSH1 0x60 ADD CALLDATALOAD SWAP3 POP POP JUMP JUMPDEST PUSH1 0x0 DUP1 PUSH1 0x40 DUP4 DUP6 SUB SLT ISZERO PUSH2 0x324A JUMPI PUSH1 0x0 DUP1 REVERT JUMPDEST POP POP DUP1 CALLDATALOAD SWAP3 PUSH1 0x20 SWAP1 SWAP2 ADD CALLDATALOAD SWAP2 POP JUMP JUMPDEST PUSH1 0x20 DUP1 DUP3 MSTORE PUSH1 0xE SWAP1 DUP3 ADD MSTORE PUSH14 0x139BDD08184818DBDB9D1C9858DD PUSH1 0x92 SHL PUSH1 0x40 DUP3 ADD MSTORE PUSH1 0x60 ADD SWAP1 JUMP JUMPDEST PUSH1 0x0 JUMPDEST DUP4 DUP2 LT ISZERO PUSH2 0x329C JUMPI DUP2 DUP2 ADD MLOAD DUP4 DUP3 ADD MSTORE PUSH1 0x20 ADD PUSH2 0x3284 JUMP JUMPDEST POP POP PUSH1 0x0 SWAP2 ADD MSTORE JUMP JUMPDEST PUSH1 0x0 DUP3 MLOAD PUSH2 0x32B7 DUP2 DUP5 PUSH1 0x20 DUP8 ADD PUSH2 0x3281 JUMP JUMPDEST SWAP2 SWAP1 SWAP2 ADD SWAP3 SWAP2 POP POP JUMP JUMPDEST PUSH1 0x20 DUP1 DUP3 MSTORE PUSH1 0x13 SWAP1 DUP3 ADD MSTORE PUSH19 0x139BDD08115490CC8C0818DBDB5C1B1A585B9D PUSH1 0x6A SHL PUSH1 0x40 DUP3 ADD MSTORE PUSH1 0x60 ADD SWAP1 JUMP JUMPDEST PUSH1 0x20 DUP1 DUP3 MSTORE PUSH1 0x10 SWAP1 DUP3 ADD MSTORE PUSH16 0x109BDE081251081B9BDD08199BDD5B99 PUSH1 0x82 SHL PUSH1 0x40 DUP3 ADD MSTORE PUSH1 0x60 ADD SWAP1 JUMP JUMPDEST PUSH1 0x20 DUP1 DUP3 MSTORE PUSH1 0x26 SWAP1 DUP3 ADD MSTORE PUSH32 0x5072697A6520616D6F756E74206D757374206265206772656174657220746861 PUSH1 0x40 DUP3 ADD MSTORE PUSH6 0x6E207A65726F PUSH1 0xD0 SHL PUSH1 0x60 DUP3 ADD MSTORE PUSH1 0x80 ADD SWAP1 JUMP JUMPDEST PUSH1 0x20 DUP1 DUP3 MSTORE PUSH1 0x10 SWAP1 DUP3 ADD MSTORE PUSH16 0x496E76616C696420626F782074797065 PUSH1 0x80 SHL PUSH1 0x40 DUP3 ADD MSTORE PUSH1 0x60 ADD SWAP1 JUMP JUMPDEST PUSH1 0x20 DUP1 DUP3 MSTORE PUSH1 0x10 SWAP1 DUP3 ADD MSTORE PUSH16 0x24B73B30B634B2103137BC103A34B2B9 PUSH1 0x81 SHL PUSH1 0x40 DUP3 ADD MSTORE PUSH1 0x60 ADD SWAP1 JUMP JUMPDEST PUSH1 0x80 DUP2 ADD PUSH2 0x33BF DUP7 PUSH2 0x2E46 JUMP JUMPDEST DUP6 DUP3 MSTORE PUSH2 0x33CF PUSH1 0x20 DUP4 ADD DUP7 PUSH2 0x2E56 JUMP JUMPDEST PUSH1 0x1 PUSH1 0x1 PUSH1 0xA0 SHL SUB SWAP4 SWAP1 SWAP4 AND PUSH1 0x40 DUP3 ADD MSTORE PUSH1 0x60 ADD MSTORE SWAP3 SWAP2 POP POP JUMP JUMPDEST PUSH1 0x0 PUSH1 0x20 DUP3 DUP5 SUB SLT ISZERO PUSH2 0x33FC JUMPI PUSH1 0x0 DUP1 REVERT JUMPDEST POP MLOAD SWAP2 SWAP1 POP JUMP JUMPDEST PUSH1 0x20 DUP1 DUP3 MSTORE PUSH1 0x16 SWAP1 DUP3 ADD MSTORE PUSH22 0x416D6F756E7420657863656564732062616C616E6365 PUSH1 0x50 SHL PUSH1 0x40 DUP3 ADD MSTORE PUSH1 0x60 ADD SWAP1 JUMP JUMPDEST PUSH4 0x4E487B71 PUSH1 0xE0 SHL PUSH1 0x0 MSTORE PUSH1 0x32 PUSH1 0x4 MSTORE PUSH1 0x24 PUSH1 0x0 REVERT JUMPDEST PUSH4 0x4E487B71 PUSH1 0xE0 SHL PUSH1 0x0 MSTORE PUSH1 0x12 PUSH1 0x4 MSTORE PUSH1 0x24 PUSH1 0x0 REVERT JUMPDEST PUSH1 0x0 DUP3 PUSH2 0x346E JUMPI PUSH2 0x346E PUSH2 0x3449 JUMP JUMPDEST POP MOD SWAP1 JUMP JUMPDEST PUSH4 0x4E487B71 PUSH1 0xE0 SHL PUSH1 0x0 MSTORE PUSH1 0x11 PUSH1 0x4 MSTORE PUSH1 0x24 PUSH1 0x0 REVERT JUMPDEST DUP1 DUP3 ADD DUP1 DUP3 GT ISZERO PUSH2 0x168B JUMPI PUSH2 0x168B PUSH2 0x3473 JUMP JUMPDEST DUP1 DUP3 MUL DUP2 ISZERO DUP3 DUP3 DIV DUP5 EQ OR PUSH2 0x168B JUMPI PUSH2 0x168B PUSH2 0x3473 JUMP JUMPDEST PUSH1 0x0 DUP3 PUSH2 0x34C2 JUMPI PUSH2 0x34C2 PUSH2 0x3449 JUMP JUMPDEST POP DIV SWAP1 JUMP JUMPDEST DUP2 DUP2 SUB DUP2 DUP2 GT ISZERO PUSH2 0x168B JUMPI PUSH2 0x168B PUSH2 0x3473 JUMP JUMPDEST PUSH1 0x1 PUSH1 0x1 PUSH1 0xA0 SHL SUB SWAP3 SWAP1 SWAP3 AND DUP3 MSTORE PUSH1 0x20 DUP3 ADD MSTORE PUSH1 0x40 ADD SWAP1 JUMP JUMPDEST PUSH1 0x20 DUP1 DUP3 MSTORE DUP3 MLOAD DUP3 DUP3 ADD DUP2 SWAP1 MSTORE PUSH1 0x0 SWAP2 SWAP1 DUP5 DUP3 ADD SWAP1 PUSH1 0x40 DUP6 ADD SWAP1 DUP5 JUMPDEST DUP2 DUP2 LT ISZERO PUSH2 0x352B JUMPI DUP4 MLOAD DUP4 MSTORE SWAP3 DUP5 ADD SWAP3 SWAP2 DUP5 ADD SWAP2 PUSH1 0x1 ADD PUSH2 0x350F JUMP JUMPDEST POP SWAP1 SWAP7 SWAP6 POP POP POP POP POP POP JUMP JUMPDEST PUSH1 0x20 DUP2 ADD PUSH2 0x3544 DUP4 PUSH2 0x2E46 JUMP JUMPDEST SWAP2 SWAP1 MSTORE SWAP1 JUMP JUMPDEST PUSH1 0x20 DUP1 DUP3 MSTORE PUSH1 0x12 SWAP1 DUP3 ADD MSTORE PUSH18 0x109BDE08185B1C9958591E481BDC195B9959 PUSH1 0x72 SHL PUSH1 0x40 DUP3 ADD MSTORE PUSH1 0x60 ADD SWAP1 JUMP JUMPDEST PUSH1 0xA0 DUP2 ADD PUSH2 0x3583 DUP8 PUSH2 0x2E46 JUMP JUMPDEST DUP7 DUP3 MSTORE PUSH2 0x358F DUP7 PUSH2 0x2E46 JUMP JUMPDEST DUP6 PUSH1 0x20 DUP4 ADD MSTORE PUSH2 0x35A2 PUSH1 0x40 DUP4 ADD DUP7 PUSH2 0x2E56 JUMP JUMPDEST PUSH1 0x1 PUSH1 0x1 PUSH1 0xA0 SHL SUB SWAP4 SWAP1 SWAP4 AND PUSH1 0x60 DUP3 ADD MSTORE PUSH1 0x80 ADD MSTORE SWAP4 SWAP3 POP POP POP JUMP JUMPDEST PUSH1 0x60 SWAP4 SWAP1 SWAP4 SHL PUSH1 0x1 PUSH1 0x1 PUSH1 0x60 SHL SUB NOT AND DUP4 MSTORE PUSH1 0x14 DUP4 ADD SWAP2 SWAP1 SWAP2 MSTORE PUSH1 0x34 DUP3 ADD MSTORE PUSH1 0x54 ADD SWAP1 JUMP JUMPDEST PUSH1 0x0 PUSH1 0x1 DUP3 ADD PUSH2 0x35F5 JUMPI PUSH2 0x35F5 PUSH2 0x3473 JUMP JUMPDEST POP PUSH1 0x1 ADD SWAP1 JUMP JUMPDEST DUP9 DUP2 MSTORE PUSH1 0x0 PUSH1 0x20 DUP1 DUP4 ADD DUP11 MLOAD DUP3 DUP13 ADD PUSH1 0x0 JUMPDEST DUP3 DUP2 LT ISZERO PUSH2 0x362A JUMPI DUP2 MLOAD DUP5 MSTORE SWAP3 DUP5 ADD SWAP3 SWAP1 DUP5 ADD SWAP1 PUSH1 0x1 ADD PUSH2 0x360E JUMP JUMPDEST POP POP POP SWAP9 DUP10 MSTORE PUSH1 0x1 PUSH1 0x1 PUSH1 0x60 SHL SUB NOT PUSH1 0x60 SWAP9 DUP10 SHL DUP2 AND SWAP2 DUP11 ADD SWAP2 SWAP1 SWAP2 MSTORE SWAP6 DUP8 SHL DUP7 AND PUSH1 0x34 DUP10 ADD MSTORE POP POP PUSH1 0x48 DUP7 ADD SWAP3 SWAP1 SWAP3 MSTORE PUSH1 0x68 DUP6 ADD MSTORE SWAP1 SWAP2 SHL AND PUSH1 0x88 DUP3 ADD MSTORE PUSH1 0x9C ADD SWAP3 SWAP2 POP POP JUMP JUMPDEST PUSH1 0x0 DUP2 MLOAD DUP1 DUP5 MSTORE PUSH2 0x368A DUP2 PUSH1 0x20 DUP7 ADD PUSH1 0x20 DUP7 ADD PUSH2 0x3281 JUMP JUMPDEST PUSH1 0x1F ADD PUSH1 0x1F NOT AND SWAP3 SWAP1 SWAP3 ADD PUSH1 0x20 ADD SWAP3 SWAP2 POP POP JUMP JUMPDEST PUSH1 0x40 DUP2 MSTORE PUSH1 0x0 PUSH2 0x36B1 PUSH1 0x40 DUP4 ADD DUP6 PUSH2 0x3672 JUMP JUMPDEST SWAP1 POP DUP3 PUSH1 0x20 DUP4 ADD MSTORE SWAP4 SWAP3 POP POP POP JUMP JUMPDEST PUSH1 0x40 DUP2 MSTORE PUSH1 0x0 PUSH2 0x36D3 PUSH1 0x40 DUP4 ADD DUP6 PUSH2 0x3672 JUMP JUMPDEST SWAP1 POP PUSH1 0x1 DUP1 PUSH1 0xA0 SHL SUB DUP4 AND PUSH1 0x20 DUP4 ADD MSTORE SWAP4 SWAP3 POP POP POP JUMP JUMPDEST PUSH1 0x40 DUP2 MSTORE PUSH1 0x0 PUSH2 0x36FD PUSH1 0x40 DUP4 ADD DUP6 PUSH2 0x3672 JUMP JUMPDEST SWAP1 POP DUP3 ISZERO ISZERO PUSH1 0x20 DUP4 ADD MSTORE SWAP4 SWAP3 POP POP POP JUMP JUMPDEST PUSH1 0x80 DUP2 MSTORE PUSH1 0x0 PUSH2 0x3721 PUSH1 0x80 DUP4 ADD DUP8 PUSH2 0x3672 JUMP JUMPDEST DUP6 PUSH1 0x20 DUP5 ADD MSTORE DUP3 DUP2 SUB PUSH1 0x40 DUP5 ADD MSTORE PUSH2 0x3739 DUP2 DUP7 PUSH2 0x3672 JUMP JUMPDEST SWAP2 POP POP DUP3 PUSH1 0x60 DUP4 ADD MSTORE SWAP6 SWAP5 POP POP POP POP POP JUMP JUMPDEST PUSH1 0x0 PUSH1 0x20 DUP3 DUP5 SUB SLT ISZERO PUSH2 0x375D JUMPI PUSH1 0x0 DUP1 REVERT JUMPDEST DUP2 MLOAD PUSH2 0x1FBF DUP2 PUSH2 0x2F3B JUMP JUMPDEST PUSH4 0x4E487B71 PUSH1 0xE0 SHL PUSH1 0x0 MSTORE PUSH1 0x31 PUSH1 0x4 MSTORE PUSH1 0x24 PUSH1 0x0 REVERT JUMPDEST PUSH1 0x20 DUP2 MSTORE PUSH1 0x0 PUSH2 0x1FBF PUSH1 0x20 DUP4 ADD DUP5 PUSH2 0x3672 JUMP INVALID 0xDB CALLVALUE 0xB9 0x4C 0xDF MSIZE SLOAD MULMOD PUSH2 0x9536 CREATE2 EQ 0xE4 ISZERO 0xC5 0xDB ORIGIN GAS 0x2E LT 0xBD PUSH12 0x1162168A8A2E2E889F552CA DUP3 0xE1 SGT 0xAC EXTCODECOPY MSTORE8 SWAP13 RETURNDATASIZE PUSH2 0x7F29 0xFC 0xD1 SWAP13 OR 0x2A 0xC PUSH22 0xDAD017555C9E109F7FE183A264697066735822122033 PUSH16 0x8548CFF950AB5095315C7F338759837C SWAP11 PUSH18 0xCD2D889C0190AF3CE34829C64736F6C6343 STOP ADDMOD EQ STOP CALLER "},"methodIdentifiers":{"SIGNATURE_EXPIRY()":"c0416606","boxes(bytes32)":"0589c970","claimPrize(bytes32)":"b0fc9440","createBox(uint8,uint8,address,uint256)":"ebc5a829","deleteBox(bytes32)":"a46e717e","freeBoxWinRate()":"e1e10054","fulfillRandomWords(bytes32,uint256[],bytes32,address,uint256,bytes)":"84393706","getBox(bytes32)":"a55f0565","getBoxIdAt(uint256)":"c4018427","initialize()":"8129fc1c","oracles(address)":"addd5099","owner()":"8da5cb5b","paidBoxWinRate()":"e30459bc","pendingRequests(bytes32)":"2795ad20","recoverERC20(address,address,uint256)":"1171bda9","recoverEth(address,uint256)":"e72c5717","renounceOwnership()":"715018a6","requestRandomWords(uint256,bytes32)":"ef31d20e","setOracle(address,bool)":"65360843","setWinRate(uint256,uint8)":"91a85dde","totalBoxes()":"57e78adc","transferOwnership(address)":"f2fde38b","updateBox(bytes32,uint8,uint8,address,uint256)":"041368ed","userNonces(address)":"2f7801f4"}},"storageLayout":{"storage":[{"astId":3672,"contract":"contracts/LootBox.sol:LootBox","label":"randNumber","offset":0,"slot":"0","type":"t_uint256"},{"astId":3674,"contract":"contracts/LootBox.sol:LootBox","label":"nonce","offset":0,"slot":"1","type":"t_uint256"},{"astId":3676,"contract":"contracts/LootBox.sol:LootBox","label":"freeBoxWinRate","offset":0,"slot":"2","type":"t_uint256"},{"astId":3678,"contract":"contracts/LootBox.sol:LootBox","label":"paidBoxWinRate","offset":0,"slot":"3","type":"t_uint256"},{"astId":3714,"contract":"contracts/LootBox.sol:LootBox","label":"pendingRequests","offset":0,"slot":"4","type":"t_mapping(t_bytes32,t_bool)"},{"astId":3719,"contract":"contracts/LootBox.sol:LootBox","label":"boxes","offset":0,"slot":"5","type":"t_mapping(t_bytes32,t_struct(Box)3710_storage)"},{"astId":3722,"contract":"contracts/LootBox.sol:LootBox","label":"boxIds","offset":0,"slot":"6","type":"t_struct(Bytes32Set)3234_storage"},{"astId":3726,"contract":"contracts/LootBox.sol:LootBox","label":"oracles","offset":0,"slot":"8","type":"t_mapping(t_address,t_bool)"},{"astId":3730,"contract":"contracts/LootBox.sol:LootBox","label":"userNonces","offset":0,"slot":"9","type":"t_mapping(t_address,t_uint256)"}],"types":{"t_address":{"encoding":"inplace","label":"address","numberOfBytes":"20"},"t_array(t_bytes32)dyn_storage":{"base":"t_bytes32","encoding":"dynamic_array","label":"bytes32[]","numberOfBytes":"32"},"t_bool":{"encoding":"inplace","label":"bool","numberOfBytes":"1"},"t_bytes32":{"encoding":"inplace","label":"bytes32","numberOfBytes":"32"},"t_enum(BoxStatus)3684":{"encoding":"inplace","label":"enum LootBox.BoxStatus","numberOfBytes":"1"},"t_enum(BoxTier)3688":{"encoding":"inplace","label":"enum LootBox.BoxTier","numberOfBytes":"1"},"t_enum(BoxType)3681":{"encoding":"inplace","label":"enum LootBox.BoxType","numberOfBytes":"1"},"t_mapping(t_address,t_bool)":{"encoding":"mapping","key":"t_address","label":"mapping(address => bool)","numberOfBytes":"32","value":"t_bool"},"t_mapping(t_address,t_uint256)":{"encoding":"mapping","key":"t_address","label":"mapping(address => uint256)","numberOfBytes":"32","value":"t_uint256"},"t_mapping(t_bytes32,t_bool)":{"encoding":"mapping","key":"t_bytes32","label":"mapping(bytes32 => bool)","numberOfBytes":"32","value":"t_bool"},"t_mapping(t_bytes32,t_struct(Box)3710_storage)":{"encoding":"mapping","key":"t_bytes32","label":"mapping(bytes32 => struct LootBox.Box)","numberOfBytes":"32","value":"t_struct(Box)3710_storage"},"t_mapping(t_bytes32,t_uint256)":{"encoding":"mapping","key":"t_bytes32","label":"mapping(bytes32 => uint256)","numberOfBytes":"32","value":"t_uint256"},"t_struct(Box)3710_storage":{"encoding":"inplace","label":"struct LootBox.Box","members":[{"astId":3690,"contract":"contracts/LootBox.sol:LootBox","label":"id","offset":0,"slot":"0","type":"t_bytes32"},{"astId":3693,"contract":"contracts/LootBox.sol:LootBox","label":"boxType","offset":0,"slot":"1","type":"t_enum(BoxType)3681"},{"astId":3696,"contract":"contracts/LootBox.sol:LootBox","label":"status","offset":1,"slot":"1","type":"t_enum(BoxStatus)3684"},{"astId":3699,"contract":"contracts/LootBox.sol:LootBox","label":"boxTier","offset":2,"slot":"1","type":"t_enum(BoxTier)3688"},{"astId":3701,"contract":"contracts/LootBox.sol:LootBox","label":"owner","offset":3,"slot":"1","type":"t_address"},{"astId":3703,"contract":"contracts/LootBox.sol:LootBox","label":"prizeToken","offset":0,"slot":"2","type":"t_address"},{"astId":3705,"contract":"contracts/LootBox.sol:LootBox","label":"prizeAmount","offset":0,"slot":"3","type":"t_uint256"},{"astId":3707,"contract":"contracts/LootBox.sol:LootBox","label":"won","offset":0,"slot":"4","type":"t_bool"},{"astId":3709,"contract":"contracts/LootBox.sol:LootBox","label":"payout","offset":0,"slot":"5","type":"t_uint256"}],"numberOfBytes":"192"},"t_struct(Bytes32Set)3234_storage":{"encoding":"inplace","label":"struct EnumerableSet.Bytes32Set","members":[{"astId":3233,"contract":"contracts/LootBox.sol:LootBox","label":"_inner","offset":0,"slot":"0","type":"t_struct(Set)3040_storage"}],"numberOfBytes":"64"},"t_struct(Set)3040_storage":{"encoding":"inplace","label":"struct EnumerableSet.Set","members":[{"astId":3035,"contract":"contracts/LootBox.sol:LootBox","label":"_values","offset":0,"slot":"0","type":"t_array(t_bytes32)dyn_storage"},{"astId":3039,"contract":"contracts/LootBox.sol:LootBox","label":"_indexes","offset":0,"slot":"1","type":"t_mapping(t_bytes32,t_uint256)"}],"numberOfBytes":"64"},"t_uint256":{"encoding":"inplace","label":"uint256","numberOfBytes":"32"}}}}}}