{"contracts/LootBox.sol":{"LootBox":{"abi":[{"inputs":[],"stateMutability":"nonpayable","type":"constructor"},{"inputs":[],"name":"InvalidInitialization","type":"error"},{"inputs":[],"name":"InvalidSignature","type":"error"},{"inputs":[],"name":"NotInitializing","type":"error"},{"inputs":[{"internalType":"address","name":"owner","type":"address"}],"name":"OwnableInvalidOwner","type":"error"},{"inputs":[{"internalType":"address","name":"account","type":"address"}],"name":"OwnableUnauthorizedAccount","type":"error"},{"inputs":[],"name":"ReentrancyGuardReentrantCall","type":"error"},{"inputs":[],"name":"RequestNotFound","type":"error"},{"inputs":[],"name":"Unauthorized","type":"error"},{"anonymous":false,"inputs":[{"indexed":true,"internalType":"bytes32","name":"boxId","type":"bytes32"},{"indexed":false,"internalType":"enum LootBox.BoxType","name":"boxType","type":"uint8"},{"indexed":false,"internalType":"enum LootBox.BoxStatus","name":"status","type":"uint8"},{"indexed":true,"internalType":"address","name":"owner","type":"address"},{"indexed":false,"internalType":"address","name":"prizeToken","type":"address"},{"indexed":false,"internalType":"uint256","name":"prizeAmount","type":"uint256"}],"name":"BoxCreated","type":"event"},{"anonymous":false,"inputs":[{"indexed":true,"internalType":"bytes32","name":"boxId","type":"bytes32"}],"name":"BoxDeleted","type":"event"},{"anonymous":false,"inputs":[{"indexed":true,"internalType":"bytes32","name":"boxId","type":"bytes32"},{"indexed":true,"internalType":"address","name":"owner","type":"address"}],"name":"BoxOpened","type":"event"},{"anonymous":false,"inputs":[{"indexed":true,"internalType":"bytes32","name":"boxId","type":"bytes32"},{"indexed":false,"internalType":"enum LootBox.BoxType","name":"boxType","type":"uint8"},{"indexed":false,"internalType":"address","name":"prizeToken","type":"address"},{"indexed":false,"internalType":"uint256","name":"prizeAmount","type":"uint256"}],"name":"BoxUpdated","type":"event"},{"anonymous":false,"inputs":[{"indexed":false,"internalType":"uint64","name":"version","type":"uint64"}],"name":"Initialized","type":"event"},{"anonymous":false,"inputs":[{"indexed":true,"internalType":"address","name":"previousOwner","type":"address"},{"indexed":true,"internalType":"address","name":"newOwner","type":"address"}],"name":"OwnershipTransferred","type":"event"},{"anonymous":false,"inputs":[{"indexed":true,"internalType":"bytes32","name":"requestId","type":"bytes32"},{"indexed":false,"internalType":"uint256[]","name":"randomWords","type":"uint256[]"},{"indexed":true,"internalType":"bytes32","name":"boxId","type":"bytes32"}],"name":"RandomWordsFulfilled","type":"event"},{"anonymous":false,"inputs":[{"indexed":true,"internalType":"bytes32","name":"requestId","type":"bytes32"},{"indexed":true,"internalType":"address","name":"requester","type":"address"},{"indexed":false,"internalType":"uint256","name":"numberOfWords","type":"uint256"},{"indexed":true,"internalType":"bytes32","name":"boxId","type":"bytes32"}],"name":"RandomWordsRequested","type":"event"},{"anonymous":false,"inputs":[{"indexed":true,"internalType":"bytes32","name":"boxId","type":"bytes32"},{"indexed":false,"internalType":"address","name":"prizeToken","type":"address"},{"indexed":false,"internalType":"uint256","name":"prizeAmount","type":"uint256"}],"name":"Refunded","type":"event"},{"anonymous":false,"inputs":[{"indexed":true,"internalType":"address","name":"oldOracle","type":"address"},{"indexed":true,"internalType":"address","name":"newOracle","type":"address"}],"name":"UpdateOracle","type":"event"},{"anonymous":false,"inputs":[{"indexed":true,"internalType":"uint256","name":"newRate","type":"uint256"},{"indexed":true,"internalType":"uint256","name":"oldRate","type":"uint256"},{"indexed":false,"internalType":"enum LootBox.BoxType","name":"boxType","type":"uint8"}],"name":"UpdateWinRate","type":"event"},{"anonymous":false,"inputs":[{"indexed":true,"internalType":"bytes32","name":"boxId","type":"bytes32"},{"indexed":true,"internalType":"address","name":"loser","type":"address"}],"name":"UserLost","type":"event"},{"anonymous":false,"inputs":[{"indexed":true,"internalType":"bytes32","name":"boxId","type":"bytes32"},{"indexed":true,"internalType":"address","name":"winner","type":"address"},{"indexed":false,"internalType":"address","name":"prizeToken","type":"address"},{"indexed":false,"internalType":"uint256","name":"prizeAmount","type":"uint256"}],"name":"UserWon","type":"event"},{"inputs":[{"internalType":"bytes32","name":"","type":"bytes32"}],"name":"boxes","outputs":[{"internalType":"bytes32","name":"id","type":"bytes32"},{"internalType":"enum LootBox.BoxType","name":"boxType","type":"uint8"},{"internalType":"enum LootBox.BoxStatus","name":"status","type":"uint8"},{"internalType":"address","name":"owner","type":"address"},{"internalType":"address","name":"prizeToken","type":"address"},{"internalType":"uint256","name":"prizeAmount","type":"uint256"}],"stateMutability":"view","type":"function"},{"inputs":[{"internalType":"enum LootBox.BoxType","name":"boxType","type":"uint8"},{"internalType":"address","name":"prizeToken","type":"address"},{"internalType":"uint256","name":"prizeAmount","type":"uint256"}],"name":"createBox","outputs":[],"stateMutability":"payable","type":"function"},{"inputs":[{"internalType":"bytes32","name":"boxId","type":"bytes32"}],"name":"deleteBox","outputs":[],"stateMutability":"nonpayable","type":"function"},{"inputs":[],"name":"freeBoxWinRate","outputs":[{"internalType":"uint256","name":"","type":"uint256"}],"stateMutability":"view","type":"function"},{"inputs":[{"internalType":"bytes32","name":"requestId","type":"bytes32"},{"internalType":"uint256[]","name":"_randomWords","type":"uint256[]"},{"internalType":"bytes32","name":"boxId","type":"bytes32"},{"internalType":"address","name":"requester","type":"address"},{"internalType":"bytes","name":"signature","type":"bytes"}],"name":"fulfillRandomWords","outputs":[],"stateMutability":"nonpayable","type":"function"},{"inputs":[{"internalType":"bytes32","name":"boxId","type":"bytes32"}],"name":"getBox","outputs":[{"components":[{"internalType":"bytes32","name":"id","type":"bytes32"},{"internalType":"enum LootBox.BoxType","name":"boxType","type":"uint8"},{"internalType":"enum LootBox.BoxStatus","name":"status","type":"uint8"},{"internalType":"address","name":"owner","type":"address"},{"internalType":"address","name":"prizeToken","type":"address"},{"internalType":"uint256","name":"prizeAmount","type":"uint256"}],"internalType":"struct LootBox.Box","name":"","type":"tuple"}],"stateMutability":"view","type":"function"},{"inputs":[{"internalType":"uint256","name":"index","type":"uint256"}],"name":"getBoxIdAt","outputs":[{"internalType":"bytes32","name":"","type":"bytes32"}],"stateMutability":"view","type":"function"},{"inputs":[],"name":"initialize","outputs":[],"stateMutability":"nonpayable","type":"function"},{"inputs":[{"internalType":"address","name":"","type":"address"}],"name":"oracles","outputs":[{"internalType":"bool","name":"","type":"bool"}],"stateMutability":"view","type":"function"},{"inputs":[],"name":"owner","outputs":[{"internalType":"address","name":"","type":"address"}],"stateMutability":"view","type":"function"},{"inputs":[],"name":"paidBoxWinRate","outputs":[{"internalType":"uint256","name":"","type":"uint256"}],"stateMutability":"view","type":"function"},{"inputs":[{"internalType":"bytes32","name":"","type":"bytes32"}],"name":"pendingRequests","outputs":[{"internalType":"bool","name":"","type":"bool"}],"stateMutability":"view","type":"function"},{"inputs":[],"name":"renounceOwnership","outputs":[],"stateMutability":"nonpayable","type":"function"},{"inputs":[{"internalType":"uint256","name":"numberOfWords","type":"uint256"},{"internalType":"bytes32","name":"boxId","type":"bytes32"}],"name":"requestRandomWords","outputs":[{"internalType":"bytes32","name":"requestId","type":"bytes32"}],"stateMutability":"nonpayable","type":"function"},{"inputs":[{"internalType":"address","name":"newOracle","type":"address"},{"internalType":"bool","name":"enabled","type":"bool"}],"name":"setOracle","outputs":[],"stateMutability":"nonpayable","type":"function"},{"inputs":[{"internalType":"uint256","name":"_newRate","type":"uint256"},{"internalType":"enum LootBox.BoxType","name":"boxType","type":"uint8"}],"name":"setWinRate","outputs":[],"stateMutability":"nonpayable","type":"function"},{"inputs":[],"name":"totalBoxes","outputs":[{"internalType":"uint256","name":"","type":"uint256"}],"stateMutability":"view","type":"function"},{"inputs":[{"internalType":"address","name":"newOwner","type":"address"}],"name":"transferOwnership","outputs":[],"stateMutability":"nonpayable","type":"function"},{"inputs":[{"internalType":"bytes32","name":"boxId","type":"bytes32"},{"internalType":"enum LootBox.BoxType","name":"boxType","type":"uint8"},{"internalType":"address","name":"prizeToken","type":"address"},{"internalType":"uint256","name":"prizeAmount","type":"uint256"}],"name":"updateBox","outputs":[],"stateMutability":"nonpayable","type":"function"},{"stateMutability":"payable","type":"receive"}],"evm":{"bytecode":{"linkReferences":{},"object":"6080604052601e60025560326003553480156200001b57600080fd5b50620000266200002c565b620000e0565b7ff0c57e16840df040f15088dc2f81fe391c3923bec73e23a9662efc9c229c6a00805468010000000000000000900460ff16156200007d5760405163f92ee8a960e01b815260040160405180910390fd5b80546001600160401b0390811614620000dd5780546001600160401b0319166001600160401b0390811782556040519081527fc7f505b2f371ae2175ee4913f4499e1f2633a7b5936321eed1cdaeb6115181d29060200160405180910390a15b50565b612cd080620000f06000396000f3fe6080604052600436106100e85760003560e01c80630589c970146100f45780632795ad201461017257806349f76998146101b257806357e78adc146101c757806365360843146101ea578063715018a61461020a5780638129fc1c1461021f5780638da5cb5b1461023457806391a85dde14610256578063a46e717e14610276578063a55f056514610296578063addd5099146102c3578063c4018427146102f3578063cf611c4514610313578063e1e1005414610333578063e30459bc14610349578063eba7b7e61461035f578063ef31d20e1461037f578063f2fde38b1461039f57600080fd5b366100ef57005b600080fd5b34801561010057600080fd5b5061015761010f366004612483565b6005602052600090815260409020805460018201546002830154600390930154919260ff808316936101008404909116926001600160a01b0362010000909104811692169086565b604051610169969594939291906124d0565b60405180910390f35b34801561017e57600080fd5b506101a261018d366004612483565b60046020526000908152604090205460ff1681565b6040519015158152602001610169565b6101c56101c0366004612545565b6103bf565b005b3480156101d357600080fd5b506101dc61074e565b604051908152602001610169565b3480156101f657600080fd5b506101c561020536600461258f565b61075f565b34801561021657600080fd5b506101c5610817565b34801561022b57600080fd5b506101c561082b565b34801561024057600080fd5b50610249610965565b60405161016991906125c6565b34801561026257600080fd5b506101c56102713660046125da565b610980565b34801561028257600080fd5b506101c5610291366004612483565b610a9d565b3480156102a257600080fd5b506102b66102b1366004612483565b610ad8565b6040516101699190612606565b3480156102cf57600080fd5b506101a26102de366004612669565b60086020526000908152604090205460ff1681565b3480156102ff57600080fd5b506101dc61030e366004612483565b610bfa565b34801561031f57600080fd5b506101c561032e3660046126db565b610c5b565b34801561033f57600080fd5b506101dc60025481565b34801561035557600080fd5b506101dc60035481565b34801561036b57600080fd5b506101c561037a3660046127e4565b61132d565b34801561038b57600080fd5b506101dc61039a366004612828565b611466565b3480156103ab57600080fd5b506101c56103ba366004612669565b611719565b6103c7611754565b600081116103f05760405162461bcd60e51b81526004016103e79061284a565b60405180910390fd5b60006103fa611786565b905061040760068261182e565b1561044c5760405162461bcd60e51b8152602060048201526015602482015274426f7820494420616c72656164792065786973747360581b60448201526064016103e7565b60008460018111156104605761046061249c565b148061047d5750600184600181111561047b5761047b61249c565b145b6104995760405162461bcd60e51b81526004016103e790612890565b600082116104b95760405162461bcd60e51b81526004016103e79061284a565b6001600160a01b0383161561057f57604051636eb1769f60e11b815233600482015230602482015282906001600160a01b0385169063dd62ed3e90604401602060405180830381865afa158015610514573d6000803e3d6000fd5b505050506040513d601f19601f8201168201806040525081019061053891906128ba565b101561057f5760405162461bcd60e51b8152602060048201526016602482015275496e73756666696369656e7420616c6c6f77616e636560501b60448201526064016103e7565b6040518060c001604052808281526020018560018111156105a2576105a261249c565b815260016020808301829052600060408085018290526001600160a01b038916606086015260809094018790528581526005825292909220835181559183015182820180549192909160ff19169083818111156106015761060161249c565b021790555060408201518160010160016101000a81548160ff021916908360018111156106305761063061249c565b0217905550606082015160018201805462010000600160b01b031916620100006001600160a01b039384160217905560808301516002830180546001600160a01b0319169190921617905560a090910151600390910155610692600682611841565b506001600160a01b0383166106f2578134146106ed5760405162461bcd60e51b815260206004820152601a602482015279125b98dbdc9c9958dd08195d1a195c881d985b1d59481cd95b9d60321b60448201526064016103e7565b6106fe565b6106fe8333308561184d565b60006001600160a01b0316817fc3ee22ee6bfb7ea87d4b424f2fdf8d27fbc3eb99d90b50cc187b26ef74e00568866001878760405161074094939291906128d3565b60405180910390a350505050565b600061075a60066118be565b905090565b610767611754565b6001600160a01b0382166107b65760405162461bcd60e51b8152602060048201526016602482015275496e76616c6964206f7261636c65206164647265737360501b60448201526064016103e7565b6040516001600160a01b0383169081907fb1d1442dba579887e297ac433e5716c847abf2dc052ee9de4869b7b1b8f6206d90600090a36001600160a01b03919091166000908152600860205260409020805460ff1916911515919091179055565b61081f611754565b61082960006118c8565b565b6000610835611924565b805490915060ff600160401b82041615906001600160401b031660008115801561085c5750825b90506000826001600160401b031660011480156108785750303b155b905081158015610886575080155b156108a45760405163f92ee8a960e01b815260040160405180910390fd5b84546001600160401b031916600117855583156108cd57845460ff60401b1916600160401b1785555b6108d63361194d565b6108de61195e565b6040516001600160601b03193360601b16602082015242603482015260540160408051601f198184030181529190528051602090910120600055831561095e57845460ff60401b19168555604051600181527fc7f505b2f371ae2175ee4913f4499e1f2633a7b5936321eed1cdaeb6115181d29060200160405180910390a15b5050505050565b60008061097061196e565b546001600160a01b031692915050565b610988611754565b6001821015801561099a575060648211155b6109f15760405162461bcd60e51b815260206004820152602260248201527f57696e2072617465206d757374206265206265747765656e203120616e642031604482015261030360f41b60648201526084016103e7565b6000816001811115610a0557610a0561249c565b03610a395781600254600080516020612c7b83398151915283604051610a2b9190612910565b60405180910390a350600255565b6001816001811115610a4d57610a4d61249c565b03610a815781600354600080516020612c7b83398151915283604051610a739190612910565b60405180910390a350600355565b60405162461bcd60e51b81526004016103e790612890565b5050565b610aa5611754565b610ab060068261182e565b610acc5760405162461bcd60e51b81526004016103e790612923565b610ad581611992565b50565b610b126040805160c08101909152600080825260208201908152602001600081526000602082018190526040820181905260609091015290565b610b1d60068361182e565b610b395760405162461bcd60e51b81526004016103e790612923565b600082815260056020908152604091829020825160c0810190935280548352600180820154919284019160ff1690811115610b7657610b7661249c565b6001811115610b8757610b8761249c565b81526020016001820160019054906101000a900460ff166001811115610baf57610baf61249c565b6001811115610bc057610bc061249c565b815260018201546001600160a01b036201000090910481166020830152600283015416604082015260039091015460609091015292915050565b6000610c0660066118be565b8210610c4a5760405162461bcd60e51b8152602060048201526013602482015272496e646578206f7574206f6620626f756e647360681b60448201526064016103e7565b610c55600683611a05565b92915050565b3360009081526008602052604090205460ff16610c8a576040516282b42960e81b815260040160405180910390fd5b610c92611a11565b60008681526004602052604090205460ff16610cc157604051632589d98f60e11b815260040160405180910390fd5b610cd086868686338787611a47565b610ced57604051638baa579f60e01b815260040160405180910390fd5b610cf860068561182e565b610d145760405162461bcd60e51b81526004016103e790612923565b600084815260056020526040902060018082810154610100900460ff1690811115610d4157610d4161249c565b14610d7f5760405162461bcd60e51b815260206004820152600e60248201526d105b1c9958591e481bdc195b995960921b60448201526064016103e7565b60018101546201000090046001600160a01b031615610dd05760405162461bcd60e51b815260206004820152600d60248201526c2137bc103430b99037bbb732b960991b60448201526064016103e7565b600181810180546001600160a01b0387166201000002610100600160b01b031982168117909255600092839260ff90811692169190911790811115610e1757610e1761249c565b03610e4e57600254606488600081518110610e3457610e3461294d565b6020026020010151610e469190612979565b109050610e7c565b600354606488600081518110610e6657610e6661294d565b6020026020010151610e789190612979565b1090505b610ec76040518060400160405280600f81526020016e02930b73237b690373ab6b132b91d1608d1b81525088600081518110610eba57610eba61294d565b6020026020010151611b17565b610ef46040518060400160405280600b81526020016a02932b8bab2b9ba32b91d160ad1b81525086611b5c565b60408051808201909152600a81526902137bc102a3cb8329d160b51b6020820152600180840154610f3a929160ff90911690811115610f3557610f3561249c565b611b17565b610f6e6040518060400160405280600e81526020016d0283934bd329020b6b7bab73a1d160951b8152508360030154611b17565b610f956040518060400160405280600581526020016402bb7b71d160dd1b81525082611ba1565b60408051808201909152600d81526c0283934bd32902a37b5b2b71d1609d1b60208201526002830154610fd191906001600160a01b0316611b5c565b80156112925760006001808085015460ff1690811115610ff357610ff361249c565b14610fff576064611031565b6064886000815181106110145761101461294d565b60200260200101516110269190612979565b6110319060016129a3565b905060006001808086015460ff169081111561104f5761104f61249c565b1461105e57836003015461107a565b606482856003015461107091906129b6565b61107a91906129cd565b90506110a76040518060400160405280600981526020016802832b931b2b73a1d160bd1b81525083611b17565b60008185600301546110b991906129e1565b90506111116040518060400160405280600881526020016702830bcb7baba1d160c51b81525083604051806040016040528060128152602001710102932b6b0b4b734b73390283934bd329d160751b81525084611be6565b60028501546001600160a01b031661117b5761112d8883611c2f565b80156111445761114461113e610965565b82611c2f565b611176604051806040016040528060118152602001702a3930b739b332b93932b21032ba3432b960791b815250611d10565b6111ed565b6002850154611194906001600160a01b03168984611d53565b80156111ba5760028501546111ba906001600160a01b03166111b4610965565b83611d53565b6111ed604051806040016040528060128152602001715472616e7366657272656420746f6b656e7360701b815250611d10565b60028501546040516001600160a01b03808b16928c927f6ca0da92c4797a558f7e777695e71010ca0bbf7b7007b7e0402c5921a25fb4d89261123292169087906129f4565b60405180910390a3801561128a5760028501546040518a917ff552ca82e113ac3c539c3d617f29fcd19c172a0c75dad017555c9e109f7fe18391611281916001600160a01b03169085906129f4565b60405180910390a25b5050506112c9565b6040516001600160a01b0386169087907f059c544c2595303434d37bd8ee8af000818be6066beb8c37844d43f7ee80a44490600090a35b60008881526004602052604090819020805460ff1916905551869089907fc9245471e1eda01df96ac978bd431512e8e4f71c9541c7d946973b851391d8ad90611313908b90612a0d565b60405180910390a35050611325611d5e565b505050505050565b611335611754565b61134060068561182e565b61135c5760405162461bcd60e51b81526004016103e790612923565b6000811161137c5760405162461bcd60e51b81526004016103e79061284a565b60008360018111156113905761139061249c565b14806113ad575060018360018111156113ab576113ab61249c565b145b6113c95760405162461bcd60e51b81526004016103e790612890565b600084815260056020526040902060018082018054869260ff199091169083818111156113f8576113f861249c565b02179055506002810180546001600160a01b0319166001600160a01b0385161790556003810182905560405185907f50b5eebc9a0d3dfc66c5b4b97cd6001db18fadcb002f743cf67170e9cde73b989061145790879087908790612a51565b60405180910390a25050505050565b600061147360068361182e565b61148f5760405162461bcd60e51b81526004016103e790612923565b60016000838152600560205260409020600190810154610100900460ff16908111156114bd576114bd61249c565b146114ff5760405162461bcd60e51b8152602060048201526012602482015271109bde08185b1c9958591e481bdc195b995960721b60448201526064016103e7565b6000828152600560205260409020600101546201000090046001600160a01b0316156115655760405162461bcd60e51b81526020600482015260156024820152742137bc1030b63932b0b23c903430b99037bbb732b960591b60448201526064016103e7565b826001146115ad5760405162461bcd60e51b815260206004820152601560248201527413db9b1e481bdb99481ddbdc9908185b1b1bddd959605a1b60448201526064016103e7565b33426000546040516020016115c493929190612a7b565b60408051601f19818403018152919052805160209091012060008181556001805442924492339230928a928a92916115fb83612aa0565b9091555060408051602081019990995288019690965260608088019590955292841b6001600160601b031990811660808801529190931b16609485015260a884019190915260c883015260e88201526101080160408051601f1981840301815291815281516020928301206000818152600490935291205490915060ff16156116ba5760405162461bcd60e51b8152602060048201526011602482015270526571756573742049442065786973747360781b60448201526064016103e7565b60008181526004602052604090819020805460ff19166001179055518290339083907fe597616bcc7ad3b09b316c7123410af4695ed18f3ffcaebb95cfd266755412fb9061170b9088815260200190565b60405180910390a492915050565b611721611754565b6001600160a01b03811661174b576000604051631e4fbdf760e01b81526004016103e791906125c6565b610ad5816118c8565b3361175d610965565b6001600160a01b031614610829573360405163118cdaa760e01b81526004016103e791906125c6565b6000334260005460405160200161179f93929190612a7b565b60408051601f1981840301815291905280516020909101206000818155600180544293449333933093916117d283612aa0565b909155506040805160208101979097528601949094526001600160601b0319606093841b8116848701529190921b166074840152608883015260a882015260c80160405160208183030381529060405280519060200120905090565b600061183a8383611d6f565b9392505050565b600061183a8383611d87565b6040516001600160a01b03808516602483015283166044820152606481018290526118b89085906323b872dd60e01b906084015b60408051601f198184030181529190526020810180516001600160e01b03166001600160e01b031990931692909217909152611dd1565b50505050565b6000610c55825490565b60006118d261196e565b80546001600160a01b038481166001600160a01b031983168117845560405193945091169182907f8be0079c531659141344cd1fd0a4f28419497f9722a3daafe3b4186f6b6457e090600090a3505050565b6000807ff0c57e16840df040f15088dc2f81fe391c3923bec73e23a9662efc9c229c6a00610c55565b611955611ea6565b610ad581611ecb565b611966611ea6565b610829611ed3565b7f9016d09d72d40fdae2fd8ceac6b6234c7706214fd39c1cd1e609a0528c19930090565b60008181526005602052604081208181556001810180546001600160b01b03191690556002810180546001600160a01b0319169055600301556119d6600682611edb565b5060405181907f606ce84a58beebdd8abdd4bb24672fc015a5eb5a7be08a9d2f4023a920c8e7dd90600090a250565b600061183a8383611ee7565b6000611a1b611f11565b805490915060011901611a4157604051633ee5aeb560e01b815260040160405180910390fd5b60029055565b6000808888888888604051602001611a63959493929190612ab9565b6040516020818303038152906040528051906020012090506000611ab3827b0ca2ba3432b932bab69029b4b3b732b21026b2b9b9b0b3b29d05199960211b6000908152601c91909152603c902090565b9050856001600160a01b0316611aff8287878080601f016020809104026020016040519081016040528093929190818152602001838380828437600092019190915250611f3592505050565b6001600160a01b0316149a9950505050505050505050565b610a998282604051602401611b2d929190612b6b565b60408051601f198184030181529190526020810180516001600160e01b0316632d839cb360e21b179052611f59565b610a998282604051602401611b72929190612b8d565b60408051601f198184030181529190526020810180516001600160e01b031663319af33360e01b179052611f59565b610a998282604051602401611bb7929190612bb7565b60408051601f198184030181529190526020810180516001600160e01b031663c3b5563560e01b179052611f59565b6118b884848484604051602401611c009493929190612bdb565b60408051601f198184030181529190526020810180516001600160e01b031663c67ea9d160e01b179052611f59565b80471015611c725760405162461bcd60e51b815260206004820152601060248201526f092dce6eaccccd2c6d2cadce8408aa8960831b60448201526064016103e7565b6000826001600160a01b03168260405160006040518083038185875af1925050503d8060008114611cbf576040519150601f19603f3d011682016040523d82523d6000602084013e611cc4565b606091505b5050905080611d0b5760405162461bcd60e51b8152602060048201526013602482015272115512081d1c985b9cd9995c8819985a5b1959606a1b60448201526064016103e7565b505050565b610ad581604051602401611d249190612c18565b60408051601f198184030181529190526020810180516001600160e01b031663104c13eb60e21b179052611f59565b611d0b838383611f62565b6000611d68611f11565b6001905550565b60009081526001919091016020526040902054151590565b6000611d938383611d6f565b611dc957508154600181810184556000848152602080822090930184905584548482528286019093526040902091909155610c55565b506000610c55565b6000611e26826040518060400160405280602081526020017f5361666545524332303a206c6f772d6c6576656c2063616c6c206661696c6564815250856001600160a01b0316611f819092919063ffffffff16565b9050805160001480611e47575080806020019051810190611e479190612c2b565b611d0b5760405162461bcd60e51b815260206004820152602a60248201527f5361666545524332303a204552433230206f7065726174696f6e20646964206e6044820152691bdd081cdd58d8d9595960b21b60648201526084016103e7565b611eae611f98565b61082957604051631afcd79f60e31b815260040160405180910390fd5b611721611ea6565b611d5e611ea6565b600061183a8383611fb2565b6000826000018281548110611efe57611efe61294d565b9060005260206000200154905092915050565b7f9b779b17422d0df92223018b32b4d1fa46e071723d6817e2486d003becc55f0090565b6000806000611f4485856120a5565b91509150611f51816120ea565b509392505050565b610ad58161222f565b611d0b8363a9059cbb60e01b84846040516024016118819291906129f4565b6060611f908484600085612250565b949350505050565b6000611fa2611924565b54600160401b900460ff16919050565b6000818152600183016020526040812054801561209b576000611fd66001836129e1565b8554909150600090611fea906001906129e1565b905081811461204f57600086600001828154811061200a5761200a61294d565b906000526020600020015490508087600001848154811061202d5761202d61294d565b6000918252602080832090910192909255918252600188019052604090208390555b855486908061206057612060612c48565b600190038181906000526020600020016000905590558560010160008681526020019081526020016000206000905560019350505050610c55565b6000915050610c55565b60008082516041036120db5760208301516040840151606085015160001a6120cf8782858561232b565b945094505050506120e3565b506000905060025b9250929050565b60008160048111156120fe576120fe61249c565b036121065750565b600181600481111561211a5761211a61249c565b036121625760405162461bcd60e51b815260206004820152601860248201527745434453413a20696e76616c6964207369676e617475726560401b60448201526064016103e7565b60028160048111156121765761217661249c565b036121c35760405162461bcd60e51b815260206004820152601f60248201527f45434453413a20696e76616c6964207369676e6174757265206c656e6774680060448201526064016103e7565b60038160048111156121d7576121d761249c565b03610ad55760405162461bcd60e51b815260206004820152602260248201527f45434453413a20696e76616c6964207369676e6174757265202773272076616c604482015261756560f01b60648201526084016103e7565b60006a636f6e736f6c652e6c6f679050600080835160208501845afa505050565b6060824710156122b15760405162461bcd60e51b815260206004820152602660248201527f416464726573733a20696e73756666696369656e742062616c616e636520666f6044820152651c8818d85b1b60d21b60648201526084016103e7565b600080866001600160a01b031685876040516122cd9190612c5e565b60006040518083038185875af1925050503d806000811461230a576040519150601f19603f3d011682016040523d82523d6000602084013e61230f565b606091505b5091509150612320878383876123e5565b979650505050505050565b6000806fa2a8918ca85bafe22016d0b997e4df60600160ff1b0383111561235857506000905060036123dc565b6040805160008082526020820180845289905260ff881692820192909252606081018690526080810185905260019060a0016020604051602081039080840390855afa1580156123ac573d6000803e3d6000fd5b5050604051601f1901519150506001600160a01b0381166123d5576000600192509250506123dc565b9150600090505b94509492505050565b6060831561245457825160000361244d576001600160a01b0385163b61244d5760405162461bcd60e51b815260206004820152601d60248201527f416464726573733a2063616c6c20746f206e6f6e2d636f6e747261637400000060448201526064016103e7565b5081611f90565b611f9083838151156124695781518083602001fd5b8060405162461bcd60e51b81526004016103e79190612c18565b60006020828403121561249557600080fd5b5035919050565b634e487b7160e01b600052602160045260246000fd5b60028110610ad557634e487b7160e01b600052602160045260246000fd5b86815260c081016124e0876124b2565b8660208301526124ef866124b2565b60408201959095526001600160a01b03938416606082015291909216608082015260a0015292915050565b80356002811061252957600080fd5b919050565b80356001600160a01b038116811461252957600080fd5b60008060006060848603121561255a57600080fd5b6125638461251a565b92506125716020850161252e565b9150604084013590509250925092565b8015158114610ad557600080fd5b600080604083850312156125a257600080fd5b6125ab8361252e565b915060208301356125bb81612581565b809150509250929050565b6001600160a01b0391909116815260200190565b600080604083850312156125ed57600080fd5b823591506125fd6020840161251a565b90509250929050565b81518152602082015160c082019061261d816124b2565b60208301526040830151612630816124b2565b80604084015250606083015160018060a01b038082166060850152806080860151166080850152505060a083015160a083015292915050565b60006020828403121561267b57600080fd5b61183a8261252e565b634e487b7160e01b600052604160045260246000fd5b60008083601f8401126126ac57600080fd5b5081356001600160401b038111156126c357600080fd5b6020830191508360208285010111156120e357600080fd5b60008060008060008060a087890312156126f457600080fd5b863595506020808801356001600160401b038082111561271357600080fd5b818a0191508a601f83011261272757600080fd5b81358181111561273957612739612684565b8060051b604051601f19603f8301168101818110858211171561275e5761275e612684565b6040529182528381018501918581018e84111561277a57600080fd5b948601945b83861015612796578535815294860194860161277f565b509950505060408a013596506127ae60608b0161252e565b955060808a01359250808311156127c457600080fd5b50506127d289828a0161269a565b979a9699509497509295939492505050565b600080600080608085870312156127fa57600080fd5b8435935061280a6020860161251a565b92506128186040860161252e565b9396929550929360600135925050565b6000806040838503121561283b57600080fd5b50508035926020909101359150565b60208082526026908201527f5072697a6520616d6f756e74206d7573742062652067726561746572207468616040820152656e207a65726f60d01b606082015260800190565b60208082526010908201526f496e76616c696420626f78207479706560801b604082015260600190565b6000602082840312156128cc57600080fd5b5051919050565b608081016128e0866124b2565b8582526128ec856124b2565b60208201949094526001600160a01b03929092166040830152606090910152919050565b6020810161291d836124b2565b91905290565b60208082526010908201526f109bde081251081b9bdd08199bdd5b9960821b604082015260600190565b634e487b7160e01b600052603260045260246000fd5b634e487b7160e01b600052601260045260246000fd5b60008261298857612988612963565b500690565b634e487b7160e01b600052601160045260246000fd5b80820180821115610c5557610c5561298d565b8082028115828204841417610c5557610c5561298d565b6000826129dc576129dc612963565b500490565b81810381811115610c5557610c5561298d565b6001600160a01b03929092168252602082015260400190565b6020808252825182820181905260009190848201906040850190845b81811015612a4557835183529284019291840191600101612a29565b50909695505050505050565b60608101612a5e856124b2565b9381526001600160a01b0392909216602083015260409091015290565b60609390931b6001600160601b03191683526014830191909152603482015260540190565b600060018201612ab257612ab261298d565b5060010190565b85815260006020808301875182890160005b82811015612ae757815184529284019290840190600101612acb565b5050509586526001600160601b0319606095861b8116918701919091529290931b9091166034840152505060480192915050565b60005b83811015612b36578181015183820152602001612b1e565b50506000910152565b60008151808452612b57816020860160208601612b1b565b601f01601f19169290920160200192915050565b604081526000612b7e6040830185612b3f565b90508260208301529392505050565b604081526000612ba06040830185612b3f565b905060018060a01b03831660208301529392505050565b604081526000612bca6040830185612b3f565b905082151560208301529392505050565b608081526000612bee6080830187612b3f565b8560208401528281036040840152612c068186612b3f565b91505082606083015295945050505050565b60208152600061183a6020830184612b3f565b600060208284031215612c3d57600080fd5b815161183a81612581565b634e487b7160e01b600052603160045260246000fd5b60008251612c70818460208701612b1b565b919091019291505056fedb34b94cdf595409619536f514e415c5db325a2e10bd6b01162168a8a2e2e889a26469706673582212203064f3fa8c84f7459b2b82a47e54777d25b0e5407cdc4228040cb94b8390cc9764736f6c63430008140033","opcodes":"PUSH1 0x80 PUSH1 0x40 MSTORE PUSH1 0x1E PUSH1 0x2 SSTORE PUSH1 0x32 PUSH1 0x3 SSTORE CALLVALUE DUP1 ISZERO PUSH3 0x1B JUMPI PUSH1 0x0 DUP1 REVERT JUMPDEST POP PUSH3 0x26 PUSH3 0x2C JUMP JUMPDEST PUSH3 0xE0 JUMP JUMPDEST PUSH32 0xF0C57E16840DF040F15088DC2F81FE391C3923BEC73E23A9662EFC9C229C6A00 DUP1 SLOAD PUSH9 0x10000000000000000 SWAP1 DIV PUSH1 0xFF AND ISZERO PUSH3 0x7D JUMPI PUSH1 0x40 MLOAD PUSH4 0xF92EE8A9 PUSH1 0xE0 SHL DUP2 MSTORE PUSH1 0x4 ADD PUSH1 0x40 MLOAD DUP1 SWAP2 SUB SWAP1 REVERT JUMPDEST DUP1 SLOAD PUSH1 0x1 PUSH1 0x1 PUSH1 0x40 SHL SUB SWAP1 DUP2 AND EQ PUSH3 0xDD JUMPI DUP1 SLOAD PUSH1 0x1 PUSH1 0x1 PUSH1 0x40 SHL SUB NOT AND PUSH1 0x1 PUSH1 0x1 PUSH1 0x40 SHL SUB SWAP1 DUP2 OR DUP3 SSTORE PUSH1 0x40 MLOAD SWAP1 DUP2 MSTORE PUSH32 0xC7F505B2F371AE2175EE4913F4499E1F2633A7B5936321EED1CDAEB6115181D2 SWAP1 PUSH1 0x20 ADD PUSH1 0x40 MLOAD DUP1 SWAP2 SUB SWAP1 LOG1 JUMPDEST POP JUMP JUMPDEST PUSH2 0x2CD0 DUP1 PUSH3 0xF0 PUSH1 0x0 CODECOPY PUSH1 0x0 RETURN INVALID PUSH1 0x80 PUSH1 0x40 MSTORE PUSH1 0x4 CALLDATASIZE LT PUSH2 0xE8 JUMPI PUSH1 0x0 CALLDATALOAD PUSH1 0xE0 SHR DUP1 PUSH4 0x589C970 EQ PUSH2 0xF4 JUMPI DUP1 PUSH4 0x2795AD20 EQ PUSH2 0x172 JUMPI DUP1 PUSH4 0x49F76998 EQ PUSH2 0x1B2 JUMPI DUP1 PUSH4 0x57E78ADC EQ PUSH2 0x1C7 JUMPI DUP1 PUSH4 0x65360843 EQ PUSH2 0x1EA JUMPI DUP1 PUSH4 0x715018A6 EQ PUSH2 0x20A JUMPI DUP1 PUSH4 0x8129FC1C EQ PUSH2 0x21F JUMPI DUP1 PUSH4 0x8DA5CB5B EQ PUSH2 0x234 JUMPI DUP1 PUSH4 0x91A85DDE EQ PUSH2 0x256 JUMPI DUP1 PUSH4 0xA46E717E EQ PUSH2 0x276 JUMPI DUP1 PUSH4 0xA55F0565 EQ PUSH2 0x296 JUMPI DUP1 PUSH4 0xADDD5099 EQ PUSH2 0x2C3 JUMPI DUP1 PUSH4 0xC4018427 EQ PUSH2 0x2F3 JUMPI DUP1 PUSH4 0xCF611C45 EQ PUSH2 0x313 JUMPI DUP1 PUSH4 0xE1E10054 EQ PUSH2 0x333 JUMPI DUP1 PUSH4 0xE30459BC EQ PUSH2 0x349 JUMPI DUP1 PUSH4 0xEBA7B7E6 EQ PUSH2 0x35F JUMPI DUP1 PUSH4 0xEF31D20E EQ PUSH2 0x37F JUMPI DUP1 PUSH4 0xF2FDE38B EQ PUSH2 0x39F JUMPI PUSH1 0x0 DUP1 REVERT JUMPDEST CALLDATASIZE PUSH2 0xEF JUMPI STOP JUMPDEST PUSH1 0x0 DUP1 REVERT JUMPDEST CALLVALUE DUP1 ISZERO PUSH2 0x100 JUMPI PUSH1 0x0 DUP1 REVERT JUMPDEST POP PUSH2 0x157 PUSH2 0x10F CALLDATASIZE PUSH1 0x4 PUSH2 0x2483 JUMP JUMPDEST PUSH1 0x5 PUSH1 0x20 MSTORE PUSH1 0x0 SWAP1 DUP2 MSTORE PUSH1 0x40 SWAP1 KECCAK256 DUP1 SLOAD PUSH1 0x1 DUP3 ADD SLOAD PUSH1 0x2 DUP4 ADD SLOAD PUSH1 0x3 SWAP1 SWAP4 ADD SLOAD SWAP2 SWAP3 PUSH1 0xFF DUP1 DUP4 AND SWAP4 PUSH2 0x100 DUP5 DIV SWAP1 SWAP2 AND SWAP3 PUSH1 0x1 PUSH1 0x1 PUSH1 0xA0 SHL SUB PUSH3 0x10000 SWAP1 SWAP2 DIV DUP2 AND SWAP3 AND SWAP1 DUP7 JUMP JUMPDEST PUSH1 0x40 MLOAD PUSH2 0x169 SWAP7 SWAP6 SWAP5 SWAP4 SWAP3 SWAP2 SWAP1 PUSH2 0x24D0 JUMP JUMPDEST PUSH1 0x40 MLOAD DUP1 SWAP2 SUB SWAP1 RETURN JUMPDEST CALLVALUE DUP1 ISZERO PUSH2 0x17E JUMPI PUSH1 0x0 DUP1 REVERT JUMPDEST POP PUSH2 0x1A2 PUSH2 0x18D CALLDATASIZE PUSH1 0x4 PUSH2 0x2483 JUMP JUMPDEST PUSH1 0x4 PUSH1 0x20 MSTORE PUSH1 0x0 SWAP1 DUP2 MSTORE PUSH1 0x40 SWAP1 KECCAK256 SLOAD PUSH1 0xFF AND DUP2 JUMP JUMPDEST PUSH1 0x40 MLOAD SWAP1 ISZERO ISZERO DUP2 MSTORE PUSH1 0x20 ADD PUSH2 0x169 JUMP JUMPDEST PUSH2 0x1C5 PUSH2 0x1C0 CALLDATASIZE PUSH1 0x4 PUSH2 0x2545 JUMP JUMPDEST PUSH2 0x3BF JUMP JUMPDEST STOP JUMPDEST CALLVALUE DUP1 ISZERO PUSH2 0x1D3 JUMPI PUSH1 0x0 DUP1 REVERT JUMPDEST POP PUSH2 0x1DC PUSH2 0x74E JUMP JUMPDEST PUSH1 0x40 MLOAD SWAP1 DUP2 MSTORE PUSH1 0x20 ADD PUSH2 0x169 JUMP JUMPDEST CALLVALUE DUP1 ISZERO PUSH2 0x1F6 JUMPI PUSH1 0x0 DUP1 REVERT JUMPDEST POP PUSH2 0x1C5 PUSH2 0x205 CALLDATASIZE PUSH1 0x4 PUSH2 0x258F JUMP JUMPDEST PUSH2 0x75F JUMP JUMPDEST CALLVALUE DUP1 ISZERO PUSH2 0x216 JUMPI PUSH1 0x0 DUP1 REVERT JUMPDEST POP PUSH2 0x1C5 PUSH2 0x817 JUMP JUMPDEST CALLVALUE DUP1 ISZERO PUSH2 0x22B JUMPI PUSH1 0x0 DUP1 REVERT JUMPDEST POP PUSH2 0x1C5 PUSH2 0x82B JUMP JUMPDEST CALLVALUE DUP1 ISZERO PUSH2 0x240 JUMPI PUSH1 0x0 DUP1 REVERT JUMPDEST POP PUSH2 0x249 PUSH2 0x965 JUMP JUMPDEST PUSH1 0x40 MLOAD PUSH2 0x169 SWAP2 SWAP1 PUSH2 0x25C6 JUMP JUMPDEST CALLVALUE DUP1 ISZERO PUSH2 0x262 JUMPI PUSH1 0x0 DUP1 REVERT JUMPDEST POP PUSH2 0x1C5 PUSH2 0x271 CALLDATASIZE PUSH1 0x4 PUSH2 0x25DA JUMP JUMPDEST PUSH2 0x980 JUMP JUMPDEST CALLVALUE DUP1 ISZERO PUSH2 0x282 JUMPI PUSH1 0x0 DUP1 REVERT JUMPDEST POP PUSH2 0x1C5 PUSH2 0x291 CALLDATASIZE PUSH1 0x4 PUSH2 0x2483 JUMP JUMPDEST PUSH2 0xA9D JUMP JUMPDEST CALLVALUE DUP1 ISZERO PUSH2 0x2A2 JUMPI PUSH1 0x0 DUP1 REVERT JUMPDEST POP PUSH2 0x2B6 PUSH2 0x2B1 CALLDATASIZE PUSH1 0x4 PUSH2 0x2483 JUMP JUMPDEST PUSH2 0xAD8 JUMP JUMPDEST PUSH1 0x40 MLOAD PUSH2 0x169 SWAP2 SWAP1 PUSH2 0x2606 JUMP JUMPDEST CALLVALUE DUP1 ISZERO PUSH2 0x2CF JUMPI PUSH1 0x0 DUP1 REVERT JUMPDEST POP PUSH2 0x1A2 PUSH2 0x2DE CALLDATASIZE PUSH1 0x4 PUSH2 0x2669 JUMP JUMPDEST PUSH1 0x8 PUSH1 0x20 MSTORE PUSH1 0x0 SWAP1 DUP2 MSTORE PUSH1 0x40 SWAP1 KECCAK256 SLOAD PUSH1 0xFF AND DUP2 JUMP JUMPDEST CALLVALUE DUP1 ISZERO PUSH2 0x2FF JUMPI PUSH1 0x0 DUP1 REVERT JUMPDEST POP PUSH2 0x1DC PUSH2 0x30E CALLDATASIZE PUSH1 0x4 PUSH2 0x2483 JUMP JUMPDEST PUSH2 0xBFA JUMP JUMPDEST CALLVALUE DUP1 ISZERO PUSH2 0x31F JUMPI PUSH1 0x0 DUP1 REVERT JUMPDEST POP PUSH2 0x1C5 PUSH2 0x32E CALLDATASIZE PUSH1 0x4 PUSH2 0x26DB JUMP JUMPDEST PUSH2 0xC5B JUMP JUMPDEST CALLVALUE DUP1 ISZERO PUSH2 0x33F JUMPI PUSH1 0x0 DUP1 REVERT JUMPDEST POP PUSH2 0x1DC PUSH1 0x2 SLOAD DUP2 JUMP JUMPDEST CALLVALUE DUP1 ISZERO PUSH2 0x355 JUMPI PUSH1 0x0 DUP1 REVERT JUMPDEST POP PUSH2 0x1DC PUSH1 0x3 SLOAD DUP2 JUMP JUMPDEST CALLVALUE DUP1 ISZERO PUSH2 0x36B JUMPI PUSH1 0x0 DUP1 REVERT JUMPDEST POP PUSH2 0x1C5 PUSH2 0x37A CALLDATASIZE PUSH1 0x4 PUSH2 0x27E4 JUMP JUMPDEST PUSH2 0x132D JUMP JUMPDEST CALLVALUE DUP1 ISZERO PUSH2 0x38B JUMPI PUSH1 0x0 DUP1 REVERT JUMPDEST POP PUSH2 0x1DC PUSH2 0x39A CALLDATASIZE PUSH1 0x4 PUSH2 0x2828 JUMP JUMPDEST PUSH2 0x1466 JUMP JUMPDEST CALLVALUE DUP1 ISZERO PUSH2 0x3AB JUMPI PUSH1 0x0 DUP1 REVERT JUMPDEST POP PUSH2 0x1C5 PUSH2 0x3BA CALLDATASIZE PUSH1 0x4 PUSH2 0x2669 JUMP JUMPDEST PUSH2 0x1719 JUMP JUMPDEST PUSH2 0x3C7 PUSH2 0x1754 JUMP JUMPDEST PUSH1 0x0 DUP2 GT PUSH2 0x3F0 JUMPI PUSH1 0x40 MLOAD PUSH3 0x461BCD PUSH1 0xE5 SHL DUP2 MSTORE PUSH1 0x4 ADD PUSH2 0x3E7 SWAP1 PUSH2 0x284A JUMP JUMPDEST PUSH1 0x40 MLOAD DUP1 SWAP2 SUB SWAP1 REVERT JUMPDEST PUSH1 0x0 PUSH2 0x3FA PUSH2 0x1786 JUMP JUMPDEST SWAP1 POP PUSH2 0x407 PUSH1 0x6 DUP3 PUSH2 0x182E JUMP JUMPDEST ISZERO PUSH2 0x44C JUMPI PUSH1 0x40 MLOAD PUSH3 0x461BCD PUSH1 0xE5 SHL DUP2 MSTORE PUSH1 0x20 PUSH1 0x4 DUP3 ADD MSTORE PUSH1 0x15 PUSH1 0x24 DUP3 ADD MSTORE PUSH21 0x426F7820494420616C726561647920657869737473 PUSH1 0x58 SHL PUSH1 0x44 DUP3 ADD MSTORE PUSH1 0x64 ADD PUSH2 0x3E7 JUMP JUMPDEST PUSH1 0x0 DUP5 PUSH1 0x1 DUP2 GT ISZERO PUSH2 0x460 JUMPI PUSH2 0x460 PUSH2 0x249C JUMP JUMPDEST EQ DUP1 PUSH2 0x47D JUMPI POP PUSH1 0x1 DUP5 PUSH1 0x1 DUP2 GT ISZERO PUSH2 0x47B JUMPI PUSH2 0x47B PUSH2 0x249C JUMP JUMPDEST EQ JUMPDEST PUSH2 0x499 JUMPI PUSH1 0x40 MLOAD PUSH3 0x461BCD PUSH1 0xE5 SHL DUP2 MSTORE PUSH1 0x4 ADD PUSH2 0x3E7 SWAP1 PUSH2 0x2890 JUMP JUMPDEST PUSH1 0x0 DUP3 GT PUSH2 0x4B9 JUMPI PUSH1 0x40 MLOAD PUSH3 0x461BCD PUSH1 0xE5 SHL DUP2 MSTORE PUSH1 0x4 ADD PUSH2 0x3E7 SWAP1 PUSH2 0x284A JUMP JUMPDEST PUSH1 0x1 PUSH1 0x1 PUSH1 0xA0 SHL SUB DUP4 AND ISZERO PUSH2 0x57F JUMPI PUSH1 0x40 MLOAD PUSH4 0x6EB1769F PUSH1 0xE1 SHL DUP2 MSTORE CALLER PUSH1 0x4 DUP3 ADD MSTORE ADDRESS PUSH1 0x24 DUP3 ADD MSTORE DUP3 SWAP1 PUSH1 0x1 PUSH1 0x1 PUSH1 0xA0 SHL SUB DUP6 AND SWAP1 PUSH4 0xDD62ED3E SWAP1 PUSH1 0x44 ADD PUSH1 0x20 PUSH1 0x40 MLOAD DUP1 DUP4 SUB DUP2 DUP7 GAS STATICCALL ISZERO DUP1 ISZERO PUSH2 0x514 JUMPI RETURNDATASIZE PUSH1 0x0 DUP1 RETURNDATACOPY RETURNDATASIZE PUSH1 0x0 REVERT JUMPDEST POP POP POP POP PUSH1 0x40 MLOAD RETURNDATASIZE PUSH1 0x1F NOT PUSH1 0x1F DUP3 ADD AND DUP3 ADD DUP1 PUSH1 0x40 MSTORE POP DUP2 ADD SWAP1 PUSH2 0x538 SWAP2 SWAP1 PUSH2 0x28BA JUMP JUMPDEST LT ISZERO PUSH2 0x57F JUMPI PUSH1 0x40 MLOAD PUSH3 0x461BCD PUSH1 0xE5 SHL DUP2 MSTORE PUSH1 0x20 PUSH1 0x4 DUP3 ADD MSTORE PUSH1 0x16 PUSH1 0x24 DUP3 ADD MSTORE PUSH22 0x496E73756666696369656E7420616C6C6F77616E6365 PUSH1 0x50 SHL PUSH1 0x44 DUP3 ADD MSTORE PUSH1 0x64 ADD PUSH2 0x3E7 JUMP JUMPDEST PUSH1 0x40 MLOAD DUP1 PUSH1 0xC0 ADD PUSH1 0x40 MSTORE DUP1 DUP3 DUP2 MSTORE PUSH1 0x20 ADD DUP6 PUSH1 0x1 DUP2 GT ISZERO PUSH2 0x5A2 JUMPI PUSH2 0x5A2 PUSH2 0x249C JUMP JUMPDEST DUP2 MSTORE PUSH1 0x1 PUSH1 0x20 DUP1 DUP4 ADD DUP3 SWAP1 MSTORE PUSH1 0x0 PUSH1 0x40 DUP1 DUP6 ADD DUP3 SWAP1 MSTORE PUSH1 0x1 PUSH1 0x1 PUSH1 0xA0 SHL SUB DUP10 AND PUSH1 0x60 DUP7 ADD MSTORE PUSH1 0x80 SWAP1 SWAP5 ADD DUP8 SWAP1 MSTORE DUP6 DUP2 MSTORE PUSH1 0x5 DUP3 MSTORE SWAP3 SWAP1 SWAP3 KECCAK256 DUP4 MLOAD DUP2 SSTORE SWAP2 DUP4 ADD MLOAD DUP3 DUP3 ADD DUP1 SLOAD SWAP2 SWAP3 SWAP1 SWAP2 PUSH1 0xFF NOT AND SWAP1 DUP4 DUP2 DUP2 GT ISZERO PUSH2 0x601 JUMPI PUSH2 0x601 PUSH2 0x249C JUMP JUMPDEST MUL OR SWAP1 SSTORE POP PUSH1 0x40 DUP3 ADD MLOAD DUP2 PUSH1 0x1 ADD PUSH1 0x1 PUSH2 0x100 EXP DUP2 SLOAD DUP2 PUSH1 0xFF MUL NOT AND SWAP1 DUP4 PUSH1 0x1 DUP2 GT ISZERO PUSH2 0x630 JUMPI PUSH2 0x630 PUSH2 0x249C JUMP JUMPDEST MUL OR SWAP1 SSTORE POP PUSH1 0x60 DUP3 ADD MLOAD PUSH1 0x1 DUP3 ADD DUP1 SLOAD PUSH3 0x10000 PUSH1 0x1 PUSH1 0xB0 SHL SUB NOT AND PUSH3 0x10000 PUSH1 0x1 PUSH1 0x1 PUSH1 0xA0 SHL SUB SWAP4 DUP5 AND MUL OR SWAP1 SSTORE PUSH1 0x80 DUP4 ADD MLOAD PUSH1 0x2 DUP4 ADD DUP1 SLOAD PUSH1 0x1 PUSH1 0x1 PUSH1 0xA0 SHL SUB NOT AND SWAP2 SWAP1 SWAP3 AND OR SWAP1 SSTORE PUSH1 0xA0 SWAP1 SWAP2 ADD MLOAD PUSH1 0x3 SWAP1 SWAP2 ADD SSTORE PUSH2 0x692 PUSH1 0x6 DUP3 PUSH2 0x1841 JUMP JUMPDEST POP PUSH1 0x1 PUSH1 0x1 PUSH1 0xA0 SHL SUB DUP4 AND PUSH2 0x6F2 JUMPI DUP2 CALLVALUE EQ PUSH2 0x6ED JUMPI PUSH1 0x40 MLOAD PUSH3 0x461BCD PUSH1 0xE5 SHL DUP2 MSTORE PUSH1 0x20 PUSH1 0x4 DUP3 ADD MSTORE PUSH1 0x1A PUSH1 0x24 DUP3 ADD MSTORE PUSH26 0x125B98DBDC9C9958DD08195D1A195C881D985B1D59481CD95B9D PUSH1 0x32 SHL PUSH1 0x44 DUP3 ADD MSTORE PUSH1 0x64 ADD PUSH2 0x3E7 JUMP JUMPDEST PUSH2 0x6FE JUMP JUMPDEST PUSH2 0x6FE DUP4 CALLER ADDRESS DUP6 PUSH2 0x184D JUMP JUMPDEST PUSH1 0x0 PUSH1 0x1 PUSH1 0x1 PUSH1 0xA0 SHL SUB AND DUP2 PUSH32 0xC3EE22EE6BFB7EA87D4B424F2FDF8D27FBC3EB99D90B50CC187B26EF74E00568 DUP7 PUSH1 0x1 DUP8 DUP8 PUSH1 0x40 MLOAD PUSH2 0x740 SWAP5 SWAP4 SWAP3 SWAP2 SWAP1 PUSH2 0x28D3 JUMP JUMPDEST PUSH1 0x40 MLOAD DUP1 SWAP2 SUB SWAP1 LOG3 POP POP POP POP JUMP JUMPDEST PUSH1 0x0 PUSH2 0x75A PUSH1 0x6 PUSH2 0x18BE JUMP JUMPDEST SWAP1 POP SWAP1 JUMP JUMPDEST PUSH2 0x767 PUSH2 0x1754 JUMP JUMPDEST PUSH1 0x1 PUSH1 0x1 PUSH1 0xA0 SHL SUB DUP3 AND PUSH2 0x7B6 JUMPI PUSH1 0x40 MLOAD PUSH3 0x461BCD PUSH1 0xE5 SHL DUP2 MSTORE PUSH1 0x20 PUSH1 0x4 DUP3 ADD MSTORE PUSH1 0x16 PUSH1 0x24 DUP3 ADD MSTORE PUSH22 0x496E76616C6964206F7261636C652061646472657373 PUSH1 0x50 SHL PUSH1 0x44 DUP3 ADD MSTORE PUSH1 0x64 ADD PUSH2 0x3E7 JUMP JUMPDEST PUSH1 0x40 MLOAD PUSH1 0x1 PUSH1 0x1 PUSH1 0xA0 SHL SUB DUP4 AND SWAP1 DUP2 SWAP1 PUSH32 0xB1D1442DBA579887E297AC433E5716C847ABF2DC052EE9DE4869B7B1B8F6206D SWAP1 PUSH1 0x0 SWAP1 LOG3 PUSH1 0x1 PUSH1 0x1 PUSH1 0xA0 SHL SUB SWAP2 SWAP1 SWAP2 AND PUSH1 0x0 SWAP1 DUP2 MSTORE PUSH1 0x8 PUSH1 0x20 MSTORE PUSH1 0x40 SWAP1 KECCAK256 DUP1 SLOAD PUSH1 0xFF NOT AND SWAP2 ISZERO ISZERO SWAP2 SWAP1 SWAP2 OR SWAP1 SSTORE JUMP JUMPDEST PUSH2 0x81F PUSH2 0x1754 JUMP JUMPDEST PUSH2 0x829 PUSH1 0x0 PUSH2 0x18C8 JUMP JUMPDEST JUMP JUMPDEST PUSH1 0x0 PUSH2 0x835 PUSH2 0x1924 JUMP JUMPDEST DUP1 SLOAD SWAP1 SWAP2 POP PUSH1 0xFF PUSH1 0x1 PUSH1 0x40 SHL DUP3 DIV AND ISZERO SWAP1 PUSH1 0x1 PUSH1 0x1 PUSH1 0x40 SHL SUB AND PUSH1 0x0 DUP2 ISZERO DUP1 ISZERO PUSH2 0x85C JUMPI POP DUP3 JUMPDEST SWAP1 POP PUSH1 0x0 DUP3 PUSH1 0x1 PUSH1 0x1 PUSH1 0x40 SHL SUB AND PUSH1 0x1 EQ DUP1 ISZERO PUSH2 0x878 JUMPI POP ADDRESS EXTCODESIZE ISZERO JUMPDEST SWAP1 POP DUP2 ISZERO DUP1 ISZERO PUSH2 0x886 JUMPI POP DUP1 ISZERO JUMPDEST ISZERO PUSH2 0x8A4 JUMPI PUSH1 0x40 MLOAD PUSH4 0xF92EE8A9 PUSH1 0xE0 SHL DUP2 MSTORE PUSH1 0x4 ADD PUSH1 0x40 MLOAD DUP1 SWAP2 SUB SWAP1 REVERT JUMPDEST DUP5 SLOAD PUSH1 0x1 PUSH1 0x1 PUSH1 0x40 SHL SUB NOT AND PUSH1 0x1 OR DUP6 SSTORE DUP4 ISZERO PUSH2 0x8CD JUMPI DUP5 SLOAD PUSH1 0xFF PUSH1 0x40 SHL NOT AND PUSH1 0x1 PUSH1 0x40 SHL OR DUP6 SSTORE JUMPDEST PUSH2 0x8D6 CALLER PUSH2 0x194D JUMP JUMPDEST PUSH2 0x8DE PUSH2 0x195E JUMP JUMPDEST PUSH1 0x40 MLOAD PUSH1 0x1 PUSH1 0x1 PUSH1 0x60 SHL SUB NOT CALLER PUSH1 0x60 SHL AND PUSH1 0x20 DUP3 ADD MSTORE TIMESTAMP PUSH1 0x34 DUP3 ADD MSTORE PUSH1 0x54 ADD PUSH1 0x40 DUP1 MLOAD PUSH1 0x1F NOT DUP2 DUP5 SUB ADD DUP2 MSTORE SWAP2 SWAP1 MSTORE DUP1 MLOAD PUSH1 0x20 SWAP1 SWAP2 ADD KECCAK256 PUSH1 0x0 SSTORE DUP4 ISZERO PUSH2 0x95E JUMPI DUP5 SLOAD PUSH1 0xFF PUSH1 0x40 SHL NOT AND DUP6 SSTORE PUSH1 0x40 MLOAD PUSH1 0x1 DUP2 MSTORE PUSH32 0xC7F505B2F371AE2175EE4913F4499E1F2633A7B5936321EED1CDAEB6115181D2 SWAP1 PUSH1 0x20 ADD PUSH1 0x40 MLOAD DUP1 SWAP2 SUB SWAP1 LOG1 JUMPDEST POP POP POP POP POP JUMP JUMPDEST PUSH1 0x0 DUP1 PUSH2 0x970 PUSH2 0x196E JUMP JUMPDEST SLOAD PUSH1 0x1 PUSH1 0x1 PUSH1 0xA0 SHL SUB AND SWAP3 SWAP2 POP POP JUMP JUMPDEST PUSH2 0x988 PUSH2 0x1754 JUMP JUMPDEST PUSH1 0x1 DUP3 LT ISZERO DUP1 ISZERO PUSH2 0x99A JUMPI POP PUSH1 0x64 DUP3 GT ISZERO JUMPDEST PUSH2 0x9F1 JUMPI PUSH1 0x40 MLOAD PUSH3 0x461BCD PUSH1 0xE5 SHL DUP2 MSTORE PUSH1 0x20 PUSH1 0x4 DUP3 ADD MSTORE PUSH1 0x22 PUSH1 0x24 DUP3 ADD MSTORE PUSH32 0x57696E2072617465206D757374206265206265747765656E203120616E642031 PUSH1 0x44 DUP3 ADD MSTORE PUSH2 0x303 PUSH1 0xF4 SHL PUSH1 0x64 DUP3 ADD MSTORE PUSH1 0x84 ADD PUSH2 0x3E7 JUMP JUMPDEST PUSH1 0x0 DUP2 PUSH1 0x1 DUP2 GT ISZERO PUSH2 0xA05 JUMPI PUSH2 0xA05 PUSH2 0x249C JUMP JUMPDEST SUB PUSH2 0xA39 JUMPI DUP2 PUSH1 0x2 SLOAD PUSH1 0x0 DUP1 MLOAD PUSH1 0x20 PUSH2 0x2C7B DUP4 CODECOPY DUP2 MLOAD SWAP2 MSTORE DUP4 PUSH1 0x40 MLOAD PUSH2 0xA2B SWAP2 SWAP1 PUSH2 0x2910 JUMP JUMPDEST PUSH1 0x40 MLOAD DUP1 SWAP2 SUB SWAP1 LOG3 POP PUSH1 0x2 SSTORE JUMP JUMPDEST PUSH1 0x1 DUP2 PUSH1 0x1 DUP2 GT ISZERO PUSH2 0xA4D JUMPI PUSH2 0xA4D PUSH2 0x249C JUMP JUMPDEST SUB PUSH2 0xA81 JUMPI DUP2 PUSH1 0x3 SLOAD PUSH1 0x0 DUP1 MLOAD PUSH1 0x20 PUSH2 0x2C7B DUP4 CODECOPY DUP2 MLOAD SWAP2 MSTORE DUP4 PUSH1 0x40 MLOAD PUSH2 0xA73 SWAP2 SWAP1 PUSH2 0x2910 JUMP JUMPDEST PUSH1 0x40 MLOAD DUP1 SWAP2 SUB SWAP1 LOG3 POP PUSH1 0x3 SSTORE JUMP JUMPDEST PUSH1 0x40 MLOAD PUSH3 0x461BCD PUSH1 0xE5 SHL DUP2 MSTORE PUSH1 0x4 ADD PUSH2 0x3E7 SWAP1 PUSH2 0x2890 JUMP JUMPDEST POP POP JUMP JUMPDEST PUSH2 0xAA5 PUSH2 0x1754 JUMP JUMPDEST PUSH2 0xAB0 PUSH1 0x6 DUP3 PUSH2 0x182E JUMP JUMPDEST PUSH2 0xACC JUMPI PUSH1 0x40 MLOAD PUSH3 0x461BCD PUSH1 0xE5 SHL DUP2 MSTORE PUSH1 0x4 ADD PUSH2 0x3E7 SWAP1 PUSH2 0x2923 JUMP JUMPDEST PUSH2 0xAD5 DUP2 PUSH2 0x1992 JUMP JUMPDEST POP JUMP JUMPDEST PUSH2 0xB12 PUSH1 0x40 DUP1 MLOAD PUSH1 0xC0 DUP2 ADD SWAP1 SWAP2 MSTORE PUSH1 0x0 DUP1 DUP3 MSTORE PUSH1 0x20 DUP3 ADD SWAP1 DUP2 MSTORE PUSH1 0x20 ADD PUSH1 0x0 DUP2 MSTORE PUSH1 0x0 PUSH1 0x20 DUP3 ADD DUP2 SWAP1 MSTORE PUSH1 0x40 DUP3 ADD DUP2 SWAP1 MSTORE PUSH1 0x60 SWAP1 SWAP2 ADD MSTORE SWAP1 JUMP JUMPDEST PUSH2 0xB1D PUSH1 0x6 DUP4 PUSH2 0x182E JUMP JUMPDEST PUSH2 0xB39 JUMPI PUSH1 0x40 MLOAD PUSH3 0x461BCD PUSH1 0xE5 SHL DUP2 MSTORE PUSH1 0x4 ADD PUSH2 0x3E7 SWAP1 PUSH2 0x2923 JUMP JUMPDEST PUSH1 0x0 DUP3 DUP2 MSTORE PUSH1 0x5 PUSH1 0x20 SWAP1 DUP2 MSTORE PUSH1 0x40 SWAP2 DUP3 SWAP1 KECCAK256 DUP3 MLOAD PUSH1 0xC0 DUP2 ADD SWAP1 SWAP4 MSTORE DUP1 SLOAD DUP4 MSTORE PUSH1 0x1 DUP1 DUP3 ADD SLOAD SWAP2 SWAP3 DUP5 ADD SWAP2 PUSH1 0xFF AND SWAP1 DUP2 GT ISZERO PUSH2 0xB76 JUMPI PUSH2 0xB76 PUSH2 0x249C JUMP JUMPDEST PUSH1 0x1 DUP2 GT ISZERO PUSH2 0xB87 JUMPI PUSH2 0xB87 PUSH2 0x249C JUMP JUMPDEST DUP2 MSTORE PUSH1 0x20 ADD PUSH1 0x1 DUP3 ADD PUSH1 0x1 SWAP1 SLOAD SWAP1 PUSH2 0x100 EXP SWAP1 DIV PUSH1 0xFF AND PUSH1 0x1 DUP2 GT ISZERO PUSH2 0xBAF JUMPI PUSH2 0xBAF PUSH2 0x249C JUMP JUMPDEST PUSH1 0x1 DUP2 GT ISZERO PUSH2 0xBC0 JUMPI PUSH2 0xBC0 PUSH2 0x249C JUMP JUMPDEST DUP2 MSTORE PUSH1 0x1 DUP3 ADD SLOAD PUSH1 0x1 PUSH1 0x1 PUSH1 0xA0 SHL SUB PUSH3 0x10000 SWAP1 SWAP2 DIV DUP2 AND PUSH1 0x20 DUP4 ADD MSTORE PUSH1 0x2 DUP4 ADD SLOAD AND PUSH1 0x40 DUP3 ADD MSTORE PUSH1 0x3 SWAP1 SWAP2 ADD SLOAD PUSH1 0x60 SWAP1 SWAP2 ADD MSTORE SWAP3 SWAP2 POP POP JUMP JUMPDEST PUSH1 0x0 PUSH2 0xC06 PUSH1 0x6 PUSH2 0x18BE JUMP JUMPDEST DUP3 LT PUSH2 0xC4A JUMPI PUSH1 0x40 MLOAD PUSH3 0x461BCD PUSH1 0xE5 SHL DUP2 MSTORE PUSH1 0x20 PUSH1 0x4 DUP3 ADD MSTORE PUSH1 0x13 PUSH1 0x24 DUP3 ADD MSTORE PUSH19 0x496E646578206F7574206F6620626F756E6473 PUSH1 0x68 SHL PUSH1 0x44 DUP3 ADD MSTORE PUSH1 0x64 ADD PUSH2 0x3E7 JUMP JUMPDEST PUSH2 0xC55 PUSH1 0x6 DUP4 PUSH2 0x1A05 JUMP JUMPDEST SWAP3 SWAP2 POP POP JUMP JUMPDEST CALLER PUSH1 0x0 SWAP1 DUP2 MSTORE PUSH1 0x8 PUSH1 0x20 MSTORE PUSH1 0x40 SWAP1 KECCAK256 SLOAD PUSH1 0xFF AND PUSH2 0xC8A JUMPI PUSH1 0x40 MLOAD PUSH3 0x82B429 PUSH1 0xE8 SHL DUP2 MSTORE PUSH1 0x4 ADD PUSH1 0x40 MLOAD DUP1 SWAP2 SUB SWAP1 REVERT JUMPDEST PUSH2 0xC92 PUSH2 0x1A11 JUMP JUMPDEST PUSH1 0x0 DUP7 DUP2 MSTORE PUSH1 0x4 PUSH1 0x20 MSTORE PUSH1 0x40 SWAP1 KECCAK256 SLOAD PUSH1 0xFF AND PUSH2 0xCC1 JUMPI PUSH1 0x40 MLOAD PUSH4 0x2589D98F PUSH1 0xE1 SHL DUP2 MSTORE PUSH1 0x4 ADD PUSH1 0x40 MLOAD DUP1 SWAP2 SUB SWAP1 REVERT JUMPDEST PUSH2 0xCD0 DUP7 DUP7 DUP7 DUP7 CALLER DUP8 DUP8 PUSH2 0x1A47 JUMP JUMPDEST PUSH2 0xCED JUMPI PUSH1 0x40 MLOAD PUSH4 0x8BAA579F PUSH1 0xE0 SHL DUP2 MSTORE PUSH1 0x4 ADD PUSH1 0x40 MLOAD DUP1 SWAP2 SUB SWAP1 REVERT JUMPDEST PUSH2 0xCF8 PUSH1 0x6 DUP6 PUSH2 0x182E JUMP JUMPDEST PUSH2 0xD14 JUMPI PUSH1 0x40 MLOAD PUSH3 0x461BCD PUSH1 0xE5 SHL DUP2 MSTORE PUSH1 0x4 ADD PUSH2 0x3E7 SWAP1 PUSH2 0x2923 JUMP JUMPDEST PUSH1 0x0 DUP5 DUP2 MSTORE PUSH1 0x5 PUSH1 0x20 MSTORE PUSH1 0x40 SWAP1 KECCAK256 PUSH1 0x1 DUP1 DUP3 DUP2 ADD SLOAD PUSH2 0x100 SWAP1 DIV PUSH1 0xFF AND SWAP1 DUP2 GT ISZERO PUSH2 0xD41 JUMPI PUSH2 0xD41 PUSH2 0x249C JUMP JUMPDEST EQ PUSH2 0xD7F JUMPI PUSH1 0x40 MLOAD PUSH3 0x461BCD PUSH1 0xE5 SHL DUP2 MSTORE PUSH1 0x20 PUSH1 0x4 DUP3 ADD MSTORE PUSH1 0xE PUSH1 0x24 DUP3 ADD MSTORE PUSH14 0x105B1C9958591E481BDC195B9959 PUSH1 0x92 SHL PUSH1 0x44 DUP3 ADD MSTORE PUSH1 0x64 ADD PUSH2 0x3E7 JUMP JUMPDEST PUSH1 0x1 DUP2 ADD SLOAD PUSH3 0x10000 SWAP1 DIV PUSH1 0x1 PUSH1 0x1 PUSH1 0xA0 SHL SUB AND ISZERO PUSH2 0xDD0 JUMPI PUSH1 0x40 MLOAD PUSH3 0x461BCD PUSH1 0xE5 SHL DUP2 MSTORE PUSH1 0x20 PUSH1 0x4 DUP3 ADD MSTORE PUSH1 0xD PUSH1 0x24 DUP3 ADD MSTORE PUSH13 0x2137BC103430B99037BBB732B9 PUSH1 0x99 SHL PUSH1 0x44 DUP3 ADD MSTORE PUSH1 0x64 ADD PUSH2 0x3E7 JUMP JUMPDEST PUSH1 0x1 DUP2 DUP2 ADD DUP1 SLOAD PUSH1 0x1 PUSH1 0x1 PUSH1 0xA0 SHL SUB DUP8 AND PUSH3 0x10000 MUL PUSH2 0x100 PUSH1 0x1 PUSH1 0xB0 SHL SUB NOT DUP3 AND DUP2 OR SWAP1 SWAP3 SSTORE PUSH1 0x0 SWAP3 DUP4 SWAP3 PUSH1 0xFF SWAP1 DUP2 AND SWAP3 AND SWAP2 SWAP1 SWAP2 OR SWAP1 DUP2 GT ISZERO PUSH2 0xE17 JUMPI PUSH2 0xE17 PUSH2 0x249C JUMP JUMPDEST SUB PUSH2 0xE4E JUMPI PUSH1 0x2 SLOAD PUSH1 0x64 DUP9 PUSH1 0x0 DUP2 MLOAD DUP2 LT PUSH2 0xE34 JUMPI PUSH2 0xE34 PUSH2 0x294D JUMP JUMPDEST PUSH1 0x20 MUL PUSH1 0x20 ADD ADD MLOAD PUSH2 0xE46 SWAP2 SWAP1 PUSH2 0x2979 JUMP JUMPDEST LT SWAP1 POP PUSH2 0xE7C JUMP JUMPDEST PUSH1 0x3 SLOAD PUSH1 0x64 DUP9 PUSH1 0x0 DUP2 MLOAD DUP2 LT PUSH2 0xE66 JUMPI PUSH2 0xE66 PUSH2 0x294D JUMP JUMPDEST PUSH1 0x20 MUL PUSH1 0x20 ADD ADD MLOAD PUSH2 0xE78 SWAP2 SWAP1 PUSH2 0x2979 JUMP JUMPDEST LT SWAP1 POP JUMPDEST PUSH2 0xEC7 PUSH1 0x40 MLOAD DUP1 PUSH1 0x40 ADD PUSH1 0x40 MSTORE DUP1 PUSH1 0xF DUP2 MSTORE PUSH1 0x20 ADD PUSH15 0x2930B73237B690373AB6B132B91D1 PUSH1 0x8D SHL DUP2 MSTORE POP DUP9 PUSH1 0x0 DUP2 MLOAD DUP2 LT PUSH2 0xEBA JUMPI PUSH2 0xEBA PUSH2 0x294D JUMP JUMPDEST PUSH1 0x20 MUL PUSH1 0x20 ADD ADD MLOAD PUSH2 0x1B17 JUMP JUMPDEST PUSH2 0xEF4 PUSH1 0x40 MLOAD DUP1 PUSH1 0x40 ADD PUSH1 0x40 MSTORE DUP1 PUSH1 0xB DUP2 MSTORE PUSH1 0x20 ADD PUSH11 0x2932B8BAB2B9BA32B91D1 PUSH1 0xAD SHL DUP2 MSTORE POP DUP7 PUSH2 0x1B5C JUMP JUMPDEST PUSH1 0x40 DUP1 MLOAD DUP1 DUP3 ADD SWAP1 SWAP2 MSTORE PUSH1 0xA DUP2 MSTORE PUSH10 0x2137BC102A3CB8329D1 PUSH1 0xB5 SHL PUSH1 0x20 DUP3 ADD MSTORE PUSH1 0x1 DUP1 DUP5 ADD SLOAD PUSH2 0xF3A SWAP3 SWAP2 PUSH1 0xFF SWAP1 SWAP2 AND SWAP1 DUP2 GT ISZERO PUSH2 0xF35 JUMPI PUSH2 0xF35 PUSH2 0x249C JUMP JUMPDEST PUSH2 0x1B17 JUMP JUMPDEST PUSH2 0xF6E PUSH1 0x40 MLOAD DUP1 PUSH1 0x40 ADD PUSH1 0x40 MSTORE DUP1 PUSH1 0xE DUP2 MSTORE PUSH1 0x20 ADD PUSH14 0x283934BD329020B6B7BAB73A1D1 PUSH1 0x95 SHL DUP2 MSTORE POP DUP4 PUSH1 0x3 ADD SLOAD PUSH2 0x1B17 JUMP JUMPDEST PUSH2 0xF95 PUSH1 0x40 MLOAD DUP1 PUSH1 0x40 ADD PUSH1 0x40 MSTORE DUP1 PUSH1 0x5 DUP2 MSTORE PUSH1 0x20 ADD PUSH5 0x2BB7B71D1 PUSH1 0xDD SHL DUP2 MSTORE POP DUP3 PUSH2 0x1BA1 JUMP JUMPDEST PUSH1 0x40 DUP1 MLOAD DUP1 DUP3 ADD SWAP1 SWAP2 MSTORE PUSH1 0xD DUP2 MSTORE PUSH13 0x283934BD32902A37B5B2B71D1 PUSH1 0x9D SHL PUSH1 0x20 DUP3 ADD MSTORE PUSH1 0x2 DUP4 ADD SLOAD PUSH2 0xFD1 SWAP2 SWAP1 PUSH1 0x1 PUSH1 0x1 PUSH1 0xA0 SHL SUB AND PUSH2 0x1B5C JUMP JUMPDEST DUP1 ISZERO PUSH2 0x1292 JUMPI PUSH1 0x0 PUSH1 0x1 DUP1 DUP1 DUP6 ADD SLOAD PUSH1 0xFF AND SWAP1 DUP2 GT ISZERO PUSH2 0xFF3 JUMPI PUSH2 0xFF3 PUSH2 0x249C JUMP JUMPDEST EQ PUSH2 0xFFF JUMPI PUSH1 0x64 PUSH2 0x1031 JUMP JUMPDEST PUSH1 0x64 DUP9 PUSH1 0x0 DUP2 MLOAD DUP2 LT PUSH2 0x1014 JUMPI PUSH2 0x1014 PUSH2 0x294D JUMP JUMPDEST PUSH1 0x20 MUL PUSH1 0x20 ADD ADD MLOAD PUSH2 0x1026 SWAP2 SWAP1 PUSH2 0x2979 JUMP JUMPDEST PUSH2 0x1031 SWAP1 PUSH1 0x1 PUSH2 0x29A3 JUMP JUMPDEST SWAP1 POP PUSH1 0x0 PUSH1 0x1 DUP1 DUP1 DUP7 ADD SLOAD PUSH1 0xFF AND SWAP1 DUP2 GT ISZERO PUSH2 0x104F JUMPI PUSH2 0x104F PUSH2 0x249C JUMP JUMPDEST EQ PUSH2 0x105E JUMPI DUP4 PUSH1 0x3 ADD SLOAD PUSH2 0x107A JUMP JUMPDEST PUSH1 0x64 DUP3 DUP6 PUSH1 0x3 ADD SLOAD PUSH2 0x1070 SWAP2 SWAP1 PUSH2 0x29B6 JUMP JUMPDEST PUSH2 0x107A SWAP2 SWAP1 PUSH2 0x29CD JUMP JUMPDEST SWAP1 POP PUSH2 0x10A7 PUSH1 0x40 MLOAD DUP1 PUSH1 0x40 ADD PUSH1 0x40 MSTORE DUP1 PUSH1 0x9 DUP2 MSTORE PUSH1 0x20 ADD PUSH9 0x2832B931B2B73A1D1 PUSH1 0xBD SHL DUP2 MSTORE POP DUP4 PUSH2 0x1B17 JUMP JUMPDEST PUSH1 0x0 DUP2 DUP6 PUSH1 0x3 ADD SLOAD PUSH2 0x10B9 SWAP2 SWAP1 PUSH2 0x29E1 JUMP JUMPDEST SWAP1 POP PUSH2 0x1111 PUSH1 0x40 MLOAD DUP1 PUSH1 0x40 ADD PUSH1 0x40 MSTORE DUP1 PUSH1 0x8 DUP2 MSTORE PUSH1 0x20 ADD PUSH8 0x2830BCB7BABA1D1 PUSH1 0xC5 SHL DUP2 MSTORE POP DUP4 PUSH1 0x40 MLOAD DUP1 PUSH1 0x40 ADD PUSH1 0x40 MSTORE DUP1 PUSH1 0x12 DUP2 MSTORE PUSH1 0x20 ADD PUSH18 0x102932B6B0B4B734B73390283934BD329D1 PUSH1 0x75 SHL DUP2 MSTORE POP DUP5 PUSH2 0x1BE6 JUMP JUMPDEST PUSH1 0x2 DUP6 ADD SLOAD PUSH1 0x1 PUSH1 0x1 PUSH1 0xA0 SHL SUB AND PUSH2 0x117B JUMPI PUSH2 0x112D DUP9 DUP4 PUSH2 0x1C2F JUMP JUMPDEST DUP1 ISZERO PUSH2 0x1144 JUMPI PUSH2 0x1144 PUSH2 0x113E PUSH2 0x965 JUMP JUMPDEST DUP3 PUSH2 0x1C2F JUMP JUMPDEST PUSH2 0x1176 PUSH1 0x40 MLOAD DUP1 PUSH1 0x40 ADD PUSH1 0x40 MSTORE DUP1 PUSH1 0x11 DUP2 MSTORE PUSH1 0x20 ADD PUSH17 0x2A3930B739B332B93932B21032BA3432B9 PUSH1 0x79 SHL DUP2 MSTORE POP PUSH2 0x1D10 JUMP JUMPDEST PUSH2 0x11ED JUMP JUMPDEST PUSH1 0x2 DUP6 ADD SLOAD PUSH2 0x1194 SWAP1 PUSH1 0x1 PUSH1 0x1 PUSH1 0xA0 SHL SUB AND DUP10 DUP5 PUSH2 0x1D53 JUMP JUMPDEST DUP1 ISZERO PUSH2 0x11BA JUMPI PUSH1 0x2 DUP6 ADD SLOAD PUSH2 0x11BA SWAP1 PUSH1 0x1 PUSH1 0x1 PUSH1 0xA0 SHL SUB AND PUSH2 0x11B4 PUSH2 0x965 JUMP JUMPDEST DUP4 PUSH2 0x1D53 JUMP JUMPDEST PUSH2 0x11ED PUSH1 0x40 MLOAD DUP1 PUSH1 0x40 ADD PUSH1 0x40 MSTORE DUP1 PUSH1 0x12 DUP2 MSTORE PUSH1 0x20 ADD PUSH18 0x5472616E7366657272656420746F6B656E73 PUSH1 0x70 SHL DUP2 MSTORE POP PUSH2 0x1D10 JUMP JUMPDEST PUSH1 0x2 DUP6 ADD SLOAD PUSH1 0x40 MLOAD PUSH1 0x1 PUSH1 0x1 PUSH1 0xA0 SHL SUB DUP1 DUP12 AND SWAP3 DUP13 SWAP3 PUSH32 0x6CA0DA92C4797A558F7E777695E71010CA0BBF7B7007B7E0402C5921A25FB4D8 SWAP3 PUSH2 0x1232 SWAP3 AND SWAP1 DUP8 SWAP1 PUSH2 0x29F4 JUMP JUMPDEST PUSH1 0x40 MLOAD DUP1 SWAP2 SUB SWAP1 LOG3 DUP1 ISZERO PUSH2 0x128A JUMPI PUSH1 0x2 DUP6 ADD SLOAD PUSH1 0x40 MLOAD DUP11 SWAP2 PUSH32 0xF552CA82E113AC3C539C3D617F29FCD19C172A0C75DAD017555C9E109F7FE183 SWAP2 PUSH2 0x1281 SWAP2 PUSH1 0x1 PUSH1 0x1 PUSH1 0xA0 SHL SUB AND SWAP1 DUP6 SWAP1 PUSH2 0x29F4 JUMP JUMPDEST PUSH1 0x40 MLOAD DUP1 SWAP2 SUB SWAP1 LOG2 JUMPDEST POP POP POP PUSH2 0x12C9 JUMP JUMPDEST PUSH1 0x40 MLOAD PUSH1 0x1 PUSH1 0x1 PUSH1 0xA0 SHL SUB DUP7 AND SWAP1 DUP8 SWAP1 PUSH32 0x59C544C2595303434D37BD8EE8AF000818BE6066BEB8C37844D43F7EE80A444 SWAP1 PUSH1 0x0 SWAP1 LOG3 JUMPDEST PUSH1 0x0 DUP9 DUP2 MSTORE PUSH1 0x4 PUSH1 0x20 MSTORE PUSH1 0x40 SWAP1 DUP2 SWAP1 KECCAK256 DUP1 SLOAD PUSH1 0xFF NOT AND SWAP1 SSTORE MLOAD DUP7 SWAP1 DUP10 SWAP1 PUSH32 0xC9245471E1EDA01DF96AC978BD431512E8E4F71C9541C7D946973B851391D8AD SWAP1 PUSH2 0x1313 SWAP1 DUP12 SWAP1 PUSH2 0x2A0D JUMP JUMPDEST PUSH1 0x40 MLOAD DUP1 SWAP2 SUB SWAP1 LOG3 POP POP PUSH2 0x1325 PUSH2 0x1D5E JUMP JUMPDEST POP POP POP POP POP POP JUMP JUMPDEST PUSH2 0x1335 PUSH2 0x1754 JUMP JUMPDEST PUSH2 0x1340 PUSH1 0x6 DUP6 PUSH2 0x182E JUMP JUMPDEST PUSH2 0x135C JUMPI PUSH1 0x40 MLOAD PUSH3 0x461BCD PUSH1 0xE5 SHL DUP2 MSTORE PUSH1 0x4 ADD PUSH2 0x3E7 SWAP1 PUSH2 0x2923 JUMP JUMPDEST PUSH1 0x0 DUP2 GT PUSH2 0x137C JUMPI PUSH1 0x40 MLOAD PUSH3 0x461BCD PUSH1 0xE5 SHL DUP2 MSTORE PUSH1 0x4 ADD PUSH2 0x3E7 SWAP1 PUSH2 0x284A JUMP JUMPDEST PUSH1 0x0 DUP4 PUSH1 0x1 DUP2 GT ISZERO PUSH2 0x1390 JUMPI PUSH2 0x1390 PUSH2 0x249C JUMP JUMPDEST EQ DUP1 PUSH2 0x13AD JUMPI POP PUSH1 0x1 DUP4 PUSH1 0x1 DUP2 GT ISZERO PUSH2 0x13AB JUMPI PUSH2 0x13AB PUSH2 0x249C JUMP JUMPDEST EQ JUMPDEST PUSH2 0x13C9 JUMPI PUSH1 0x40 MLOAD PUSH3 0x461BCD PUSH1 0xE5 SHL DUP2 MSTORE PUSH1 0x4 ADD PUSH2 0x3E7 SWAP1 PUSH2 0x2890 JUMP JUMPDEST PUSH1 0x0 DUP5 DUP2 MSTORE PUSH1 0x5 PUSH1 0x20 MSTORE PUSH1 0x40 SWAP1 KECCAK256 PUSH1 0x1 DUP1 DUP3 ADD DUP1 SLOAD DUP7 SWAP3 PUSH1 0xFF NOT SWAP1 SWAP2 AND SWAP1 DUP4 DUP2 DUP2 GT ISZERO PUSH2 0x13F8 JUMPI PUSH2 0x13F8 PUSH2 0x249C JUMP JUMPDEST MUL OR SWAP1 SSTORE POP PUSH1 0x2 DUP2 ADD DUP1 SLOAD PUSH1 0x1 PUSH1 0x1 PUSH1 0xA0 SHL SUB NOT AND PUSH1 0x1 PUSH1 0x1 PUSH1 0xA0 SHL SUB DUP6 AND OR SWAP1 SSTORE PUSH1 0x3 DUP2 ADD DUP3 SWAP1 SSTORE PUSH1 0x40 MLOAD DUP6 SWAP1 PUSH32 0x50B5EEBC9A0D3DFC66C5B4B97CD6001DB18FADCB002F743CF67170E9CDE73B98 SWAP1 PUSH2 0x1457 SWAP1 DUP8 SWAP1 DUP8 SWAP1 DUP8 SWAP1 PUSH2 0x2A51 JUMP JUMPDEST PUSH1 0x40 MLOAD DUP1 SWAP2 SUB SWAP1 LOG2 POP POP POP POP POP JUMP JUMPDEST PUSH1 0x0 PUSH2 0x1473 PUSH1 0x6 DUP4 PUSH2 0x182E JUMP JUMPDEST PUSH2 0x148F JUMPI PUSH1 0x40 MLOAD PUSH3 0x461BCD PUSH1 0xE5 SHL DUP2 MSTORE PUSH1 0x4 ADD PUSH2 0x3E7 SWAP1 PUSH2 0x2923 JUMP JUMPDEST PUSH1 0x1 PUSH1 0x0 DUP4 DUP2 MSTORE PUSH1 0x5 PUSH1 0x20 MSTORE PUSH1 0x40 SWAP1 KECCAK256 PUSH1 0x1 SWAP1 DUP2 ADD SLOAD PUSH2 0x100 SWAP1 DIV PUSH1 0xFF AND SWAP1 DUP2 GT ISZERO PUSH2 0x14BD JUMPI PUSH2 0x14BD PUSH2 0x249C JUMP JUMPDEST EQ PUSH2 0x14FF JUMPI PUSH1 0x40 MLOAD PUSH3 0x461BCD PUSH1 0xE5 SHL DUP2 MSTORE PUSH1 0x20 PUSH1 0x4 DUP3 ADD MSTORE PUSH1 0x12 PUSH1 0x24 DUP3 ADD MSTORE PUSH18 0x109BDE08185B1C9958591E481BDC195B9959 PUSH1 0x72 SHL PUSH1 0x44 DUP3 ADD MSTORE PUSH1 0x64 ADD PUSH2 0x3E7 JUMP JUMPDEST PUSH1 0x0 DUP3 DUP2 MSTORE PUSH1 0x5 PUSH1 0x20 MSTORE PUSH1 0x40 SWAP1 KECCAK256 PUSH1 0x1 ADD SLOAD PUSH3 0x10000 SWAP1 DIV PUSH1 0x1 PUSH1 0x1 PUSH1 0xA0 SHL SUB AND ISZERO PUSH2 0x1565 JUMPI PUSH1 0x40 MLOAD PUSH3 0x461BCD PUSH1 0xE5 SHL DUP2 MSTORE PUSH1 0x20 PUSH1 0x4 DUP3 ADD MSTORE PUSH1 0x15 PUSH1 0x24 DUP3 ADD MSTORE PUSH21 0x2137BC1030B63932B0B23C903430B99037BBB732B9 PUSH1 0x59 SHL PUSH1 0x44 DUP3 ADD MSTORE PUSH1 0x64 ADD PUSH2 0x3E7 JUMP JUMPDEST DUP3 PUSH1 0x1 EQ PUSH2 0x15AD JUMPI PUSH1 0x40 MLOAD PUSH3 0x461BCD PUSH1 0xE5 SHL DUP2 MSTORE PUSH1 0x20 PUSH1 0x4 DUP3 ADD MSTORE PUSH1 0x15 PUSH1 0x24 DUP3 ADD MSTORE PUSH21 0x13DB9B1E481BDB99481DDBDC9908185B1B1BDDD959 PUSH1 0x5A SHL PUSH1 0x44 DUP3 ADD MSTORE PUSH1 0x64 ADD PUSH2 0x3E7 JUMP JUMPDEST CALLER TIMESTAMP PUSH1 0x0 SLOAD PUSH1 0x40 MLOAD PUSH1 0x20 ADD PUSH2 0x15C4 SWAP4 SWAP3 SWAP2 SWAP1 PUSH2 0x2A7B JUMP JUMPDEST PUSH1 0x40 DUP1 MLOAD PUSH1 0x1F NOT DUP2 DUP5 SUB ADD DUP2 MSTORE SWAP2 SWAP1 MSTORE DUP1 MLOAD PUSH1 0x20 SWAP1 SWAP2 ADD KECCAK256 PUSH1 0x0 DUP2 DUP2 SSTORE PUSH1 0x1 DUP1 SLOAD TIMESTAMP SWAP3 PREVRANDAO SWAP3 CALLER SWAP3 ADDRESS SWAP3 DUP11 SWAP3 DUP11 SWAP3 SWAP2 PUSH2 0x15FB DUP4 PUSH2 0x2AA0 JUMP JUMPDEST SWAP1 SWAP2 SSTORE POP PUSH1 0x40 DUP1 MLOAD PUSH1 0x20 DUP2 ADD SWAP10 SWAP1 SWAP10 MSTORE DUP9 ADD SWAP7 SWAP1 SWAP7 MSTORE PUSH1 0x60 DUP1 DUP9 ADD SWAP6 SWAP1 SWAP6 MSTORE SWAP3 DUP5 SHL PUSH1 0x1 PUSH1 0x1 PUSH1 0x60 SHL SUB NOT SWAP1 DUP2 AND PUSH1 0x80 DUP9 ADD MSTORE SWAP2 SWAP1 SWAP4 SHL AND PUSH1 0x94 DUP6 ADD MSTORE PUSH1 0xA8 DUP5 ADD SWAP2 SWAP1 SWAP2 MSTORE PUSH1 0xC8 DUP4 ADD MSTORE PUSH1 0xE8 DUP3 ADD MSTORE PUSH2 0x108 ADD PUSH1 0x40 DUP1 MLOAD PUSH1 0x1F NOT DUP2 DUP5 SUB ADD DUP2 MSTORE SWAP2 DUP2 MSTORE DUP2 MLOAD PUSH1 0x20 SWAP3 DUP4 ADD KECCAK256 PUSH1 0x0 DUP2 DUP2 MSTORE PUSH1 0x4 SWAP1 SWAP4 MSTORE SWAP2 KECCAK256 SLOAD SWAP1 SWAP2 POP PUSH1 0xFF AND ISZERO PUSH2 0x16BA JUMPI PUSH1 0x40 MLOAD PUSH3 0x461BCD PUSH1 0xE5 SHL DUP2 MSTORE PUSH1 0x20 PUSH1 0x4 DUP3 ADD MSTORE PUSH1 0x11 PUSH1 0x24 DUP3 ADD MSTORE PUSH17 0x5265717565737420494420657869737473 PUSH1 0x78 SHL PUSH1 0x44 DUP3 ADD MSTORE PUSH1 0x64 ADD PUSH2 0x3E7 JUMP JUMPDEST PUSH1 0x0 DUP2 DUP2 MSTORE PUSH1 0x4 PUSH1 0x20 MSTORE PUSH1 0x40 SWAP1 DUP2 SWAP1 KECCAK256 DUP1 SLOAD PUSH1 0xFF NOT AND PUSH1 0x1 OR SWAP1 SSTORE MLOAD DUP3 SWAP1 CALLER SWAP1 DUP4 SWAP1 PUSH32 0xE597616BCC7AD3B09B316C7123410AF4695ED18F3FFCAEBB95CFD266755412FB SWAP1 PUSH2 0x170B SWAP1 DUP9 DUP2 MSTORE PUSH1 0x20 ADD SWAP1 JUMP JUMPDEST PUSH1 0x40 MLOAD DUP1 SWAP2 SUB SWAP1 LOG4 SWAP3 SWAP2 POP POP JUMP JUMPDEST PUSH2 0x1721 PUSH2 0x1754 JUMP JUMPDEST PUSH1 0x1 PUSH1 0x1 PUSH1 0xA0 SHL SUB DUP2 AND PUSH2 0x174B JUMPI PUSH1 0x0 PUSH1 0x40 MLOAD PUSH4 0x1E4FBDF7 PUSH1 0xE0 SHL DUP2 MSTORE PUSH1 0x4 ADD PUSH2 0x3E7 SWAP2 SWAP1 PUSH2 0x25C6 JUMP JUMPDEST PUSH2 0xAD5 DUP2 PUSH2 0x18C8 JUMP JUMPDEST CALLER PUSH2 0x175D PUSH2 0x965 JUMP JUMPDEST PUSH1 0x1 PUSH1 0x1 PUSH1 0xA0 SHL SUB AND EQ PUSH2 0x829 JUMPI CALLER PUSH1 0x40 MLOAD PUSH4 0x118CDAA7 PUSH1 0xE0 SHL DUP2 MSTORE PUSH1 0x4 ADD PUSH2 0x3E7 SWAP2 SWAP1 PUSH2 0x25C6 JUMP JUMPDEST PUSH1 0x0 CALLER TIMESTAMP PUSH1 0x0 SLOAD PUSH1 0x40 MLOAD PUSH1 0x20 ADD PUSH2 0x179F SWAP4 SWAP3 SWAP2 SWAP1 PUSH2 0x2A7B JUMP JUMPDEST PUSH1 0x40 DUP1 MLOAD PUSH1 0x1F NOT DUP2 DUP5 SUB ADD DUP2 MSTORE SWAP2 SWAP1 MSTORE DUP1 MLOAD PUSH1 0x20 SWAP1 SWAP2 ADD KECCAK256 PUSH1 0x0 DUP2 DUP2 SSTORE PUSH1 0x1 DUP1 SLOAD TIMESTAMP SWAP4 PREVRANDAO SWAP4 CALLER SWAP4 ADDRESS SWAP4 SWAP2 PUSH2 0x17D2 DUP4 PUSH2 0x2AA0 JUMP JUMPDEST SWAP1 SWAP2 SSTORE POP PUSH1 0x40 DUP1 MLOAD PUSH1 0x20 DUP2 ADD SWAP8 SWAP1 SWAP8 MSTORE DUP7 ADD SWAP5 SWAP1 SWAP5 MSTORE PUSH1 0x1 PUSH1 0x1 PUSH1 0x60 SHL SUB NOT PUSH1 0x60 SWAP4 DUP5 SHL DUP2 AND DUP5 DUP8 ADD MSTORE SWAP2 SWAP1 SWAP3 SHL AND PUSH1 0x74 DUP5 ADD MSTORE PUSH1 0x88 DUP4 ADD MSTORE PUSH1 0xA8 DUP3 ADD MSTORE PUSH1 0xC8 ADD PUSH1 0x40 MLOAD PUSH1 0x20 DUP2 DUP4 SUB SUB DUP2 MSTORE SWAP1 PUSH1 0x40 MSTORE DUP1 MLOAD SWAP1 PUSH1 0x20 ADD KECCAK256 SWAP1 POP SWAP1 JUMP JUMPDEST PUSH1 0x0 PUSH2 0x183A DUP4 DUP4 PUSH2 0x1D6F JUMP JUMPDEST SWAP4 SWAP3 POP POP POP JUMP JUMPDEST PUSH1 0x0 PUSH2 0x183A DUP4 DUP4 PUSH2 0x1D87 JUMP JUMPDEST PUSH1 0x40 MLOAD PUSH1 0x1 PUSH1 0x1 PUSH1 0xA0 SHL SUB DUP1 DUP6 AND PUSH1 0x24 DUP4 ADD MSTORE DUP4 AND PUSH1 0x44 DUP3 ADD MSTORE PUSH1 0x64 DUP2 ADD DUP3 SWAP1 MSTORE PUSH2 0x18B8 SWAP1 DUP6 SWAP1 PUSH4 0x23B872DD PUSH1 0xE0 SHL SWAP1 PUSH1 0x84 ADD JUMPDEST PUSH1 0x40 DUP1 MLOAD PUSH1 0x1F NOT DUP2 DUP5 SUB ADD DUP2 MSTORE SWAP2 SWAP1 MSTORE PUSH1 0x20 DUP2 ADD DUP1 MLOAD PUSH1 0x1 PUSH1 0x1 PUSH1 0xE0 SHL SUB AND PUSH1 0x1 PUSH1 0x1 PUSH1 0xE0 SHL SUB NOT SWAP1 SWAP4 AND SWAP3 SWAP1 SWAP3 OR SWAP1 SWAP2 MSTORE PUSH2 0x1DD1 JUMP JUMPDEST POP POP POP POP JUMP JUMPDEST PUSH1 0x0 PUSH2 0xC55 DUP3 SLOAD SWAP1 JUMP JUMPDEST PUSH1 0x0 PUSH2 0x18D2 PUSH2 0x196E JUMP JUMPDEST DUP1 SLOAD PUSH1 0x1 PUSH1 0x1 PUSH1 0xA0 SHL SUB DUP5 DUP2 AND PUSH1 0x1 PUSH1 0x1 PUSH1 0xA0 SHL SUB NOT DUP4 AND DUP2 OR DUP5 SSTORE PUSH1 0x40 MLOAD SWAP4 SWAP5 POP SWAP2 AND SWAP2 DUP3 SWAP1 PUSH32 0x8BE0079C531659141344CD1FD0A4F28419497F9722A3DAAFE3B4186F6B6457E0 SWAP1 PUSH1 0x0 SWAP1 LOG3 POP POP POP JUMP JUMPDEST PUSH1 0x0 DUP1 PUSH32 0xF0C57E16840DF040F15088DC2F81FE391C3923BEC73E23A9662EFC9C229C6A00 PUSH2 0xC55 JUMP JUMPDEST PUSH2 0x1955 PUSH2 0x1EA6 JUMP JUMPDEST PUSH2 0xAD5 DUP2 PUSH2 0x1ECB JUMP JUMPDEST PUSH2 0x1966 PUSH2 0x1EA6 JUMP JUMPDEST PUSH2 0x829 PUSH2 0x1ED3 JUMP JUMPDEST PUSH32 0x9016D09D72D40FDAE2FD8CEAC6B6234C7706214FD39C1CD1E609A0528C199300 SWAP1 JUMP JUMPDEST PUSH1 0x0 DUP2 DUP2 MSTORE PUSH1 0x5 PUSH1 0x20 MSTORE PUSH1 0x40 DUP2 KECCAK256 DUP2 DUP2 SSTORE PUSH1 0x1 DUP2 ADD DUP1 SLOAD PUSH1 0x1 PUSH1 0x1 PUSH1 0xB0 SHL SUB NOT AND SWAP1 SSTORE PUSH1 0x2 DUP2 ADD DUP1 SLOAD PUSH1 0x1 PUSH1 0x1 PUSH1 0xA0 SHL SUB NOT AND SWAP1 SSTORE PUSH1 0x3 ADD SSTORE PUSH2 0x19D6 PUSH1 0x6 DUP3 PUSH2 0x1EDB JUMP JUMPDEST POP PUSH1 0x40 MLOAD DUP2 SWAP1 PUSH32 0x606CE84A58BEEBDD8ABDD4BB24672FC015A5EB5A7BE08A9D2F4023A920C8E7DD SWAP1 PUSH1 0x0 SWAP1 LOG2 POP JUMP JUMPDEST PUSH1 0x0 PUSH2 0x183A DUP4 DUP4 PUSH2 0x1EE7 JUMP JUMPDEST PUSH1 0x0 PUSH2 0x1A1B PUSH2 0x1F11 JUMP JUMPDEST DUP1 SLOAD SWAP1 SWAP2 POP PUSH1 0x1 NOT ADD PUSH2 0x1A41 JUMPI PUSH1 0x40 MLOAD PUSH4 0x3EE5AEB5 PUSH1 0xE0 SHL DUP2 MSTORE PUSH1 0x4 ADD PUSH1 0x40 MLOAD DUP1 SWAP2 SUB SWAP1 REVERT JUMPDEST PUSH1 0x2 SWAP1 SSTORE JUMP JUMPDEST PUSH1 0x0 DUP1 DUP9 DUP9 DUP9 DUP9 DUP9 PUSH1 0x40 MLOAD PUSH1 0x20 ADD PUSH2 0x1A63 SWAP6 SWAP5 SWAP4 SWAP3 SWAP2 SWAP1 PUSH2 0x2AB9 JUMP JUMPDEST PUSH1 0x40 MLOAD PUSH1 0x20 DUP2 DUP4 SUB SUB DUP2 MSTORE SWAP1 PUSH1 0x40 MSTORE DUP1 MLOAD SWAP1 PUSH1 0x20 ADD KECCAK256 SWAP1 POP PUSH1 0x0 PUSH2 0x1AB3 DUP3 PUSH28 0xCA2BA3432B932BAB69029B4B3B732B21026B2B9B9B0B3B29D051999 PUSH1 0x21 SHL PUSH1 0x0 SWAP1 DUP2 MSTORE PUSH1 0x1C SWAP2 SWAP1 SWAP2 MSTORE PUSH1 0x3C SWAP1 KECCAK256 SWAP1 JUMP JUMPDEST SWAP1 POP DUP6 PUSH1 0x1 PUSH1 0x1 PUSH1 0xA0 SHL SUB AND PUSH2 0x1AFF DUP3 DUP8 DUP8 DUP1 DUP1 PUSH1 0x1F ADD PUSH1 0x20 DUP1 SWAP2 DIV MUL PUSH1 0x20 ADD PUSH1 0x40 MLOAD SWAP1 DUP2 ADD PUSH1 0x40 MSTORE DUP1 SWAP4 SWAP3 SWAP2 SWAP1 DUP2 DUP2 MSTORE PUSH1 0x20 ADD DUP4 DUP4 DUP1 DUP3 DUP5 CALLDATACOPY PUSH1 0x0 SWAP3 ADD SWAP2 SWAP1 SWAP2 MSTORE POP PUSH2 0x1F35 SWAP3 POP POP POP JUMP JUMPDEST PUSH1 0x1 PUSH1 0x1 PUSH1 0xA0 SHL SUB AND EQ SWAP11 SWAP10 POP POP POP POP POP POP POP POP POP POP JUMP JUMPDEST PUSH2 0xA99 DUP3 DUP3 PUSH1 0x40 MLOAD PUSH1 0x24 ADD PUSH2 0x1B2D SWAP3 SWAP2 SWAP1 PUSH2 0x2B6B JUMP JUMPDEST PUSH1 0x40 DUP1 MLOAD PUSH1 0x1F NOT DUP2 DUP5 SUB ADD DUP2 MSTORE SWAP2 SWAP1 MSTORE PUSH1 0x20 DUP2 ADD DUP1 MLOAD PUSH1 0x1 PUSH1 0x1 PUSH1 0xE0 SHL SUB AND PUSH4 0x2D839CB3 PUSH1 0xE2 SHL OR SWAP1 MSTORE PUSH2 0x1F59 JUMP JUMPDEST PUSH2 0xA99 DUP3 DUP3 PUSH1 0x40 MLOAD PUSH1 0x24 ADD PUSH2 0x1B72 SWAP3 SWAP2 SWAP1 PUSH2 0x2B8D JUMP JUMPDEST PUSH1 0x40 DUP1 MLOAD PUSH1 0x1F NOT DUP2 DUP5 SUB ADD DUP2 MSTORE SWAP2 SWAP1 MSTORE PUSH1 0x20 DUP2 ADD DUP1 MLOAD PUSH1 0x1 PUSH1 0x1 PUSH1 0xE0 SHL SUB AND PUSH4 0x319AF333 PUSH1 0xE0 SHL OR SWAP1 MSTORE PUSH2 0x1F59 JUMP JUMPDEST PUSH2 0xA99 DUP3 DUP3 PUSH1 0x40 MLOAD PUSH1 0x24 ADD PUSH2 0x1BB7 SWAP3 SWAP2 SWAP1 PUSH2 0x2BB7 JUMP JUMPDEST PUSH1 0x40 DUP1 MLOAD PUSH1 0x1F NOT DUP2 DUP5 SUB ADD DUP2 MSTORE SWAP2 SWAP1 MSTORE PUSH1 0x20 DUP2 ADD DUP1 MLOAD PUSH1 0x1 PUSH1 0x1 PUSH1 0xE0 SHL SUB AND PUSH4 0xC3B55635 PUSH1 0xE0 SHL OR SWAP1 MSTORE PUSH2 0x1F59 JUMP JUMPDEST PUSH2 0x18B8 DUP5 DUP5 DUP5 DUP5 PUSH1 0x40 MLOAD PUSH1 0x24 ADD PUSH2 0x1C00 SWAP5 SWAP4 SWAP3 SWAP2 SWAP1 PUSH2 0x2BDB JUMP JUMPDEST PUSH1 0x40 DUP1 MLOAD PUSH1 0x1F NOT DUP2 DUP5 SUB ADD DUP2 MSTORE SWAP2 SWAP1 MSTORE PUSH1 0x20 DUP2 ADD DUP1 MLOAD PUSH1 0x1 PUSH1 0x1 PUSH1 0xE0 SHL SUB AND PUSH4 0xC67EA9D1 PUSH1 0xE0 SHL OR SWAP1 MSTORE PUSH2 0x1F59 JUMP JUMPDEST DUP1 SELFBALANCE LT ISZERO PUSH2 0x1C72 JUMPI PUSH1 0x40 MLOAD PUSH3 0x461BCD PUSH1 0xE5 SHL DUP2 MSTORE PUSH1 0x20 PUSH1 0x4 DUP3 ADD MSTORE PUSH1 0x10 PUSH1 0x24 DUP3 ADD MSTORE PUSH16 0x92DCE6EACCCCD2C6D2CADCE8408AA89 PUSH1 0x83 SHL PUSH1 0x44 DUP3 ADD MSTORE PUSH1 0x64 ADD PUSH2 0x3E7 JUMP JUMPDEST PUSH1 0x0 DUP3 PUSH1 0x1 PUSH1 0x1 PUSH1 0xA0 SHL SUB AND DUP3 PUSH1 0x40 MLOAD PUSH1 0x0 PUSH1 0x40 MLOAD DUP1 DUP4 SUB DUP2 DUP6 DUP8 GAS CALL SWAP3 POP POP POP RETURNDATASIZE DUP1 PUSH1 0x0 DUP2 EQ PUSH2 0x1CBF JUMPI PUSH1 0x40 MLOAD SWAP2 POP PUSH1 0x1F NOT PUSH1 0x3F RETURNDATASIZE ADD AND DUP3 ADD PUSH1 0x40 MSTORE RETURNDATASIZE DUP3 MSTORE RETURNDATASIZE PUSH1 0x0 PUSH1 0x20 DUP5 ADD RETURNDATACOPY PUSH2 0x1CC4 JUMP JUMPDEST PUSH1 0x60 SWAP2 POP JUMPDEST POP POP SWAP1 POP DUP1 PUSH2 0x1D0B JUMPI PUSH1 0x40 MLOAD PUSH3 0x461BCD PUSH1 0xE5 SHL DUP2 MSTORE PUSH1 0x20 PUSH1 0x4 DUP3 ADD MSTORE PUSH1 0x13 PUSH1 0x24 DUP3 ADD MSTORE PUSH19 0x115512081D1C985B9CD9995C8819985A5B1959 PUSH1 0x6A SHL PUSH1 0x44 DUP3 ADD MSTORE PUSH1 0x64 ADD PUSH2 0x3E7 JUMP JUMPDEST POP POP POP JUMP JUMPDEST PUSH2 0xAD5 DUP2 PUSH1 0x40 MLOAD PUSH1 0x24 ADD PUSH2 0x1D24 SWAP2 SWAP1 PUSH2 0x2C18 JUMP JUMPDEST PUSH1 0x40 DUP1 MLOAD PUSH1 0x1F NOT DUP2 DUP5 SUB ADD DUP2 MSTORE SWAP2 SWAP1 MSTORE PUSH1 0x20 DUP2 ADD DUP1 MLOAD PUSH1 0x1 PUSH1 0x1 PUSH1 0xE0 SHL SUB AND PUSH4 0x104C13EB PUSH1 0xE2 SHL OR SWAP1 MSTORE PUSH2 0x1F59 JUMP JUMPDEST PUSH2 0x1D0B DUP4 DUP4 DUP4 PUSH2 0x1F62 JUMP JUMPDEST PUSH1 0x0 PUSH2 0x1D68 PUSH2 0x1F11 JUMP JUMPDEST PUSH1 0x1 SWAP1 SSTORE POP JUMP JUMPDEST PUSH1 0x0 SWAP1 DUP2 MSTORE PUSH1 0x1 SWAP2 SWAP1 SWAP2 ADD PUSH1 0x20 MSTORE PUSH1 0x40 SWAP1 KECCAK256 SLOAD ISZERO ISZERO SWAP1 JUMP JUMPDEST PUSH1 0x0 PUSH2 0x1D93 DUP4 DUP4 PUSH2 0x1D6F JUMP JUMPDEST PUSH2 0x1DC9 JUMPI POP DUP2 SLOAD PUSH1 0x1 DUP2 DUP2 ADD DUP5 SSTORE PUSH1 0x0 DUP5 DUP2 MSTORE PUSH1 0x20 DUP1 DUP3 KECCAK256 SWAP1 SWAP4 ADD DUP5 SWAP1 SSTORE DUP5 SLOAD DUP5 DUP3 MSTORE DUP3 DUP7 ADD SWAP1 SWAP4 MSTORE PUSH1 0x40 SWAP1 KECCAK256 SWAP2 SWAP1 SWAP2 SSTORE PUSH2 0xC55 JUMP JUMPDEST POP PUSH1 0x0 PUSH2 0xC55 JUMP JUMPDEST PUSH1 0x0 PUSH2 0x1E26 DUP3 PUSH1 0x40 MLOAD DUP1 PUSH1 0x40 ADD PUSH1 0x40 MSTORE DUP1 PUSH1 0x20 DUP2 MSTORE PUSH1 0x20 ADD PUSH32 0x5361666545524332303A206C6F772D6C6576656C2063616C6C206661696C6564 DUP2 MSTORE POP DUP6 PUSH1 0x1 PUSH1 0x1 PUSH1 0xA0 SHL SUB AND PUSH2 0x1F81 SWAP1 SWAP3 SWAP2 SWAP1 PUSH4 0xFFFFFFFF AND JUMP JUMPDEST SWAP1 POP DUP1 MLOAD PUSH1 0x0 EQ DUP1 PUSH2 0x1E47 JUMPI POP DUP1 DUP1 PUSH1 0x20 ADD SWAP1 MLOAD DUP2 ADD SWAP1 PUSH2 0x1E47 SWAP2 SWAP1 PUSH2 0x2C2B JUMP JUMPDEST PUSH2 0x1D0B JUMPI PUSH1 0x40 MLOAD PUSH3 0x461BCD PUSH1 0xE5 SHL DUP2 MSTORE PUSH1 0x20 PUSH1 0x4 DUP3 ADD MSTORE PUSH1 0x2A PUSH1 0x24 DUP3 ADD MSTORE PUSH32 0x5361666545524332303A204552433230206F7065726174696F6E20646964206E PUSH1 0x44 DUP3 ADD MSTORE PUSH10 0x1BDD081CDD58D8D95959 PUSH1 0xB2 SHL PUSH1 0x64 DUP3 ADD MSTORE PUSH1 0x84 ADD PUSH2 0x3E7 JUMP JUMPDEST PUSH2 0x1EAE PUSH2 0x1F98 JUMP JUMPDEST PUSH2 0x829 JUMPI PUSH1 0x40 MLOAD PUSH4 0x1AFCD79F PUSH1 0xE3 SHL DUP2 MSTORE PUSH1 0x4 ADD PUSH1 0x40 MLOAD DUP1 SWAP2 SUB SWAP1 REVERT JUMPDEST PUSH2 0x1721 PUSH2 0x1EA6 JUMP JUMPDEST PUSH2 0x1D5E PUSH2 0x1EA6 JUMP JUMPDEST PUSH1 0x0 PUSH2 0x183A DUP4 DUP4 PUSH2 0x1FB2 JUMP JUMPDEST PUSH1 0x0 DUP3 PUSH1 0x0 ADD DUP3 DUP2 SLOAD DUP2 LT PUSH2 0x1EFE JUMPI PUSH2 0x1EFE PUSH2 0x294D JUMP JUMPDEST SWAP1 PUSH1 0x0 MSTORE PUSH1 0x20 PUSH1 0x0 KECCAK256 ADD SLOAD SWAP1 POP SWAP3 SWAP2 POP POP JUMP JUMPDEST PUSH32 0x9B779B17422D0DF92223018B32B4D1FA46E071723D6817E2486D003BECC55F00 SWAP1 JUMP JUMPDEST PUSH1 0x0 DUP1 PUSH1 0x0 PUSH2 0x1F44 DUP6 DUP6 PUSH2 0x20A5 JUMP JUMPDEST SWAP2 POP SWAP2 POP PUSH2 0x1F51 DUP2 PUSH2 0x20EA JUMP JUMPDEST POP SWAP4 SWAP3 POP POP POP JUMP JUMPDEST PUSH2 0xAD5 DUP2 PUSH2 0x222F JUMP JUMPDEST PUSH2 0x1D0B DUP4 PUSH4 0xA9059CBB PUSH1 0xE0 SHL DUP5 DUP5 PUSH1 0x40 MLOAD PUSH1 0x24 ADD PUSH2 0x1881 SWAP3 SWAP2 SWAP1 PUSH2 0x29F4 JUMP JUMPDEST PUSH1 0x60 PUSH2 0x1F90 DUP5 DUP5 PUSH1 0x0 DUP6 PUSH2 0x2250 JUMP JUMPDEST SWAP5 SWAP4 POP POP POP POP JUMP JUMPDEST PUSH1 0x0 PUSH2 0x1FA2 PUSH2 0x1924 JUMP JUMPDEST SLOAD PUSH1 0x1 PUSH1 0x40 SHL SWAP1 DIV PUSH1 0xFF AND SWAP2 SWAP1 POP JUMP JUMPDEST PUSH1 0x0 DUP2 DUP2 MSTORE PUSH1 0x1 DUP4 ADD PUSH1 0x20 MSTORE PUSH1 0x40 DUP2 KECCAK256 SLOAD DUP1 ISZERO PUSH2 0x209B JUMPI PUSH1 0x0 PUSH2 0x1FD6 PUSH1 0x1 DUP4 PUSH2 0x29E1 JUMP JUMPDEST DUP6 SLOAD SWAP1 SWAP2 POP PUSH1 0x0 SWAP1 PUSH2 0x1FEA SWAP1 PUSH1 0x1 SWAP1 PUSH2 0x29E1 JUMP JUMPDEST SWAP1 POP DUP2 DUP2 EQ PUSH2 0x204F JUMPI PUSH1 0x0 DUP7 PUSH1 0x0 ADD DUP3 DUP2 SLOAD DUP2 LT PUSH2 0x200A JUMPI PUSH2 0x200A PUSH2 0x294D JUMP JUMPDEST SWAP1 PUSH1 0x0 MSTORE PUSH1 0x20 PUSH1 0x0 KECCAK256 ADD SLOAD SWAP1 POP DUP1 DUP8 PUSH1 0x0 ADD DUP5 DUP2 SLOAD DUP2 LT PUSH2 0x202D JUMPI PUSH2 0x202D PUSH2 0x294D JUMP JUMPDEST PUSH1 0x0 SWAP2 DUP3 MSTORE PUSH1 0x20 DUP1 DUP4 KECCAK256 SWAP1 SWAP2 ADD SWAP3 SWAP1 SWAP3 SSTORE SWAP2 DUP3 MSTORE PUSH1 0x1 DUP9 ADD SWAP1 MSTORE PUSH1 0x40 SWAP1 KECCAK256 DUP4 SWAP1 SSTORE JUMPDEST DUP6 SLOAD DUP7 SWAP1 DUP1 PUSH2 0x2060 JUMPI PUSH2 0x2060 PUSH2 0x2C48 JUMP JUMPDEST PUSH1 0x1 SWAP1 SUB DUP2 DUP2 SWAP1 PUSH1 0x0 MSTORE PUSH1 0x20 PUSH1 0x0 KECCAK256 ADD PUSH1 0x0 SWAP1 SSTORE SWAP1 SSTORE DUP6 PUSH1 0x1 ADD PUSH1 0x0 DUP7 DUP2 MSTORE PUSH1 0x20 ADD SWAP1 DUP2 MSTORE PUSH1 0x20 ADD PUSH1 0x0 KECCAK256 PUSH1 0x0 SWAP1 SSTORE PUSH1 0x1 SWAP4 POP POP POP POP PUSH2 0xC55 JUMP JUMPDEST PUSH1 0x0 SWAP2 POP POP PUSH2 0xC55 JUMP JUMPDEST PUSH1 0x0 DUP1 DUP3 MLOAD PUSH1 0x41 SUB PUSH2 0x20DB JUMPI PUSH1 0x20 DUP4 ADD MLOAD PUSH1 0x40 DUP5 ADD MLOAD PUSH1 0x60 DUP6 ADD MLOAD PUSH1 0x0 BYTE PUSH2 0x20CF DUP8 DUP3 DUP6 DUP6 PUSH2 0x232B JUMP JUMPDEST SWAP5 POP SWAP5 POP POP POP POP PUSH2 0x20E3 JUMP JUMPDEST POP PUSH1 0x0 SWAP1 POP PUSH1 0x2 JUMPDEST SWAP3 POP SWAP3 SWAP1 POP JUMP JUMPDEST PUSH1 0x0 DUP2 PUSH1 0x4 DUP2 GT ISZERO PUSH2 0x20FE JUMPI PUSH2 0x20FE PUSH2 0x249C JUMP JUMPDEST SUB PUSH2 0x2106 JUMPI POP JUMP JUMPDEST PUSH1 0x1 DUP2 PUSH1 0x4 DUP2 GT ISZERO PUSH2 0x211A JUMPI PUSH2 0x211A PUSH2 0x249C JUMP JUMPDEST SUB PUSH2 0x2162 JUMPI PUSH1 0x40 MLOAD PUSH3 0x461BCD PUSH1 0xE5 SHL DUP2 MSTORE PUSH1 0x20 PUSH1 0x4 DUP3 ADD MSTORE PUSH1 0x18 PUSH1 0x24 DUP3 ADD MSTORE PUSH24 0x45434453413A20696E76616C6964207369676E6174757265 PUSH1 0x40 SHL PUSH1 0x44 DUP3 ADD MSTORE PUSH1 0x64 ADD PUSH2 0x3E7 JUMP JUMPDEST PUSH1 0x2 DUP2 PUSH1 0x4 DUP2 GT ISZERO PUSH2 0x2176 JUMPI PUSH2 0x2176 PUSH2 0x249C JUMP JUMPDEST SUB PUSH2 0x21C3 JUMPI PUSH1 0x40 MLOAD PUSH3 0x461BCD PUSH1 0xE5 SHL DUP2 MSTORE PUSH1 0x20 PUSH1 0x4 DUP3 ADD MSTORE PUSH1 0x1F PUSH1 0x24 DUP3 ADD MSTORE PUSH32 0x45434453413A20696E76616C6964207369676E6174757265206C656E67746800 PUSH1 0x44 DUP3 ADD MSTORE PUSH1 0x64 ADD PUSH2 0x3E7 JUMP JUMPDEST PUSH1 0x3 DUP2 PUSH1 0x4 DUP2 GT ISZERO PUSH2 0x21D7 JUMPI PUSH2 0x21D7 PUSH2 0x249C JUMP JUMPDEST SUB PUSH2 0xAD5 JUMPI PUSH1 0x40 MLOAD PUSH3 0x461BCD PUSH1 0xE5 SHL DUP2 MSTORE PUSH1 0x20 PUSH1 0x4 DUP3 ADD MSTORE PUSH1 0x22 PUSH1 0x24 DUP3 ADD MSTORE PUSH32 0x45434453413A20696E76616C6964207369676E6174757265202773272076616C PUSH1 0x44 DUP3 ADD MSTORE PUSH2 0x7565 PUSH1 0xF0 SHL PUSH1 0x64 DUP3 ADD MSTORE PUSH1 0x84 ADD PUSH2 0x3E7 JUMP JUMPDEST PUSH1 0x0 PUSH11 0x636F6E736F6C652E6C6F67 SWAP1 POP PUSH1 0x0 DUP1 DUP4 MLOAD PUSH1 0x20 DUP6 ADD DUP5 GAS STATICCALL POP POP POP JUMP JUMPDEST PUSH1 0x60 DUP3 SELFBALANCE LT ISZERO PUSH2 0x22B1 JUMPI PUSH1 0x40 MLOAD PUSH3 0x461BCD PUSH1 0xE5 SHL DUP2 MSTORE PUSH1 0x20 PUSH1 0x4 DUP3 ADD MSTORE PUSH1 0x26 PUSH1 0x24 DUP3 ADD MSTORE PUSH32 0x416464726573733A20696E73756666696369656E742062616C616E636520666F PUSH1 0x44 DUP3 ADD MSTORE PUSH6 0x1C8818D85B1B PUSH1 0xD2 SHL PUSH1 0x64 DUP3 ADD MSTORE PUSH1 0x84 ADD PUSH2 0x3E7 JUMP JUMPDEST PUSH1 0x0 DUP1 DUP7 PUSH1 0x1 PUSH1 0x1 PUSH1 0xA0 SHL SUB AND DUP6 DUP8 PUSH1 0x40 MLOAD PUSH2 0x22CD SWAP2 SWAP1 PUSH2 0x2C5E JUMP JUMPDEST PUSH1 0x0 PUSH1 0x40 MLOAD DUP1 DUP4 SUB DUP2 DUP6 DUP8 GAS CALL SWAP3 POP POP POP RETURNDATASIZE DUP1 PUSH1 0x0 DUP2 EQ PUSH2 0x230A JUMPI PUSH1 0x40 MLOAD SWAP2 POP PUSH1 0x1F NOT PUSH1 0x3F RETURNDATASIZE ADD AND DUP3 ADD PUSH1 0x40 MSTORE RETURNDATASIZE DUP3 MSTORE RETURNDATASIZE PUSH1 0x0 PUSH1 0x20 DUP5 ADD RETURNDATACOPY PUSH2 0x230F JUMP JUMPDEST PUSH1 0x60 SWAP2 POP JUMPDEST POP SWAP2 POP SWAP2 POP PUSH2 0x2320 DUP8 DUP4 DUP4 DUP8 PUSH2 0x23E5 JUMP JUMPDEST SWAP8 SWAP7 POP POP POP POP POP POP POP JUMP JUMPDEST PUSH1 0x0 DUP1 PUSH16 0xA2A8918CA85BAFE22016D0B997E4DF60 PUSH1 0x1 PUSH1 0xFF SHL SUB DUP4 GT ISZERO PUSH2 0x2358 JUMPI POP PUSH1 0x0 SWAP1 POP PUSH1 0x3 PUSH2 0x23DC JUMP JUMPDEST PUSH1 0x40 DUP1 MLOAD PUSH1 0x0 DUP1 DUP3 MSTORE PUSH1 0x20 DUP3 ADD DUP1 DUP5 MSTORE DUP10 SWAP1 MSTORE PUSH1 0xFF DUP9 AND SWAP3 DUP3 ADD SWAP3 SWAP1 SWAP3 MSTORE PUSH1 0x60 DUP2 ADD DUP7 SWAP1 MSTORE PUSH1 0x80 DUP2 ADD DUP6 SWAP1 MSTORE PUSH1 0x1 SWAP1 PUSH1 0xA0 ADD PUSH1 0x20 PUSH1 0x40 MLOAD PUSH1 0x20 DUP2 SUB SWAP1 DUP1 DUP5 SUB SWAP1 DUP6 GAS STATICCALL ISZERO DUP1 ISZERO PUSH2 0x23AC JUMPI RETURNDATASIZE PUSH1 0x0 DUP1 RETURNDATACOPY RETURNDATASIZE PUSH1 0x0 REVERT JUMPDEST POP POP PUSH1 0x40 MLOAD PUSH1 0x1F NOT ADD MLOAD SWAP2 POP POP PUSH1 0x1 PUSH1 0x1 PUSH1 0xA0 SHL SUB DUP2 AND PUSH2 0x23D5 JUMPI PUSH1 0x0 PUSH1 0x1 SWAP3 POP SWAP3 POP POP PUSH2 0x23DC JUMP JUMPDEST SWAP2 POP PUSH1 0x0 SWAP1 POP JUMPDEST SWAP5 POP SWAP5 SWAP3 POP POP POP JUMP JUMPDEST PUSH1 0x60 DUP4 ISZERO PUSH2 0x2454 JUMPI DUP3 MLOAD PUSH1 0x0 SUB PUSH2 0x244D JUMPI PUSH1 0x1 PUSH1 0x1 PUSH1 0xA0 SHL SUB DUP6 AND EXTCODESIZE PUSH2 0x244D JUMPI PUSH1 0x40 MLOAD PUSH3 0x461BCD PUSH1 0xE5 SHL DUP2 MSTORE PUSH1 0x20 PUSH1 0x4 DUP3 ADD MSTORE PUSH1 0x1D PUSH1 0x24 DUP3 ADD MSTORE PUSH32 0x416464726573733A2063616C6C20746F206E6F6E2D636F6E7472616374000000 PUSH1 0x44 DUP3 ADD MSTORE PUSH1 0x64 ADD PUSH2 0x3E7 JUMP JUMPDEST POP DUP2 PUSH2 0x1F90 JUMP JUMPDEST PUSH2 0x1F90 DUP4 DUP4 DUP2 MLOAD ISZERO PUSH2 0x2469 JUMPI DUP2 MLOAD DUP1 DUP4 PUSH1 0x20 ADD REVERT JUMPDEST DUP1 PUSH1 0x40 MLOAD PUSH3 0x461BCD PUSH1 0xE5 SHL DUP2 MSTORE PUSH1 0x4 ADD PUSH2 0x3E7 SWAP2 SWAP1 PUSH2 0x2C18 JUMP JUMPDEST PUSH1 0x0 PUSH1 0x20 DUP3 DUP5 SUB SLT ISZERO PUSH2 0x2495 JUMPI PUSH1 0x0 DUP1 REVERT JUMPDEST POP CALLDATALOAD SWAP2 SWAP1 POP JUMP JUMPDEST PUSH4 0x4E487B71 PUSH1 0xE0 SHL PUSH1 0x0 MSTORE PUSH1 0x21 PUSH1 0x4 MSTORE PUSH1 0x24 PUSH1 0x0 REVERT JUMPDEST PUSH1 0x2 DUP2 LT PUSH2 0xAD5 JUMPI PUSH4 0x4E487B71 PUSH1 0xE0 SHL PUSH1 0x0 MSTORE PUSH1 0x21 PUSH1 0x4 MSTORE PUSH1 0x24 PUSH1 0x0 REVERT JUMPDEST DUP7 DUP2 MSTORE PUSH1 0xC0 DUP2 ADD PUSH2 0x24E0 DUP8 PUSH2 0x24B2 JUMP JUMPDEST DUP7 PUSH1 0x20 DUP4 ADD MSTORE PUSH2 0x24EF DUP7 PUSH2 0x24B2 JUMP JUMPDEST PUSH1 0x40 DUP3 ADD SWAP6 SWAP1 SWAP6 MSTORE PUSH1 0x1 PUSH1 0x1 PUSH1 0xA0 SHL SUB SWAP4 DUP5 AND PUSH1 0x60 DUP3 ADD MSTORE SWAP2 SWAP1 SWAP3 AND PUSH1 0x80 DUP3 ADD MSTORE PUSH1 0xA0 ADD MSTORE SWAP3 SWAP2 POP POP JUMP JUMPDEST DUP1 CALLDATALOAD PUSH1 0x2 DUP2 LT PUSH2 0x2529 JUMPI PUSH1 0x0 DUP1 REVERT JUMPDEST SWAP2 SWAP1 POP JUMP JUMPDEST DUP1 CALLDATALOAD PUSH1 0x1 PUSH1 0x1 PUSH1 0xA0 SHL SUB DUP2 AND DUP2 EQ PUSH2 0x2529 JUMPI PUSH1 0x0 DUP1 REVERT JUMPDEST PUSH1 0x0 DUP1 PUSH1 0x0 PUSH1 0x60 DUP5 DUP7 SUB SLT ISZERO PUSH2 0x255A JUMPI PUSH1 0x0 DUP1 REVERT JUMPDEST PUSH2 0x2563 DUP5 PUSH2 0x251A JUMP JUMPDEST SWAP3 POP PUSH2 0x2571 PUSH1 0x20 DUP6 ADD PUSH2 0x252E JUMP JUMPDEST SWAP2 POP PUSH1 0x40 DUP5 ADD CALLDATALOAD SWAP1 POP SWAP3 POP SWAP3 POP SWAP3 JUMP JUMPDEST DUP1 ISZERO ISZERO DUP2 EQ PUSH2 0xAD5 JUMPI PUSH1 0x0 DUP1 REVERT JUMPDEST PUSH1 0x0 DUP1 PUSH1 0x40 DUP4 DUP6 SUB SLT ISZERO PUSH2 0x25A2 JUMPI PUSH1 0x0 DUP1 REVERT JUMPDEST PUSH2 0x25AB DUP4 PUSH2 0x252E JUMP JUMPDEST SWAP2 POP PUSH1 0x20 DUP4 ADD CALLDATALOAD PUSH2 0x25BB DUP2 PUSH2 0x2581 JUMP JUMPDEST DUP1 SWAP2 POP POP SWAP3 POP SWAP3 SWAP1 POP JUMP JUMPDEST PUSH1 0x1 PUSH1 0x1 PUSH1 0xA0 SHL SUB SWAP2 SWAP1 SWAP2 AND DUP2 MSTORE PUSH1 0x20 ADD SWAP1 JUMP JUMPDEST PUSH1 0x0 DUP1 PUSH1 0x40 DUP4 DUP6 SUB SLT ISZERO PUSH2 0x25ED JUMPI PUSH1 0x0 DUP1 REVERT JUMPDEST DUP3 CALLDATALOAD SWAP2 POP PUSH2 0x25FD PUSH1 0x20 DUP5 ADD PUSH2 0x251A JUMP JUMPDEST SWAP1 POP SWAP3 POP SWAP3 SWAP1 POP JUMP JUMPDEST DUP2 MLOAD DUP2 MSTORE PUSH1 0x20 DUP3 ADD MLOAD PUSH1 0xC0 DUP3 ADD SWAP1 PUSH2 0x261D DUP2 PUSH2 0x24B2 JUMP JUMPDEST PUSH1 0x20 DUP4 ADD MSTORE PUSH1 0x40 DUP4 ADD MLOAD PUSH2 0x2630 DUP2 PUSH2 0x24B2 JUMP JUMPDEST DUP1 PUSH1 0x40 DUP5 ADD MSTORE POP PUSH1 0x60 DUP4 ADD MLOAD PUSH1 0x1 DUP1 PUSH1 0xA0 SHL SUB DUP1 DUP3 AND PUSH1 0x60 DUP6 ADD MSTORE DUP1 PUSH1 0x80 DUP7 ADD MLOAD AND PUSH1 0x80 DUP6 ADD MSTORE POP POP PUSH1 0xA0 DUP4 ADD MLOAD PUSH1 0xA0 DUP4 ADD MSTORE SWAP3 SWAP2 POP POP JUMP JUMPDEST PUSH1 0x0 PUSH1 0x20 DUP3 DUP5 SUB SLT ISZERO PUSH2 0x267B JUMPI PUSH1 0x0 DUP1 REVERT JUMPDEST PUSH2 0x183A DUP3 PUSH2 0x252E JUMP JUMPDEST PUSH4 0x4E487B71 PUSH1 0xE0 SHL PUSH1 0x0 MSTORE PUSH1 0x41 PUSH1 0x4 MSTORE PUSH1 0x24 PUSH1 0x0 REVERT JUMPDEST PUSH1 0x0 DUP1 DUP4 PUSH1 0x1F DUP5 ADD SLT PUSH2 0x26AC JUMPI PUSH1 0x0 DUP1 REVERT JUMPDEST POP DUP2 CALLDATALOAD PUSH1 0x1 PUSH1 0x1 PUSH1 0x40 SHL SUB DUP2 GT ISZERO PUSH2 0x26C3 JUMPI PUSH1 0x0 DUP1 REVERT JUMPDEST PUSH1 0x20 DUP4 ADD SWAP2 POP DUP4 PUSH1 0x20 DUP3 DUP6 ADD ADD GT ISZERO PUSH2 0x20E3 JUMPI PUSH1 0x0 DUP1 REVERT JUMPDEST PUSH1 0x0 DUP1 PUSH1 0x0 DUP1 PUSH1 0x0 DUP1 PUSH1 0xA0 DUP8 DUP10 SUB SLT ISZERO PUSH2 0x26F4 JUMPI PUSH1 0x0 DUP1 REVERT JUMPDEST DUP7 CALLDATALOAD SWAP6 POP PUSH1 0x20 DUP1 DUP9 ADD CALLDATALOAD PUSH1 0x1 PUSH1 0x1 PUSH1 0x40 SHL SUB DUP1 DUP3 GT ISZERO PUSH2 0x2713 JUMPI PUSH1 0x0 DUP1 REVERT JUMPDEST DUP2 DUP11 ADD SWAP2 POP DUP11 PUSH1 0x1F DUP4 ADD SLT PUSH2 0x2727 JUMPI PUSH1 0x0 DUP1 REVERT JUMPDEST DUP2 CALLDATALOAD DUP2 DUP2 GT ISZERO PUSH2 0x2739 JUMPI PUSH2 0x2739 PUSH2 0x2684 JUMP JUMPDEST DUP1 PUSH1 0x5 SHL PUSH1 0x40 MLOAD PUSH1 0x1F NOT PUSH1 0x3F DUP4 ADD AND DUP2 ADD DUP2 DUP2 LT DUP6 DUP3 GT OR ISZERO PUSH2 0x275E JUMPI PUSH2 0x275E PUSH2 0x2684 JUMP JUMPDEST PUSH1 0x40 MSTORE SWAP2 DUP3 MSTORE DUP4 DUP2 ADD DUP6 ADD SWAP2 DUP6 DUP2 ADD DUP15 DUP5 GT ISZERO PUSH2 0x277A JUMPI PUSH1 0x0 DUP1 REVERT JUMPDEST SWAP5 DUP7 ADD SWAP5 JUMPDEST DUP4 DUP7 LT ISZERO PUSH2 0x2796 JUMPI DUP6 CALLDATALOAD DUP2 MSTORE SWAP5 DUP7 ADD SWAP5 DUP7 ADD PUSH2 0x277F JUMP JUMPDEST POP SWAP10 POP POP POP PUSH1 0x40 DUP11 ADD CALLDATALOAD SWAP7 POP PUSH2 0x27AE PUSH1 0x60 DUP12 ADD PUSH2 0x252E JUMP JUMPDEST SWAP6 POP PUSH1 0x80 DUP11 ADD CALLDATALOAD SWAP3 POP DUP1 DUP4 GT ISZERO PUSH2 0x27C4 JUMPI PUSH1 0x0 DUP1 REVERT JUMPDEST POP POP PUSH2 0x27D2 DUP10 DUP3 DUP11 ADD PUSH2 0x269A JUMP JUMPDEST SWAP8 SWAP11 SWAP7 SWAP10 POP SWAP5 SWAP8 POP SWAP3 SWAP6 SWAP4 SWAP5 SWAP3 POP POP POP JUMP JUMPDEST PUSH1 0x0 DUP1 PUSH1 0x0 DUP1 PUSH1 0x80 DUP6 DUP8 SUB SLT ISZERO PUSH2 0x27FA JUMPI PUSH1 0x0 DUP1 REVERT JUMPDEST DUP5 CALLDATALOAD SWAP4 POP PUSH2 0x280A PUSH1 0x20 DUP7 ADD PUSH2 0x251A JUMP JUMPDEST SWAP3 POP PUSH2 0x2818 PUSH1 0x40 DUP7 ADD PUSH2 0x252E JUMP JUMPDEST SWAP4 SWAP7 SWAP3 SWAP6 POP SWAP3 SWAP4 PUSH1 0x60 ADD CALLDATALOAD SWAP3 POP POP JUMP JUMPDEST PUSH1 0x0 DUP1 PUSH1 0x40 DUP4 DUP6 SUB SLT ISZERO PUSH2 0x283B JUMPI PUSH1 0x0 DUP1 REVERT JUMPDEST POP POP DUP1 CALLDATALOAD SWAP3 PUSH1 0x20 SWAP1 SWAP2 ADD CALLDATALOAD SWAP2 POP JUMP JUMPDEST PUSH1 0x20 DUP1 DUP3 MSTORE PUSH1 0x26 SWAP1 DUP3 ADD MSTORE PUSH32 0x5072697A6520616D6F756E74206D757374206265206772656174657220746861 PUSH1 0x40 DUP3 ADD MSTORE PUSH6 0x6E207A65726F PUSH1 0xD0 SHL PUSH1 0x60 DUP3 ADD MSTORE PUSH1 0x80 ADD SWAP1 JUMP JUMPDEST PUSH1 0x20 DUP1 DUP3 MSTORE PUSH1 0x10 SWAP1 DUP3 ADD MSTORE PUSH16 0x496E76616C696420626F782074797065 PUSH1 0x80 SHL PUSH1 0x40 DUP3 ADD MSTORE PUSH1 0x60 ADD SWAP1 JUMP JUMPDEST PUSH1 0x0 PUSH1 0x20 DUP3 DUP5 SUB SLT ISZERO PUSH2 0x28CC JUMPI PUSH1 0x0 DUP1 REVERT JUMPDEST POP MLOAD SWAP2 SWAP1 POP JUMP JUMPDEST PUSH1 0x80 DUP2 ADD PUSH2 0x28E0 DUP7 PUSH2 0x24B2 JUMP JUMPDEST DUP6 DUP3 MSTORE PUSH2 0x28EC DUP6 PUSH2 0x24B2 JUMP JUMPDEST PUSH1 0x20 DUP3 ADD SWAP5 SWAP1 SWAP5 MSTORE PUSH1 0x1 PUSH1 0x1 PUSH1 0xA0 SHL SUB SWAP3 SWAP1 SWAP3 AND PUSH1 0x40 DUP4 ADD MSTORE PUSH1 0x60 SWAP1 SWAP2 ADD MSTORE SWAP2 SWAP1 POP JUMP JUMPDEST PUSH1 0x20 DUP2 ADD PUSH2 0x291D DUP4 PUSH2 0x24B2 JUMP JUMPDEST SWAP2 SWAP1 MSTORE SWAP1 JUMP JUMPDEST PUSH1 0x20 DUP1 DUP3 MSTORE PUSH1 0x10 SWAP1 DUP3 ADD MSTORE PUSH16 0x109BDE081251081B9BDD08199BDD5B99 PUSH1 0x82 SHL PUSH1 0x40 DUP3 ADD MSTORE PUSH1 0x60 ADD SWAP1 JUMP JUMPDEST PUSH4 0x4E487B71 PUSH1 0xE0 SHL PUSH1 0x0 MSTORE PUSH1 0x32 PUSH1 0x4 MSTORE PUSH1 0x24 PUSH1 0x0 REVERT JUMPDEST PUSH4 0x4E487B71 PUSH1 0xE0 SHL PUSH1 0x0 MSTORE PUSH1 0x12 PUSH1 0x4 MSTORE PUSH1 0x24 PUSH1 0x0 REVERT JUMPDEST PUSH1 0x0 DUP3 PUSH2 0x2988 JUMPI PUSH2 0x2988 PUSH2 0x2963 JUMP JUMPDEST POP MOD SWAP1 JUMP JUMPDEST PUSH4 0x4E487B71 PUSH1 0xE0 SHL PUSH1 0x0 MSTORE PUSH1 0x11 PUSH1 0x4 MSTORE PUSH1 0x24 PUSH1 0x0 REVERT JUMPDEST DUP1 DUP3 ADD DUP1 DUP3 GT ISZERO PUSH2 0xC55 JUMPI PUSH2 0xC55 PUSH2 0x298D JUMP JUMPDEST DUP1 DUP3 MUL DUP2 ISZERO DUP3 DUP3 DIV DUP5 EQ OR PUSH2 0xC55 JUMPI PUSH2 0xC55 PUSH2 0x298D JUMP JUMPDEST PUSH1 0x0 DUP3 PUSH2 0x29DC JUMPI PUSH2 0x29DC PUSH2 0x2963 JUMP JUMPDEST POP DIV SWAP1 JUMP JUMPDEST DUP2 DUP2 SUB DUP2 DUP2 GT ISZERO PUSH2 0xC55 JUMPI PUSH2 0xC55 PUSH2 0x298D JUMP JUMPDEST PUSH1 0x1 PUSH1 0x1 PUSH1 0xA0 SHL SUB SWAP3 SWAP1 SWAP3 AND DUP3 MSTORE PUSH1 0x20 DUP3 ADD MSTORE PUSH1 0x40 ADD SWAP1 JUMP JUMPDEST PUSH1 0x20 DUP1 DUP3 MSTORE DUP3 MLOAD DUP3 DUP3 ADD DUP2 SWAP1 MSTORE PUSH1 0x0 SWAP2 SWAP1 DUP5 DUP3 ADD SWAP1 PUSH1 0x40 DUP6 ADD SWAP1 DUP5 JUMPDEST DUP2 DUP2 LT ISZERO PUSH2 0x2A45 JUMPI DUP4 MLOAD DUP4 MSTORE SWAP3 DUP5 ADD SWAP3 SWAP2 DUP5 ADD SWAP2 PUSH1 0x1 ADD PUSH2 0x2A29 JUMP JUMPDEST POP SWAP1 SWAP7 SWAP6 POP POP POP POP POP POP JUMP JUMPDEST PUSH1 0x60 DUP2 ADD PUSH2 0x2A5E DUP6 PUSH2 0x24B2 JUMP JUMPDEST SWAP4 DUP2 MSTORE PUSH1 0x1 PUSH1 0x1 PUSH1 0xA0 SHL SUB SWAP3 SWAP1 SWAP3 AND PUSH1 0x20 DUP4 ADD MSTORE PUSH1 0x40 SWAP1 SWAP2 ADD MSTORE SWAP1 JUMP JUMPDEST PUSH1 0x60 SWAP4 SWAP1 SWAP4 SHL PUSH1 0x1 PUSH1 0x1 PUSH1 0x60 SHL SUB NOT AND DUP4 MSTORE PUSH1 0x14 DUP4 ADD SWAP2 SWAP1 SWAP2 MSTORE PUSH1 0x34 DUP3 ADD MSTORE PUSH1 0x54 ADD SWAP1 JUMP JUMPDEST PUSH1 0x0 PUSH1 0x1 DUP3 ADD PUSH2 0x2AB2 JUMPI PUSH2 0x2AB2 PUSH2 0x298D JUMP JUMPDEST POP PUSH1 0x1 ADD SWAP1 JUMP JUMPDEST DUP6 DUP2 MSTORE PUSH1 0x0 PUSH1 0x20 DUP1 DUP4 ADD DUP8 MLOAD DUP3 DUP10 ADD PUSH1 0x0 JUMPDEST DUP3 DUP2 LT ISZERO PUSH2 0x2AE7 JUMPI DUP2 MLOAD DUP5 MSTORE SWAP3 DUP5 ADD SWAP3 SWAP1 DUP5 ADD SWAP1 PUSH1 0x1 ADD PUSH2 0x2ACB JUMP JUMPDEST POP POP POP SWAP6 DUP7 MSTORE PUSH1 0x1 PUSH1 0x1 PUSH1 0x60 SHL SUB NOT PUSH1 0x60 SWAP6 DUP7 SHL DUP2 AND SWAP2 DUP8 ADD SWAP2 SWAP1 SWAP2 MSTORE SWAP3 SWAP1 SWAP4 SHL SWAP1 SWAP2 AND PUSH1 0x34 DUP5 ADD MSTORE POP POP PUSH1 0x48 ADD SWAP3 SWAP2 POP POP JUMP JUMPDEST PUSH1 0x0 JUMPDEST DUP4 DUP2 LT ISZERO PUSH2 0x2B36 JUMPI DUP2 DUP2 ADD MLOAD DUP4 DUP3 ADD MSTORE PUSH1 0x20 ADD PUSH2 0x2B1E JUMP JUMPDEST POP POP PUSH1 0x0 SWAP2 ADD MSTORE JUMP JUMPDEST PUSH1 0x0 DUP2 MLOAD DUP1 DUP5 MSTORE PUSH2 0x2B57 DUP2 PUSH1 0x20 DUP7 ADD PUSH1 0x20 DUP7 ADD PUSH2 0x2B1B JUMP JUMPDEST PUSH1 0x1F ADD PUSH1 0x1F NOT AND SWAP3 SWAP1 SWAP3 ADD PUSH1 0x20 ADD SWAP3 SWAP2 POP POP JUMP JUMPDEST PUSH1 0x40 DUP2 MSTORE PUSH1 0x0 PUSH2 0x2B7E PUSH1 0x40 DUP4 ADD DUP6 PUSH2 0x2B3F JUMP JUMPDEST SWAP1 POP DUP3 PUSH1 0x20 DUP4 ADD MSTORE SWAP4 SWAP3 POP POP POP JUMP JUMPDEST PUSH1 0x40 DUP2 MSTORE PUSH1 0x0 PUSH2 0x2BA0 PUSH1 0x40 DUP4 ADD DUP6 PUSH2 0x2B3F JUMP JUMPDEST SWAP1 POP PUSH1 0x1 DUP1 PUSH1 0xA0 SHL SUB DUP4 AND PUSH1 0x20 DUP4 ADD MSTORE SWAP4 SWAP3 POP POP POP JUMP JUMPDEST PUSH1 0x40 DUP2 MSTORE PUSH1 0x0 PUSH2 0x2BCA PUSH1 0x40 DUP4 ADD DUP6 PUSH2 0x2B3F JUMP JUMPDEST SWAP1 POP DUP3 ISZERO ISZERO PUSH1 0x20 DUP4 ADD MSTORE SWAP4 SWAP3 POP POP POP JUMP JUMPDEST PUSH1 0x80 DUP2 MSTORE PUSH1 0x0 PUSH2 0x2BEE PUSH1 0x80 DUP4 ADD DUP8 PUSH2 0x2B3F JUMP JUMPDEST DUP6 PUSH1 0x20 DUP5 ADD MSTORE DUP3 DUP2 SUB PUSH1 0x40 DUP5 ADD MSTORE PUSH2 0x2C06 DUP2 DUP7 PUSH2 0x2B3F JUMP JUMPDEST SWAP2 POP POP DUP3 PUSH1 0x60 DUP4 ADD MSTORE SWAP6 SWAP5 POP POP POP POP POP JUMP JUMPDEST PUSH1 0x20 DUP2 MSTORE PUSH1 0x0 PUSH2 0x183A PUSH1 0x20 DUP4 ADD DUP5 PUSH2 0x2B3F JUMP JUMPDEST PUSH1 0x0 PUSH1 0x20 DUP3 DUP5 SUB SLT ISZERO PUSH2 0x2C3D JUMPI PUSH1 0x0 DUP1 REVERT JUMPDEST DUP2 MLOAD PUSH2 0x183A DUP2 PUSH2 0x2581 JUMP JUMPDEST PUSH4 0x4E487B71 PUSH1 0xE0 SHL PUSH1 0x0 MSTORE PUSH1 0x31 PUSH1 0x4 MSTORE PUSH1 0x24 PUSH1 0x0 REVERT JUMPDEST PUSH1 0x0 DUP3 MLOAD PUSH2 0x2C70 DUP2 DUP5 PUSH1 0x20 DUP8 ADD PUSH2 0x2B1B JUMP JUMPDEST SWAP2 SWAP1 SWAP2 ADD SWAP3 SWAP2 POP POP JUMP INVALID 0xDB CALLVALUE 0xB9 0x4C 0xDF MSIZE SLOAD MULMOD PUSH2 0x9536 CREATE2 EQ 0xE4 ISZERO 0xC5 0xDB ORIGIN GAS 0x2E LT 0xBD PUSH12 0x1162168A8A2E2E889A26469 PUSH17 0x6673582212203064F3FA8C84F7459B2B82 LOG4 PUSH31 0x54777D25B0E5407CDC4228040CB94B8390CC9764736F6C6343000814003300 "},"methodIdentifiers":{"boxes(bytes32)":"0589c970","createBox(uint8,address,uint256)":"49f76998","deleteBox(bytes32)":"a46e717e","freeBoxWinRate()":"e1e10054","fulfillRandomWords(bytes32,uint256[],bytes32,address,bytes)":"cf611c45","getBox(bytes32)":"a55f0565","getBoxIdAt(uint256)":"c4018427","initialize()":"8129fc1c","oracles(address)":"addd5099","owner()":"8da5cb5b","paidBoxWinRate()":"e30459bc","pendingRequests(bytes32)":"2795ad20","renounceOwnership()":"715018a6","requestRandomWords(uint256,bytes32)":"ef31d20e","setOracle(address,bool)":"65360843","setWinRate(uint256,uint8)":"91a85dde","totalBoxes()":"57e78adc","transferOwnership(address)":"f2fde38b","updateBox(bytes32,uint8,address,uint256)":"eba7b7e6"}},"storageLayout":{"storage":[{"astId":3672,"contract":"contracts/LootBox.sol:LootBox","label":"randNumber","offset":0,"slot":"0","type":"t_uint256"},{"astId":3674,"contract":"contracts/LootBox.sol:LootBox","label":"nonce","offset":0,"slot":"1","type":"t_uint256"},{"astId":3677,"contract":"contracts/LootBox.sol:LootBox","label":"freeBoxWinRate","offset":0,"slot":"2","type":"t_uint256"},{"astId":3680,"contract":"contracts/LootBox.sol:LootBox","label":"paidBoxWinRate","offset":0,"slot":"3","type":"t_uint256"},{"astId":3705,"contract":"contracts/LootBox.sol:LootBox","label":"pendingRequests","offset":0,"slot":"4","type":"t_mapping(t_bytes32,t_bool)"},{"astId":3710,"contract":"contracts/LootBox.sol:LootBox","label":"boxes","offset":0,"slot":"5","type":"t_mapping(t_bytes32,t_struct(Box)3701_storage)"},{"astId":3713,"contract":"contracts/LootBox.sol:LootBox","label":"boxIds","offset":0,"slot":"6","type":"t_struct(Bytes32Set)3234_storage"},{"astId":3717,"contract":"contracts/LootBox.sol:LootBox","label":"oracles","offset":0,"slot":"8","type":"t_mapping(t_address,t_bool)"}],"types":{"t_address":{"encoding":"inplace","label":"address","numberOfBytes":"20"},"t_array(t_bytes32)dyn_storage":{"base":"t_bytes32","encoding":"dynamic_array","label":"bytes32[]","numberOfBytes":"32"},"t_bool":{"encoding":"inplace","label":"bool","numberOfBytes":"1"},"t_bytes32":{"encoding":"inplace","label":"bytes32","numberOfBytes":"32"},"t_enum(BoxStatus)3686":{"encoding":"inplace","label":"enum LootBox.BoxStatus","numberOfBytes":"1"},"t_enum(BoxType)3683":{"encoding":"inplace","label":"enum LootBox.BoxType","numberOfBytes":"1"},"t_mapping(t_address,t_bool)":{"encoding":"mapping","key":"t_address","label":"mapping(address => bool)","numberOfBytes":"32","value":"t_bool"},"t_mapping(t_bytes32,t_bool)":{"encoding":"mapping","key":"t_bytes32","label":"mapping(bytes32 => bool)","numberOfBytes":"32","value":"t_bool"},"t_mapping(t_bytes32,t_struct(Box)3701_storage)":{"encoding":"mapping","key":"t_bytes32","label":"mapping(bytes32 => struct LootBox.Box)","numberOfBytes":"32","value":"t_struct(Box)3701_storage"},"t_mapping(t_bytes32,t_uint256)":{"encoding":"mapping","key":"t_bytes32","label":"mapping(bytes32 => uint256)","numberOfBytes":"32","value":"t_uint256"},"t_struct(Box)3701_storage":{"encoding":"inplace","label":"struct LootBox.Box","members":[{"astId":3688,"contract":"contracts/LootBox.sol:LootBox","label":"id","offset":0,"slot":"0","type":"t_bytes32"},{"astId":3691,"contract":"contracts/LootBox.sol:LootBox","label":"boxType","offset":0,"slot":"1","type":"t_enum(BoxType)3683"},{"astId":3694,"contract":"contracts/LootBox.sol:LootBox","label":"status","offset":1,"slot":"1","type":"t_enum(BoxStatus)3686"},{"astId":3696,"contract":"contracts/LootBox.sol:LootBox","label":"owner","offset":2,"slot":"1","type":"t_address"},{"astId":3698,"contract":"contracts/LootBox.sol:LootBox","label":"prizeToken","offset":0,"slot":"2","type":"t_address"},{"astId":3700,"contract":"contracts/LootBox.sol:LootBox","label":"prizeAmount","offset":0,"slot":"3","type":"t_uint256"}],"numberOfBytes":"128"},"t_struct(Bytes32Set)3234_storage":{"encoding":"inplace","label":"struct EnumerableSet.Bytes32Set","members":[{"astId":3233,"contract":"contracts/LootBox.sol:LootBox","label":"_inner","offset":0,"slot":"0","type":"t_struct(Set)3040_storage"}],"numberOfBytes":"64"},"t_struct(Set)3040_storage":{"encoding":"inplace","label":"struct EnumerableSet.Set","members":[{"astId":3035,"contract":"contracts/LootBox.sol:LootBox","label":"_values","offset":0,"slot":"0","type":"t_array(t_bytes32)dyn_storage"},{"astId":3039,"contract":"contracts/LootBox.sol:LootBox","label":"_indexes","offset":0,"slot":"1","type":"t_mapping(t_bytes32,t_uint256)"}],"numberOfBytes":"64"},"t_uint256":{"encoding":"inplace","label":"uint256","numberOfBytes":"32"}}}}}}