{"contracts/LootBox.sol":{"LootBox":{"abi":[{"inputs":[],"stateMutability":"nonpayable","type":"constructor"},{"inputs":[],"name":"InvalidInitialization","type":"error"},{"inputs":[],"name":"InvalidSignature","type":"error"},{"inputs":[],"name":"NotInitializing","type":"error"},{"inputs":[{"internalType":"address","name":"owner","type":"address"}],"name":"OwnableInvalidOwner","type":"error"},{"inputs":[{"internalType":"address","name":"account","type":"address"}],"name":"OwnableUnauthorizedAccount","type":"error"},{"inputs":[],"name":"ReentrancyGuardReentrantCall","type":"error"},{"inputs":[],"name":"RequestNotFound","type":"error"},{"inputs":[],"name":"Unauthorized","type":"error"},{"anonymous":false,"inputs":[{"indexed":true,"internalType":"bytes32","name":"boxId","type":"bytes32"},{"indexed":false,"internalType":"enum LootBox.BoxType","name":"boxType","type":"uint8"},{"indexed":false,"internalType":"enum LootBox.BoxStatus","name":"status","type":"uint8"},{"indexed":true,"internalType":"address","name":"owner","type":"address"},{"indexed":false,"internalType":"address","name":"prizeToken","type":"address"},{"indexed":false,"internalType":"uint256","name":"prizeAmount","type":"uint256"}],"name":"BoxCreated","type":"event"},{"anonymous":false,"inputs":[{"indexed":true,"internalType":"bytes32","name":"boxId","type":"bytes32"}],"name":"BoxDeleted","type":"event"},{"anonymous":false,"inputs":[{"indexed":true,"internalType":"bytes32","name":"boxId","type":"bytes32"},{"indexed":true,"internalType":"address","name":"owner","type":"address"}],"name":"BoxOpened","type":"event"},{"anonymous":false,"inputs":[{"indexed":true,"internalType":"bytes32","name":"boxId","type":"bytes32"},{"indexed":false,"internalType":"enum LootBox.BoxType","name":"boxType","type":"uint8"},{"indexed":false,"internalType":"enum LootBox.BoxStatus","name":"status","type":"uint8"},{"indexed":true,"internalType":"address","name":"owner","type":"address"}],"name":"BoxUpdated","type":"event"},{"anonymous":false,"inputs":[{"indexed":false,"internalType":"uint64","name":"version","type":"uint64"}],"name":"Initialized","type":"event"},{"anonymous":false,"inputs":[{"indexed":true,"internalType":"address","name":"previousOwner","type":"address"},{"indexed":true,"internalType":"address","name":"newOwner","type":"address"}],"name":"OwnershipTransferred","type":"event"},{"anonymous":false,"inputs":[{"indexed":true,"internalType":"bytes32","name":"requestId","type":"bytes32"},{"indexed":false,"internalType":"uint256[]","name":"randomWords","type":"uint256[]"},{"indexed":true,"internalType":"bytes32","name":"boxId","type":"bytes32"}],"name":"RandomWordsFulfilled","type":"event"},{"anonymous":false,"inputs":[{"indexed":true,"internalType":"bytes32","name":"requestId","type":"bytes32"},{"indexed":true,"internalType":"address","name":"requester","type":"address"},{"indexed":false,"internalType":"uint256","name":"numberOfWords","type":"uint256"},{"indexed":true,"internalType":"bytes32","name":"boxId","type":"bytes32"}],"name":"RandomWordsRequested","type":"event"},{"anonymous":false,"inputs":[{"indexed":true,"internalType":"bytes32","name":"boxId","type":"bytes32"},{"indexed":false,"internalType":"address","name":"prizeToken","type":"address"},{"indexed":false,"internalType":"uint256","name":"prizeAmount","type":"uint256"}],"name":"Refunded","type":"event"},{"anonymous":false,"inputs":[{"indexed":true,"internalType":"address","name":"oldOracle","type":"address"},{"indexed":true,"internalType":"address","name":"newOracle","type":"address"}],"name":"UpdateOracle","type":"event"},{"anonymous":false,"inputs":[{"indexed":true,"internalType":"bytes32","name":"boxId","type":"bytes32"},{"indexed":true,"internalType":"address","name":"loser","type":"address"}],"name":"UserLost","type":"event"},{"anonymous":false,"inputs":[{"indexed":true,"internalType":"bytes32","name":"boxId","type":"bytes32"},{"indexed":true,"internalType":"address","name":"winner","type":"address"},{"indexed":false,"internalType":"address","name":"prizeToken","type":"address"},{"indexed":false,"internalType":"uint256","name":"prizeAmount","type":"uint256"}],"name":"UserWon","type":"event"},{"inputs":[{"internalType":"bytes32","name":"","type":"bytes32"}],"name":"boxes","outputs":[{"internalType":"bytes32","name":"id","type":"bytes32"},{"internalType":"enum LootBox.BoxType","name":"boxType","type":"uint8"},{"internalType":"enum LootBox.BoxStatus","name":"status","type":"uint8"},{"internalType":"address","name":"owner","type":"address"},{"internalType":"address","name":"prizeToken","type":"address"},{"internalType":"uint256","name":"prizeAmount","type":"uint256"}],"stateMutability":"view","type":"function"},{"inputs":[{"internalType":"enum LootBox.BoxType","name":"boxType","type":"uint8"},{"internalType":"address","name":"prizeToken","type":"address"},{"internalType":"uint256","name":"prizeAmount","type":"uint256"}],"name":"createBox","outputs":[],"stateMutability":"payable","type":"function"},{"inputs":[{"internalType":"bytes32","name":"boxId","type":"bytes32"}],"name":"deleteBox","outputs":[],"stateMutability":"nonpayable","type":"function"},{"inputs":[{"internalType":"bytes32","name":"requestId","type":"bytes32"},{"internalType":"uint256[]","name":"_randomWords","type":"uint256[]"},{"internalType":"bytes32","name":"boxId","type":"bytes32"},{"internalType":"address","name":"requester","type":"address"},{"internalType":"bytes","name":"signature","type":"bytes"}],"name":"fulfillRandomWords","outputs":[],"stateMutability":"nonpayable","type":"function"},{"inputs":[{"internalType":"bytes32","name":"boxId","type":"bytes32"}],"name":"getBox","outputs":[{"components":[{"internalType":"bytes32","name":"id","type":"bytes32"},{"internalType":"enum LootBox.BoxType","name":"boxType","type":"uint8"},{"internalType":"enum LootBox.BoxStatus","name":"status","type":"uint8"},{"internalType":"address","name":"owner","type":"address"},{"internalType":"address","name":"prizeToken","type":"address"},{"internalType":"uint256","name":"prizeAmount","type":"uint256"}],"internalType":"struct LootBox.Box","name":"","type":"tuple"}],"stateMutability":"view","type":"function"},{"inputs":[{"internalType":"uint256","name":"index","type":"uint256"}],"name":"getBoxIdAt","outputs":[{"internalType":"bytes32","name":"","type":"bytes32"}],"stateMutability":"view","type":"function"},{"inputs":[],"name":"initialize","outputs":[],"stateMutability":"nonpayable","type":"function"},{"inputs":[],"name":"oracle","outputs":[{"internalType":"address","name":"","type":"address"}],"stateMutability":"view","type":"function"},{"inputs":[],"name":"owner","outputs":[{"internalType":"address","name":"","type":"address"}],"stateMutability":"view","type":"function"},{"inputs":[{"internalType":"bytes32","name":"","type":"bytes32"}],"name":"pendingRequests","outputs":[{"internalType":"bool","name":"","type":"bool"}],"stateMutability":"view","type":"function"},{"inputs":[],"name":"renounceOwnership","outputs":[],"stateMutability":"nonpayable","type":"function"},{"inputs":[{"internalType":"uint256","name":"numberOfWords","type":"uint256"},{"internalType":"bytes32","name":"boxId","type":"bytes32"}],"name":"requestRandomWords","outputs":[{"internalType":"bytes32","name":"requestId","type":"bytes32"}],"stateMutability":"nonpayable","type":"function"},{"inputs":[{"internalType":"address","name":"_newOracle","type":"address"}],"name":"setTrustedOracle","outputs":[],"stateMutability":"nonpayable","type":"function"},{"inputs":[],"name":"totalBoxes","outputs":[{"internalType":"uint256","name":"","type":"uint256"}],"stateMutability":"view","type":"function"},{"inputs":[{"internalType":"address","name":"newOwner","type":"address"}],"name":"transferOwnership","outputs":[],"stateMutability":"nonpayable","type":"function"},{"stateMutability":"payable","type":"receive"}],"evm":{"bytecode":{"linkReferences":{},"object":"60806040523480156200001157600080fd5b506200001c62000022565b620000d6565b7ff0c57e16840df040f15088dc2f81fe391c3923bec73e23a9662efc9c229c6a00805468010000000000000000900460ff1615620000735760405163f92ee8a960e01b815260040160405180910390fd5b80546001600160401b0390811614620000d35780546001600160401b0319166001600160401b0390811782556040519081527fc7f505b2f371ae2175ee4913f4499e1f2633a7b5936321eed1cdaeb6115181d29060200160405180910390a15b50565b61268f80620000e66000396000f3fe6080604052600436106100bc5760003560e01c80630589c970146100c85780632795ad201461014657806349f769981461018657806357e78adc1461019b578063715018a6146101be5780637dc0d1d0146101d35780638129fc1c146102005780638da5cb5b14610215578063a46e717e1461022a578063a55f05651461024a578063b22bd29814610277578063c401842714610297578063cf611c45146102b7578063ef31d20e146102d7578063f2fde38b146102f757600080fd5b366100c357005b600080fd5b3480156100d457600080fd5b5061012b6100e3366004611fed565b6004602052600090815260409020805460018201546002830154600390930154919260ff808316936101008404909116926001600160a01b0362010000909104811692169086565b60405161013d9695949392919061203a565b60405180910390f35b34801561015257600080fd5b50610176610161366004611fed565b60036020526000908152604090205460ff1681565b604051901515815260200161013d565b6101996101943660046120a0565b610317565b005b3480156101a757600080fd5b506101b06105ae565b60405190815260200161013d565b3480156101ca57600080fd5b506101996105bf565b3480156101df57600080fd5b506000546101f3906001600160a01b031681565b60405161013d91906120e2565b34801561020c57600080fd5b506101996105d3565b34801561022157600080fd5b506101f361070d565b34801561023657600080fd5b50610199610245366004611fed565b610728565b34801561025657600080fd5b5061026a610265366004611fed565b610763565b60405161013d91906120f6565b34801561028357600080fd5b50610199610292366004612159565b610885565b3480156102a357600080fd5b506101b06102b2366004611fed565b61093e565b3480156102c357600080fd5b506101996102d23660046121cb565b61099f565b3480156102e357600080fd5b506101b06102f23660046122d4565b610fb9565b34801561030357600080fd5b50610199610312366004612159565b61127a565b61031f6112b5565b600081116103835760405162461bcd60e51b815260206004820152602660248201527f5072697a6520616d6f756e74206d7573742062652067726561746572207468616044820152656e207a65726f60d01b60648201526084015b60405180910390fd5b600061038d6112e7565b905061039a600582611391565b156103df5760405162461bcd60e51b8152602060048201526015602482015274426f7820494420616c72656164792065786973747360581b604482015260640161037a565b6040518060c0016040528082815260200185600181111561040257610402612006565b815260016020808301829052600060408085018290526001600160a01b038916606086015260809094018790528581526004825292909220835181559183015182820180549192909160ff191690838181111561046157610461612006565b021790555060408201518160010160016101000a81548160ff0219169083600181111561049057610490612006565b0217905550606082015160018201805462010000600160b01b031916620100006001600160a01b039384160217905560808301516002830180546001600160a01b0319169190921617905560a0909101516003909101556104f26005826113a4565b506001600160a01b0383166105525781341461054d5760405162461bcd60e51b815260206004820152601a602482015279125b98dbdc9c9958dd08195d1a195c881d985b1d59481cd95b9d60321b604482015260640161037a565b61055e565b61055e833330856113b0565b60006001600160a01b0316817fc3ee22ee6bfb7ea87d4b424f2fdf8d27fbc3eb99d90b50cc187b26ef74e0056886600187876040516105a094939291906122f6565b60405180910390a350505050565b60006105ba6005611421565b905090565b6105c76112b5565b6105d1600061142b565b565b60006105dd611487565b805490915060ff600160401b82041615906001600160401b03166000811580156106045750825b90506000826001600160401b031660011480156106205750303b155b90508115801561062e575080155b1561064c5760405163f92ee8a960e01b815260040160405180910390fd5b84546001600160401b0319166001178555831561067557845460ff60401b1916600160401b1785555b61067e336114b0565b6106866114c1565b6040516001600160601b03193360601b16602082015242603482015260540160408051601f198184030181529190528051602090910120600155831561070657845460ff60401b19168555604051600181527fc7f505b2f371ae2175ee4913f4499e1f2633a7b5936321eed1cdaeb6115181d29060200160405180910390a15b5050505050565b6000806107186114d1565b546001600160a01b031692915050565b6107306112b5565b61073b600582611391565b6107575760405162461bcd60e51b815260040161037a90612333565b610760816114f5565b50565b61079d6040805160c08101909152600080825260208201908152602001600081526000602082018190526040820181905260609091015290565b6107a8600583611391565b6107c45760405162461bcd60e51b815260040161037a90612333565b600082815260046020908152604091829020825160c0810190935280548352600180820154919284019160ff169081111561080157610801612006565b600181111561081257610812612006565b81526020016001820160019054906101000a900460ff16600181111561083a5761083a612006565b600181111561084b5761084b612006565b815260018201546001600160a01b036201000090910481166020830152600283015416604082015260039091015460609091015292915050565b61088d6112b5565b6001600160a01b0381166108e35760405162461bcd60e51b815260206004820152601d60248201527f4f7261636c6520616464726573732063616e6e6f74206265207a65726f000000604482015260640161037a565b600080546040516001600160a01b03808516939216917fb1d1442dba579887e297ac433e5716c847abf2dc052ee9de4869b7b1b8f6206d91a3600080546001600160a01b0319166001600160a01b0392909216919091179055565b600061094a6005611421565b821061098e5760405162461bcd60e51b8152602060048201526013602482015272496e646578206f7574206f6620626f756e647360681b604482015260640161037a565b610999600583611568565b92915050565b6000546001600160a01b031633146109c9576040516282b42960e81b815260040160405180910390fd5b6109d1611574565b60008681526003602052604090205460ff16610a0057604051632589d98f60e11b815260040160405180910390fd5b610a0e8686868686866115aa565b610a2b57604051638baa579f60e01b815260040160405180910390fd5b610a36600585611391565b610a525760405162461bcd60e51b815260040161037a90612333565b600084815260046020526040902060018082810154610100900460ff1690811115610a7f57610a7f612006565b14610abd5760405162461bcd60e51b815260206004820152600e60248201526d105b1c9958591e481bdc195b995960921b604482015260640161037a565b60018101546201000090046001600160a01b031615610b0e5760405162461bcd60e51b815260206004820152600d60248201526c2137bc103430b99037bbb732b960991b604482015260640161037a565b600181018054610100600160b01b031916620100006001600160a01b03871602179055855160009060029088908390610b4957610b4961235d565b6020026020010151610b5b9190612389565b6000149050610bab6040518060400160405280600f81526020016e02930b73237b690373ab6b132b91d1608d1b81525088600081518110610b9e57610b9e61235d565b602002602001015161167d565b610bd86040518060400160405280600b81526020016a02932b8bab2b9ba32b91d160ad1b815250866116c6565b60408051808201909152600a81526902137bc102a3cb8329d160b51b6020820152600180840154610c1e929160ff90911690811115610c1957610c19612006565b61167d565b610c526040518060400160405280600e81526020016d0283934bd329020b6b7bab73a1d160951b815250836003015461167d565b610c796040518060400160405280600581526020016402bb7b71d160dd1b8152508261170b565b60408051808201909152600d81526c0283934bd32902a37b5b2b71d1609d1b60208201526002830154610cb591906001600160a01b03166116c6565b8015610f1e5760006001808085015460ff1690811115610cd757610cd7612006565b14610ce6578260030154610d32565b60648089600081518110610cfc57610cfc61235d565b6020026020010151610d0e9190612389565b610d199060016123b3565b8460030154610d2891906123c6565b610d3291906123dd565b90506000818460030154610d4691906123f1565b9050610d9e6040518060400160405280600881526020016702830bcb7baba1d160c51b81525083604051806040016040528060128152602001710102932b6b0b4b734b73390283934bd329d160751b81525084611750565b60028401546001600160a01b0316610e0857610dba8783611799565b8015610dd157610dd1610dcb61070d565b82611799565b610e03604051806040016040528060118152602001702a3930b739b332b93932b21032ba3432b960791b81525061187a565b610e7a565b6002840154610e21906001600160a01b031688846118bd565b8015610e47576002840154610e47906001600160a01b0316610e4161070d565b836118bd565b610e7a604051806040016040528060128152602001715472616e7366657272656420746f6b656e7360701b81525061187a565b60028401546040516001600160a01b03808a16928b927f6ca0da92c4797a558f7e777695e71010ca0bbf7b7007b7e0402c5921a25fb4d892610ebf9216908790612404565b60405180910390a38015610f1757600284015460405189917ff552ca82e113ac3c539c3d617f29fcd19c172a0c75dad017555c9e109f7fe18391610f0e916001600160a01b0316908590612404565b60405180910390a25b5050610f55565b6040516001600160a01b0386169087907f059c544c2595303434d37bd8ee8af000818be6066beb8c37844d43f7ee80a44490600090a35b60008881526003602052604090819020805460ff1916905551869089907fc9245471e1eda01df96ac978bd431512e8e4f71c9541c7d946973b851391d8ad90610f9f908b9061241d565b60405180910390a35050610fb16118c8565b505050505050565b6000610fc6600583611391565b610fe25760405162461bcd60e51b815260040161037a90612333565b60016000838152600460205260409020600190810154610100900460ff169081111561101057611010612006565b146110525760405162461bcd60e51b8152602060048201526012602482015271109bde08185b1c9958591e481bdc195b995960721b604482015260640161037a565b6000828152600460205260409020600101546201000090046001600160a01b0316156110b85760405162461bcd60e51b81526020600482015260156024820152742137bc1030b63932b0b23c903430b99037bbb732b960591b604482015260640161037a565b6000831180156110c95750600a8311155b61110a5760405162461bcd60e51b8152602060048201526012602482015271125b9d985b1a59081ddbdc990818dbdd5b9d60721b604482015260640161037a565b334260015460405160200161112193929190612461565b6040516020818303038152906040528051906020012060001c6001819055506001544244333087876002600081548092919061115c90612486565b9091555060408051602081019990995288019690965260608088019590955292841b6001600160601b031990811660808801529190931b16609485015260a884019190915260c883015260e88201526101080160408051601f1981840301815291815281516020928301206000818152600390935291205490915060ff161561121b5760405162461bcd60e51b8152602060048201526011602482015270526571756573742049442065786973747360781b604482015260640161037a565b60008181526003602052604090819020805460ff19166001179055518290339083907fe597616bcc7ad3b09b316c7123410af4695ed18f3ffcaebb95cfd266755412fb9061126c9088815260200190565b60405180910390a492915050565b6112826112b5565b6001600160a01b0381166112ac576000604051631e4fbdf760e01b815260040161037a91906120e2565b6107608161142b565b336112be61070d565b6001600160a01b0316146105d1573360405163118cdaa760e01b815260040161037a91906120e2565b6000334260015460405160200161130093929190612461565b60408051601f198184030181529190528051602090910120600181905560028054429244923392309291600061133583612486565b909155506040805160208101979097528601949094526001600160601b0319606093841b8116848701529190921b166074840152608883015260a882015260c80160405160208183030381529060405280519060200120905090565b600061139d83836118d9565b9392505050565b600061139d83836118f1565b6040516001600160a01b038085166024830152831660448201526064810182905261141b9085906323b872dd60e01b906084015b60408051601f198184030181529190526020810180516001600160e01b03166001600160e01b03199093169290921790915261193b565b50505050565b6000610999825490565b60006114356114d1565b80546001600160a01b038481166001600160a01b031983168117845560405193945091169182907f8be0079c531659141344cd1fd0a4f28419497f9722a3daafe3b4186f6b6457e090600090a3505050565b6000807ff0c57e16840df040f15088dc2f81fe391c3923bec73e23a9662efc9c229c6a00610999565b6114b8611a10565b61076081611a35565b6114c9611a10565b6105d1611a3d565b7f9016d09d72d40fdae2fd8ceac6b6234c7706214fd39c1cd1e609a0528c19930090565b60008181526004602052604081208181556001810180546001600160b01b03191690556002810180546001600160a01b031916905560030155611539600582611a45565b5060405181907f606ce84a58beebdd8abdd4bb24672fc015a5eb5a7be08a9d2f4023a920c8e7dd90600090a250565b600061139d8383611a51565b600061157e611a7b565b8054909150600119016115a457604051633ee5aeb560e01b815260040160405180910390fd5b60029055565b600080878787876040516020016115c4949392919061249f565b6040516020818303038152906040528051906020012090506000611614827b0ca2ba3432b932bab69029b4b3b732b21026b2b9b9b0b3b29d05199960211b6000908152601c91909152603c902090565b600054604080516020601f89018190048102820181019092528781529293506001600160a01b0390911691611666918491908990899081908401838280828437600092019190915250611a9f92505050565b6001600160a01b0316149998505050505050505050565b6116c28282604051602401611693929190612545565b60408051601f198184030181529190526020810180516001600160e01b0316632d839cb360e21b179052611ac3565b5050565b6116c282826040516024016116dc929190612567565b60408051601f198184030181529190526020810180516001600160e01b031663319af33360e01b179052611ac3565b6116c28282604051602401611721929190612591565b60408051601f198184030181529190526020810180516001600160e01b031663c3b5563560e01b179052611ac3565b61141b8484848460405160240161176a94939291906125b5565b60408051601f198184030181529190526020810180516001600160e01b031663c67ea9d160e01b179052611ac3565b804710156117dc5760405162461bcd60e51b815260206004820152601060248201526f092dce6eaccccd2c6d2cadce8408aa8960831b604482015260640161037a565b6000826001600160a01b03168260405160006040518083038185875af1925050503d8060008114611829576040519150601f19603f3d011682016040523d82523d6000602084013e61182e565b606091505b50509050806118755760405162461bcd60e51b8152602060048201526013602482015272115512081d1c985b9cd9995c8819985a5b1959606a1b604482015260640161037a565b505050565b6107608160405160240161188e91906125f2565b60408051601f198184030181529190526020810180516001600160e01b031663104c13eb60e21b179052611ac3565b611875838383611acc565b60006118d2611a7b565b6001905550565b60009081526001919091016020526040902054151590565b60006118fd83836118d9565b61193357508154600181810184556000848152602080822090930184905584548482528286019093526040902091909155610999565b506000610999565b6000611990826040518060400160405280602081526020017f5361666545524332303a206c6f772d6c6576656c2063616c6c206661696c6564815250856001600160a01b0316611aeb9092919063ffffffff16565b90508051600014806119b15750808060200190518101906119b19190612605565b6118755760405162461bcd60e51b815260206004820152602a60248201527f5361666545524332303a204552433230206f7065726174696f6e20646964206e6044820152691bdd081cdd58d8d9595960b21b606482015260840161037a565b611a18611b02565b6105d157604051631afcd79f60e31b815260040160405180910390fd5b611282611a10565b6118c8611a10565b600061139d8383611b1c565b6000826000018281548110611a6857611a6861235d565b9060005260206000200154905092915050565b7f9b779b17422d0df92223018b32b4d1fa46e071723d6817e2486d003becc55f0090565b6000806000611aae8585611c0f565b91509150611abb81611c54565b509392505050565b61076081611d99565b6118758363a9059cbb60e01b84846040516024016113e4929190612404565b6060611afa8484600085611dba565b949350505050565b6000611b0c611487565b54600160401b900460ff16919050565b60008181526001830160205260408120548015611c05576000611b406001836123f1565b8554909150600090611b54906001906123f1565b9050818114611bb9576000866000018281548110611b7457611b7461235d565b9060005260206000200154905080876000018481548110611b9757611b9761235d565b6000918252602080832090910192909255918252600188019052604090208390555b8554869080611bca57611bca612627565b600190038181906000526020600020016000905590558560010160008681526020019081526020016000206000905560019350505050610999565b6000915050610999565b6000808251604103611c455760208301516040840151606085015160001a611c3987828585611e95565b94509450505050611c4d565b506000905060025b9250929050565b6000816004811115611c6857611c68612006565b03611c705750565b6001816004811115611c8457611c84612006565b03611ccc5760405162461bcd60e51b815260206004820152601860248201527745434453413a20696e76616c6964207369676e617475726560401b604482015260640161037a565b6002816004811115611ce057611ce0612006565b03611d2d5760405162461bcd60e51b815260206004820152601f60248201527f45434453413a20696e76616c6964207369676e6174757265206c656e67746800604482015260640161037a565b6003816004811115611d4157611d41612006565b036107605760405162461bcd60e51b815260206004820152602260248201527f45434453413a20696e76616c6964207369676e6174757265202773272076616c604482015261756560f01b606482015260840161037a565b60006a636f6e736f6c652e6c6f679050600080835160208501845afa505050565b606082471015611e1b5760405162461bcd60e51b815260206004820152602660248201527f416464726573733a20696e73756666696369656e742062616c616e636520666f6044820152651c8818d85b1b60d21b606482015260840161037a565b600080866001600160a01b03168587604051611e37919061263d565b60006040518083038185875af1925050503d8060008114611e74576040519150601f19603f3d011682016040523d82523d6000602084013e611e79565b606091505b5091509150611e8a87838387611f4f565b979650505050505050565b6000806fa2a8918ca85bafe22016d0b997e4df60600160ff1b03831115611ec25750600090506003611f46565b6040805160008082526020820180845289905260ff881692820192909252606081018690526080810185905260019060a0016020604051602081039080840390855afa158015611f16573d6000803e3d6000fd5b5050604051601f1901519150506001600160a01b038116611f3f57600060019250925050611f46565b9150600090505b94509492505050565b60608315611fbe578251600003611fb7576001600160a01b0385163b611fb75760405162461bcd60e51b815260206004820152601d60248201527f416464726573733a2063616c6c20746f206e6f6e2d636f6e7472616374000000604482015260640161037a565b5081611afa565b611afa8383815115611fd35781518083602001fd5b8060405162461bcd60e51b815260040161037a91906125f2565b600060208284031215611fff57600080fd5b5035919050565b634e487b7160e01b600052602160045260246000fd5b6002811061076057634e487b7160e01b600052602160045260246000fd5b86815260c0810161204a8761201c565b8660208301526120598661201c565b60408201959095526001600160a01b03938416606082015291909216608082015260a0015292915050565b80356001600160a01b038116811461209b57600080fd5b919050565b6000806000606084860312156120b557600080fd5b8335600281106120c457600080fd5b92506120d260208501612084565b9150604084013590509250925092565b6001600160a01b0391909116815260200190565b81518152602082015160c082019061210d8161201c565b602083015260408301516121208161201c565b80604084015250606083015160018060a01b038082166060850152806080860151166080850152505060a083015160a083015292915050565b60006020828403121561216b57600080fd5b61139d82612084565b634e487b7160e01b600052604160045260246000fd5b60008083601f84011261219c57600080fd5b5081356001600160401b038111156121b357600080fd5b602083019150836020828501011115611c4d57600080fd5b60008060008060008060a087890312156121e457600080fd5b863595506020808801356001600160401b038082111561220357600080fd5b818a0191508a601f83011261221757600080fd5b81358181111561222957612229612174565b8060051b604051601f19603f8301168101818110858211171561224e5761224e612174565b6040529182528381018501918581018e84111561226a57600080fd5b948601945b83861015612286578535815294860194860161226f565b509950505060408a0135965061229e60608b01612084565b955060808a01359250808311156122b457600080fd5b50506122c289828a0161218a565b979a9699509497509295939492505050565b600080604083850312156122e757600080fd5b50508035926020909101359150565b608081016123038661201c565b85825261230f8561201c565b60208201949094526001600160a01b03929092166040830152606090910152919050565b60208082526010908201526f109bde081251081b9bdd08199bdd5b9960821b604082015260600190565b634e487b7160e01b600052603260045260246000fd5b634e487b7160e01b600052601260045260246000fd5b60008261239857612398612373565b500690565b634e487b7160e01b600052601160045260246000fd5b808201808211156109995761099961239d565b80820281158282048414176109995761099961239d565b6000826123ec576123ec612373565b500490565b818103818111156109995761099961239d565b6001600160a01b03929092168252602082015260400190565b6020808252825182820181905260009190848201906040850190845b8181101561245557835183529284019291840191600101612439565b50909695505050505050565b60609390931b6001600160601b03191683526014830191909152603482015260540190565b6000600182016124985761249861239d565b5060010190565b84815260006020808301865182880160005b828110156124cd578151845292840192908401906001016124b1565b50505094855260609390931b6001600160601b03191692840192909252505060340192915050565b60005b838110156125105781810151838201526020016124f8565b50506000910152565b600081518084526125318160208601602086016124f5565b601f01601f19169290920160200192915050565b6040815260006125586040830185612519565b90508260208301529392505050565b60408152600061257a6040830185612519565b905060018060a01b03831660208301529392505050565b6040815260006125a46040830185612519565b905082151560208301529392505050565b6080815260006125c86080830187612519565b85602084015282810360408401526125e08186612519565b91505082606083015295945050505050565b60208152600061139d6020830184612519565b60006020828403121561261757600080fd5b8151801515811461139d57600080fd5b634e487b7160e01b600052603160045260246000fd5b6000825161264f8184602087016124f5565b919091019291505056fea264697066735822122000e04ef8b53c0cef6f324ff9c477a05c0af14875ce24eed73ff0ee3160ae786964736f6c63430008140033","opcodes":"PUSH1 0x80 PUSH1 0x40 MSTORE CALLVALUE DUP1 ISZERO PUSH3 0x11 JUMPI PUSH1 0x0 DUP1 REVERT JUMPDEST POP PUSH3 0x1C PUSH3 0x22 JUMP JUMPDEST PUSH3 0xD6 JUMP JUMPDEST PUSH32 0xF0C57E16840DF040F15088DC2F81FE391C3923BEC73E23A9662EFC9C229C6A00 DUP1 SLOAD PUSH9 0x10000000000000000 SWAP1 DIV PUSH1 0xFF AND ISZERO PUSH3 0x73 JUMPI PUSH1 0x40 MLOAD PUSH4 0xF92EE8A9 PUSH1 0xE0 SHL DUP2 MSTORE PUSH1 0x4 ADD PUSH1 0x40 MLOAD DUP1 SWAP2 SUB SWAP1 REVERT JUMPDEST DUP1 SLOAD PUSH1 0x1 PUSH1 0x1 PUSH1 0x40 SHL SUB SWAP1 DUP2 AND EQ PUSH3 0xD3 JUMPI DUP1 SLOAD PUSH1 0x1 PUSH1 0x1 PUSH1 0x40 SHL SUB NOT AND PUSH1 0x1 PUSH1 0x1 PUSH1 0x40 SHL SUB SWAP1 DUP2 OR DUP3 SSTORE PUSH1 0x40 MLOAD SWAP1 DUP2 MSTORE PUSH32 0xC7F505B2F371AE2175EE4913F4499E1F2633A7B5936321EED1CDAEB6115181D2 SWAP1 PUSH1 0x20 ADD PUSH1 0x40 MLOAD DUP1 SWAP2 SUB SWAP1 LOG1 JUMPDEST POP JUMP JUMPDEST PUSH2 0x268F DUP1 PUSH3 0xE6 PUSH1 0x0 CODECOPY PUSH1 0x0 RETURN INVALID PUSH1 0x80 PUSH1 0x40 MSTORE PUSH1 0x4 CALLDATASIZE LT PUSH2 0xBC JUMPI PUSH1 0x0 CALLDATALOAD PUSH1 0xE0 SHR DUP1 PUSH4 0x589C970 EQ PUSH2 0xC8 JUMPI DUP1 PUSH4 0x2795AD20 EQ PUSH2 0x146 JUMPI DUP1 PUSH4 0x49F76998 EQ PUSH2 0x186 JUMPI DUP1 PUSH4 0x57E78ADC EQ PUSH2 0x19B JUMPI DUP1 PUSH4 0x715018A6 EQ PUSH2 0x1BE JUMPI DUP1 PUSH4 0x7DC0D1D0 EQ PUSH2 0x1D3 JUMPI DUP1 PUSH4 0x8129FC1C EQ PUSH2 0x200 JUMPI DUP1 PUSH4 0x8DA5CB5B EQ PUSH2 0x215 JUMPI DUP1 PUSH4 0xA46E717E EQ PUSH2 0x22A JUMPI DUP1 PUSH4 0xA55F0565 EQ PUSH2 0x24A JUMPI DUP1 PUSH4 0xB22BD298 EQ PUSH2 0x277 JUMPI DUP1 PUSH4 0xC4018427 EQ PUSH2 0x297 JUMPI DUP1 PUSH4 0xCF611C45 EQ PUSH2 0x2B7 JUMPI DUP1 PUSH4 0xEF31D20E EQ PUSH2 0x2D7 JUMPI DUP1 PUSH4 0xF2FDE38B EQ PUSH2 0x2F7 JUMPI PUSH1 0x0 DUP1 REVERT JUMPDEST CALLDATASIZE PUSH2 0xC3 JUMPI STOP JUMPDEST PUSH1 0x0 DUP1 REVERT JUMPDEST CALLVALUE DUP1 ISZERO PUSH2 0xD4 JUMPI PUSH1 0x0 DUP1 REVERT JUMPDEST POP PUSH2 0x12B PUSH2 0xE3 CALLDATASIZE PUSH1 0x4 PUSH2 0x1FED JUMP JUMPDEST PUSH1 0x4 PUSH1 0x20 MSTORE PUSH1 0x0 SWAP1 DUP2 MSTORE PUSH1 0x40 SWAP1 KECCAK256 DUP1 SLOAD PUSH1 0x1 DUP3 ADD SLOAD PUSH1 0x2 DUP4 ADD SLOAD PUSH1 0x3 SWAP1 SWAP4 ADD SLOAD SWAP2 SWAP3 PUSH1 0xFF DUP1 DUP4 AND SWAP4 PUSH2 0x100 DUP5 DIV SWAP1 SWAP2 AND SWAP3 PUSH1 0x1 PUSH1 0x1 PUSH1 0xA0 SHL SUB PUSH3 0x10000 SWAP1 SWAP2 DIV DUP2 AND SWAP3 AND SWAP1 DUP7 JUMP JUMPDEST PUSH1 0x40 MLOAD PUSH2 0x13D SWAP7 SWAP6 SWAP5 SWAP4 SWAP3 SWAP2 SWAP1 PUSH2 0x203A JUMP JUMPDEST PUSH1 0x40 MLOAD DUP1 SWAP2 SUB SWAP1 RETURN JUMPDEST CALLVALUE DUP1 ISZERO PUSH2 0x152 JUMPI PUSH1 0x0 DUP1 REVERT JUMPDEST POP PUSH2 0x176 PUSH2 0x161 CALLDATASIZE PUSH1 0x4 PUSH2 0x1FED JUMP JUMPDEST PUSH1 0x3 PUSH1 0x20 MSTORE PUSH1 0x0 SWAP1 DUP2 MSTORE PUSH1 0x40 SWAP1 KECCAK256 SLOAD PUSH1 0xFF AND DUP2 JUMP JUMPDEST PUSH1 0x40 MLOAD SWAP1 ISZERO ISZERO DUP2 MSTORE PUSH1 0x20 ADD PUSH2 0x13D JUMP JUMPDEST PUSH2 0x199 PUSH2 0x194 CALLDATASIZE PUSH1 0x4 PUSH2 0x20A0 JUMP JUMPDEST PUSH2 0x317 JUMP JUMPDEST STOP JUMPDEST CALLVALUE DUP1 ISZERO PUSH2 0x1A7 JUMPI PUSH1 0x0 DUP1 REVERT JUMPDEST POP PUSH2 0x1B0 PUSH2 0x5AE JUMP JUMPDEST PUSH1 0x40 MLOAD SWAP1 DUP2 MSTORE PUSH1 0x20 ADD PUSH2 0x13D JUMP JUMPDEST CALLVALUE DUP1 ISZERO PUSH2 0x1CA JUMPI PUSH1 0x0 DUP1 REVERT JUMPDEST POP PUSH2 0x199 PUSH2 0x5BF JUMP JUMPDEST CALLVALUE DUP1 ISZERO PUSH2 0x1DF JUMPI PUSH1 0x0 DUP1 REVERT JUMPDEST POP PUSH1 0x0 SLOAD PUSH2 0x1F3 SWAP1 PUSH1 0x1 PUSH1 0x1 PUSH1 0xA0 SHL SUB AND DUP2 JUMP JUMPDEST PUSH1 0x40 MLOAD PUSH2 0x13D SWAP2 SWAP1 PUSH2 0x20E2 JUMP JUMPDEST CALLVALUE DUP1 ISZERO PUSH2 0x20C JUMPI PUSH1 0x0 DUP1 REVERT JUMPDEST POP PUSH2 0x199 PUSH2 0x5D3 JUMP JUMPDEST CALLVALUE DUP1 ISZERO PUSH2 0x221 JUMPI PUSH1 0x0 DUP1 REVERT JUMPDEST POP PUSH2 0x1F3 PUSH2 0x70D JUMP JUMPDEST CALLVALUE DUP1 ISZERO PUSH2 0x236 JUMPI PUSH1 0x0 DUP1 REVERT JUMPDEST POP PUSH2 0x199 PUSH2 0x245 CALLDATASIZE PUSH1 0x4 PUSH2 0x1FED JUMP JUMPDEST PUSH2 0x728 JUMP JUMPDEST CALLVALUE DUP1 ISZERO PUSH2 0x256 JUMPI PUSH1 0x0 DUP1 REVERT JUMPDEST POP PUSH2 0x26A PUSH2 0x265 CALLDATASIZE PUSH1 0x4 PUSH2 0x1FED JUMP JUMPDEST PUSH2 0x763 JUMP JUMPDEST PUSH1 0x40 MLOAD PUSH2 0x13D SWAP2 SWAP1 PUSH2 0x20F6 JUMP JUMPDEST CALLVALUE DUP1 ISZERO PUSH2 0x283 JUMPI PUSH1 0x0 DUP1 REVERT JUMPDEST POP PUSH2 0x199 PUSH2 0x292 CALLDATASIZE PUSH1 0x4 PUSH2 0x2159 JUMP JUMPDEST PUSH2 0x885 JUMP JUMPDEST CALLVALUE DUP1 ISZERO PUSH2 0x2A3 JUMPI PUSH1 0x0 DUP1 REVERT JUMPDEST POP PUSH2 0x1B0 PUSH2 0x2B2 CALLDATASIZE PUSH1 0x4 PUSH2 0x1FED JUMP JUMPDEST PUSH2 0x93E JUMP JUMPDEST CALLVALUE DUP1 ISZERO PUSH2 0x2C3 JUMPI PUSH1 0x0 DUP1 REVERT JUMPDEST POP PUSH2 0x199 PUSH2 0x2D2 CALLDATASIZE PUSH1 0x4 PUSH2 0x21CB JUMP JUMPDEST PUSH2 0x99F JUMP JUMPDEST CALLVALUE DUP1 ISZERO PUSH2 0x2E3 JUMPI PUSH1 0x0 DUP1 REVERT JUMPDEST POP PUSH2 0x1B0 PUSH2 0x2F2 CALLDATASIZE PUSH1 0x4 PUSH2 0x22D4 JUMP JUMPDEST PUSH2 0xFB9 JUMP JUMPDEST CALLVALUE DUP1 ISZERO PUSH2 0x303 JUMPI PUSH1 0x0 DUP1 REVERT JUMPDEST POP PUSH2 0x199 PUSH2 0x312 CALLDATASIZE PUSH1 0x4 PUSH2 0x2159 JUMP JUMPDEST PUSH2 0x127A JUMP JUMPDEST PUSH2 0x31F PUSH2 0x12B5 JUMP JUMPDEST PUSH1 0x0 DUP2 GT PUSH2 0x383 JUMPI PUSH1 0x40 MLOAD PUSH3 0x461BCD PUSH1 0xE5 SHL DUP2 MSTORE PUSH1 0x20 PUSH1 0x4 DUP3 ADD MSTORE PUSH1 0x26 PUSH1 0x24 DUP3 ADD MSTORE PUSH32 0x5072697A6520616D6F756E74206D757374206265206772656174657220746861 PUSH1 0x44 DUP3 ADD MSTORE PUSH6 0x6E207A65726F PUSH1 0xD0 SHL PUSH1 0x64 DUP3 ADD MSTORE PUSH1 0x84 ADD JUMPDEST PUSH1 0x40 MLOAD DUP1 SWAP2 SUB SWAP1 REVERT JUMPDEST PUSH1 0x0 PUSH2 0x38D PUSH2 0x12E7 JUMP JUMPDEST SWAP1 POP PUSH2 0x39A PUSH1 0x5 DUP3 PUSH2 0x1391 JUMP JUMPDEST ISZERO PUSH2 0x3DF JUMPI PUSH1 0x40 MLOAD PUSH3 0x461BCD PUSH1 0xE5 SHL DUP2 MSTORE PUSH1 0x20 PUSH1 0x4 DUP3 ADD MSTORE PUSH1 0x15 PUSH1 0x24 DUP3 ADD MSTORE PUSH21 0x426F7820494420616C726561647920657869737473 PUSH1 0x58 SHL PUSH1 0x44 DUP3 ADD MSTORE PUSH1 0x64 ADD PUSH2 0x37A JUMP JUMPDEST PUSH1 0x40 MLOAD DUP1 PUSH1 0xC0 ADD PUSH1 0x40 MSTORE DUP1 DUP3 DUP2 MSTORE PUSH1 0x20 ADD DUP6 PUSH1 0x1 DUP2 GT ISZERO PUSH2 0x402 JUMPI PUSH2 0x402 PUSH2 0x2006 JUMP JUMPDEST DUP2 MSTORE PUSH1 0x1 PUSH1 0x20 DUP1 DUP4 ADD DUP3 SWAP1 MSTORE PUSH1 0x0 PUSH1 0x40 DUP1 DUP6 ADD DUP3 SWAP1 MSTORE PUSH1 0x1 PUSH1 0x1 PUSH1 0xA0 SHL SUB DUP10 AND PUSH1 0x60 DUP7 ADD MSTORE PUSH1 0x80 SWAP1 SWAP5 ADD DUP8 SWAP1 MSTORE DUP6 DUP2 MSTORE PUSH1 0x4 DUP3 MSTORE SWAP3 SWAP1 SWAP3 KECCAK256 DUP4 MLOAD DUP2 SSTORE SWAP2 DUP4 ADD MLOAD DUP3 DUP3 ADD DUP1 SLOAD SWAP2 SWAP3 SWAP1 SWAP2 PUSH1 0xFF NOT AND SWAP1 DUP4 DUP2 DUP2 GT ISZERO PUSH2 0x461 JUMPI PUSH2 0x461 PUSH2 0x2006 JUMP JUMPDEST MUL OR SWAP1 SSTORE POP PUSH1 0x40 DUP3 ADD MLOAD DUP2 PUSH1 0x1 ADD PUSH1 0x1 PUSH2 0x100 EXP DUP2 SLOAD DUP2 PUSH1 0xFF MUL NOT AND SWAP1 DUP4 PUSH1 0x1 DUP2 GT ISZERO PUSH2 0x490 JUMPI PUSH2 0x490 PUSH2 0x2006 JUMP JUMPDEST MUL OR SWAP1 SSTORE POP PUSH1 0x60 DUP3 ADD MLOAD PUSH1 0x1 DUP3 ADD DUP1 SLOAD PUSH3 0x10000 PUSH1 0x1 PUSH1 0xB0 SHL SUB NOT AND PUSH3 0x10000 PUSH1 0x1 PUSH1 0x1 PUSH1 0xA0 SHL SUB SWAP4 DUP5 AND MUL OR SWAP1 SSTORE PUSH1 0x80 DUP4 ADD MLOAD PUSH1 0x2 DUP4 ADD DUP1 SLOAD PUSH1 0x1 PUSH1 0x1 PUSH1 0xA0 SHL SUB NOT AND SWAP2 SWAP1 SWAP3 AND OR SWAP1 SSTORE PUSH1 0xA0 SWAP1 SWAP2 ADD MLOAD PUSH1 0x3 SWAP1 SWAP2 ADD SSTORE PUSH2 0x4F2 PUSH1 0x5 DUP3 PUSH2 0x13A4 JUMP JUMPDEST POP PUSH1 0x1 PUSH1 0x1 PUSH1 0xA0 SHL SUB DUP4 AND PUSH2 0x552 JUMPI DUP2 CALLVALUE EQ PUSH2 0x54D JUMPI PUSH1 0x40 MLOAD PUSH3 0x461BCD PUSH1 0xE5 SHL DUP2 MSTORE PUSH1 0x20 PUSH1 0x4 DUP3 ADD MSTORE PUSH1 0x1A PUSH1 0x24 DUP3 ADD MSTORE PUSH26 0x125B98DBDC9C9958DD08195D1A195C881D985B1D59481CD95B9D PUSH1 0x32 SHL PUSH1 0x44 DUP3 ADD MSTORE PUSH1 0x64 ADD PUSH2 0x37A JUMP JUMPDEST PUSH2 0x55E JUMP JUMPDEST PUSH2 0x55E DUP4 CALLER ADDRESS DUP6 PUSH2 0x13B0 JUMP JUMPDEST PUSH1 0x0 PUSH1 0x1 PUSH1 0x1 PUSH1 0xA0 SHL SUB AND DUP2 PUSH32 0xC3EE22EE6BFB7EA87D4B424F2FDF8D27FBC3EB99D90B50CC187B26EF74E00568 DUP7 PUSH1 0x1 DUP8 DUP8 PUSH1 0x40 MLOAD PUSH2 0x5A0 SWAP5 SWAP4 SWAP3 SWAP2 SWAP1 PUSH2 0x22F6 JUMP JUMPDEST PUSH1 0x40 MLOAD DUP1 SWAP2 SUB SWAP1 LOG3 POP POP POP POP JUMP JUMPDEST PUSH1 0x0 PUSH2 0x5BA PUSH1 0x5 PUSH2 0x1421 JUMP JUMPDEST SWAP1 POP SWAP1 JUMP JUMPDEST PUSH2 0x5C7 PUSH2 0x12B5 JUMP JUMPDEST PUSH2 0x5D1 PUSH1 0x0 PUSH2 0x142B JUMP JUMPDEST JUMP JUMPDEST PUSH1 0x0 PUSH2 0x5DD PUSH2 0x1487 JUMP JUMPDEST DUP1 SLOAD SWAP1 SWAP2 POP PUSH1 0xFF PUSH1 0x1 PUSH1 0x40 SHL DUP3 DIV AND ISZERO SWAP1 PUSH1 0x1 PUSH1 0x1 PUSH1 0x40 SHL SUB AND PUSH1 0x0 DUP2 ISZERO DUP1 ISZERO PUSH2 0x604 JUMPI POP DUP3 JUMPDEST SWAP1 POP PUSH1 0x0 DUP3 PUSH1 0x1 PUSH1 0x1 PUSH1 0x40 SHL SUB AND PUSH1 0x1 EQ DUP1 ISZERO PUSH2 0x620 JUMPI POP ADDRESS EXTCODESIZE ISZERO JUMPDEST SWAP1 POP DUP2 ISZERO DUP1 ISZERO PUSH2 0x62E JUMPI POP DUP1 ISZERO JUMPDEST ISZERO PUSH2 0x64C JUMPI PUSH1 0x40 MLOAD PUSH4 0xF92EE8A9 PUSH1 0xE0 SHL DUP2 MSTORE PUSH1 0x4 ADD PUSH1 0x40 MLOAD DUP1 SWAP2 SUB SWAP1 REVERT JUMPDEST DUP5 SLOAD PUSH1 0x1 PUSH1 0x1 PUSH1 0x40 SHL SUB NOT AND PUSH1 0x1 OR DUP6 SSTORE DUP4 ISZERO PUSH2 0x675 JUMPI DUP5 SLOAD PUSH1 0xFF PUSH1 0x40 SHL NOT AND PUSH1 0x1 PUSH1 0x40 SHL OR DUP6 SSTORE JUMPDEST PUSH2 0x67E CALLER PUSH2 0x14B0 JUMP JUMPDEST PUSH2 0x686 PUSH2 0x14C1 JUMP JUMPDEST PUSH1 0x40 MLOAD PUSH1 0x1 PUSH1 0x1 PUSH1 0x60 SHL SUB NOT CALLER PUSH1 0x60 SHL AND PUSH1 0x20 DUP3 ADD MSTORE TIMESTAMP PUSH1 0x34 DUP3 ADD MSTORE PUSH1 0x54 ADD PUSH1 0x40 DUP1 MLOAD PUSH1 0x1F NOT DUP2 DUP5 SUB ADD DUP2 MSTORE SWAP2 SWAP1 MSTORE DUP1 MLOAD PUSH1 0x20 SWAP1 SWAP2 ADD KECCAK256 PUSH1 0x1 SSTORE DUP4 ISZERO PUSH2 0x706 JUMPI DUP5 SLOAD PUSH1 0xFF PUSH1 0x40 SHL NOT AND DUP6 SSTORE PUSH1 0x40 MLOAD PUSH1 0x1 DUP2 MSTORE PUSH32 0xC7F505B2F371AE2175EE4913F4499E1F2633A7B5936321EED1CDAEB6115181D2 SWAP1 PUSH1 0x20 ADD PUSH1 0x40 MLOAD DUP1 SWAP2 SUB SWAP1 LOG1 JUMPDEST POP POP POP POP POP JUMP JUMPDEST PUSH1 0x0 DUP1 PUSH2 0x718 PUSH2 0x14D1 JUMP JUMPDEST SLOAD PUSH1 0x1 PUSH1 0x1 PUSH1 0xA0 SHL SUB AND SWAP3 SWAP2 POP POP JUMP JUMPDEST PUSH2 0x730 PUSH2 0x12B5 JUMP JUMPDEST PUSH2 0x73B PUSH1 0x5 DUP3 PUSH2 0x1391 JUMP JUMPDEST PUSH2 0x757 JUMPI PUSH1 0x40 MLOAD PUSH3 0x461BCD PUSH1 0xE5 SHL DUP2 MSTORE PUSH1 0x4 ADD PUSH2 0x37A SWAP1 PUSH2 0x2333 JUMP JUMPDEST PUSH2 0x760 DUP2 PUSH2 0x14F5 JUMP JUMPDEST POP JUMP JUMPDEST PUSH2 0x79D PUSH1 0x40 DUP1 MLOAD PUSH1 0xC0 DUP2 ADD SWAP1 SWAP2 MSTORE PUSH1 0x0 DUP1 DUP3 MSTORE PUSH1 0x20 DUP3 ADD SWAP1 DUP2 MSTORE PUSH1 0x20 ADD PUSH1 0x0 DUP2 MSTORE PUSH1 0x0 PUSH1 0x20 DUP3 ADD DUP2 SWAP1 MSTORE PUSH1 0x40 DUP3 ADD DUP2 SWAP1 MSTORE PUSH1 0x60 SWAP1 SWAP2 ADD MSTORE SWAP1 JUMP JUMPDEST PUSH2 0x7A8 PUSH1 0x5 DUP4 PUSH2 0x1391 JUMP JUMPDEST PUSH2 0x7C4 JUMPI PUSH1 0x40 MLOAD PUSH3 0x461BCD PUSH1 0xE5 SHL DUP2 MSTORE PUSH1 0x4 ADD PUSH2 0x37A SWAP1 PUSH2 0x2333 JUMP JUMPDEST PUSH1 0x0 DUP3 DUP2 MSTORE PUSH1 0x4 PUSH1 0x20 SWAP1 DUP2 MSTORE PUSH1 0x40 SWAP2 DUP3 SWAP1 KECCAK256 DUP3 MLOAD PUSH1 0xC0 DUP2 ADD SWAP1 SWAP4 MSTORE DUP1 SLOAD DUP4 MSTORE PUSH1 0x1 DUP1 DUP3 ADD SLOAD SWAP2 SWAP3 DUP5 ADD SWAP2 PUSH1 0xFF AND SWAP1 DUP2 GT ISZERO PUSH2 0x801 JUMPI PUSH2 0x801 PUSH2 0x2006 JUMP JUMPDEST PUSH1 0x1 DUP2 GT ISZERO PUSH2 0x812 JUMPI PUSH2 0x812 PUSH2 0x2006 JUMP JUMPDEST DUP2 MSTORE PUSH1 0x20 ADD PUSH1 0x1 DUP3 ADD PUSH1 0x1 SWAP1 SLOAD SWAP1 PUSH2 0x100 EXP SWAP1 DIV PUSH1 0xFF AND PUSH1 0x1 DUP2 GT ISZERO PUSH2 0x83A JUMPI PUSH2 0x83A PUSH2 0x2006 JUMP JUMPDEST PUSH1 0x1 DUP2 GT ISZERO PUSH2 0x84B JUMPI PUSH2 0x84B PUSH2 0x2006 JUMP JUMPDEST DUP2 MSTORE PUSH1 0x1 DUP3 ADD SLOAD PUSH1 0x1 PUSH1 0x1 PUSH1 0xA0 SHL SUB PUSH3 0x10000 SWAP1 SWAP2 DIV DUP2 AND PUSH1 0x20 DUP4 ADD MSTORE PUSH1 0x2 DUP4 ADD SLOAD AND PUSH1 0x40 DUP3 ADD MSTORE PUSH1 0x3 SWAP1 SWAP2 ADD SLOAD PUSH1 0x60 SWAP1 SWAP2 ADD MSTORE SWAP3 SWAP2 POP POP JUMP JUMPDEST PUSH2 0x88D PUSH2 0x12B5 JUMP JUMPDEST PUSH1 0x1 PUSH1 0x1 PUSH1 0xA0 SHL SUB DUP2 AND PUSH2 0x8E3 JUMPI PUSH1 0x40 MLOAD PUSH3 0x461BCD PUSH1 0xE5 SHL DUP2 MSTORE PUSH1 0x20 PUSH1 0x4 DUP3 ADD MSTORE PUSH1 0x1D PUSH1 0x24 DUP3 ADD MSTORE PUSH32 0x4F7261636C6520616464726573732063616E6E6F74206265207A65726F000000 PUSH1 0x44 DUP3 ADD MSTORE PUSH1 0x64 ADD PUSH2 0x37A JUMP JUMPDEST PUSH1 0x0 DUP1 SLOAD PUSH1 0x40 MLOAD PUSH1 0x1 PUSH1 0x1 PUSH1 0xA0 SHL SUB DUP1 DUP6 AND SWAP4 SWAP3 AND SWAP2 PUSH32 0xB1D1442DBA579887E297AC433E5716C847ABF2DC052EE9DE4869B7B1B8F6206D SWAP2 LOG3 PUSH1 0x0 DUP1 SLOAD PUSH1 0x1 PUSH1 0x1 PUSH1 0xA0 SHL SUB NOT AND PUSH1 0x1 PUSH1 0x1 PUSH1 0xA0 SHL SUB SWAP3 SWAP1 SWAP3 AND SWAP2 SWAP1 SWAP2 OR SWAP1 SSTORE JUMP JUMPDEST PUSH1 0x0 PUSH2 0x94A PUSH1 0x5 PUSH2 0x1421 JUMP JUMPDEST DUP3 LT PUSH2 0x98E JUMPI PUSH1 0x40 MLOAD PUSH3 0x461BCD PUSH1 0xE5 SHL DUP2 MSTORE PUSH1 0x20 PUSH1 0x4 DUP3 ADD MSTORE PUSH1 0x13 PUSH1 0x24 DUP3 ADD MSTORE PUSH19 0x496E646578206F7574206F6620626F756E6473 PUSH1 0x68 SHL PUSH1 0x44 DUP3 ADD MSTORE PUSH1 0x64 ADD PUSH2 0x37A JUMP JUMPDEST PUSH2 0x999 PUSH1 0x5 DUP4 PUSH2 0x1568 JUMP JUMPDEST SWAP3 SWAP2 POP POP JUMP JUMPDEST PUSH1 0x0 SLOAD PUSH1 0x1 PUSH1 0x1 PUSH1 0xA0 SHL SUB AND CALLER EQ PUSH2 0x9C9 JUMPI PUSH1 0x40 MLOAD PUSH3 0x82B429 PUSH1 0xE8 SHL DUP2 MSTORE PUSH1 0x4 ADD PUSH1 0x40 MLOAD DUP1 SWAP2 SUB SWAP1 REVERT JUMPDEST PUSH2 0x9D1 PUSH2 0x1574 JUMP JUMPDEST PUSH1 0x0 DUP7 DUP2 MSTORE PUSH1 0x3 PUSH1 0x20 MSTORE PUSH1 0x40 SWAP1 KECCAK256 SLOAD PUSH1 0xFF AND PUSH2 0xA00 JUMPI PUSH1 0x40 MLOAD PUSH4 0x2589D98F PUSH1 0xE1 SHL DUP2 MSTORE PUSH1 0x4 ADD PUSH1 0x40 MLOAD DUP1 SWAP2 SUB SWAP1 REVERT JUMPDEST PUSH2 0xA0E DUP7 DUP7 DUP7 DUP7 DUP7 DUP7 PUSH2 0x15AA JUMP JUMPDEST PUSH2 0xA2B JUMPI PUSH1 0x40 MLOAD PUSH4 0x8BAA579F PUSH1 0xE0 SHL DUP2 MSTORE PUSH1 0x4 ADD PUSH1 0x40 MLOAD DUP1 SWAP2 SUB SWAP1 REVERT JUMPDEST PUSH2 0xA36 PUSH1 0x5 DUP6 PUSH2 0x1391 JUMP JUMPDEST PUSH2 0xA52 JUMPI PUSH1 0x40 MLOAD PUSH3 0x461BCD PUSH1 0xE5 SHL DUP2 MSTORE PUSH1 0x4 ADD PUSH2 0x37A SWAP1 PUSH2 0x2333 JUMP JUMPDEST PUSH1 0x0 DUP5 DUP2 MSTORE PUSH1 0x4 PUSH1 0x20 MSTORE PUSH1 0x40 SWAP1 KECCAK256 PUSH1 0x1 DUP1 DUP3 DUP2 ADD SLOAD PUSH2 0x100 SWAP1 DIV PUSH1 0xFF AND SWAP1 DUP2 GT ISZERO PUSH2 0xA7F JUMPI PUSH2 0xA7F PUSH2 0x2006 JUMP JUMPDEST EQ PUSH2 0xABD JUMPI PUSH1 0x40 MLOAD PUSH3 0x461BCD PUSH1 0xE5 SHL DUP2 MSTORE PUSH1 0x20 PUSH1 0x4 DUP3 ADD MSTORE PUSH1 0xE PUSH1 0x24 DUP3 ADD MSTORE PUSH14 0x105B1C9958591E481BDC195B9959 PUSH1 0x92 SHL PUSH1 0x44 DUP3 ADD MSTORE PUSH1 0x64 ADD PUSH2 0x37A JUMP JUMPDEST PUSH1 0x1 DUP2 ADD SLOAD PUSH3 0x10000 SWAP1 DIV PUSH1 0x1 PUSH1 0x1 PUSH1 0xA0 SHL SUB AND ISZERO PUSH2 0xB0E JUMPI PUSH1 0x40 MLOAD PUSH3 0x461BCD PUSH1 0xE5 SHL DUP2 MSTORE PUSH1 0x20 PUSH1 0x4 DUP3 ADD MSTORE PUSH1 0xD PUSH1 0x24 DUP3 ADD MSTORE PUSH13 0x2137BC103430B99037BBB732B9 PUSH1 0x99 SHL PUSH1 0x44 DUP3 ADD MSTORE PUSH1 0x64 ADD PUSH2 0x37A JUMP JUMPDEST PUSH1 0x1 DUP2 ADD DUP1 SLOAD PUSH2 0x100 PUSH1 0x1 PUSH1 0xB0 SHL SUB NOT AND PUSH3 0x10000 PUSH1 0x1 PUSH1 0x1 PUSH1 0xA0 SHL SUB DUP8 AND MUL OR SWAP1 SSTORE DUP6 MLOAD PUSH1 0x0 SWAP1 PUSH1 0x2 SWAP1 DUP9 SWAP1 DUP4 SWAP1 PUSH2 0xB49 JUMPI PUSH2 0xB49 PUSH2 0x235D JUMP JUMPDEST PUSH1 0x20 MUL PUSH1 0x20 ADD ADD MLOAD PUSH2 0xB5B SWAP2 SWAP1 PUSH2 0x2389 JUMP JUMPDEST PUSH1 0x0 EQ SWAP1 POP PUSH2 0xBAB PUSH1 0x40 MLOAD DUP1 PUSH1 0x40 ADD PUSH1 0x40 MSTORE DUP1 PUSH1 0xF DUP2 MSTORE PUSH1 0x20 ADD PUSH15 0x2930B73237B690373AB6B132B91D1 PUSH1 0x8D SHL DUP2 MSTORE POP DUP9 PUSH1 0x0 DUP2 MLOAD DUP2 LT PUSH2 0xB9E JUMPI PUSH2 0xB9E PUSH2 0x235D JUMP JUMPDEST PUSH1 0x20 MUL PUSH1 0x20 ADD ADD MLOAD PUSH2 0x167D JUMP JUMPDEST PUSH2 0xBD8 PUSH1 0x40 MLOAD DUP1 PUSH1 0x40 ADD PUSH1 0x40 MSTORE DUP1 PUSH1 0xB DUP2 MSTORE PUSH1 0x20 ADD PUSH11 0x2932B8BAB2B9BA32B91D1 PUSH1 0xAD SHL DUP2 MSTORE POP DUP7 PUSH2 0x16C6 JUMP JUMPDEST PUSH1 0x40 DUP1 MLOAD DUP1 DUP3 ADD SWAP1 SWAP2 MSTORE PUSH1 0xA DUP2 MSTORE PUSH10 0x2137BC102A3CB8329D1 PUSH1 0xB5 SHL PUSH1 0x20 DUP3 ADD MSTORE PUSH1 0x1 DUP1 DUP5 ADD SLOAD PUSH2 0xC1E SWAP3 SWAP2 PUSH1 0xFF SWAP1 SWAP2 AND SWAP1 DUP2 GT ISZERO PUSH2 0xC19 JUMPI PUSH2 0xC19 PUSH2 0x2006 JUMP JUMPDEST PUSH2 0x167D JUMP JUMPDEST PUSH2 0xC52 PUSH1 0x40 MLOAD DUP1 PUSH1 0x40 ADD PUSH1 0x40 MSTORE DUP1 PUSH1 0xE DUP2 MSTORE PUSH1 0x20 ADD PUSH14 0x283934BD329020B6B7BAB73A1D1 PUSH1 0x95 SHL DUP2 MSTORE POP DUP4 PUSH1 0x3 ADD SLOAD PUSH2 0x167D JUMP JUMPDEST PUSH2 0xC79 PUSH1 0x40 MLOAD DUP1 PUSH1 0x40 ADD PUSH1 0x40 MSTORE DUP1 PUSH1 0x5 DUP2 MSTORE PUSH1 0x20 ADD PUSH5 0x2BB7B71D1 PUSH1 0xDD SHL DUP2 MSTORE POP DUP3 PUSH2 0x170B JUMP JUMPDEST PUSH1 0x40 DUP1 MLOAD DUP1 DUP3 ADD SWAP1 SWAP2 MSTORE PUSH1 0xD DUP2 MSTORE PUSH13 0x283934BD32902A37B5B2B71D1 PUSH1 0x9D SHL PUSH1 0x20 DUP3 ADD MSTORE PUSH1 0x2 DUP4 ADD SLOAD PUSH2 0xCB5 SWAP2 SWAP1 PUSH1 0x1 PUSH1 0x1 PUSH1 0xA0 SHL SUB AND PUSH2 0x16C6 JUMP JUMPDEST DUP1 ISZERO PUSH2 0xF1E JUMPI PUSH1 0x0 PUSH1 0x1 DUP1 DUP1 DUP6 ADD SLOAD PUSH1 0xFF AND SWAP1 DUP2 GT ISZERO PUSH2 0xCD7 JUMPI PUSH2 0xCD7 PUSH2 0x2006 JUMP JUMPDEST EQ PUSH2 0xCE6 JUMPI DUP3 PUSH1 0x3 ADD SLOAD PUSH2 0xD32 JUMP JUMPDEST PUSH1 0x64 DUP1 DUP10 PUSH1 0x0 DUP2 MLOAD DUP2 LT PUSH2 0xCFC JUMPI PUSH2 0xCFC PUSH2 0x235D JUMP JUMPDEST PUSH1 0x20 MUL PUSH1 0x20 ADD ADD MLOAD PUSH2 0xD0E SWAP2 SWAP1 PUSH2 0x2389 JUMP JUMPDEST PUSH2 0xD19 SWAP1 PUSH1 0x1 PUSH2 0x23B3 JUMP JUMPDEST DUP5 PUSH1 0x3 ADD SLOAD PUSH2 0xD28 SWAP2 SWAP1 PUSH2 0x23C6 JUMP JUMPDEST PUSH2 0xD32 SWAP2 SWAP1 PUSH2 0x23DD JUMP JUMPDEST SWAP1 POP PUSH1 0x0 DUP2 DUP5 PUSH1 0x3 ADD SLOAD PUSH2 0xD46 SWAP2 SWAP1 PUSH2 0x23F1 JUMP JUMPDEST SWAP1 POP PUSH2 0xD9E PUSH1 0x40 MLOAD DUP1 PUSH1 0x40 ADD PUSH1 0x40 MSTORE DUP1 PUSH1 0x8 DUP2 MSTORE PUSH1 0x20 ADD PUSH8 0x2830BCB7BABA1D1 PUSH1 0xC5 SHL DUP2 MSTORE POP DUP4 PUSH1 0x40 MLOAD DUP1 PUSH1 0x40 ADD PUSH1 0x40 MSTORE DUP1 PUSH1 0x12 DUP2 MSTORE PUSH1 0x20 ADD PUSH18 0x102932B6B0B4B734B73390283934BD329D1 PUSH1 0x75 SHL DUP2 MSTORE POP DUP5 PUSH2 0x1750 JUMP JUMPDEST PUSH1 0x2 DUP5 ADD SLOAD PUSH1 0x1 PUSH1 0x1 PUSH1 0xA0 SHL SUB AND PUSH2 0xE08 JUMPI PUSH2 0xDBA DUP8 DUP4 PUSH2 0x1799 JUMP JUMPDEST DUP1 ISZERO PUSH2 0xDD1 JUMPI PUSH2 0xDD1 PUSH2 0xDCB PUSH2 0x70D JUMP JUMPDEST DUP3 PUSH2 0x1799 JUMP JUMPDEST PUSH2 0xE03 PUSH1 0x40 MLOAD DUP1 PUSH1 0x40 ADD PUSH1 0x40 MSTORE DUP1 PUSH1 0x11 DUP2 MSTORE PUSH1 0x20 ADD PUSH17 0x2A3930B739B332B93932B21032BA3432B9 PUSH1 0x79 SHL DUP2 MSTORE POP PUSH2 0x187A JUMP JUMPDEST PUSH2 0xE7A JUMP JUMPDEST PUSH1 0x2 DUP5 ADD SLOAD PUSH2 0xE21 SWAP1 PUSH1 0x1 PUSH1 0x1 PUSH1 0xA0 SHL SUB AND DUP9 DUP5 PUSH2 0x18BD JUMP JUMPDEST DUP1 ISZERO PUSH2 0xE47 JUMPI PUSH1 0x2 DUP5 ADD SLOAD PUSH2 0xE47 SWAP1 PUSH1 0x1 PUSH1 0x1 PUSH1 0xA0 SHL SUB AND PUSH2 0xE41 PUSH2 0x70D JUMP JUMPDEST DUP4 PUSH2 0x18BD JUMP JUMPDEST PUSH2 0xE7A PUSH1 0x40 MLOAD DUP1 PUSH1 0x40 ADD PUSH1 0x40 MSTORE DUP1 PUSH1 0x12 DUP2 MSTORE PUSH1 0x20 ADD PUSH18 0x5472616E7366657272656420746F6B656E73 PUSH1 0x70 SHL DUP2 MSTORE POP PUSH2 0x187A JUMP JUMPDEST PUSH1 0x2 DUP5 ADD SLOAD PUSH1 0x40 MLOAD PUSH1 0x1 PUSH1 0x1 PUSH1 0xA0 SHL SUB DUP1 DUP11 AND SWAP3 DUP12 SWAP3 PUSH32 0x6CA0DA92C4797A558F7E777695E71010CA0BBF7B7007B7E0402C5921A25FB4D8 SWAP3 PUSH2 0xEBF SWAP3 AND SWAP1 DUP8 SWAP1 PUSH2 0x2404 JUMP JUMPDEST PUSH1 0x40 MLOAD DUP1 SWAP2 SUB SWAP1 LOG3 DUP1 ISZERO PUSH2 0xF17 JUMPI PUSH1 0x2 DUP5 ADD SLOAD PUSH1 0x40 MLOAD DUP10 SWAP2 PUSH32 0xF552CA82E113AC3C539C3D617F29FCD19C172A0C75DAD017555C9E109F7FE183 SWAP2 PUSH2 0xF0E SWAP2 PUSH1 0x1 PUSH1 0x1 PUSH1 0xA0 SHL SUB AND SWAP1 DUP6 SWAP1 PUSH2 0x2404 JUMP JUMPDEST PUSH1 0x40 MLOAD DUP1 SWAP2 SUB SWAP1 LOG2 JUMPDEST POP POP PUSH2 0xF55 JUMP JUMPDEST PUSH1 0x40 MLOAD PUSH1 0x1 PUSH1 0x1 PUSH1 0xA0 SHL SUB DUP7 AND SWAP1 DUP8 SWAP1 PUSH32 0x59C544C2595303434D37BD8EE8AF000818BE6066BEB8C37844D43F7EE80A444 SWAP1 PUSH1 0x0 SWAP1 LOG3 JUMPDEST PUSH1 0x0 DUP9 DUP2 MSTORE PUSH1 0x3 PUSH1 0x20 MSTORE PUSH1 0x40 SWAP1 DUP2 SWAP1 KECCAK256 DUP1 SLOAD PUSH1 0xFF NOT AND SWAP1 SSTORE MLOAD DUP7 SWAP1 DUP10 SWAP1 PUSH32 0xC9245471E1EDA01DF96AC978BD431512E8E4F71C9541C7D946973B851391D8AD SWAP1 PUSH2 0xF9F SWAP1 DUP12 SWAP1 PUSH2 0x241D JUMP JUMPDEST PUSH1 0x40 MLOAD DUP1 SWAP2 SUB SWAP1 LOG3 POP POP PUSH2 0xFB1 PUSH2 0x18C8 JUMP JUMPDEST POP POP POP POP POP POP JUMP JUMPDEST PUSH1 0x0 PUSH2 0xFC6 PUSH1 0x5 DUP4 PUSH2 0x1391 JUMP JUMPDEST PUSH2 0xFE2 JUMPI PUSH1 0x40 MLOAD PUSH3 0x461BCD PUSH1 0xE5 SHL DUP2 MSTORE PUSH1 0x4 ADD PUSH2 0x37A SWAP1 PUSH2 0x2333 JUMP JUMPDEST PUSH1 0x1 PUSH1 0x0 DUP4 DUP2 MSTORE PUSH1 0x4 PUSH1 0x20 MSTORE PUSH1 0x40 SWAP1 KECCAK256 PUSH1 0x1 SWAP1 DUP2 ADD SLOAD PUSH2 0x100 SWAP1 DIV PUSH1 0xFF AND SWAP1 DUP2 GT ISZERO PUSH2 0x1010 JUMPI PUSH2 0x1010 PUSH2 0x2006 JUMP JUMPDEST EQ PUSH2 0x1052 JUMPI PUSH1 0x40 MLOAD PUSH3 0x461BCD PUSH1 0xE5 SHL DUP2 MSTORE PUSH1 0x20 PUSH1 0x4 DUP3 ADD MSTORE PUSH1 0x12 PUSH1 0x24 DUP3 ADD MSTORE PUSH18 0x109BDE08185B1C9958591E481BDC195B9959 PUSH1 0x72 SHL PUSH1 0x44 DUP3 ADD MSTORE PUSH1 0x64 ADD PUSH2 0x37A JUMP JUMPDEST PUSH1 0x0 DUP3 DUP2 MSTORE PUSH1 0x4 PUSH1 0x20 MSTORE PUSH1 0x40 SWAP1 KECCAK256 PUSH1 0x1 ADD SLOAD PUSH3 0x10000 SWAP1 DIV PUSH1 0x1 PUSH1 0x1 PUSH1 0xA0 SHL SUB AND ISZERO PUSH2 0x10B8 JUMPI PUSH1 0x40 MLOAD PUSH3 0x461BCD PUSH1 0xE5 SHL DUP2 MSTORE PUSH1 0x20 PUSH1 0x4 DUP3 ADD MSTORE PUSH1 0x15 PUSH1 0x24 DUP3 ADD MSTORE PUSH21 0x2137BC1030B63932B0B23C903430B99037BBB732B9 PUSH1 0x59 SHL PUSH1 0x44 DUP3 ADD MSTORE PUSH1 0x64 ADD PUSH2 0x37A JUMP JUMPDEST PUSH1 0x0 DUP4 GT DUP1 ISZERO PUSH2 0x10C9 JUMPI POP PUSH1 0xA DUP4 GT ISZERO JUMPDEST PUSH2 0x110A JUMPI PUSH1 0x40 MLOAD PUSH3 0x461BCD PUSH1 0xE5 SHL DUP2 MSTORE PUSH1 0x20 PUSH1 0x4 DUP3 ADD MSTORE PUSH1 0x12 PUSH1 0x24 DUP3 ADD MSTORE PUSH18 0x125B9D985B1A59081DDBDC990818DBDD5B9D PUSH1 0x72 SHL PUSH1 0x44 DUP3 ADD MSTORE PUSH1 0x64 ADD PUSH2 0x37A JUMP JUMPDEST CALLER TIMESTAMP PUSH1 0x1 SLOAD PUSH1 0x40 MLOAD PUSH1 0x20 ADD PUSH2 0x1121 SWAP4 SWAP3 SWAP2 SWAP1 PUSH2 0x2461 JUMP JUMPDEST PUSH1 0x40 MLOAD PUSH1 0x20 DUP2 DUP4 SUB SUB DUP2 MSTORE SWAP1 PUSH1 0x40 MSTORE DUP1 MLOAD SWAP1 PUSH1 0x20 ADD KECCAK256 PUSH1 0x0 SHR PUSH1 0x1 DUP2 SWAP1 SSTORE POP PUSH1 0x1 SLOAD TIMESTAMP PREVRANDAO CALLER ADDRESS DUP8 DUP8 PUSH1 0x2 PUSH1 0x0 DUP2 SLOAD DUP1 SWAP3 SWAP2 SWAP1 PUSH2 0x115C SWAP1 PUSH2 0x2486 JUMP JUMPDEST SWAP1 SWAP2 SSTORE POP PUSH1 0x40 DUP1 MLOAD PUSH1 0x20 DUP2 ADD SWAP10 SWAP1 SWAP10 MSTORE DUP9 ADD SWAP7 SWAP1 SWAP7 MSTORE PUSH1 0x60 DUP1 DUP9 ADD SWAP6 SWAP1 SWAP6 MSTORE SWAP3 DUP5 SHL PUSH1 0x1 PUSH1 0x1 PUSH1 0x60 SHL SUB NOT SWAP1 DUP2 AND PUSH1 0x80 DUP9 ADD MSTORE SWAP2 SWAP1 SWAP4 SHL AND PUSH1 0x94 DUP6 ADD MSTORE PUSH1 0xA8 DUP5 ADD SWAP2 SWAP1 SWAP2 MSTORE PUSH1 0xC8 DUP4 ADD MSTORE PUSH1 0xE8 DUP3 ADD MSTORE PUSH2 0x108 ADD PUSH1 0x40 DUP1 MLOAD PUSH1 0x1F NOT DUP2 DUP5 SUB ADD DUP2 MSTORE SWAP2 DUP2 MSTORE DUP2 MLOAD PUSH1 0x20 SWAP3 DUP4 ADD KECCAK256 PUSH1 0x0 DUP2 DUP2 MSTORE PUSH1 0x3 SWAP1 SWAP4 MSTORE SWAP2 KECCAK256 SLOAD SWAP1 SWAP2 POP PUSH1 0xFF AND ISZERO PUSH2 0x121B JUMPI PUSH1 0x40 MLOAD PUSH3 0x461BCD PUSH1 0xE5 SHL DUP2 MSTORE PUSH1 0x20 PUSH1 0x4 DUP3 ADD MSTORE PUSH1 0x11 PUSH1 0x24 DUP3 ADD MSTORE PUSH17 0x5265717565737420494420657869737473 PUSH1 0x78 SHL PUSH1 0x44 DUP3 ADD MSTORE PUSH1 0x64 ADD PUSH2 0x37A JUMP JUMPDEST PUSH1 0x0 DUP2 DUP2 MSTORE PUSH1 0x3 PUSH1 0x20 MSTORE PUSH1 0x40 SWAP1 DUP2 SWAP1 KECCAK256 DUP1 SLOAD PUSH1 0xFF NOT AND PUSH1 0x1 OR SWAP1 SSTORE MLOAD DUP3 SWAP1 CALLER SWAP1 DUP4 SWAP1 PUSH32 0xE597616BCC7AD3B09B316C7123410AF4695ED18F3FFCAEBB95CFD266755412FB SWAP1 PUSH2 0x126C SWAP1 DUP9 DUP2 MSTORE PUSH1 0x20 ADD SWAP1 JUMP JUMPDEST PUSH1 0x40 MLOAD DUP1 SWAP2 SUB SWAP1 LOG4 SWAP3 SWAP2 POP POP JUMP JUMPDEST PUSH2 0x1282 PUSH2 0x12B5 JUMP JUMPDEST PUSH1 0x1 PUSH1 0x1 PUSH1 0xA0 SHL SUB DUP2 AND PUSH2 0x12AC JUMPI PUSH1 0x0 PUSH1 0x40 MLOAD PUSH4 0x1E4FBDF7 PUSH1 0xE0 SHL DUP2 MSTORE PUSH1 0x4 ADD PUSH2 0x37A SWAP2 SWAP1 PUSH2 0x20E2 JUMP JUMPDEST PUSH2 0x760 DUP2 PUSH2 0x142B JUMP JUMPDEST CALLER PUSH2 0x12BE PUSH2 0x70D JUMP JUMPDEST PUSH1 0x1 PUSH1 0x1 PUSH1 0xA0 SHL SUB AND EQ PUSH2 0x5D1 JUMPI CALLER PUSH1 0x40 MLOAD PUSH4 0x118CDAA7 PUSH1 0xE0 SHL DUP2 MSTORE PUSH1 0x4 ADD PUSH2 0x37A SWAP2 SWAP1 PUSH2 0x20E2 JUMP JUMPDEST PUSH1 0x0 CALLER TIMESTAMP PUSH1 0x1 SLOAD PUSH1 0x40 MLOAD PUSH1 0x20 ADD PUSH2 0x1300 SWAP4 SWAP3 SWAP2 SWAP1 PUSH2 0x2461 JUMP JUMPDEST PUSH1 0x40 DUP1 MLOAD PUSH1 0x1F NOT DUP2 DUP5 SUB ADD DUP2 MSTORE SWAP2 SWAP1 MSTORE DUP1 MLOAD PUSH1 0x20 SWAP1 SWAP2 ADD KECCAK256 PUSH1 0x1 DUP2 SWAP1 SSTORE PUSH1 0x2 DUP1 SLOAD TIMESTAMP SWAP3 PREVRANDAO SWAP3 CALLER SWAP3 ADDRESS SWAP3 SWAP2 PUSH1 0x0 PUSH2 0x1335 DUP4 PUSH2 0x2486 JUMP JUMPDEST SWAP1 SWAP2 SSTORE POP PUSH1 0x40 DUP1 MLOAD PUSH1 0x20 DUP2 ADD SWAP8 SWAP1 SWAP8 MSTORE DUP7 ADD SWAP5 SWAP1 SWAP5 MSTORE PUSH1 0x1 PUSH1 0x1 PUSH1 0x60 SHL SUB NOT PUSH1 0x60 SWAP4 DUP5 SHL DUP2 AND DUP5 DUP8 ADD MSTORE SWAP2 SWAP1 SWAP3 SHL AND PUSH1 0x74 DUP5 ADD MSTORE PUSH1 0x88 DUP4 ADD MSTORE PUSH1 0xA8 DUP3 ADD MSTORE PUSH1 0xC8 ADD PUSH1 0x40 MLOAD PUSH1 0x20 DUP2 DUP4 SUB SUB DUP2 MSTORE SWAP1 PUSH1 0x40 MSTORE DUP1 MLOAD SWAP1 PUSH1 0x20 ADD KECCAK256 SWAP1 POP SWAP1 JUMP JUMPDEST PUSH1 0x0 PUSH2 0x139D DUP4 DUP4 PUSH2 0x18D9 JUMP JUMPDEST SWAP4 SWAP3 POP POP POP JUMP JUMPDEST PUSH1 0x0 PUSH2 0x139D DUP4 DUP4 PUSH2 0x18F1 JUMP JUMPDEST PUSH1 0x40 MLOAD PUSH1 0x1 PUSH1 0x1 PUSH1 0xA0 SHL SUB DUP1 DUP6 AND PUSH1 0x24 DUP4 ADD MSTORE DUP4 AND PUSH1 0x44 DUP3 ADD MSTORE PUSH1 0x64 DUP2 ADD DUP3 SWAP1 MSTORE PUSH2 0x141B SWAP1 DUP6 SWAP1 PUSH4 0x23B872DD PUSH1 0xE0 SHL SWAP1 PUSH1 0x84 ADD JUMPDEST PUSH1 0x40 DUP1 MLOAD PUSH1 0x1F NOT DUP2 DUP5 SUB ADD DUP2 MSTORE SWAP2 SWAP1 MSTORE PUSH1 0x20 DUP2 ADD DUP1 MLOAD PUSH1 0x1 PUSH1 0x1 PUSH1 0xE0 SHL SUB AND PUSH1 0x1 PUSH1 0x1 PUSH1 0xE0 SHL SUB NOT SWAP1 SWAP4 AND SWAP3 SWAP1 SWAP3 OR SWAP1 SWAP2 MSTORE PUSH2 0x193B JUMP JUMPDEST POP POP POP POP JUMP JUMPDEST PUSH1 0x0 PUSH2 0x999 DUP3 SLOAD SWAP1 JUMP JUMPDEST PUSH1 0x0 PUSH2 0x1435 PUSH2 0x14D1 JUMP JUMPDEST DUP1 SLOAD PUSH1 0x1 PUSH1 0x1 PUSH1 0xA0 SHL SUB DUP5 DUP2 AND PUSH1 0x1 PUSH1 0x1 PUSH1 0xA0 SHL SUB NOT DUP4 AND DUP2 OR DUP5 SSTORE PUSH1 0x40 MLOAD SWAP4 SWAP5 POP SWAP2 AND SWAP2 DUP3 SWAP1 PUSH32 0x8BE0079C531659141344CD1FD0A4F28419497F9722A3DAAFE3B4186F6B6457E0 SWAP1 PUSH1 0x0 SWAP1 LOG3 POP POP POP JUMP JUMPDEST PUSH1 0x0 DUP1 PUSH32 0xF0C57E16840DF040F15088DC2F81FE391C3923BEC73E23A9662EFC9C229C6A00 PUSH2 0x999 JUMP JUMPDEST PUSH2 0x14B8 PUSH2 0x1A10 JUMP JUMPDEST PUSH2 0x760 DUP2 PUSH2 0x1A35 JUMP JUMPDEST PUSH2 0x14C9 PUSH2 0x1A10 JUMP JUMPDEST PUSH2 0x5D1 PUSH2 0x1A3D JUMP JUMPDEST PUSH32 0x9016D09D72D40FDAE2FD8CEAC6B6234C7706214FD39C1CD1E609A0528C199300 SWAP1 JUMP JUMPDEST PUSH1 0x0 DUP2 DUP2 MSTORE PUSH1 0x4 PUSH1 0x20 MSTORE PUSH1 0x40 DUP2 KECCAK256 DUP2 DUP2 SSTORE PUSH1 0x1 DUP2 ADD DUP1 SLOAD PUSH1 0x1 PUSH1 0x1 PUSH1 0xB0 SHL SUB NOT AND SWAP1 SSTORE PUSH1 0x2 DUP2 ADD DUP1 SLOAD PUSH1 0x1 PUSH1 0x1 PUSH1 0xA0 SHL SUB NOT AND SWAP1 SSTORE PUSH1 0x3 ADD SSTORE PUSH2 0x1539 PUSH1 0x5 DUP3 PUSH2 0x1A45 JUMP JUMPDEST POP PUSH1 0x40 MLOAD DUP2 SWAP1 PUSH32 0x606CE84A58BEEBDD8ABDD4BB24672FC015A5EB5A7BE08A9D2F4023A920C8E7DD SWAP1 PUSH1 0x0 SWAP1 LOG2 POP JUMP JUMPDEST PUSH1 0x0 PUSH2 0x139D DUP4 DUP4 PUSH2 0x1A51 JUMP JUMPDEST PUSH1 0x0 PUSH2 0x157E PUSH2 0x1A7B JUMP JUMPDEST DUP1 SLOAD SWAP1 SWAP2 POP PUSH1 0x1 NOT ADD PUSH2 0x15A4 JUMPI PUSH1 0x40 MLOAD PUSH4 0x3EE5AEB5 PUSH1 0xE0 SHL DUP2 MSTORE PUSH1 0x4 ADD PUSH1 0x40 MLOAD DUP1 SWAP2 SUB SWAP1 REVERT JUMPDEST PUSH1 0x2 SWAP1 SSTORE JUMP JUMPDEST PUSH1 0x0 DUP1 DUP8 DUP8 DUP8 DUP8 PUSH1 0x40 MLOAD PUSH1 0x20 ADD PUSH2 0x15C4 SWAP5 SWAP4 SWAP3 SWAP2 SWAP1 PUSH2 0x249F JUMP JUMPDEST PUSH1 0x40 MLOAD PUSH1 0x20 DUP2 DUP4 SUB SUB DUP2 MSTORE SWAP1 PUSH1 0x40 MSTORE DUP1 MLOAD SWAP1 PUSH1 0x20 ADD KECCAK256 SWAP1 POP PUSH1 0x0 PUSH2 0x1614 DUP3 PUSH28 0xCA2BA3432B932BAB69029B4B3B732B21026B2B9B9B0B3B29D051999 PUSH1 0x21 SHL PUSH1 0x0 SWAP1 DUP2 MSTORE PUSH1 0x1C SWAP2 SWAP1 SWAP2 MSTORE PUSH1 0x3C SWAP1 KECCAK256 SWAP1 JUMP JUMPDEST PUSH1 0x0 SLOAD PUSH1 0x40 DUP1 MLOAD PUSH1 0x20 PUSH1 0x1F DUP10 ADD DUP2 SWAP1 DIV DUP2 MUL DUP3 ADD DUP2 ADD SWAP1 SWAP3 MSTORE DUP8 DUP2 MSTORE SWAP3 SWAP4 POP PUSH1 0x1 PUSH1 0x1 PUSH1 0xA0 SHL SUB SWAP1 SWAP2 AND SWAP2 PUSH2 0x1666 SWAP2 DUP5 SWAP2 SWAP1 DUP10 SWAP1 DUP10 SWAP1 DUP2 SWAP1 DUP5 ADD DUP4 DUP3 DUP1 DUP3 DUP5 CALLDATACOPY PUSH1 0x0 SWAP3 ADD SWAP2 SWAP1 SWAP2 MSTORE POP PUSH2 0x1A9F SWAP3 POP POP POP JUMP JUMPDEST PUSH1 0x1 PUSH1 0x1 PUSH1 0xA0 SHL SUB AND EQ SWAP10 SWAP9 POP POP POP POP POP POP POP POP POP JUMP JUMPDEST PUSH2 0x16C2 DUP3 DUP3 PUSH1 0x40 MLOAD PUSH1 0x24 ADD PUSH2 0x1693 SWAP3 SWAP2 SWAP1 PUSH2 0x2545 JUMP JUMPDEST PUSH1 0x40 DUP1 MLOAD PUSH1 0x1F NOT DUP2 DUP5 SUB ADD DUP2 MSTORE SWAP2 SWAP1 MSTORE PUSH1 0x20 DUP2 ADD DUP1 MLOAD PUSH1 0x1 PUSH1 0x1 PUSH1 0xE0 SHL SUB AND PUSH4 0x2D839CB3 PUSH1 0xE2 SHL OR SWAP1 MSTORE PUSH2 0x1AC3 JUMP JUMPDEST POP POP JUMP JUMPDEST PUSH2 0x16C2 DUP3 DUP3 PUSH1 0x40 MLOAD PUSH1 0x24 ADD PUSH2 0x16DC SWAP3 SWAP2 SWAP1 PUSH2 0x2567 JUMP JUMPDEST PUSH1 0x40 DUP1 MLOAD PUSH1 0x1F NOT DUP2 DUP5 SUB ADD DUP2 MSTORE SWAP2 SWAP1 MSTORE PUSH1 0x20 DUP2 ADD DUP1 MLOAD PUSH1 0x1 PUSH1 0x1 PUSH1 0xE0 SHL SUB AND PUSH4 0x319AF333 PUSH1 0xE0 SHL OR SWAP1 MSTORE PUSH2 0x1AC3 JUMP JUMPDEST PUSH2 0x16C2 DUP3 DUP3 PUSH1 0x40 MLOAD PUSH1 0x24 ADD PUSH2 0x1721 SWAP3 SWAP2 SWAP1 PUSH2 0x2591 JUMP JUMPDEST PUSH1 0x40 DUP1 MLOAD PUSH1 0x1F NOT DUP2 DUP5 SUB ADD DUP2 MSTORE SWAP2 SWAP1 MSTORE PUSH1 0x20 DUP2 ADD DUP1 MLOAD PUSH1 0x1 PUSH1 0x1 PUSH1 0xE0 SHL SUB AND PUSH4 0xC3B55635 PUSH1 0xE0 SHL OR SWAP1 MSTORE PUSH2 0x1AC3 JUMP JUMPDEST PUSH2 0x141B DUP5 DUP5 DUP5 DUP5 PUSH1 0x40 MLOAD PUSH1 0x24 ADD PUSH2 0x176A SWAP5 SWAP4 SWAP3 SWAP2 SWAP1 PUSH2 0x25B5 JUMP JUMPDEST PUSH1 0x40 DUP1 MLOAD PUSH1 0x1F NOT DUP2 DUP5 SUB ADD DUP2 MSTORE SWAP2 SWAP1 MSTORE PUSH1 0x20 DUP2 ADD DUP1 MLOAD PUSH1 0x1 PUSH1 0x1 PUSH1 0xE0 SHL SUB AND PUSH4 0xC67EA9D1 PUSH1 0xE0 SHL OR SWAP1 MSTORE PUSH2 0x1AC3 JUMP JUMPDEST DUP1 SELFBALANCE LT ISZERO PUSH2 0x17DC JUMPI PUSH1 0x40 MLOAD PUSH3 0x461BCD PUSH1 0xE5 SHL DUP2 MSTORE PUSH1 0x20 PUSH1 0x4 DUP3 ADD MSTORE PUSH1 0x10 PUSH1 0x24 DUP3 ADD MSTORE PUSH16 0x92DCE6EACCCCD2C6D2CADCE8408AA89 PUSH1 0x83 SHL PUSH1 0x44 DUP3 ADD MSTORE PUSH1 0x64 ADD PUSH2 0x37A JUMP JUMPDEST PUSH1 0x0 DUP3 PUSH1 0x1 PUSH1 0x1 PUSH1 0xA0 SHL SUB AND DUP3 PUSH1 0x40 MLOAD PUSH1 0x0 PUSH1 0x40 MLOAD DUP1 DUP4 SUB DUP2 DUP6 DUP8 GAS CALL SWAP3 POP POP POP RETURNDATASIZE DUP1 PUSH1 0x0 DUP2 EQ PUSH2 0x1829 JUMPI PUSH1 0x40 MLOAD SWAP2 POP PUSH1 0x1F NOT PUSH1 0x3F RETURNDATASIZE ADD AND DUP3 ADD PUSH1 0x40 MSTORE RETURNDATASIZE DUP3 MSTORE RETURNDATASIZE PUSH1 0x0 PUSH1 0x20 DUP5 ADD RETURNDATACOPY PUSH2 0x182E JUMP JUMPDEST PUSH1 0x60 SWAP2 POP JUMPDEST POP POP SWAP1 POP DUP1 PUSH2 0x1875 JUMPI PUSH1 0x40 MLOAD PUSH3 0x461BCD PUSH1 0xE5 SHL DUP2 MSTORE PUSH1 0x20 PUSH1 0x4 DUP3 ADD MSTORE PUSH1 0x13 PUSH1 0x24 DUP3 ADD MSTORE PUSH19 0x115512081D1C985B9CD9995C8819985A5B1959 PUSH1 0x6A SHL PUSH1 0x44 DUP3 ADD MSTORE PUSH1 0x64 ADD PUSH2 0x37A JUMP JUMPDEST POP POP POP JUMP JUMPDEST PUSH2 0x760 DUP2 PUSH1 0x40 MLOAD PUSH1 0x24 ADD PUSH2 0x188E SWAP2 SWAP1 PUSH2 0x25F2 JUMP JUMPDEST PUSH1 0x40 DUP1 MLOAD PUSH1 0x1F NOT DUP2 DUP5 SUB ADD DUP2 MSTORE SWAP2 SWAP1 MSTORE PUSH1 0x20 DUP2 ADD DUP1 MLOAD PUSH1 0x1 PUSH1 0x1 PUSH1 0xE0 SHL SUB AND PUSH4 0x104C13EB PUSH1 0xE2 SHL OR SWAP1 MSTORE PUSH2 0x1AC3 JUMP JUMPDEST PUSH2 0x1875 DUP4 DUP4 DUP4 PUSH2 0x1ACC JUMP JUMPDEST PUSH1 0x0 PUSH2 0x18D2 PUSH2 0x1A7B JUMP JUMPDEST PUSH1 0x1 SWAP1 SSTORE POP JUMP JUMPDEST PUSH1 0x0 SWAP1 DUP2 MSTORE PUSH1 0x1 SWAP2 SWAP1 SWAP2 ADD PUSH1 0x20 MSTORE PUSH1 0x40 SWAP1 KECCAK256 SLOAD ISZERO ISZERO SWAP1 JUMP JUMPDEST PUSH1 0x0 PUSH2 0x18FD DUP4 DUP4 PUSH2 0x18D9 JUMP JUMPDEST PUSH2 0x1933 JUMPI POP DUP2 SLOAD PUSH1 0x1 DUP2 DUP2 ADD DUP5 SSTORE PUSH1 0x0 DUP5 DUP2 MSTORE PUSH1 0x20 DUP1 DUP3 KECCAK256 SWAP1 SWAP4 ADD DUP5 SWAP1 SSTORE DUP5 SLOAD DUP5 DUP3 MSTORE DUP3 DUP7 ADD SWAP1 SWAP4 MSTORE PUSH1 0x40 SWAP1 KECCAK256 SWAP2 SWAP1 SWAP2 SSTORE PUSH2 0x999 JUMP JUMPDEST POP PUSH1 0x0 PUSH2 0x999 JUMP JUMPDEST PUSH1 0x0 PUSH2 0x1990 DUP3 PUSH1 0x40 MLOAD DUP1 PUSH1 0x40 ADD PUSH1 0x40 MSTORE DUP1 PUSH1 0x20 DUP2 MSTORE PUSH1 0x20 ADD PUSH32 0x5361666545524332303A206C6F772D6C6576656C2063616C6C206661696C6564 DUP2 MSTORE POP DUP6 PUSH1 0x1 PUSH1 0x1 PUSH1 0xA0 SHL SUB AND PUSH2 0x1AEB SWAP1 SWAP3 SWAP2 SWAP1 PUSH4 0xFFFFFFFF AND JUMP JUMPDEST SWAP1 POP DUP1 MLOAD PUSH1 0x0 EQ DUP1 PUSH2 0x19B1 JUMPI POP DUP1 DUP1 PUSH1 0x20 ADD SWAP1 MLOAD DUP2 ADD SWAP1 PUSH2 0x19B1 SWAP2 SWAP1 PUSH2 0x2605 JUMP JUMPDEST PUSH2 0x1875 JUMPI PUSH1 0x40 MLOAD PUSH3 0x461BCD PUSH1 0xE5 SHL DUP2 MSTORE PUSH1 0x20 PUSH1 0x4 DUP3 ADD MSTORE PUSH1 0x2A PUSH1 0x24 DUP3 ADD MSTORE PUSH32 0x5361666545524332303A204552433230206F7065726174696F6E20646964206E PUSH1 0x44 DUP3 ADD MSTORE PUSH10 0x1BDD081CDD58D8D95959 PUSH1 0xB2 SHL PUSH1 0x64 DUP3 ADD MSTORE PUSH1 0x84 ADD PUSH2 0x37A JUMP JUMPDEST PUSH2 0x1A18 PUSH2 0x1B02 JUMP JUMPDEST PUSH2 0x5D1 JUMPI PUSH1 0x40 MLOAD PUSH4 0x1AFCD79F PUSH1 0xE3 SHL DUP2 MSTORE PUSH1 0x4 ADD PUSH1 0x40 MLOAD DUP1 SWAP2 SUB SWAP1 REVERT JUMPDEST PUSH2 0x1282 PUSH2 0x1A10 JUMP JUMPDEST PUSH2 0x18C8 PUSH2 0x1A10 JUMP JUMPDEST PUSH1 0x0 PUSH2 0x139D DUP4 DUP4 PUSH2 0x1B1C JUMP JUMPDEST PUSH1 0x0 DUP3 PUSH1 0x0 ADD DUP3 DUP2 SLOAD DUP2 LT PUSH2 0x1A68 JUMPI PUSH2 0x1A68 PUSH2 0x235D JUMP JUMPDEST SWAP1 PUSH1 0x0 MSTORE PUSH1 0x20 PUSH1 0x0 KECCAK256 ADD SLOAD SWAP1 POP SWAP3 SWAP2 POP POP JUMP JUMPDEST PUSH32 0x9B779B17422D0DF92223018B32B4D1FA46E071723D6817E2486D003BECC55F00 SWAP1 JUMP JUMPDEST PUSH1 0x0 DUP1 PUSH1 0x0 PUSH2 0x1AAE DUP6 DUP6 PUSH2 0x1C0F JUMP JUMPDEST SWAP2 POP SWAP2 POP PUSH2 0x1ABB DUP2 PUSH2 0x1C54 JUMP JUMPDEST POP SWAP4 SWAP3 POP POP POP JUMP JUMPDEST PUSH2 0x760 DUP2 PUSH2 0x1D99 JUMP JUMPDEST PUSH2 0x1875 DUP4 PUSH4 0xA9059CBB PUSH1 0xE0 SHL DUP5 DUP5 PUSH1 0x40 MLOAD PUSH1 0x24 ADD PUSH2 0x13E4 SWAP3 SWAP2 SWAP1 PUSH2 0x2404 JUMP JUMPDEST PUSH1 0x60 PUSH2 0x1AFA DUP5 DUP5 PUSH1 0x0 DUP6 PUSH2 0x1DBA JUMP JUMPDEST SWAP5 SWAP4 POP POP POP POP JUMP JUMPDEST PUSH1 0x0 PUSH2 0x1B0C PUSH2 0x1487 JUMP JUMPDEST SLOAD PUSH1 0x1 PUSH1 0x40 SHL SWAP1 DIV PUSH1 0xFF AND SWAP2 SWAP1 POP JUMP JUMPDEST PUSH1 0x0 DUP2 DUP2 MSTORE PUSH1 0x1 DUP4 ADD PUSH1 0x20 MSTORE PUSH1 0x40 DUP2 KECCAK256 SLOAD DUP1 ISZERO PUSH2 0x1C05 JUMPI PUSH1 0x0 PUSH2 0x1B40 PUSH1 0x1 DUP4 PUSH2 0x23F1 JUMP JUMPDEST DUP6 SLOAD SWAP1 SWAP2 POP PUSH1 0x0 SWAP1 PUSH2 0x1B54 SWAP1 PUSH1 0x1 SWAP1 PUSH2 0x23F1 JUMP JUMPDEST SWAP1 POP DUP2 DUP2 EQ PUSH2 0x1BB9 JUMPI PUSH1 0x0 DUP7 PUSH1 0x0 ADD DUP3 DUP2 SLOAD DUP2 LT PUSH2 0x1B74 JUMPI PUSH2 0x1B74 PUSH2 0x235D JUMP JUMPDEST SWAP1 PUSH1 0x0 MSTORE PUSH1 0x20 PUSH1 0x0 KECCAK256 ADD SLOAD SWAP1 POP DUP1 DUP8 PUSH1 0x0 ADD DUP5 DUP2 SLOAD DUP2 LT PUSH2 0x1B97 JUMPI PUSH2 0x1B97 PUSH2 0x235D JUMP JUMPDEST PUSH1 0x0 SWAP2 DUP3 MSTORE PUSH1 0x20 DUP1 DUP4 KECCAK256 SWAP1 SWAP2 ADD SWAP3 SWAP1 SWAP3 SSTORE SWAP2 DUP3 MSTORE PUSH1 0x1 DUP9 ADD SWAP1 MSTORE PUSH1 0x40 SWAP1 KECCAK256 DUP4 SWAP1 SSTORE JUMPDEST DUP6 SLOAD DUP7 SWAP1 DUP1 PUSH2 0x1BCA JUMPI PUSH2 0x1BCA PUSH2 0x2627 JUMP JUMPDEST PUSH1 0x1 SWAP1 SUB DUP2 DUP2 SWAP1 PUSH1 0x0 MSTORE PUSH1 0x20 PUSH1 0x0 KECCAK256 ADD PUSH1 0x0 SWAP1 SSTORE SWAP1 SSTORE DUP6 PUSH1 0x1 ADD PUSH1 0x0 DUP7 DUP2 MSTORE PUSH1 0x20 ADD SWAP1 DUP2 MSTORE PUSH1 0x20 ADD PUSH1 0x0 KECCAK256 PUSH1 0x0 SWAP1 SSTORE PUSH1 0x1 SWAP4 POP POP POP POP PUSH2 0x999 JUMP JUMPDEST PUSH1 0x0 SWAP2 POP POP PUSH2 0x999 JUMP JUMPDEST PUSH1 0x0 DUP1 DUP3 MLOAD PUSH1 0x41 SUB PUSH2 0x1C45 JUMPI PUSH1 0x20 DUP4 ADD MLOAD PUSH1 0x40 DUP5 ADD MLOAD PUSH1 0x60 DUP6 ADD MLOAD PUSH1 0x0 BYTE PUSH2 0x1C39 DUP8 DUP3 DUP6 DUP6 PUSH2 0x1E95 JUMP JUMPDEST SWAP5 POP SWAP5 POP POP POP POP PUSH2 0x1C4D JUMP JUMPDEST POP PUSH1 0x0 SWAP1 POP PUSH1 0x2 JUMPDEST SWAP3 POP SWAP3 SWAP1 POP JUMP JUMPDEST PUSH1 0x0 DUP2 PUSH1 0x4 DUP2 GT ISZERO PUSH2 0x1C68 JUMPI PUSH2 0x1C68 PUSH2 0x2006 JUMP JUMPDEST SUB PUSH2 0x1C70 JUMPI POP JUMP JUMPDEST PUSH1 0x1 DUP2 PUSH1 0x4 DUP2 GT ISZERO PUSH2 0x1C84 JUMPI PUSH2 0x1C84 PUSH2 0x2006 JUMP JUMPDEST SUB PUSH2 0x1CCC JUMPI PUSH1 0x40 MLOAD PUSH3 0x461BCD PUSH1 0xE5 SHL DUP2 MSTORE PUSH1 0x20 PUSH1 0x4 DUP3 ADD MSTORE PUSH1 0x18 PUSH1 0x24 DUP3 ADD MSTORE PUSH24 0x45434453413A20696E76616C6964207369676E6174757265 PUSH1 0x40 SHL PUSH1 0x44 DUP3 ADD MSTORE PUSH1 0x64 ADD PUSH2 0x37A JUMP JUMPDEST PUSH1 0x2 DUP2 PUSH1 0x4 DUP2 GT ISZERO PUSH2 0x1CE0 JUMPI PUSH2 0x1CE0 PUSH2 0x2006 JUMP JUMPDEST SUB PUSH2 0x1D2D JUMPI PUSH1 0x40 MLOAD PUSH3 0x461BCD PUSH1 0xE5 SHL DUP2 MSTORE PUSH1 0x20 PUSH1 0x4 DUP3 ADD MSTORE PUSH1 0x1F PUSH1 0x24 DUP3 ADD MSTORE PUSH32 0x45434453413A20696E76616C6964207369676E6174757265206C656E67746800 PUSH1 0x44 DUP3 ADD MSTORE PUSH1 0x64 ADD PUSH2 0x37A JUMP JUMPDEST PUSH1 0x3 DUP2 PUSH1 0x4 DUP2 GT ISZERO PUSH2 0x1D41 JUMPI PUSH2 0x1D41 PUSH2 0x2006 JUMP JUMPDEST SUB PUSH2 0x760 JUMPI PUSH1 0x40 MLOAD PUSH3 0x461BCD PUSH1 0xE5 SHL DUP2 MSTORE PUSH1 0x20 PUSH1 0x4 DUP3 ADD MSTORE PUSH1 0x22 PUSH1 0x24 DUP3 ADD MSTORE PUSH32 0x45434453413A20696E76616C6964207369676E6174757265202773272076616C PUSH1 0x44 DUP3 ADD MSTORE PUSH2 0x7565 PUSH1 0xF0 SHL PUSH1 0x64 DUP3 ADD MSTORE PUSH1 0x84 ADD PUSH2 0x37A JUMP JUMPDEST PUSH1 0x0 PUSH11 0x636F6E736F6C652E6C6F67 SWAP1 POP PUSH1 0x0 DUP1 DUP4 MLOAD PUSH1 0x20 DUP6 ADD DUP5 GAS STATICCALL POP POP POP JUMP JUMPDEST PUSH1 0x60 DUP3 SELFBALANCE LT ISZERO PUSH2 0x1E1B JUMPI PUSH1 0x40 MLOAD PUSH3 0x461BCD PUSH1 0xE5 SHL DUP2 MSTORE PUSH1 0x20 PUSH1 0x4 DUP3 ADD MSTORE PUSH1 0x26 PUSH1 0x24 DUP3 ADD MSTORE PUSH32 0x416464726573733A20696E73756666696369656E742062616C616E636520666F PUSH1 0x44 DUP3 ADD MSTORE PUSH6 0x1C8818D85B1B PUSH1 0xD2 SHL PUSH1 0x64 DUP3 ADD MSTORE PUSH1 0x84 ADD PUSH2 0x37A JUMP JUMPDEST PUSH1 0x0 DUP1 DUP7 PUSH1 0x1 PUSH1 0x1 PUSH1 0xA0 SHL SUB AND DUP6 DUP8 PUSH1 0x40 MLOAD PUSH2 0x1E37 SWAP2 SWAP1 PUSH2 0x263D JUMP JUMPDEST PUSH1 0x0 PUSH1 0x40 MLOAD DUP1 DUP4 SUB DUP2 DUP6 DUP8 GAS CALL SWAP3 POP POP POP RETURNDATASIZE DUP1 PUSH1 0x0 DUP2 EQ PUSH2 0x1E74 JUMPI PUSH1 0x40 MLOAD SWAP2 POP PUSH1 0x1F NOT PUSH1 0x3F RETURNDATASIZE ADD AND DUP3 ADD PUSH1 0x40 MSTORE RETURNDATASIZE DUP3 MSTORE RETURNDATASIZE PUSH1 0x0 PUSH1 0x20 DUP5 ADD RETURNDATACOPY PUSH2 0x1E79 JUMP JUMPDEST PUSH1 0x60 SWAP2 POP JUMPDEST POP SWAP2 POP SWAP2 POP PUSH2 0x1E8A DUP8 DUP4 DUP4 DUP8 PUSH2 0x1F4F JUMP JUMPDEST SWAP8 SWAP7 POP POP POP POP POP POP POP JUMP JUMPDEST PUSH1 0x0 DUP1 PUSH16 0xA2A8918CA85BAFE22016D0B997E4DF60 PUSH1 0x1 PUSH1 0xFF SHL SUB DUP4 GT ISZERO PUSH2 0x1EC2 JUMPI POP PUSH1 0x0 SWAP1 POP PUSH1 0x3 PUSH2 0x1F46 JUMP JUMPDEST PUSH1 0x40 DUP1 MLOAD PUSH1 0x0 DUP1 DUP3 MSTORE PUSH1 0x20 DUP3 ADD DUP1 DUP5 MSTORE DUP10 SWAP1 MSTORE PUSH1 0xFF DUP9 AND SWAP3 DUP3 ADD SWAP3 SWAP1 SWAP3 MSTORE PUSH1 0x60 DUP2 ADD DUP7 SWAP1 MSTORE PUSH1 0x80 DUP2 ADD DUP6 SWAP1 MSTORE PUSH1 0x1 SWAP1 PUSH1 0xA0 ADD PUSH1 0x20 PUSH1 0x40 MLOAD PUSH1 0x20 DUP2 SUB SWAP1 DUP1 DUP5 SUB SWAP1 DUP6 GAS STATICCALL ISZERO DUP1 ISZERO PUSH2 0x1F16 JUMPI RETURNDATASIZE PUSH1 0x0 DUP1 RETURNDATACOPY RETURNDATASIZE PUSH1 0x0 REVERT JUMPDEST POP POP PUSH1 0x40 MLOAD PUSH1 0x1F NOT ADD MLOAD SWAP2 POP POP PUSH1 0x1 PUSH1 0x1 PUSH1 0xA0 SHL SUB DUP2 AND PUSH2 0x1F3F JUMPI PUSH1 0x0 PUSH1 0x1 SWAP3 POP SWAP3 POP POP PUSH2 0x1F46 JUMP JUMPDEST SWAP2 POP PUSH1 0x0 SWAP1 POP JUMPDEST SWAP5 POP SWAP5 SWAP3 POP POP POP JUMP JUMPDEST PUSH1 0x60 DUP4 ISZERO PUSH2 0x1FBE JUMPI DUP3 MLOAD PUSH1 0x0 SUB PUSH2 0x1FB7 JUMPI PUSH1 0x1 PUSH1 0x1 PUSH1 0xA0 SHL SUB DUP6 AND EXTCODESIZE PUSH2 0x1FB7 JUMPI PUSH1 0x40 MLOAD PUSH3 0x461BCD PUSH1 0xE5 SHL DUP2 MSTORE PUSH1 0x20 PUSH1 0x4 DUP3 ADD MSTORE PUSH1 0x1D PUSH1 0x24 DUP3 ADD MSTORE PUSH32 0x416464726573733A2063616C6C20746F206E6F6E2D636F6E7472616374000000 PUSH1 0x44 DUP3 ADD MSTORE PUSH1 0x64 ADD PUSH2 0x37A JUMP JUMPDEST POP DUP2 PUSH2 0x1AFA JUMP JUMPDEST PUSH2 0x1AFA DUP4 DUP4 DUP2 MLOAD ISZERO PUSH2 0x1FD3 JUMPI DUP2 MLOAD DUP1 DUP4 PUSH1 0x20 ADD REVERT JUMPDEST DUP1 PUSH1 0x40 MLOAD PUSH3 0x461BCD PUSH1 0xE5 SHL DUP2 MSTORE PUSH1 0x4 ADD PUSH2 0x37A SWAP2 SWAP1 PUSH2 0x25F2 JUMP JUMPDEST PUSH1 0x0 PUSH1 0x20 DUP3 DUP5 SUB SLT ISZERO PUSH2 0x1FFF JUMPI PUSH1 0x0 DUP1 REVERT JUMPDEST POP CALLDATALOAD SWAP2 SWAP1 POP JUMP JUMPDEST PUSH4 0x4E487B71 PUSH1 0xE0 SHL PUSH1 0x0 MSTORE PUSH1 0x21 PUSH1 0x4 MSTORE PUSH1 0x24 PUSH1 0x0 REVERT JUMPDEST PUSH1 0x2 DUP2 LT PUSH2 0x760 JUMPI PUSH4 0x4E487B71 PUSH1 0xE0 SHL PUSH1 0x0 MSTORE PUSH1 0x21 PUSH1 0x4 MSTORE PUSH1 0x24 PUSH1 0x0 REVERT JUMPDEST DUP7 DUP2 MSTORE PUSH1 0xC0 DUP2 ADD PUSH2 0x204A DUP8 PUSH2 0x201C JUMP JUMPDEST DUP7 PUSH1 0x20 DUP4 ADD MSTORE PUSH2 0x2059 DUP7 PUSH2 0x201C JUMP JUMPDEST PUSH1 0x40 DUP3 ADD SWAP6 SWAP1 SWAP6 MSTORE PUSH1 0x1 PUSH1 0x1 PUSH1 0xA0 SHL SUB SWAP4 DUP5 AND PUSH1 0x60 DUP3 ADD MSTORE SWAP2 SWAP1 SWAP3 AND PUSH1 0x80 DUP3 ADD MSTORE PUSH1 0xA0 ADD MSTORE SWAP3 SWAP2 POP POP JUMP JUMPDEST DUP1 CALLDATALOAD PUSH1 0x1 PUSH1 0x1 PUSH1 0xA0 SHL SUB DUP2 AND DUP2 EQ PUSH2 0x209B JUMPI PUSH1 0x0 DUP1 REVERT JUMPDEST SWAP2 SWAP1 POP JUMP JUMPDEST PUSH1 0x0 DUP1 PUSH1 0x0 PUSH1 0x60 DUP5 DUP7 SUB SLT ISZERO PUSH2 0x20B5 JUMPI PUSH1 0x0 DUP1 REVERT JUMPDEST DUP4 CALLDATALOAD PUSH1 0x2 DUP2 LT PUSH2 0x20C4 JUMPI PUSH1 0x0 DUP1 REVERT JUMPDEST SWAP3 POP PUSH2 0x20D2 PUSH1 0x20 DUP6 ADD PUSH2 0x2084 JUMP JUMPDEST SWAP2 POP PUSH1 0x40 DUP5 ADD CALLDATALOAD SWAP1 POP SWAP3 POP SWAP3 POP SWAP3 JUMP JUMPDEST PUSH1 0x1 PUSH1 0x1 PUSH1 0xA0 SHL SUB SWAP2 SWAP1 SWAP2 AND DUP2 MSTORE PUSH1 0x20 ADD SWAP1 JUMP JUMPDEST DUP2 MLOAD DUP2 MSTORE PUSH1 0x20 DUP3 ADD MLOAD PUSH1 0xC0 DUP3 ADD SWAP1 PUSH2 0x210D DUP2 PUSH2 0x201C JUMP JUMPDEST PUSH1 0x20 DUP4 ADD MSTORE PUSH1 0x40 DUP4 ADD MLOAD PUSH2 0x2120 DUP2 PUSH2 0x201C JUMP JUMPDEST DUP1 PUSH1 0x40 DUP5 ADD MSTORE POP PUSH1 0x60 DUP4 ADD MLOAD PUSH1 0x1 DUP1 PUSH1 0xA0 SHL SUB DUP1 DUP3 AND PUSH1 0x60 DUP6 ADD MSTORE DUP1 PUSH1 0x80 DUP7 ADD MLOAD AND PUSH1 0x80 DUP6 ADD MSTORE POP POP PUSH1 0xA0 DUP4 ADD MLOAD PUSH1 0xA0 DUP4 ADD MSTORE SWAP3 SWAP2 POP POP JUMP JUMPDEST PUSH1 0x0 PUSH1 0x20 DUP3 DUP5 SUB SLT ISZERO PUSH2 0x216B JUMPI PUSH1 0x0 DUP1 REVERT JUMPDEST PUSH2 0x139D DUP3 PUSH2 0x2084 JUMP JUMPDEST PUSH4 0x4E487B71 PUSH1 0xE0 SHL PUSH1 0x0 MSTORE PUSH1 0x41 PUSH1 0x4 MSTORE PUSH1 0x24 PUSH1 0x0 REVERT JUMPDEST PUSH1 0x0 DUP1 DUP4 PUSH1 0x1F DUP5 ADD SLT PUSH2 0x219C JUMPI PUSH1 0x0 DUP1 REVERT JUMPDEST POP DUP2 CALLDATALOAD PUSH1 0x1 PUSH1 0x1 PUSH1 0x40 SHL SUB DUP2 GT ISZERO PUSH2 0x21B3 JUMPI PUSH1 0x0 DUP1 REVERT JUMPDEST PUSH1 0x20 DUP4 ADD SWAP2 POP DUP4 PUSH1 0x20 DUP3 DUP6 ADD ADD GT ISZERO PUSH2 0x1C4D JUMPI PUSH1 0x0 DUP1 REVERT JUMPDEST PUSH1 0x0 DUP1 PUSH1 0x0 DUP1 PUSH1 0x0 DUP1 PUSH1 0xA0 DUP8 DUP10 SUB SLT ISZERO PUSH2 0x21E4 JUMPI PUSH1 0x0 DUP1 REVERT JUMPDEST DUP7 CALLDATALOAD SWAP6 POP PUSH1 0x20 DUP1 DUP9 ADD CALLDATALOAD PUSH1 0x1 PUSH1 0x1 PUSH1 0x40 SHL SUB DUP1 DUP3 GT ISZERO PUSH2 0x2203 JUMPI PUSH1 0x0 DUP1 REVERT JUMPDEST DUP2 DUP11 ADD SWAP2 POP DUP11 PUSH1 0x1F DUP4 ADD SLT PUSH2 0x2217 JUMPI PUSH1 0x0 DUP1 REVERT JUMPDEST DUP2 CALLDATALOAD DUP2 DUP2 GT ISZERO PUSH2 0x2229 JUMPI PUSH2 0x2229 PUSH2 0x2174 JUMP JUMPDEST DUP1 PUSH1 0x5 SHL PUSH1 0x40 MLOAD PUSH1 0x1F NOT PUSH1 0x3F DUP4 ADD AND DUP2 ADD DUP2 DUP2 LT DUP6 DUP3 GT OR ISZERO PUSH2 0x224E JUMPI PUSH2 0x224E PUSH2 0x2174 JUMP JUMPDEST PUSH1 0x40 MSTORE SWAP2 DUP3 MSTORE DUP4 DUP2 ADD DUP6 ADD SWAP2 DUP6 DUP2 ADD DUP15 DUP5 GT ISZERO PUSH2 0x226A JUMPI PUSH1 0x0 DUP1 REVERT JUMPDEST SWAP5 DUP7 ADD SWAP5 JUMPDEST DUP4 DUP7 LT ISZERO PUSH2 0x2286 JUMPI DUP6 CALLDATALOAD DUP2 MSTORE SWAP5 DUP7 ADD SWAP5 DUP7 ADD PUSH2 0x226F JUMP JUMPDEST POP SWAP10 POP POP POP PUSH1 0x40 DUP11 ADD CALLDATALOAD SWAP7 POP PUSH2 0x229E PUSH1 0x60 DUP12 ADD PUSH2 0x2084 JUMP JUMPDEST SWAP6 POP PUSH1 0x80 DUP11 ADD CALLDATALOAD SWAP3 POP DUP1 DUP4 GT ISZERO PUSH2 0x22B4 JUMPI PUSH1 0x0 DUP1 REVERT JUMPDEST POP POP PUSH2 0x22C2 DUP10 DUP3 DUP11 ADD PUSH2 0x218A JUMP JUMPDEST SWAP8 SWAP11 SWAP7 SWAP10 POP SWAP5 SWAP8 POP SWAP3 SWAP6 SWAP4 SWAP5 SWAP3 POP POP POP JUMP JUMPDEST PUSH1 0x0 DUP1 PUSH1 0x40 DUP4 DUP6 SUB SLT ISZERO PUSH2 0x22E7 JUMPI PUSH1 0x0 DUP1 REVERT JUMPDEST POP POP DUP1 CALLDATALOAD SWAP3 PUSH1 0x20 SWAP1 SWAP2 ADD CALLDATALOAD SWAP2 POP JUMP JUMPDEST PUSH1 0x80 DUP2 ADD PUSH2 0x2303 DUP7 PUSH2 0x201C JUMP JUMPDEST DUP6 DUP3 MSTORE PUSH2 0x230F DUP6 PUSH2 0x201C JUMP JUMPDEST PUSH1 0x20 DUP3 ADD SWAP5 SWAP1 SWAP5 MSTORE PUSH1 0x1 PUSH1 0x1 PUSH1 0xA0 SHL SUB SWAP3 SWAP1 SWAP3 AND PUSH1 0x40 DUP4 ADD MSTORE PUSH1 0x60 SWAP1 SWAP2 ADD MSTORE SWAP2 SWAP1 POP JUMP JUMPDEST PUSH1 0x20 DUP1 DUP3 MSTORE PUSH1 0x10 SWAP1 DUP3 ADD MSTORE PUSH16 0x109BDE081251081B9BDD08199BDD5B99 PUSH1 0x82 SHL PUSH1 0x40 DUP3 ADD MSTORE PUSH1 0x60 ADD SWAP1 JUMP JUMPDEST PUSH4 0x4E487B71 PUSH1 0xE0 SHL PUSH1 0x0 MSTORE PUSH1 0x32 PUSH1 0x4 MSTORE PUSH1 0x24 PUSH1 0x0 REVERT JUMPDEST PUSH4 0x4E487B71 PUSH1 0xE0 SHL PUSH1 0x0 MSTORE PUSH1 0x12 PUSH1 0x4 MSTORE PUSH1 0x24 PUSH1 0x0 REVERT JUMPDEST PUSH1 0x0 DUP3 PUSH2 0x2398 JUMPI PUSH2 0x2398 PUSH2 0x2373 JUMP JUMPDEST POP MOD SWAP1 JUMP JUMPDEST PUSH4 0x4E487B71 PUSH1 0xE0 SHL PUSH1 0x0 MSTORE PUSH1 0x11 PUSH1 0x4 MSTORE PUSH1 0x24 PUSH1 0x0 REVERT JUMPDEST DUP1 DUP3 ADD DUP1 DUP3 GT ISZERO PUSH2 0x999 JUMPI PUSH2 0x999 PUSH2 0x239D JUMP JUMPDEST DUP1 DUP3 MUL DUP2 ISZERO DUP3 DUP3 DIV DUP5 EQ OR PUSH2 0x999 JUMPI PUSH2 0x999 PUSH2 0x239D JUMP JUMPDEST PUSH1 0x0 DUP3 PUSH2 0x23EC JUMPI PUSH2 0x23EC PUSH2 0x2373 JUMP JUMPDEST POP DIV SWAP1 JUMP JUMPDEST DUP2 DUP2 SUB DUP2 DUP2 GT ISZERO PUSH2 0x999 JUMPI PUSH2 0x999 PUSH2 0x239D JUMP JUMPDEST PUSH1 0x1 PUSH1 0x1 PUSH1 0xA0 SHL SUB SWAP3 SWAP1 SWAP3 AND DUP3 MSTORE PUSH1 0x20 DUP3 ADD MSTORE PUSH1 0x40 ADD SWAP1 JUMP JUMPDEST PUSH1 0x20 DUP1 DUP3 MSTORE DUP3 MLOAD DUP3 DUP3 ADD DUP2 SWAP1 MSTORE PUSH1 0x0 SWAP2 SWAP1 DUP5 DUP3 ADD SWAP1 PUSH1 0x40 DUP6 ADD SWAP1 DUP5 JUMPDEST DUP2 DUP2 LT ISZERO PUSH2 0x2455 JUMPI DUP4 MLOAD DUP4 MSTORE SWAP3 DUP5 ADD SWAP3 SWAP2 DUP5 ADD SWAP2 PUSH1 0x1 ADD PUSH2 0x2439 JUMP JUMPDEST POP SWAP1 SWAP7 SWAP6 POP POP POP POP POP POP JUMP JUMPDEST PUSH1 0x60 SWAP4 SWAP1 SWAP4 SHL PUSH1 0x1 PUSH1 0x1 PUSH1 0x60 SHL SUB NOT AND DUP4 MSTORE PUSH1 0x14 DUP4 ADD SWAP2 SWAP1 SWAP2 MSTORE PUSH1 0x34 DUP3 ADD MSTORE PUSH1 0x54 ADD SWAP1 JUMP JUMPDEST PUSH1 0x0 PUSH1 0x1 DUP3 ADD PUSH2 0x2498 JUMPI PUSH2 0x2498 PUSH2 0x239D JUMP JUMPDEST POP PUSH1 0x1 ADD SWAP1 JUMP JUMPDEST DUP5 DUP2 MSTORE PUSH1 0x0 PUSH1 0x20 DUP1 DUP4 ADD DUP7 MLOAD DUP3 DUP9 ADD PUSH1 0x0 JUMPDEST DUP3 DUP2 LT ISZERO PUSH2 0x24CD JUMPI DUP2 MLOAD DUP5 MSTORE SWAP3 DUP5 ADD SWAP3 SWAP1 DUP5 ADD SWAP1 PUSH1 0x1 ADD PUSH2 0x24B1 JUMP JUMPDEST POP POP POP SWAP5 DUP6 MSTORE PUSH1 0x60 SWAP4 SWAP1 SWAP4 SHL PUSH1 0x1 PUSH1 0x1 PUSH1 0x60 SHL SUB NOT AND SWAP3 DUP5 ADD SWAP3 SWAP1 SWAP3 MSTORE POP POP PUSH1 0x34 ADD SWAP3 SWAP2 POP POP JUMP JUMPDEST PUSH1 0x0 JUMPDEST DUP4 DUP2 LT ISZERO PUSH2 0x2510 JUMPI DUP2 DUP2 ADD MLOAD DUP4 DUP3 ADD MSTORE PUSH1 0x20 ADD PUSH2 0x24F8 JUMP JUMPDEST POP POP PUSH1 0x0 SWAP2 ADD MSTORE JUMP JUMPDEST PUSH1 0x0 DUP2 MLOAD DUP1 DUP5 MSTORE PUSH2 0x2531 DUP2 PUSH1 0x20 DUP7 ADD PUSH1 0x20 DUP7 ADD PUSH2 0x24F5 JUMP JUMPDEST PUSH1 0x1F ADD PUSH1 0x1F NOT AND SWAP3 SWAP1 SWAP3 ADD PUSH1 0x20 ADD SWAP3 SWAP2 POP POP JUMP JUMPDEST PUSH1 0x40 DUP2 MSTORE PUSH1 0x0 PUSH2 0x2558 PUSH1 0x40 DUP4 ADD DUP6 PUSH2 0x2519 JUMP JUMPDEST SWAP1 POP DUP3 PUSH1 0x20 DUP4 ADD MSTORE SWAP4 SWAP3 POP POP POP JUMP JUMPDEST PUSH1 0x40 DUP2 MSTORE PUSH1 0x0 PUSH2 0x257A PUSH1 0x40 DUP4 ADD DUP6 PUSH2 0x2519 JUMP JUMPDEST SWAP1 POP PUSH1 0x1 DUP1 PUSH1 0xA0 SHL SUB DUP4 AND PUSH1 0x20 DUP4 ADD MSTORE SWAP4 SWAP3 POP POP POP JUMP JUMPDEST PUSH1 0x40 DUP2 MSTORE PUSH1 0x0 PUSH2 0x25A4 PUSH1 0x40 DUP4 ADD DUP6 PUSH2 0x2519 JUMP JUMPDEST SWAP1 POP DUP3 ISZERO ISZERO PUSH1 0x20 DUP4 ADD MSTORE SWAP4 SWAP3 POP POP POP JUMP JUMPDEST PUSH1 0x80 DUP2 MSTORE PUSH1 0x0 PUSH2 0x25C8 PUSH1 0x80 DUP4 ADD DUP8 PUSH2 0x2519 JUMP JUMPDEST DUP6 PUSH1 0x20 DUP5 ADD MSTORE DUP3 DUP2 SUB PUSH1 0x40 DUP5 ADD MSTORE PUSH2 0x25E0 DUP2 DUP7 PUSH2 0x2519 JUMP JUMPDEST SWAP2 POP POP DUP3 PUSH1 0x60 DUP4 ADD MSTORE SWAP6 SWAP5 POP POP POP POP POP JUMP JUMPDEST PUSH1 0x20 DUP2 MSTORE PUSH1 0x0 PUSH2 0x139D PUSH1 0x20 DUP4 ADD DUP5 PUSH2 0x2519 JUMP JUMPDEST PUSH1 0x0 PUSH1 0x20 DUP3 DUP5 SUB SLT ISZERO PUSH2 0x2617 JUMPI PUSH1 0x0 DUP1 REVERT JUMPDEST DUP2 MLOAD DUP1 ISZERO ISZERO DUP2 EQ PUSH2 0x139D JUMPI PUSH1 0x0 DUP1 REVERT JUMPDEST PUSH4 0x4E487B71 PUSH1 0xE0 SHL PUSH1 0x0 MSTORE PUSH1 0x31 PUSH1 0x4 MSTORE PUSH1 0x24 PUSH1 0x0 REVERT JUMPDEST PUSH1 0x0 DUP3 MLOAD PUSH2 0x264F DUP2 DUP5 PUSH1 0x20 DUP8 ADD PUSH2 0x24F5 JUMP JUMPDEST SWAP2 SWAP1 SWAP2 ADD SWAP3 SWAP2 POP POP JUMP INVALID LOG2 PUSH5 0x6970667358 0x22 SLT KECCAK256 STOP 0xE0 0x4E 0xF8 0xB5 EXTCODECOPY 0xC 0xEF PUSH16 0x324FF9C477A05C0AF14875CE24EED73F CREATE 0xEE BALANCE PUSH1 0xAE PUSH25 0x6964736F6C6343000814003300000000000000000000000000 "},"methodIdentifiers":{"boxes(bytes32)":"0589c970","createBox(uint8,address,uint256)":"49f76998","deleteBox(bytes32)":"a46e717e","fulfillRandomWords(bytes32,uint256[],bytes32,address,bytes)":"cf611c45","getBox(bytes32)":"a55f0565","getBoxIdAt(uint256)":"c4018427","initialize()":"8129fc1c","oracle()":"7dc0d1d0","owner()":"8da5cb5b","pendingRequests(bytes32)":"2795ad20","renounceOwnership()":"715018a6","requestRandomWords(uint256,bytes32)":"ef31d20e","setTrustedOracle(address)":"b22bd298","totalBoxes()":"57e78adc","transferOwnership(address)":"f2fde38b"}},"storageLayout":{"storage":[{"astId":3666,"contract":"contracts/LootBox.sol:LootBox","label":"oracle","offset":0,"slot":"0","type":"t_address"},{"astId":3668,"contract":"contracts/LootBox.sol:LootBox","label":"randNumber","offset":0,"slot":"1","type":"t_uint256"},{"astId":3670,"contract":"contracts/LootBox.sol:LootBox","label":"nonce","offset":0,"slot":"2","type":"t_uint256"},{"astId":3695,"contract":"contracts/LootBox.sol:LootBox","label":"pendingRequests","offset":0,"slot":"3","type":"t_mapping(t_bytes32,t_bool)"},{"astId":3700,"contract":"contracts/LootBox.sol:LootBox","label":"boxes","offset":0,"slot":"4","type":"t_mapping(t_bytes32,t_struct(Box)3691_storage)"},{"astId":3703,"contract":"contracts/LootBox.sol:LootBox","label":"boxIds","offset":0,"slot":"5","type":"t_struct(Bytes32Set)3228_storage"}],"types":{"t_address":{"encoding":"inplace","label":"address","numberOfBytes":"20"},"t_array(t_bytes32)dyn_storage":{"base":"t_bytes32","encoding":"dynamic_array","label":"bytes32[]","numberOfBytes":"32"},"t_bool":{"encoding":"inplace","label":"bool","numberOfBytes":"1"},"t_bytes32":{"encoding":"inplace","label":"bytes32","numberOfBytes":"32"},"t_enum(BoxStatus)3676":{"encoding":"inplace","label":"enum LootBox.BoxStatus","numberOfBytes":"1"},"t_enum(BoxType)3673":{"encoding":"inplace","label":"enum LootBox.BoxType","numberOfBytes":"1"},"t_mapping(t_bytes32,t_bool)":{"encoding":"mapping","key":"t_bytes32","label":"mapping(bytes32 => bool)","numberOfBytes":"32","value":"t_bool"},"t_mapping(t_bytes32,t_struct(Box)3691_storage)":{"encoding":"mapping","key":"t_bytes32","label":"mapping(bytes32 => struct LootBox.Box)","numberOfBytes":"32","value":"t_struct(Box)3691_storage"},"t_mapping(t_bytes32,t_uint256)":{"encoding":"mapping","key":"t_bytes32","label":"mapping(bytes32 => uint256)","numberOfBytes":"32","value":"t_uint256"},"t_struct(Box)3691_storage":{"encoding":"inplace","label":"struct LootBox.Box","members":[{"astId":3678,"contract":"contracts/LootBox.sol:LootBox","label":"id","offset":0,"slot":"0","type":"t_bytes32"},{"astId":3681,"contract":"contracts/LootBox.sol:LootBox","label":"boxType","offset":0,"slot":"1","type":"t_enum(BoxType)3673"},{"astId":3684,"contract":"contracts/LootBox.sol:LootBox","label":"status","offset":1,"slot":"1","type":"t_enum(BoxStatus)3676"},{"astId":3686,"contract":"contracts/LootBox.sol:LootBox","label":"owner","offset":2,"slot":"1","type":"t_address"},{"astId":3688,"contract":"contracts/LootBox.sol:LootBox","label":"prizeToken","offset":0,"slot":"2","type":"t_address"},{"astId":3690,"contract":"contracts/LootBox.sol:LootBox","label":"prizeAmount","offset":0,"slot":"3","type":"t_uint256"}],"numberOfBytes":"128"},"t_struct(Bytes32Set)3228_storage":{"encoding":"inplace","label":"struct EnumerableSet.Bytes32Set","members":[{"astId":3227,"contract":"contracts/LootBox.sol:LootBox","label":"_inner","offset":0,"slot":"0","type":"t_struct(Set)3034_storage"}],"numberOfBytes":"64"},"t_struct(Set)3034_storage":{"encoding":"inplace","label":"struct EnumerableSet.Set","members":[{"astId":3029,"contract":"contracts/LootBox.sol:LootBox","label":"_values","offset":0,"slot":"0","type":"t_array(t_bytes32)dyn_storage"},{"astId":3033,"contract":"contracts/LootBox.sol:LootBox","label":"_indexes","offset":0,"slot":"1","type":"t_mapping(t_bytes32,t_uint256)"}],"numberOfBytes":"64"},"t_uint256":{"encoding":"inplace","label":"uint256","numberOfBytes":"32"}}}}}}